:020000040800F2
:1000000000800020F5580008195000081D50000815
:100010002150000825500008295000080000000069
:100020000000000000000000000000002D5000084B
:100030003150000800000000355000083950000819
:100040004559000845590008455900084559000818
:100050004559000845590008455900084559000808
:1000600045590008455900084559000845590008F8
:1000700045590008455900084559000845590008E8
:1000800045590008000000003D500008455900088F
:1000900045590008455900084559000845590008C8
:1000A0005950000865500008715000087D50000844
:1000B0008950000845590008955000084559000826
:1000C0004559000845590008455900084559000898
:1000D0004559000845590008A15000084559000835
:1000E0004559000845590008455900084559000878
:1000F000455900084559000845590008000000000E
:1001000000000000455900080000000045590008A3
:1001100045590008000000004559000845590008ED
:100120004559000845590008455900084559000837
:100130004559000800000000000000004559000873
:100140004559000845590008000000000000000063
:10015000000000000000000000000000000000009F
:1001600000000000000000000000000045590008E9
:1001700045590008000000000000000000000000D9
:1001800000000000455900080000000000000000C9
:10019000000000000000000000000000000000005F
:1001A0000000000000000000455900084559000803
:1001B000455900084559000845590008000000004D
:1001C0000000000045590008000000000000000089
:0801D0004559000845590008DB
:1001E00010B5054C237833B9044B13B10448AFF371
:1001F00000800123237010BDF801002000000000E2
:1002000080EA000808B5034B1BB103490348AFF36C
:10021000008008BD00000000FC01002080EA00080A
:1002200010F8012B11F8013B012A28BF9A42F7D0A0
:10023000D01A70470000000000000000000000001D
:1002400001F0FF01102A2BDB10F0070F08D010F887
:10025000013B013A8B422DD010F0070F42B3F6D18B
:10026000F0B441EA012141EA014122F007047FF0A4
:1002700000070023F0E80256083C85EA010586EAFB
:10028000010685FA47F5A3FA87F586FA47F6A5FA37
:1002900087F68EB9EED1F0BC01F0FF0102F0070243
:1002A00032B110F8013B013A83EA010313B1F8D1EE
:1002B0000020704701387047002D06BF35460338CF
:1002C000073815F0010F07D1013015F4807F02BF08
:1002D000013015F4C03F0130F0BC0138704700BF59
:1002E000034613F8012B002AFBD1181A0138704776
:1002F00081F0004102E000BF83F0004330B54FEAD7
:1003000041044FEA430594EA050F08BF90EA020F43
:100310001FBF54EA000C55EA020C7FEA645C7FEAD6
:10032000655C00F0E2804FEA5454D4EB5555B8BFF9
:100330006D420CDD2C4480EA020281EA030382EA6A
:10034000000083EA010180EA020281EA0303362DFC
:1003500088BF30BD11F0004F4FEA01314FF4801CCF
:100360004CEA113102D0404261EB410113F0004FE1
:100370004FEA03334CEA133302D0524263EB430398
:1003800094EA050F00F0A780A4F10104D5F1200E36
:100390000DDB02FA0EFC22FA05F2801841F1000191
:1003A00003FA0EF2801843FA05F359410EE0A5F165
:1003B00020050EF1200E012A03FA0EFC28BF4CF096
:1003C000020C43FA05F3C01851EBE37101F000454C
:1003D00007D54FF0000EDCF1000C7EEB00006EEB59
:1003E0000101B1F5801F1BD3B1F5001F0CD34908E3
:1003F0005FEA30004FEA3C0C04F101044FEA44523A
:1004000012F5800F80F09A80BCF1004F08BF5FEAC0
:10041000500C50F1000041EB045141EA050130BDA0
:100420005FEA4C0C404141EB0101013C28BFB1F5B2
:10043000801FE9D291F0000F04BF01460020B1FAFD
:1004400081F308BF2033A3F10B03B3F120020CDAD0
:100450000C3208DD02F1140CC2F10C0201FA0CF0AE
:1004600021FA02F10CE002F11402D8BFC2F1200C13
:1004700001FA02F120FA0CFCDCBF41EA0C019040C9
:10048000E41AA2BF01EB0451294330BD6FEA040412
:100490001F3C1CDA0C340EDC04F11404C4F12002FD
:1004A00020FA04F001FA02F340EA030021FA04F30F
:1004B00045EA030130BDC4F10C04C4F1200220FA66
:1004C00002F001FA04F340EA0300294630BD21FAA4
:1004D00004F0294630BD94F0000F83F4801306BF6A
:1004E00081F480110134013D4EE77FEA645C18BF5E
:1004F0007FEA655C29D094EA050F08BF90EA020FF5
:1005000005D054EA000C04BF1946104630BD91EAEC
:10051000030F1EBF0021002030BD5FEA545C05D1EF
:100520004000494128BF41F0004130BD14F580042E
:100530003CBF01F5801130BD01F0004545F0FE41A2
:1005400041F470014FF0000030BD7FEA645C1ABFD7
:10055000194610467FEA655C1CBF0B46024650EA0E
:10056000013406BF52EA033591EA030F41F400213A
:1005700030BD00BF90F0000F04BF0021704730B5C0
:100580004FF4806404F132044FF000054FF0000195
:1005900050E700BF90F0000F04BF0021704730B556
:1005A0004FF4806404F1320410F0004548BF40422B
:1005B0004FF000013EE700BF42004FEAE2014FEA80
:1005C00031014FEA02701FBF12F07F4393F07F4F5B
:1005D00081F06051704732F07F4208BF704793F05E
:1005E0007F4F04BF41F40021704730B54FF4607471
:1005F00001F0004521F000411CE700BF50EA010274
:1006000008BF704730B54FF000050AE050EA01021C
:1006100008BF704730B511F0004502D5404261EB8C
:1006200041014FF4806404F132045FEA915C3FF4CD
:10063000D8AE4FF003025FEADC0C18BF03325FEA6A
:10064000DC0C18BF033202EBDC02C2F1200300FA1B
:1006500003FC20FA02F001FA03FE40EA0E0021FA40
:1006600002F11444BDE600BF70B54FF0FF0C4CF42E
:10067000E06C1CEA11541DBF1CEA135594EA0C0FE0
:1006800095EA0C0F00F0DEF82C4481EA030621EA1B
:100690004C5123EA4C5350EA013518BF52EA033556
:1006A00041F4801143F4801338D0A0FB02CE4FF008
:1006B0000005E1FB02E506F00042E0FB03E54FF038
:1006C0000006E1FB03569CF0000F18BF4EF0010E30
:1006D000A4F1FF04B6F5007F64F5407404D25FEA2C
:1006E0004E0E6D4146EB060642EAC62141EA5551DF
:1006F0004FEAC52040EA5E504FEACE2EB4F1FD0C21
:1007000088BFBCF5E06F1ED8BEF1004F08BF5FEA9E
:10071000500E50F1000041EB045170BD06F0004650
:1007200046EA010140EA020081EA0301B4EB5C04FD
:10073000C2BFD4EB0C0541EA045170BD41F48011F5
:100740004FF0000E013C00F3AB8014F1360FDEBF1A
:10075000002001F0004170BDC4F10004203C35DAF6
:100760000C341BDC04F11404C4F1200500FA05F379
:1007700020FA04F001FA05F240EA020001F000421A
:1007800021F0004110EBD37021FA04F642EB060190
:100790005EEA430E08BF20EAD37070BDC4F10C04BA
:1007A000C4F1200500FA04F320FA05F001FA04F27E
:1007B00040EA020001F0004110EBD37041F100016A
:1007C0005EEA430E08BF20EAD37070BDC4F1200575
:1007D00000FA05F24EEA020E20FA04F301FA05F2DD
:1007E00043EA020321FA04F001F0004121FA04F285
:1007F00020EA020000EBD3705EEA430E08BF20EA55
:10080000D37070BD94F0000F0FD101F0004640008E
:1008100041EB010111F4801F08BF013CF7D041EA10
:10082000060195F0000F18BF704703F00046520014
:1008300043EB030313F4801F08BF013DF7D043EAE5
:100840000603704794EA0C0F0CEA135518BF95EA9B
:100850000C0F0CD050EA410618BF52EA4306D1D122
:1008600081EA030101F000414FF0000070BD50EA41
:10087000410606BF1046194652EA430619D094EACB
:100880000C0F02D150EA013613D195EA0C0F05D1B5
:1008900052EA03361CBF104619460AD181EA030109
:1008A00001F0004141F0FE4141F470014FF00000C1
:1008B00070BD41F0FE4141F4780170BD70B54FF05C
:1008C000FF0C4CF4E06C1CEA11541DBF1CEA1355DC
:1008D00094EA0C0F95EA0C0F00F0A7F8A4EB0504BE
:1008E00081EA030E52EA03354FEA013100F08880B5
:1008F0004FEA03334FF0805545EA131343EA12637E
:100900004FEA022245EA111545EA10654FEA002632
:100910000EF000419D4208BF964244F1FD0404F5EB
:10092000407402D25B084FEA3202B61A65EB030547
:100930005B084FEA32024FF480104FF4002CB6EB04
:10094000020E75EB030E22BFB61A754640EA0C0084
:100950005B084FEA3202B6EB020E75EB030E22BFC4
:10096000B61A754640EA5C005B084FEA3202B6EB05
:10097000020E75EB030E22BFB61A754640EA9C00C4
:100980005B084FEA3202B6EB020E75EB030E22BF94
:10099000B61A754640EADC0055EA060E18D04FEA52
:1009A000051545EA16754FEA06164FEAC30343EAF2
:1009B00052734FEAC2025FEA1C1CC0D111F4801FBF
:1009C0000BD141EA00014FF000004FF0004CB6E7B8
:1009D00011F4801F04BF01430020B4F1FD0C88BF57
:1009E000BCF5E06F3FF6AFAEB5EB030C04BFB6EB62
:1009F000020C5FEA500C50F1000041EB045170BD55
:100A00000EF0004E4EEA113114EB5C04C2BFD4EB81
:100A10000C0541EA045170BD41F480114FF0000E05
:100A2000013C90E645EA060E8DE60CEA135594EA81
:100A30000C0F08BF95EA0C0F3FF43BAF94EA0C0F84
:100A40000AD150EA01347FF434AF95EA0C0F7FF4F9
:100A500025AF104619462CE795EA0C0F06D152EA4D
:100A600003353FF4FDAE1046194622E750EA410631
:100A700018BF52EA43067FF4C5AE50EA41047FF442
:100A80000DAF52EA43057FF4EBAE12E74FF0FF3CA7
:100A900006E000BF4FF0010C02E000BF4FF0010C78
:100AA0004DF804CD4FEA410C7FEA6C5C4FEA430CF1
:100AB00018BF7FEA6C5C1BD001B050EA410C0CBF40
:100AC00052EA430C91EA030F02BF90EA020F0020A2
:100AD000704710F1000F91EA030F58BF994208BF09
:100AE00090422CBFD8176FEAE37040F001007047C6
:100AF0004FEA410C7FEA6C5C02D150EA013C07D11D
:100B00004FEA430C7FEA6C5CD6D152EA033CD3D067
:100B10005DF8040B704700BF8446104662468C4661
:100B20001946634600E000BF01B5FFF7B7FF002894
:100B300048BF10F1000F01BD4DF808EDFFF7F4FFBD
:100B40000CBF012000205DF808FB00BF4DF808ED48
:100B5000FFF7EAFF34BF012000205DF808FB00BF6B
:100B60004DF808EDFFF7E0FF94BF012000205DF88D
:100B700008FB00BF4DF808EDFFF7CEFF94BF012042
:100B800000205DF808FB00BF4DF808EDFFF7C4FF3B
:100B900034BF012000205DF808FB00BF4FEA410C84
:100BA0007FEA6C5C02D150EA013C0AD14FEA430C67
:100BB0007FEA6C5C02D152EA033C02D14FF00000A4
:100BC00070474FF0010070474FEA410212F50012E2
:100BD00015D211D56FF47873B3EB625212D94FEA84
:100BE000C12343F0004343EA505311F0004F23FA6E
:100BF00002F018BF404270474FF00000704750EAC3
:100C0000013005D111F0004008BF6FF0004070477F
:100C10004FF00000704700BF4A0011D212F50012D9
:100C200011D20DD56FF47873B3EB62520ED44FEA44
:100C3000C12343F0004343EA505323FA02F07047C4
:100C40004FF00000704750EA013002D14FF0FF3002
:100C500070474FF0000070474FEA4102B2F1E043A5
:100C600024BFB3F5001CDCF1FE5C0DD901F0004C93
:100C70004FEAC0024CEA5070B2F1004F40EB8300E3
:100C800008BF20F00100704711F0804F21D113F10F
:100C90003872BCBF01F00040704741F480114FEA48
:100CA0005252C2F11802C2F1200C10FA0CF320FAD1
:100CB00002F018BF40F001004FEAC1234FEAD323EE
:100CC00003FA0CFC40EA0C0023FA02F34FEA430358
:100CD000CCE77FEA625307D150EA01331EBF4FF0E1
:100CE000FE4040F44000704701F0004040F0FE40FC
:100CF00040F40000704700BF53B94AB9002908BF4B
:100D000000281CBF4FF0FF314FF0FF3000F0BEB99C
:100D1000ADF1080C6DE904CE00F03CF8DDF804E01C
:100D2000DDE9022304B0704738B5002200230446F1
:100D30000D46FFF70BFF28B920462946BDE838408D
:100D400000F00AB8204605F1004100F005F84042E5
:100D500061EB410138BD00BFD0B50C4B0022064607
:100D60000F46FFF781FCFFF757FF0446FFF702FC31
:100D7000074B0022FFF778FC02460B463046394607
:100D8000FFF7BAFAFFF748FF2146D0BD0000F03D5B
:100D90000000F0412DE9F047089D8E460446884644
:100DA000002B4AD18A42174662D9B2FA82F64EB176
:100DB000C6F1200301FA06F820FA03F3B74043EA2C
:100DC0000808B4404FEA174E1FFA87FCB8FBFEF143
:100DD000230C0EFB118843EA084301FB0CF29A42F4
:100DE00009D9FB1801F1FF3080F0EA809A4240F205
:100DF000E78002393B449A1AA3B2B2FBFEF00EFB25
:100E0000102243EA024300FB0CFC9C4509D9FB1865
:100E100000F1FF3280F0D6809C4540F2D3803B4405
:100E2000023840EA0140A3EB0C0300211DB1F3405E
:100E30000022C5E90032BDE8F0878B4205D90DB12B
:100E4000C5E9000100210846F5E7B3FA83F100295E
:100E500046D1734502D3824200F20581841A6EEBBB
:100E6000030201209046002DE5D0C5E90048E2E7E5
:100E7000002A00F09080B2FA82F6002E40F0A480A2
:100E80008A1A030C4FEA174E80B2BCB20121B2FBA2
:100E9000FEFC0EFB1C2243EA024304FB0CF29A42C6
:100EA00007D9FB180CF1FF3802D29A4200F2E08019
:100EB000C4469B1AB3FBFEF20EFB123340EA034317
:100EC00002FB04F49C4207D9FB1802F1FF3002D266
:100ED0009C4200F2CA8002461B1B42EA0C40A5E776
:100EE000C1F120068B4022FA06F71F430EFA01F4E7
:100EF00020FA06F32EFA06FE4FEA1749234300FABA
:100F000001F81FFA87FCBEFBF9F01C0C09FB10EE80
:100F100044EA0E4400FB0CFEA64502FA01F209D990
:100F20003C1900F1FF3A80F09C80A64540F2998080
:100F300002383C44A4EB0E041FFA83FEB4FBF9F321
:100F400009FB13444EEA044403FB0CFCA44508D9F6
:100F50003C1903F1FF3E80F08280A4457FD9023B1B
:100F60003C4443EA0040A4EB0C04A0FB02EC6445C3
:100F70007346E14662D35FD05DB1B8EB030264EB28
:100F8000090404FA06F622FA01F31E43CC40C5E92F
:100F9000006400214FE7B1FBF2FC010C41EA0E4175
:100FA00080B240EA01423B4638463C46B846BE461F
:100FB0002026B1FBF7F1A2EB080241EA0C4166E7FB
:100FC000014618E710462CE7C6F120022EFA02F37C
:100FD000B740B14020FA02F24FEA174E0A43B3FB82
:100FE000FEF8BCB20EFB1833110C41EA034108FBBA
:100FF00004F9B04089454FEA104380B23ED97918D0
:1010000008F1FF3C01D289451FD8A1EB0901B1FBD2
:10101000FEF909FB04F80EFB191192B242EA0142F3
:10102000424529D2BA1809F1FF31C4D24245C2D291
:10103000A9F102013A44BEE7F0459DD2BEEB02039E
:101040006CEB070C0138E14696E7A7EB0909494428
:10105000A8F1020CB1FBFEF909FB04F8DBE77346CB
:101060007FE7504666E70846FDE63B44023A33E731
:10107000ACF1020C3B441CE749469CE7A1EB09019B
:10108000C446B1FBFEF909FB04F8C4E7704700BF92
:1010900010B500249AB03C2221460BA8CDE90044AB
:1010A00002940AF02AFF2022214603A80AF025FF15
:1010B00030484FF0A0430360042383610123C0E95B
:1010C0000144C0E90344C0E90B444461848380F8CF
:1010D000244080F83840C46380F84040036204F044
:1010E0007BFC002839D10023012222480092694666
:1010F000CDE9013305F012FE002838D11E4809223F
:101100000023CDE90B027F200422CDE90D300F92A0
:1011100001208422139015921648109380220BA967
:10112000ADF850308DF8523016928DF85C3005F0E5
:10113000F7FAC8B9114A06237F200724CDE9032313
:10114000CDE90540042200230A4803A9CDE907237D
:1011500004F060FE20B91AB010BD01F051FCC2E7E6
:1011600001F04EFC1AB010BD01F04AFCE2E701F0BC
:1011700047FCC3E7840200200800900C0200300402
:1011800010B590B03C22002101A80AF0B6FE1C4820
:101190001C490422002382610122C0E90013C0E936
:1011A0000233C0E904338383026280F8243080F87C
:1011B0003830C36380F8403004F00EFCC8B91248E0
:1011C0000922CDE90102042000237F240122059099
:1011D00001A90B480693CDE903340992ADF82830F4
:1011E0008DF82A308DF8343005F09AFA20B910B015
:1011F00010BD01F005FCE2E701F002FC10B010BDEB
:1012000018020020000100500800900C00000000AF
:1012100010B504469AB00021442209A8CDE9041172
:10122000CDE9061108910AF068FE2368B3F1A04FDA
:1012300004D03D4A93423BD01AB010BD4FF4004257
:101240004FF0805309A80992189306F015FF002863
:101250005BD1364A13680133012B136009D1344B3B
:10126000DA6C42F40052DA64DB6C03F4005300934E
:10127000009B2F4BDA6C42F00102DA64DB6C9FEDCD
:10128000267B03F0010301938DED047B019B04A9F0
:1012900000244FF09040069406F06CF8224604219A
:1012A000122005F0B1FD122005F0EAFD1AB010BDC4
:1012B0004FF400424FF0805309A80992189306F0AA
:1012C000DBFE28BB194A13680133012B136009D1D7
:1012D000174BDA6C42F40052DA64DB6C03F400530F
:1012E0000293029B124BDA6C42F00102DA64DB6C6F
:1012F0009FED0B7B03F0010303938DED047B039BB8
:1013000004A900244FF09040C5E701F079FBA0E765
:1013100001F076FBD6E700BF0500000003000000E7
:1013200040000000030000000001005014020020F3
:1013300000100240704700BF10B500F053FA831F41
:10134000DBB2012B19D9032817D003F025FC044682
:1013500000F0B6FA90B9237A83B900F087FE00BB9B
:10136000144B93F898300BB3012400F001FB68B1E3
:101370000120BDE8104000F02FBA10BD00F076FE4D
:10138000044670B900F0F4FA0028F1D1094B93F843
:101390009830002BECD000F0F1FA48B934B90420B1
:1013A000E7E7BDE81040082000F016BA0220E0E7A9
:1013B0000520DEE7F007002010B503F0EDFB044642
:1013C00000F054FE08B1002010BD00F0D1FA002852
:1013D000F9D10D4803F050FC0028F4D000F070FA69
:1013E00010B9237A002BEED000F002FA0028EAD0E0
:1013F000054B93F89830002BE5D000F0C5FA003883
:1014000018BF012010BD00BFF007002070B500F02C
:101410002DFE08B1002070BD184E012486F89840BA
:1014200003F0BAFB054600F04BFA48B92B7A3BB9FA
:1014300000F01CFEF0B996F898302BB902200AE0B3
:1014400000F014FE0446A8B900F092FA10B996F81C
:10145000983043B9012000F0BFF90021032000F0CB
:1014600005FD012070BD00F089FA28B9002CE5D1F6
:101470000420F0E70820EEE70520ECE7F007002065
:1014800010B5064B0024012083F8984000F0A4F921
:101490002146042000F0EAFC012010BDF0070020E6
:1014A0000D4A38B50D4B01245462D8695060D86993
:1014B000906100210025D16183F89850DA69C3F862
:1014C00090200720C3F8941000F086F929460520E3
:1014D00000F0CCFC204638BD4C070020F00700206F
:1014E0000D4A38B50D4B01245462D8695060D86953
:1014F000906100210025D16183F89850DA69C3F822
:1015000090202046C3F8941000F066F92946062082
:1015100000F0ACFC204638BD4C070020F00700204E
:10152000002070470020704708B500F05BF9831F6A
:10153000DBB2022B06D9032804D0BDE80840022004
:1015400000F04AB908BD00BF10B310B503F024FB8A
:10155000044600F0B5F978B100F088FD044600BB00
:1015600000F006FA18B9154B93F898309BB9012092
:10157000BDE8104000F030B9237A002BECD100F028
:1015800075FD70B90D4B93F898307BB10124E7E7F6
:10159000022000F021B900F0F1F960B934B904205B
:1015A000E6E7BDE81040082000F016B9BDE810409D
:1015B000022000F011B90520DAE700BFF007002093
:1015C00038B52DED028B00F051FD58BBFFF7F4FE4E
:1015D00088B9284A284B01215162D8695060D869DE
:1015E00090610021D161DA69C3F89020C3F89410AA
:1015F000BDEC028B38BD00F0F5F806282BD01E4C50
:1016000094ED1C8A00F044FED0ED037AB4EEE78A34
:10161000F1EE10FAECDD00F03BFEBDEC028BC3688E
:10162000236738BD144B134A0020012183F898002A
:101630005162D8695060BDEC028BD869906100217D
:10164000D161DA69C3F890200820C3F89410BDE88E
:10165000384000F0C1B8074D074C95ED070A00F07F
:10166000D5FE85ED070AAB69C4F89030EB69C4F884
:101670009430C5E74C070020F007002010B500F0BB
:10168000B1F807283AD000F0ADF806281DD000F0D8
:10169000A9F8022800D010BD03F07EFA044600F03D
:1016A0000FF9002840D000F0E1FC044600287AD170
:1016B00000F05EF920B9434B93F89830002B68D1C5
:1016C0000120BDE8104000F087B83F4B5B6A002B5B
:1016D000DDD003F061FA044600F0F2F800283DD1B5
:1016E000237A002B3AD100F0C1FC00285FD1354BA2
:1016F00093F89830002B5CD0012433E003F04CFACF
:10170000044600F0DDF8E8B100F0B0FC0446002823
:1017100047D100F02DF918B92A4B93F8983093BBB4
:10172000012000F059F8AEE7237A002BBBD100F07E
:101730009DFC002837D1234B93F89830002BAAD07A
:101740000124B5E7237A002BDED100F08FFC40BBEB
:101750001C4B93F8983043B30124DAE700F086FC81
:10176000044620BB00F004F948B9164B93F89830B2
:101770002BB100F003F910BBDCB9042000E001201C
:1017800000F02AF883E700F0F9F8A0B96CB904205A
:10179000C7E700F0F3F880B9002C7FF47CAF042099
:1017A0008FE70820BDE708208BE70220B9E7082073
:1017B000E6E70220E4E70520B3E7052081E70520FE
:1017C000DEE700BFF00700204C070020014B00229D
:1017D0001A707047F0020020014B1870704700BF6C
:1017E000F0020020014B1878704700BFF002002083
:1017F00008B500F03BFC08B1002008BD00F0AEF9D0
:101800000028F9D0034B1878043802288CBF002038
:10181000012008BDF002002009289ABF024B53F8AE
:1018200020000248704700BF80F2000850F2000814
:10183000034B044959600020012218601A81704747
:10184000F40200200060EA46034B0449596000207E
:10185000012218601A817047F40200200060EA46F5
:1018600018B107C8014B83E807007047F402002055
:10187000014B1860704700BFF4020020014B83ED5C
:10188000010A7047F40200200028034BB4BF4FF058
:10189000FF3201221A727047F4020020014B1868CF
:1018A000704700BFF4020020014B93ED010A70471E
:1018B000F4020020014B93F908007047F402002065
:1018C000014B587A704700BFF40200200038024BE9
:1018D00018BF012058727047F4020020014B024AE1
:1018E0001A607047000300200100000130B41C4A58
:1018F000937814785578C3B18CB90321A44608466F
:101900000125002364F307036CF30F2365F31743EA
:1019100060F31F63136030BC022000F0A7BA0121FE
:1019200000250846AC460C46EBE7002CF7D15DB924
:10193000022805D003280DD1AC4601460125E0E779
:1019400001464FF0010CDCE70221254608464FF026
:10195000010CD6E701210846AC460C46D1E700BF92
:1019600000030020014BD878704700BF000300201F
:10197000014B1878704700BF00030020014B5878D6
:10198000704700BF00030020014B9878704700BFEC
:101990000003002058B300681F4BC2B210B5B2F16B
:1019A000000E18BF4FF0010E4FF0000110F47F4CF5
:1019B00018BF4FF0010C6EF307016CF30F2110F408
:1019C0007F0F1860C0F30724198006D00121997099
:1019D00072B90321D9705A7010BD4AB974B9DA7856
:1019E000022A13D0032A0DD00C4A1A6010BD70478A
:1019F00001210022D970A3F8012010BD4FF400721C
:101A00005A8010BD01221C809A7010BD4FF4807264
:101A10001A809C7010BD00BF00030020010000016F
:101A2000144BA8B95A7899781870B2F1000C18BF05
:101A30004FF0010C83F801C069B9BAB9DA78022A0B
:101A400010D0032A04D14FF48072A3F8012070470C
:101A5000094A1A60704703214FF48072D970A3F8C5
:101A6000012070470122A3F8012070474FF4007253
:101A70005A8070470003002001000001174B10B18D
:101A8000174A1A6070471A7899785870B2F1000CAA
:101A900018BF4FF0010C83F800C029B101219970E3
:101AA0001AB90322DA7070471AB14FF480725A8063
:101AB0007047D978022907D003290AD001214FF4B1
:101AC000807219705A8070474FF4807119809A7033
:101AD000704701211A709970704700BF0003002001
:101AE0000001000218B11B4B1B4A1A60704710B46A
:101AF000184B1C7859789870B4F1000C18BF4FF04F
:101B0000010C02466CF30702B1F1000C18BF4FF054
:101B1000010C6CF30F221A804CB991B9DA78022AC1
:101B20000BD0032A12D00122DA701A8002E00122BF
:101B3000DA7058705DF8044B70474FF480721A8069
:101B4000F8E70222DA705DF8044B70470122198031
:101B50009A70EFE7000300200000010308B500F0D1
:101B600085FA064B1A781043C0B220B9987800382D
:101B700018BF012008BD002008BD00BF00030020E1
:101B80000048704700030020014B00221A70704784
:101B90000403002038B5474B474AB3F8E0309B02B6
:101BA00003F1FF6404F5FF242168914202D16268C9
:101BB000012A0BD000F04CFB02F0E4FFFFF78EFE91
:101BC000FFF742FE3D4B0020187038BDA268382A4E
:101BD000F0D103F100633A4AA3F5FE60A3F5F76183
:101BE0004FF0FF3C10F8013B83EA0C0343F3000C79
:101BF0000CEA020C8CEA530C43F34003134083EAD3
:101C00005C034CF3400C0CEA020C8CEA530C43F3DB
:101C10004003134083EA5C034CF3400C0CEA020CD3
:101C20008CEA530C43F34003134083EA5C034CF308
:101C3000400C0CEA020C8CEA530C43F340031340B3
:101C4000814283EA5C0CCDD1E3686FEA0C0C9C45C1
:101C5000B0D104F11005284600F080FB0028A9D07F
:101C600094F83830013B022BA4D8D4ED107AF5EE6D
:101C7000C07AF1EE10FA9DD994F944305A1C01D083
:101C8000012B97D194F84530012B93D8284600F0CA
:101C900003FB04F12C0002F083FF04F13500FFF791
:101CA00079FE04F13C00FFF7DBFD044B01201870C6
:101CB00038BD00BF0075FF1F53544B4D0403002077
:101CC0002083B8ED0000000070B52DED028B5A4B5B
:101CD000AAB03C22002109A8B3F8E0400AF00DF9AF
:101CE00053A3D3E900233821CDE90623089100F05E
:101CF000CFFA05460FCD0DF1280CACE80F0095E8A2
:101D000007008CE8070002F047FF024600685168B0
:101D1000127A11AB03C31A70FFF732FF0368CDF8D4
:101D20004D30FFF7BBFD0646FFF7BEFDB0EE408A23
:101D3000FFF7C0FD0546FFF7C3FD404A8DF85D0083
:101D4000A40215968DED168A8DF85C500DF12701D1
:101D50000DF15F004FF0FF3311F801EF8EEA030E33
:101D60004EF300034EF3400C134083EA5E030CEA8B
:101D7000020C8CEA530C43F340034CF3400E134027
:101D800083EA5C030EEA020E8EEA530E43F340032D
:101D90004EF3400C134083EA5E030CEA020C8CEA1B
:101DA000530C43F3400313404CF3400E83EA5C03AF
:101DB00088420EEA020C8CEA5303CDD1DB43482261
:101DC00006A918A809930AF098F905F0ADF90021C1
:101DD000A4F500630122CDE90111DB0A01A902A8E3
:101DE000CDE90323059205F0E7F9C8B918AD641BE6
:101DF00004F1FF642AAE04F5FF24D5E9002361193C
:101E0000002005F0D9F858B90835B542F5D105F0EC
:101E10009FF90B4B012018702AB0BDEC028B70BDEE
:101E200005F096F900202AB0BDEC028B70BD00BF12
:101E300053544B4D010000000075FF1F2083B8ED87
:101E400004030020014B1878704700BF04030020F2
:101E500003480449044A002303800B801380704721
:101E60000A030020080300200603002038B50C46B2
:101E7000054603F0ABFD10490B880A889BB201327E
:101E800002F03F0203EB43039B000A800B4A0C491C
:101E9000D0501A440B8815719BB23F2B946004D824
:101EA0000B8801339BB20B8038BD064A138801337F
:101EB00003F03F03138038BD0A0300200C03002009
:101EC0000603002008030020044A13889BB2FF2B5E
:101ED0009ABF1088C0B2FF20704700BF06030020E1
:101EE000034618B31348B0F800C01FFA8CF2D2B101
:101EF00010B4114C1149228892B202EB420201EB5C
:101F000082022188013101F03F01218001885DF8C2
:101F1000044B013989B2018007CA4FF0010C83E8F4
:101F200007006046704794466046704784466046A6
:101F3000704700BF06030020080300200C030020A8
:101F40000E289ABF024B53F820000248704700BF8A
:101F5000A8F2000850F200080249034A00230B606F
:101F600013707047100600200C060020D8B10E4AEE
:101F700038B511680446012301388340194208D05E
:101F80000C2C18BF0820BDE8384008BF0920FFF717
:101F900023BC1168054D0B430A20214613602C70A9
:101FA000FFF764FFECE77047100600200C060020E6
:101FB00000B9704710B5224C014623680138012250
:101FC000824023EA02030B202360FFF74FFF2368C0
:101FD000D3B1180522D4590519D49A0520D4DC05AB
:101FE00020D4180620D4590620D49A0620D4DC0622
:101FF00012D418071ED459071ED49A071ED413F002
:10200000010318BF012303D10E4A137010BD0B2327
:102010000C4ADBB2137010BD0523F9E70C23F3E77C
:102020000A23F5E70923F3E70823F1E70723EFE79E
:102030000623EDE70423EBE70323E9E70223E7E7C1
:10204000100600200C06002008B5064A064B0021A9
:102050000B2011601970FFF709FFBDE8084001204F
:10206000FFF7BABB100600200C060020024B1868D0
:10207000003818BF0120704710060020014B187867
:10208000704700BF0C060020014B1868704700BF66
:10209000100600200C289ABF024B53F8200002487B
:1020A000704700BFE4F2000850F200080000000092
:1020B00038B5032303700D680446E86AFEF75AFA40
:1020C00016A3D3E90023FEF7CFFAFEF7A5FDEA6ACF
:1020D00060800023013A2A6401210022E360236129
:1020E0006361A361E36123626362A362E3622363CA
:1020F0006363A363E3632364A365074860640A23FF
:10210000C4E91722C4E91922C4E91B11C4E91D134B
:1021100038BD00BFAFF30080CDCC4C3FCDCCCCCC94
:10212000CCCCEC3F408810B48142084C28BF01461B
:102130008242246828BF0246984228BF184661633D
:10214000A263E0635DF8044B704700BFF01A002003
:10215000004870470CEC00080048704720EC00086D
:102160000048704734EC0008004870474CEC000809
:1021700010B500248AB0CDE90444CDE90644224BD1
:102180000894D96C41F00401D964D96C01F00401C0
:1021900000910099D96C41F02001D964D96C01F00B
:1021A000200101910199D96C41F00101D964D96CE8
:1021B00001F0010102910299D96C41F00201D96448
:1021C000DB6C03F00203224603934FF400414FF00F
:1021D0009040039B05F09AFA4FF40042012304A9B2
:1021E0004FF09040CDE90423CDE9064405F0C2F854
:1021F0004FF4806200230548069404A9CDE9042326
:1022000005F0B8F80AB010BD001002400008004800
:10221000094B0A480A4ADFF834C09A6042F210714A
:10222000C3E90001C82207480749C3F80CC0186178
:1022300059619A61704700BF18060020F0D8FFFF6F
:10224000CDCC4C3E0AD7A33B0AD7A33C9A99993EE2
:10225000094B0A480A4ADFF834C09A6042F210710A
:10226000C3E90001C82207480749C3F80CC0186138
:1022700059619A61704700BF18060020F0D8FFFF2F
:10228000CDCC4C3E0AD7A33B0AD7A33C9A99993EA2
:102290000048704718060020002858D0D0E90023D5
:1022A0009A42844653DA2A498A4250DB4CF2503132
:1022B0008B424CDC9B1A632B49DDD0ED027AF5EEA4
:1022C000C07AF1EE10FA42D4B7EE007AF4EEC77A93
:1022D000F1EE10FA3BDC90ED037AF4EEC77AF1EE02
:1022E00010FA34DCF0EE087AB4EEE77AF1EE10FA88
:1022F0002DDCD0ED047AF5EEC07AF1EE10FA26D995
:102300009FED147AF4EEC77AF1EE10FA1FDCD0EDEF
:10231000057AF5EEC07AF1EE10FA18D9B7EE007A28
:10232000F4EEC77AF1EE10FA11DC836942F20F7213
:10233000013B93420BD8BCE80F0010B4064C0FC40D
:102340009CE8070084E807005DF8044B704770477D
:10235000B03CFFFFCDCCCC3D1806002000284FD06C
:10236000D0E900239A424ADA26498A4247DB4CF2F6
:1023700050318B4243DC9B1A632B40DDD0ED027A57
:10238000F5EEC07AF1EE10FA39D4B7EE007AF4EE39
:10239000C77AF1EE10FA32DC90ED037AF4EEC77AE8
:1023A000F1EE10FA2BDCF0EE087AB4EEE77AF1EEFB
:1023B00010FA24DCD0ED047AF5EEC07AF1EE10FAD2
:1023C0001DD99FED117AF4EEC77AF1EE10FA16DC02
:1023D000D0ED057AF5EEC07AF1EE10FA0FD9B7EE2E
:1023E000007AF4EEC77AF1EE10FA08DC806942F266
:1023F0000F73013898428CBF0020012070470020E5
:10240000704700BFB03CFFFFCDCCCC3D0A4BB0EED7
:10241000407A93ED040AB4EEC70AF1EE10FA0AD43A
:10242000F1EE407AF4EEC77AF1EE10FAB4BFB0EEF6
:10243000470AB0EE670A7047180600200000000047
:1024400010B594B03822002106A809F056FD0020EE
:10245000CDE90100CDE90300059005F0EDF99FED10
:10246000147B02235522CDE90F320324082206A84B
:102470008DED067BCDE90D34CDE91123139305F0E5
:1024800055FA08B172B6FEE7042103460F220DEBA0
:102490000100CDE90124CDE90333059305F0C4FC27
:1024A00008B172B6FEE714B010BD00BFAFF30080F4
:1024B000010000000000010080B503F06BFA9FED01
:1024C000C48AC44FC44CC54DDFEDC58AFFF7B8FFC1
:1024D000FFF74EFE02F06AFFFEF7DAFD00F0E8FBC0
:1024E00000F004FC03F084F8FEF74AFE02F004FF5B
:1024F00003F028F9BB48BC49BC4ABD4B0026066026
:1025000081ED008A82ED008ABA4983ED008ABA4BD8
:10251000BA4A81ED008A1A60B94ABA4BBA491160C9
:1025200038464FF07E521A6000F06CFAB7492046E8
:10253000FFF7BEFDB648B3EE090A00F04DFCB44803
:10254000B0EE480A00F050FCB148B0EE480A00F086
:1025500053FC95ED0B0AD4ED1B7AAD48F8EE677A83
:10256000B8EE400A20EE270A20EE280A00F04CFCC4
:102570009FEDA80AA64800F05FFCA548B5EE000A4A
:1025800000F04AFC9FEDA40AA14800F04DFC9FED2D
:10259000A30A9F4800F054FC9D48B0EE480A00F0A2
:1025A00067FC9B48B5EE000A00F00EFC9FED9C0A0C
:1025B0009C4800F011FC9FED9C0A9A4800F014FC26
:1025C0009848B0EE480A00F017FC95ED0B0AD4EDE0
:1025D0001C7A9448F8EE677AB8EE400A20EE270A93
:1025E00020EE280A00F010FC9FED900A8D4800F0C4
:1025F00023FC8C48B0EE080A00F00EFC9FED860A22
:10260000884800F011FC9FED850A864800F018FC10
:102610008448B0EE480A00F02BFC8248B0EE080A6D
:1026200000F0D2FB8248B3EE090A00F0D5FB9FED23
:10263000810A7F4800F0D8FB7D48B0EE480A00F0E0
:10264000DBFB95ED0B0AD4ED1D7A7948F8EE677A3D
:10265000B8EE400A20EE270A20EE280A00F0D4FB4C
:102660009FED720A724800F0E7FB7148B1EE0C0A68
:1026700000F0D2FB9FED680A6D4800F0D5FB9FED9E
:10268000670A6B4800F0DCFB6948B0EE480A00F0CE
:10269000EFFB6748B1EE040A00F096FB6648B3EE24
:1026A000090A00F099FB9FED630A634800F09CFB68
:1026B0006148B0EE480A00F09FFB95ED0B0AD4ED9F
:1026C0001D7A5D48F8EE677AB8EE400A20EE270AD8
:1026D00020EE280A00F098FB9FED540A564800F0BF
:1026E000ABFB5548B1EE0C0A00F096FB9FED4A0A91
:1026F000514800F099FB9FED490A4F4800F0A0FBBC
:102700004D48B0EE480A00F0B3FBB1EE040A4A4867
:1027100000F05AFBFFF75AF8FFF71EFCFFF7DEF850
:10272000FFF796FB02F036FD03F0A8F8FFF770FD07
:1027300002F01EFA02F088FAFFF726FAFFF778F89F
:10274000FEF7F8FD00F010FCFFF724FAFFF7A0FDFC
:102750003146C3683B670120FFF788FBFEF7ECFDBD
:10276000364805F051F8364805F04EF80C21274858
:1027700005F092FF334803F0C1FE334803F02CFF0D
:102780003146324805F088FFD5ED0B7A9FED307A5F
:10279000304B314883ED008AF8EE677A2F49304A92
:1027A00080ED008A67EE877A81ED008AFCEEE77A99
:1027B00017EE903A9BB2638041F28833136000F0C9
:1027C00053FC02F03FFD03F079F8FEF757FFF6E700
:1027D00000000000F007002074070020002C0140DA
:1027E000B91D4A3254060020500600204C06002035
:1027F0004806002044060020400600200AD7233C5B
:102800003C060020380600200AD723BCF01A00201E
:1028100014070020ACC5A7360000C84200007A4467
:10282000C3F5F040DC06002000A0A6446F12833AF6
:10283000A406002000708A456C060020E0080020F5
:10284000A00800201802002084020020A41A002002
:102850006666663F60060020680600206406002069
:10286000580600200368B3F1A04F00D0704770B540
:10287000374C384A3849394E88B0204600F072F952
:10288000374994ED040A204600F016F935493278AC
:10289000204602F00FFA0546002847D1FEF790FEC9
:1028A000314B94ED065A9FED314AD4ED245A94ED04
:1028B0000C6AD4ED256A93ED087AD3ED067ADFED44
:1028C0002C4A019527EE047A67EE847ABDEEC77A2A
:1028D00065EEA45A17EE103A26EE246A66EEA46A54
:1028E000FDEEE77ABDEEC55AFDEEE55ABDEEC66ACD
:1028F000FDEEE66AADF8183017EE903A8DED025A0B
:10290000CDED035A8DED046ACDED056AADF81A30B0
:10291000FEF768FF8DF81C00FFF7B0FB034601A827
:102920008DF81D3002F044FC08B070BD0E48002246
:10293000002384F898301946C261026242628262C2
:1029400082601A46337008B0BDE87040FFF7EABBFA
:10295000F007002018020020840200203406002026
:10296000581A00204C0700207407002000007A4409
:102970000024744908B50368B3F1A04F00D008BD26
:1029800003F01EF9034A83B213801046BDE80840E5
:1029900000F076B9F00700200368B3F1804F00D053
:1029A0007047037F012BFBD1074A084813680133A6
:1029B00013608368013383608368092BF0D9002397
:1029C0000349836000F06EB95C060020F007002028
:1029D00084020020084A0368934200D070471B68B5
:1029E000064A13F0100F536902D0013B5361704740
:1029F00001335361704700BF00080040F00700201A
:102A000072B6FEE70022244B9FED247A244910B4CD
:102A100082600273D3ED0B7A41634FF07E5484637E
:102A2000F8EE677A1F4C04641F4C446467EE877AA3
:102A30001E4C016500231E490280C0E9152443672E
:102A40004360C0ED047A426183610362C361436203
:102A50008362C3620363C3638364C364C365036641
:102A600043668366C3660167C0E92722C0E929225D
:102A70005DF8044BA0F87820C367C0F88030C0F838
:102A80008430C0F88830C0F88C30C0F89030C0F87E
:102A90009430A0F898207047002C0140B91D4A32AC
:102AA000CDCCCC3D0000F0420060EA46A009970979
:102AB0000000404000000000F8B50D68044663695E
:102AC000696A62699342FAD141EA034107EE901ABA
:102AD000DFED236AD4ED074A94ED0D5A94ED0C4ACC
:102AE000C4ED084AF8EEE77AB7EE007A67EEA66A18
:102AF00037EE457A36EEE46A27EE047AC6EE005ADF
:102B000094ED134A94ED126AC4ED067A36EE446AE7
:102B1000C4ED076A76EE277AC4ED0B5A17EE900AD9
:102B2000F0EE477AE5EE257AC4ED0C7AFDF744FD28
:102B300009A3D3E90023FDF797FD0646606C0F4615
:102B4000FDF73AFD02460B4630463946FDF7B6FE24
:102B5000FEF782F86062F8BD182D4454FB2119403D
:102B6000BD37863538B50B4604460921184615464B
:102B700003F0B4FD0921A4F85400284603F0AEFD8B
:102B8000B4F85430DFED3D5AD4ED174A94ED185A9D
:102B900006EE903AB4F8583007EE103AB4F85A30CE
:102BA00080B207EE903A06EE100AB8EE477AF8EED9
:102BB000666AF8EE677AB8EE466A76EEC76A36EE6F
:102BC000676A66EEA56AD4ED147AC4ED1A6A26EE39
:102BD000256AF7EE005A75EEE75A26EEA77A66EEFA
:102BE000277AA4EEA57AA4F85600E5EE857AD4ED0E
:102BF000205A84ED1B6AB4EEE57AF1EE10FAC8BFF4
:102C0000F0EE475AF4EEE57A77EE276AC8BF84ED16
:102C1000207AF1EE10FA94ED216AC8BFC4ED207A53
:102C2000F1EE666AC8BFF0EE675AF4EEE56AF1EEBF
:102C300010FAB4EEC67AC8BFC4ED206AF1EE10FAFD
:102C400048BFB0EE476AF4EEC67A48BF84ED217AF9
:102C5000F1EE10FA48BFB0EE676AF4EEC66A48BFFC
:102C6000C4ED217AF1EE10FA84ED177AC4ED187AEA
:102C7000C4ED196A48BFC4ED216A38BDA69B443D26
:102C800003889FED077A07EE903AF8EE677A012302
:102C900067EE877A0373C0ED017AC0ED1D7A704745
:102CA000AE47093C00220280084603F087BB00BF04
:102CB0000C4810B540220C4C826000234FF40031C8
:102CC0004FF44042C0E90043C0E9091203610375B3
:102CD0008361C36204F020FD00B910BDBDE810405F
:102CE000FFF78EBEE0080020000301400C4810B53D
:102CF00040220C4C826000234FF400314FF44042DC
:102D0000C0E90043C0E90912036103758361C3622E
:102D100004F002FD00B910BDBDE81040FFF770BE21
:102D2000A00800200403014000B50268244989B0CE
:102D300000238A42CDE90233CDE90433069305D05E
:102D4000204B9A421BD009B05DF804FB03F180438D
:102D500003F504339FED167BDA6C42F00102DA646E
:102D6000DB6C03F00103009302A94FF090408DED5E
:102D7000027B009B04F0FEFA09B05DF804FB03F54A
:102D80008633FC33DA6C42F00102DA64DB6C9FEDCF
:102D90000A7B03F00103019302A94FF090408DEDEF
:102DA000027B019B04F0E6FA09B05DF804FB00BF6A
:102DB0000E00000003000000E0000000030000001F
:102DC0000003014004030140B5EEC00AF1EE10FA21
:102DD00088BF80ED040A7047B5EEC00AF1EE10FA24
:102DE00058BF80ED000A7047B5EEC00AF1EE10FA48
:102DF00058BF80ED010A7047B5EEC00AF1EE10FA37
:102E000058BF80ED020A7047B5EEC00AF1EE10FA25
:102E100088BF80ED070A7047B5EEC00AF1EE10FAE0
:102E200088BF80ED050A7047B5EEC00AF1EE10FAD2
:102E300088BF80ED060A704780ED080A704700BF22
:102E40009FED0A7A90ED076AC7EE007AF7EE006A06
:102E500037EE867AC6EE077AF4EEE67AF1EE10FAED
:102E600088BFF0EE667AC0ED0A7A704783F9223E99
:102E7000B5EEC00AF1EE10FA88BF80ED0C0A70477B
:102E800000B599B00346094A6021684608F0BCFFC6
:102E90006846FDF725FA0246642392B26946044863
:102EA00006F02AFA19B05DF804FB00BF60EC0008D8
:102EB000401B002000B5A3B00346094A009102A8B8
:102EC000802108F0A1FF02A8FDF70AFA0246642358
:102ED00092B202A9034806F00FFA23B05DF804FB92
:102EE0006CEC0008401B002000B599B0FEF7ECFE2A
:102EF00040B10E490E486423072219B05DF804EB77
:102F000006F0FAB90B4B0C4A6021684608F07CFFCA
:102F10006846FDF7E5F90246642392B26946044823
:102F200006F0EAF919B05DF804FB00BF80EC000878
:102F3000401B002088EC000860EC0008014B18786A
:102F4000704700BFA40B002010B50446FDF7C8F978
:102F5000024621460348BDE81040642392B206F0C1
:102F6000CBB900BF401B002010B50E480E4B0F4AD6
:102F70000F49002404701C700E4B0C701480214605
:102F800080220D481C7008F0B8FF21464FF40072F3
:102F90000A4808F0B2FFBDE810400949094801227B
:102FA00006F044BA1F0900201E0900202009002055
:102FB0001D0900201C090020240B002024090020EA
:102FC000A40B0020401B002070B51F4C0A2822884B
:102FD00008D00D2806D07E2A0ED81C49531C8854D0
:102FE000238002E082B900232380BDE870401849A5
:102FF0001848012206F01ABA174A1378002143F044
:10300000010321801370F0E7144D104900238B5405
:103010002B78032B05D9104A137843F00203137061
:10302000E1E70F4E0F4B3078013203EBC01009F08F
:1030300064F83378013303F0030333702B780133E2
:10304000DBB22B70CFE700BF20090020240B00204B
:10305000A40B0020401B00201C0900201D0900209B
:103060001F090020240900202DE9F0412DED028BDD
:10307000DCB072B6B54B1C7800221A70E4B262B6AE
:10308000E10700F1BE80A20700F1A98072B6B04C42
:1030900023782BB962B65CB0BDEC028BBDE8F08141
:1030A000AC4EAD4B31780CA803EBC11100257F224B
:1030B0008DF8AF5008F03BFF3378013303F0030382
:1030C00033702378013BDBB2237062B6A3490CA8AE
:1030D00008F040FFA1498046284608F03BFF9F4981
:1030E0000446284608F036FF9C490746284608F063
:1030F00031FF0646B8F1000F00F06E8102F0CCFB04
:1031000097494046FDF78CF8002840F08C80002C51
:1031100000F0DD8193492046FDF782F8002800F099
:103120006C8191492046FDF77BF8002800F0618210
:103130008E492046FDF774F8002800F0AD828C49D6
:103140002046FDF76DF8002800F0D281894920461D
:10315000FDF766F8002800F0A68387492046FDF7B2
:103160005FF8002800F00F8484492046FDF758F8E6
:10317000002800F00F8582492046FDF751F800280D
:1031800000F0C9857F492046FDF74AF8002800F085
:10319000DB867D492046FDF743F8002800F05E8776
:1031A0007A492046FDF73CF8002840F06C87784BC0
:1031B000784A93F89810754B003918BF0121009197
:1031C0002CA8802108F020FE2CA8FDF789F80246E3
:1031D000642392B22CA9704806F08EF85BE72CAD00
:1031E0006E4B6F4A6021284608F00EFE2846FDF718
:1031F00077F80246642392B22946674806F07CF8C5
:1032000044E72CAD674B664A6021284608F0FCFD78
:103210002846FDF765F80246642392B229465E48C7
:1032200006F06AF82FE760494046FCF7F9FFF8B965
:103230006CB14C492046FCF7F3FF002800F0808277
:1032400049492046FCF7ECFF002800F06681574B07
:10325000534A60212CA808F0D7FD2CA8FDF740F8B0
:103260000246642392B22CA94B4806F045F812E7B7
:103270004F494046FCF7D4FF002840F01781002C4E
:1032800000F0A6814B492046FCF7CAFF002800F059
:10329000008349492046FCF7C3FF002800F05D8306
:1032A00046492046FCF7BCFF002800F0AC834449A7
:1032B0002046FCF7B5FF002800F01685414920465E
:1032C000FCF7AEFF002800F015863F492046FCF7CA
:1032D000A7FF002800F0B6863C492046FCF7A0FF77
:1032E0000546002800F0ED8739492046FCF798FF95
:1032F0000546002840F0B387002F01F0DE822C90B5
:103300003B78002B01F0AF8008F0CAFE0A2205606E
:103310002CA9384608F056F8044608F0C1FE0368A8
:10332000002B41F0A0802C9B9F4201F09C801B78D9
:10333000002B41F098802046FEF7F2F8002841F07B
:1033400047812448FFF79CFDA5E600BF1C0900202B
:103350001D0900201E09002024090020B0EC0008EF
:10336000BCEC0008C0EC0008A8EA0008CCEE00089D
:10337000B8F10008F4EE000814EF000828EF000888
:1033800034EF000840EF000854EF000860EF000839
:10339000F00700206CEC0008401B0020A0EC0008A7
:1033A00060EC000894EC000828F0000848F10008E0
:1033B00054F1000864F1000800EB000808EB000875
:1033C00010EB000818EB0008B4F10008C0F1000889
:1033D000CCF10008F8F10008BA4BBB4A60212CA8D8
:1033E00008F012FD2CA8FCF77BFF0246642392B282
:1033F0002CA9B64805F080FF4DE6FEF749FF0446CC
:10340000002F00F0D480B2493846FCF709FF0028AD
:1034100000F02982AF493846FCF702FF002800F08F
:103420005F82AD493846FCF7FBFE002800F0D482ED
:10343000AA493846FCF7F4FE002800F01984A84990
:103440003846FCF7EDFE002800F04085A5493846D7
:10345000FCF7E6FE002800F0CD85A3493846FCF7CE
:10346000DFFE002800F0E686A0493846FCF7D8FECB
:10347000002800F0C0879E493846FCF7D1FE00289E
:1034800040F0D987FEF716FA994B9A4A00908021AE
:103490002CA808F0B9FC2CA8FCF722FF02466423F4
:1034A00092B22CA9894805F027FFF4E5924B864A91
:1034B00060212CA808F0A8FC2CA8FCF711FF0246FC
:1034C000642392B22CA9814805F016FFE3E58B4BEB
:1034D0007D4A60212CA808F097FC2CA8FCF700FF7F
:1034E0000246642392B22CA9784805F005FFD2E584
:1034F000FEF7C4FDFEF7CEFD814A034660212CA8ED
:1035000008F082FC2CA8FCF7EBFE0246642392B282
:103510002CA96E4805F0F0FEBDE5002F00F0BF833A
:10352000002E00F0BC8377493846FCF779FE002472
:103530002C943378002840F0AB82002B00F0C1833C
:1035400008F0AEFD2CAD04600A222946304607F093
:1035500039FF044608F0A4FD0368002B40F0B28355
:103560002C9B9E4200F0AE831B78002B40F0AA8378
:10357000631E022B00F2A683E0B2FEF7B7F9FDF757
:10358000D3FFFEF7A1FB002840F0A2815E4B4E4A1C
:103590006021284608F038FC2846FCF7A1FE0246C8
:1035A000642392B22946494805F0A6FE73E5574BBD
:1035B000454A60212CA808F027FC2CA8FCF790FEB7
:1035C0000246642392B22CA9404805F095FE62E5BC
:1035D0004F4B3D4A60212CA808F016FC2CA8FCF7A4
:1035E0007FFE0246642392B22CA9384805F084FE7F
:1035F00051E501F0D1FA0446002F00F0418445491D
:103600003846FCF70DFE002800F08181424938461B
:10361000FCF706FE002800F0CB8140493846FCF755
:10362000FFFD002800F010833D493846FCF7F8FD07
:10363000002800F037843B493846FCF7F1FD0028AC
:1036400000F0EC8438493846FCF7EAFD002800F029
:10365000DD8536493846FCF7E3FD002800F0E586B5
:1036600033493846FCF7DCFD002800F094873149E7
:103670003846FCF7D5FD002801F042802E49384637
:10368000FCF7CEFD002840F0FD87FEF719F9014652
:103690002948FFF70FFCFEE4FEF7A4F8FEF7BCF89C
:1036A000264A034660212CA808F0AEFB2CA8FCF7A4
:1036B00017FE0246642392B22CA9044805F01CFEB2
:1036C000E9E400BFB4EC000860EC0008401B0020F7
:1036D000DCEC0008FCEC000810ED000820ED000810
:1036E00034ED000858ED000868ED000878ED00089A
:1036F00088ED000844ED000850F20008C0EE000814
:10370000E4EE000814EF000888EC0008C8EC00089C
:1037100058F10008BCED0008CCED0008E8ED000809
:10372000F8ED000810EE000830EE000848EE000842
:1037300060EE00087CEE0008A0EE0008D4EE000861
:10374000002F00F0F880002E00F0F580FEF7A0FDBD
:1037500004460FCC05AD0FC594E8070085E80700C7
:10376000B4493846FCF75CFD002800F02882B249D5
:103770003846FCF755FD002800F03883AF4938463D
:10378000FCF74EFD0446002800F0F383AC493846B0
:10379000FCF746FD0446002800F0F784A9493846A6
:1037A000FCF73EFD0446002800F0E985A6493846AE
:1037B000FCF736FD0446002800F09286A3493846FF
:1037C000FCF72EFD0446002800F02887A049384663
:1037D000FCF726FD0446002801F008809D49384684
:1037E000FCF71EFD0446002840F0C7872C90337874
:1037F000002B00F0AF8708F053FC2CAD04600A22C8
:103800002946304607F0DEFD044608F049FC03680F
:10381000002B40F0A0872C9B9E4200F09C871B78D9
:10382000002B40F09887631C02D0012C41F0998056
:1038300060B2FEF729F8FDF777FEFEF745FA00289B
:1038400040F01683844B854A6021284608F0DCFA54
:103850002846FCF745FD0246642392B2294680487B
:1038600005F04AFD17E4A068FCF7A6FE714B7D4AFF
:10387000CDE9000180212CA808F0C6FA2CA8FCF79D
:103880002FFD0246642392B22CA9754805F034FD41
:1038900001E402F001F8744971486423072205F03D
:1038A0002BFDFFF7F8BBFEF7EFFB704B704A009063
:1038B00080212CA808F0A8FA2CA8FCF711FD0246DC
:1038C000642392B22CA9664805F016FDFFF7E3BB0E
:1038D000654963486423072205F00EFDFFF7DBBB53
:1038E000E068FCF769FE544B5E4ACDE90001802197
:1038F0002CA808F089FA2CA8FCF7F2FC02466423F5
:1039000092B22CA9564805F0F7FCFFF7C4BB21780A
:10391000584B594A00912CA8802108F075FA2CA820
:10392000FCF7DEFC0246642392B22CA94C4805F059
:10393000E3FCFFF7B0BB514B484A60212CA808F0CC
:1039400063FA2CA8FCF7CCFC0246642392B22CA9A3
:10395000434805F0D1FCFFF79EBBFDF757FD00285B
:10396000B6D1474B3D4A60212CA808F04DFA2CA84F
:10397000FCF7B6FC0246642392B22CA9384805F045
:10398000BBFCFFF788BBFDF7EDFF3E4B384A0090CC
:1039900080212CA808F038FA2CA8FCF7A1FC0246DC
:1039A000642392B22CA92E4805F0A6FCFFF773BB46
:1039B0006178354B304A00912CA8802108F024FA18
:1039C0002CA8FCF78DFC0246642392B22CA9244853
:1039D00005F092FCFFF75FBB2069FCF7EDFD174B8C
:1039E000204ACDE9000180212CA808F00DFA2CA86E
:1039F000FCF776FC0246642392B22CA9184805F025
:103A00007BFCFFF748BBFDF73BFD00287FF460AF70
:103A10001E4B124A60212CA808F0F6F92CA8FCF7DE
:103A20005FFC0246642392B22CA90D4805F064FCA9
:103A3000FFF731BBDCEC0008FCEC000810ED0008DF
:103A400020ED000834ED000858ED000868ED00088E
:103A500078ED000888ED000888EC000860EC0008AC
:103A6000401B0020E8EC000880EC0008F4EE0008A1
:103A700000EF0008BCED00086CEC00082CF000081A
:103A800070F1000814EF0008CCED000880F1000888
:103A9000002B00F0688108F003FB2CAD04600A22C3
:103AA0002946304607F08EFC044608F0F9FA036810
:103AB000002B40F059812C9B9E4200F055811B78D1
:103AC000002B40F05181012C00F24E81AF49384665
:103AD000E4B2FCF7A5FB002800F03F85AC4938466E
:103AE000FCF79EFB002800F07885AA493846FCF7D1
:103AF00097FB002800F00A86A7493846FCF790FBA0
:103B0000002800F00C86A5493846FCF789FB002800
:103B100000F00387A2493846FCF782FB002800F03A
:103B20000587A0493846FCF77BFB002800F0788722
:103B30009D493846FCF774FB002800F068879B49D4
:103B40003846FCF76DFB002800F087879849384617
:103B5000FCF766FB002800F0718796493846FCF7B1
:103B60005FFB002800F0C58793493846FCF758FBF7
:103B7000002840F0B987204601F05EF8C4F10E003D
:103B80000421C0B2FEF772F9FDF7CEFCFFF7ACF9E5
:103B9000FFF781BAFDF7ECFE7C4B884A009080214C
:103BA0002CA808F031F92CA8FCF79AFB02466423F4
:103BB00092B22CA9824805F09FFBFFF76CBA2C90BB
:103BC0003378002B00F0BC8008F06AFA2CAD00239B
:103BD00003602946304607F017FBB0EE408A08F034
:103BE0005FFA0368002B40F0AC802C9B9E4200F0F3
:103BF000A8801B78002B40F0A48005A88DED078AD3
:103C0000FEF7ACFB002800F0958305A8FEF744FB07
:103C10006C4B089A1A67FDF787FCFEF755F80028E9
:103C200040F02681684B694A6021284608F0ECF88C
:103C30002846FCF755FB0246642392B229466048A9
:103C400005F05AFBFFF727BAA178554B5B4A009164
:103C50002CA8802108F0D8F82CA8FCF741FB0246DC
:103C6000642392B22CA9564805F046FBFFF713BA1D
:103C70006069FCF7A1FC564B564ACDE90001802152
:103C80002CA808F0C1F82CA8FCF72AFB02466423F4
:103C900092B22CA94A4805F02FFBFFF7FCB94E4B16
:103CA0004A4A60212CA808F0AFF82CA8FCF718FBB2
:103CB0000246642392B22CA9414805F01DFBFFF790
:103CC000EAB92CAD454B414A6021284608F09CF8E2
:103CD0002846FCF705FB0246642392B22946384881
:103CE00005F00AFBFFF7D7B9FDF7DAFB00287FF4F0
:103CF000EFAD3B4B354A60212CA808F085F82CA885
:103D0000FCF7EEFA0246642392B22CA92C4805F087
:103D1000F3FAFFF7C0B9FDF731FE1D4B274A0090BB
:103D200080212CA808F070F82CA8FCF7D9FA0246DC
:103D3000642392B22CA9224805F0DEFAFFF7ABB952
:103D40002CAD284B214A6021284608F05DF8284612
:103D5000FCF7C6FA0246642392B22946184805F0D9
:103D6000CBFAFFF798B92CAD1F4B184A60212846B3
:103D700008F04AF82846FCF7B3FA0246642392B2E8
:103D800029460F4805F0B8FAFFF785B928EF000873
:103D900034EF000840EF0008BCED0008CCED00084F
:103DA000E8ED0008F8ED000810EE000830EE00081D
:103DB00048EE000860EE00087CEE00086CEC00089D
:103DC000401B0020F007002088EC000860EC000891
:103DD00020ED0008E8EC0008FCF0000810F10008F5
:103DE00094F1000840F000081CF1000800242C9415
:103DF0003378002B00F0958008F052F92CAD046068
:103E00002946304607F000FAB0EE408A08F048F93B
:103E10000368002B40F086802C9B9E4200F082803D
:103E20001B78002B7ED105A88DED088AFEF796FA47
:103E3000002800F0438305A8FEF72EFAB34B089A3A
:103E40001A67FDF771FBFDF73FFF88B9B04BB14A28
:103E50006021284607F0D8FF2846FCF741FA0246C1
:103E6000642392B22946AC4805F046FAFFF713B92D
:103E7000AA49A9486423072205F03EFAFFF70BB9C7
:103E8000A74BA44A60212CA807F0BEFF2CA8FCF782
:103E900027FA0246642392B22CA99F4805F02CFA17
:103EA000FFF7F9B8E1789F4B9F4A00912CA8802139
:103EB00007F0AAFF2CA8FCF713FA0246642392B27B
:103EC0002CA9954805F018FAFFF7E5B82168974B3B
:103ED000974A00912CA8802107F096FF2CA8FCF7A8
:103EE000FFF90246642392B22CA98B4805F004FA2C
:103EF000FFF7D1B8FDF7F4FA00287FF4E9AC8D4B59
:103F0000844A60212CA807F07FFF2CA8FCF7E8F971
:103F10000246642392B22CA97F4805F0EDF9FFF721
:103F2000BAB82CAD844B7B4A6021284607F06CFF61
:103F30002846FCF7D5F90246642392B22946764812
:103F400005F0DAF9FFF7A7B8FDF71EFD7B4B764ABF
:103F5000009080212CA807F057FF2CA8FCF7C0F98F
:103F60000246642392B22CA96B4805F0C5F9FFF70D
:103F700092B82C903378002B00F0F48008F090F881
:103F80002CAD04602946304607F03EF9B0EE408A79
:103F900008F086F80368002B40F0E5802C9B9E42D9
:103FA00000F0E1801B78002B40F0DD8005A88DED4E
:103FB000098AFEF7D3F9002800F0F88205A8FEF779
:103FC0006BF9FDF7B1FAFDF77FFE00287FF450AFE3
:103FD0004F4B504A6021284607F016FF2846FCF751
:103FE0007FF90246642392B229464B4805F084F9D2
:103FF000FFF751B86168524B4D4A00912CA88021BF
:1040000007F002FF2CA8FCF76BF90246642392B27A
:104010002CA9414805F070F9FFF73DB82179494BCB
:10402000414A00912CA8802107F0EEFE2CA8FCF755
:1040300057F90246642392B22CA9374805F05CF97F
:10404000FFF729B8FEF700F8FDF776F93349324853
:104050006423072205F050F9FFF71DB8FDF7ACF90E
:10406000394B314A009080212CA807F0CDFE2CA8B6
:10407000FCF736F90246642392B22CA9264805F0D3
:104080003BF9FFF708B831492046FCF7C9F800288A
:1040900000F06C822E492046FCF7C2F8002800F0A0
:1040A0001B832C492046FCF7BBF8002800F0DA837C
:1040B00029492046FCF7B4F8002800F0038427497A
:1040C0002046FCF7ADF8002800F0898424492046FA
:1040D000FCF7A6F8002840F056840C4B124A197BD6
:1040E0001F4B003918BF012100912CA8802107F037
:1040F0008BFE2CA8FCF7F4F80246642392B22CA99C
:10410000054805F0F9F8FEF7C6BF00BFF00700202C
:1041100088EC000860EC0008401B002080EC0008E0
:10412000A8ED0008F8ED00086CEC000834ED00087C
:1041300044ED0008A4F1000854F0000840EF000826
:1041400058ED000810EE000854EF000868EF000872
:1041500078EF00088CEF0008A0EF0008A4EF00083B
:10416000ACEF00082CADC24BC24A6021284607F0D4
:104170004BFE2846FCF7B4F80246642392B2294667
:10418000BD4805F0B9F8FEF786BF2C903378002BB8
:1041900000F0E28007F084FF2CAD04602946304631
:1041A00007F032F8B0EE408A07F07AFF0368002B80
:1041B00040F0D3802C9B9E4200F0CF801B78002BD8
:1041C00040F0CB8005A88DED0A8AFEF7C7F80028DD
:1041D00000F05D8205A8FEF75FF8FDF7A5F9FDF791
:1041E00073FD00287FF444AEA44BA24A6021284608
:1041F00007F00AFE2846FCF773F80246642392B2E1
:1042000029469D4805F078F8FEF745BF61799C4B3B
:104210009C4A00912CA8802107F0F6FD2CA8FCF701
:104220005FF80246642392B22CA9934805F064F823
:10423000FEF731BFFDF732FB934B944A009080218B
:104240002CA807F0E1FD2CA8FCF74AF802466423ED
:1042500092B22CA9884805F04FF8FEF71CBF204603
:104260008B49FBF7DDFF0446002840F0D281002F88
:1042700000F01E832C903B78002B00F0928107F019
:104280000FFF0A2204602CA9384607F09BF8044669
:1042900007F006FF0368002B40F083812C9B9F42B0
:1042A00000F07F811B78002B40F07B812046FDF7DA
:1042B00039F9002840F08C817648FEF7E1FDFEF7E1
:1042C000EABE754C0320FDF787FA29460720FDF763
:1042D000CDFDD4ED067AFDEEE77A012517EE900AC2
:1042E000FDF7C6FA0120FDF7F1FA84F89950D4EDF4
:1042F000067AFDEEE77A082017EE901AFDF7B6FD74
:104300002846FDF721F9FDF7DFFC00287FF4E0AA3D
:104310005A4B584A60212CA807F076FD2CA8FBF7D1
:10432000DFFF0246642392B22CA9534804F0E4FF55
:10433000FEF7B1BE594B4F4A6021284607F064FD95
:104340002846FBF7CDFF0246642392B229464A482D
:1043500004F0D2FFFEF79FBE2CAD514B454A6021C1
:10436000284607F051FD2846FBF7BAFF02466423B2
:1043700092B22946404804F0BFFFFEF78CBE2C9055
:104380003378002B5CD007F08BFE2CAD04600A2242
:104390002946304607F016F8044607F081FE036808
:1043A000002B4ED12C9B9E424BD01B78002B48D12A
:1043B00005A80594FDF7D2FF002800F0B98105A8F3
:1043C000FDF76AFFFDF7B0F8FDF77EFC00287FF4EB
:1043D0004FAD2A4B274A6021284607F015FD284695
:1043E000FBF77EFF0246642392B22946224804F07E
:1043F00083FFFEF750BEFDF757FA10EE100AFCF7E8
:10440000DBF8284B284ACDE9000180212CA807F0D1
:10441000FBFC2CA8FBF764FF0246642392B22CA994
:10442000154804F069FFFEF736BEA1791F48FEF774
:1044300041FDFEF730BE1E48FEF722FDFEF72BBE03
:104440002CAD1C4B0B4A6021284607F0DDFC2846AA
:10445000FBF746FF0246642392B22946064804F061
:104460004BFFFEF718BE1448FEF70AFDFEF713BE19
:104470006CF0000860EC0008401B002088EC00088D
:1044800030EE00086CEC000868ED000844ED000810
:104490000CF2000838F20008F007002040F0000895
:1044A00080F0000878ED0008E8EC000848EE00080D
:1044B00094ED000898F00008E8F10008B84BB94AFC
:1044C0006021284607F0A0FC2846FBF709FF0246BA
:1044D000642392B22946B44804F00EFFFEF7DBBD18
:1044E0002C903378002B00F0818007F0D9FD2CADA3
:1044F00004600A222946304606F064FF044607F0AD
:10450000CFFD0368002B72D12C9B9E426FD01B788D
:10451000002B6CD105A80694FDF720FF002800F0C1
:10452000EA8105A8FDF7B8FEFCF7FEFFFDF7CCFB1E
:1045300000287FF49DAC9D4B9A4A6021284607F0E5
:1045400063FC2846FBF7CCFE0246642392B2294660
:10455000954804F0D1FEFEF79EBD2046FDF760FAB7
:10456000FCF7E2FFFEF7C0FCFEF795BDFDF76AFC25
:104570008F4B904A009080212CA807F045FC2CA876
:10458000FBF7AEFE0246642392B22CA9864804F0E3
:10459000B3FEFEF780BDE1798748FEF78BFCFEF79E
:1045A0007ABD8648FEF76CFCFEF775BD844B7D4AEC
:1045B0006021284607F028FC2846FBF791FE0246BA
:1045C000642392B22946784804F096FEFEF763BD54
:1045D0007C48FEF7B9FCFEF75EBD2046FDF74EFABB
:1045E000FCF7A2FFFEF780FCFEF755BD2CAD764B25
:1045F0006C4A6021284607F007FC2846FBF770FE4E
:104600000246642392B22946674804F075FEFEF71D
:1046100042BD6E48FEF734FCFEF73DBD2C9033786A
:10462000002B46D007F03CFD2CAD04600A22294641
:10463000304606F0C7FE044607F032FD0368002B43
:1046400038D12C9B9E4235D01B789BBB2046FDF772
:104650000FF9FCF769FFFDF737FB00287FF408AC82
:10466000524B504A6021284607F0CEFB2846FBF704
:1046700037FE0246642392B229464B4804F03CFEC2
:10468000FEF709BD5248FEF7FBFBFEF704BD514B98
:10469000444A6021284607F0B7FB2846FBF720FE76
:1046A0000246642392B229463F4804F025FEFEF7F5
:1046B000F2BC2CAD484B3B4A6021284607F0A4FBD6
:1046C0002846FBF70DFE0246642392B2294636487F
:1046D00004F012FEFEF7DFBC0121404B354A009189
:1046E0002CA8802107F090FB2CA8FBF7F9FD0246CF
:1046F000642392B22CA92C4804F0FEFDFEF7CBBC3B
:10470000217A3748FEF7D6FBFEF7C5BC2046FDF7F9
:10471000E9F9FCF709FFFEF7E7FBFEF7BCBC204612
:1047200000F04AFAFCF700FFFEF7DEFBFEF7B3BC31
:10473000254B1C4A6021284607F066FB2846FBF7FC
:10474000CFFD0246642392B22946174804F0D4FDF7
:10475000FEF7A1BC2CAD234B124A6021284607F07E
:1047600053FB2846FBF7BCFD0246642392B2294660
:104770000D4804F0C1FDFEF78EBC1B4B094A6021B9
:104780002CA807F041FB2CA8FBF7AAFD02466423E6
:1047900092B22CA9044804F0AFFDFEF77CBC00BF28
:1047A00054F0000860EC0008401B002088EC000872
:1047B00068EF00086CEC000860EE000828F20008C2
:1047C0006CF0000880EC000898F000084CF200083B
:1047D000ACEE000880F00008ACF0000878EF0008AC
:1047E0007CEE0008D4F00008E8F000082C90337844
:1047F000002B4AD007F054FC2CAD0460294630460B
:1048000006F002FDB0EE408A07F04AFC0368002B78
:104810003CD12C9B9E4239D01B78002B36D1B5EE73
:10482000C08AF1EE10FA40F28A80B0EE480AFDF735
:1048300025F8FCF779FEFDF747FA00287FF418AB5E
:10484000B34BB44A6021284607F0DEFA2846FBF74E
:1048500047FD0246642392B22946AF4804F04CFD5E
:10486000FEF719BCAD4BAE4A009080212CA807F092
:10487000CBFA2CA8FBF734FD0246642392B22CA994
:10488000A54804F039FDFEF706BC2CADA54BA14AA6
:104890006021284607F0B8FA2846FBF721FD0246BA
:1048A000642392B229469C4804F026FDFEF7F3BB30
:1048B0009D48FEF7E5FAFEF7EEBB9C48FEF7E0FAEE
:1048C000FEF7E9BB9A4B9B4AD3ED067A9A4BFDEE75
:1048D000E77A8021CDED007A2CA807F095FA2CA874
:1048E000FBF7FEFC0246642392B22CA98A4804F02E
:1048F00003FDFEF7D0BB914B864A6021284607F0A6
:1049000083FA2846FBF7ECFC0246642392B2294660
:10491000814804F0F1FCFEF7BEBB204600F054F9DC
:10492000FCF702FEFEF7E0FAFEF7B5BB204600F00A
:1049300053F9FCF7F9FDFEF7D7FAFEF7ACBB794B5C
:10494000744A6021284607F05FFA2846FBF7C8FC46
:104950000246642392B229466F4804F0CDFCFEF76C
:104960009ABB774B6B4A6021284607F04DFA2846E0
:10497000FBF7B6FC0246642392B22946664804F06F
:10498000BBFCFEF788BB6F492046FBF749FC0028BB
:1049900000F090806C492046FBF742FC00286BD069
:1049A0006A492046FBF73CFC002842D1FDF7D0FBCA
:1049B0000446FDF7D1FB0546FDF7D2FB0646FDF7A1
:1049C000D3FBCDE900560290614A2346C0212CA8B2
:1049D00007F01AFA2CA8FEF7B7FAFEF75CBB544BA7
:1049E000586FFBF7E9FD5B4B5B4ACDE90001802185
:1049F0002CA807F009FA2CA8FBF772FC02466423E6
:104A000092B22CA9444804F077FCFEF744BB204640
:104A100000F0F2F8FCF788FDFEF766FAFEF73BBB04
:104A2000204600F0E1F8FCF77FFDFEF75DFAFEF7A7
:104A300032BB4A48FEF724FAFEF72DBB204600F0B1
:104A4000EBF8C4F10E000221C0B2FDF70FFAFCF73B
:104A50006BFDFEF749FAFEF71EBB204600F0D4F8C6
:104A6000C4F10E000121C0B2FDF700FAFCF75CFDB5
:104A7000FEF73AFAFEF70FBB05A8FDF731FA70B35F
:104A80009DF81800059CFDF75BFA079B344ACDE9B9
:104A90000003A02123462CA807F0B6F92CA8FBF7A9
:104AA0001FFC0246642392B22CA91B4804F024FC8C
:104AB000FEF7F1BAFDF708FA224B2A4A009080214E
:104AC0002CA807F0A1F92CA8FBF70AFC02466423E6
:104AD00092B22CA9104804F00FFCFEF7DCBA224871
:104AE000FEF732FAFEF7D7BA2048FEF7C9F9FEF70B
:104AF000D2BA204600F098F8C4F10E000321C0B2EB
:104B0000FDF7B4F9FCF710FDFEF7EEF9FEF7C3BAB6
:104B100088EC000860EC0008401B00208CEF0008C7
:104B20006CEC0008C0F0000818F20008D8F100088A
:104B3000F007002044ED0008A0EF000898F00008FE
:104B4000D4F00008B8EF0008C4EF0008F8EF000840
:104B500000F00008A4EF0008E8EC00081CF00008D2
:104B6000D0EF000800EF0008E8EF000834F100087B
:104B7000034B00224FF48031C3E900121A727047D0
:104B8000A80B0020034B00224FF48031C3E9001230
:104B90001A727047A80B002000487047A80B00202D
:104BA000034628B159680068024A03C21B7A137091
:104BB000704700BFA80B00200038024B18BF01202F
:104BC00018707047A80B00200038024B18BF012056
:104BD00058707047A80B00200038024B18BF012006
:104BE00098707047A80B00200038024B18BF0120B6
:104BF000D8707047A80B00200038024B18BF012066
:104C000018717047A80B00200038024B18BF012014
:104C100058717047A80B00200038024B18BF0120C4
:104C200098717047A80B00200038024B18BF012074
:104C3000D8717047A80B00200038024B18BF012024
:104C400018727047A80B002030B40648064D074C78
:104C50000749084A00232B602360036030BC0B60C7
:104C600013607047BC0B0020C40B0020C00B002059
:104C7000B80B0020B40B00200346C0B1027B02F049
:104C8000FF00AAB193ED1D7AF2EE007AB4EEE77A56
:104C9000F1EE10FA0BD493ED1D7AF3EE0E7AB4EE2A
:104CA000E77AF1EE10FA94BF01200020704700204F
:104CB000704700BF2DE9F04104462DED028B0F46F1
:104CC0001646FDF7E5FA002C00F0A080002F00F05A
:104CD0009D80D4ED177AD4ED186A94ED197AF0EE30
:104CE000E66AF0EEE77AF4EEE67AF1EE10FAB8BF93
:104CF000F0EE667AB0EEC77AF4EEC77AF1EE10FA0B
:104D0000D0ED036AB8BFF0EE477AF4EEE76AF1EE51
:104D100010FA054651D5227BAC4902F0FF080B681A
:104D2000002A79D1022B00F2DA800133032B0B60C9
:104D300000F0D580A64BC3F80080A64B00221A6075
:104D4000002E40F097800126D4ED067A2A68FDEE09
:104D5000E77AA2F57A7217EE903A9A4200F39680BB
:104D60006A6802F57A729A42C0F29080D4F8A03054
:104D7000D5ED047A94ED0C7AF7EE086A67EEA67A20
:104D8000B0EEC77AB4EEE77AF1EE10FA00F39F8046
:104D9000914B00221A60FCF725FD06287FD08F4B2F
:104DA00000221A60002E6AD1FDF760F9003818BFA2
:104DB0000120BDEC028BBDE8F081237B03F0FF02F4
:104DC000002B5ED094ED1D7AF2EE007AB4EEE77A15
:104DD000F1EE10FA94ED1D7A40F18880F3EE0E7A30
:104DE0007B4A7A491368B4EEE77A0020F1EE10FAB4
:104DF000086040F3BD80632B04D80133642B13603B
:104E000040F09B800720FDF7B1F896E0BDEC028BE7
:104E1000BDE8F041FDF72AB994ED1D7AF2EE007A73
:104E2000B4EEE77AF1EE10FA76D5022B94ED1D8AF6
:104E300000F2A9800133032B0B6000F0A480644AC8
:104E40001368632B40F2A9800720FDF78FF8F3EE7B
:104E50000E7AB4EEE78AF1EE10FA7FF76EAF5D4A94
:104E60001368632B6DD80133642B136069D0002E57
:104E70003FF469AF5849594A00230B601360012081
:104E800097E7524B1A60524B1A6056E7D4F8A0309D
:104E9000002B3FF46DAF0320FDF768F868E7D7ED0E
:104EA000067AD4ED076A9FED4E7A77EEE67AF0EE59
:104EB000E77AF4EEC77AF1EE10FA7FF770AF474A5F
:104EC0001368632B6FD90320FDF750F86AE7424A55
:104ED0001368132B3CD90420FDF748F85BE7012049
:104EE000FDF744F83A4BC3F8008026E7F3EE0E7A5C
:104EF000B4EEE77AF1EE10FA49DC34483449354A29
:104F0000002303600B601360002E3FF41DAF324995
:104F1000324A0B60136047E794ED1D7AF3EE0E7A88
:104F2000B4EEE77AF1EE10FA18DD022B45D9012034
:104F3000FDF71CF8264B00221A60264A1368632BE3
:104F400091D90820FDF712F8002E3FF4FCAE91E74E
:104F50000133142B13607FF41EAFBCE7022B28D85B
:104F60000133032B0B6024D0194B00221A60E4E6B6
:104F7000632B04D80133642B13607FF4DEAE07206B
:104F8000FCF7F4FFD9E60120FCF7F0FF57E70F49E3
:104F90000F4A00230B601360CFE70133642B1360CB
:104FA0007FF455AF50E70133642B13607FF4FAAE02
:104FB00089E70120FCF7DAFFD6E70133032B0B600A
:104FC000B5D0034B00221A60B7E700BFC40B002026
:104FD000B80B0020B40B0020C00B0020BC0B00203D
:104FE0006F12033B0B4B1A6E42F0010282B01A663D
:104FF0001A6E02F001020092009A9A6D42F08052FD
:105000009A659B6D03F080530193019B02B002F0FF
:1050100085BC00BF00100240FEE700BFFEE700BFF6
:10502000FEE700BFFEE700BFFEE700BF704700BF1E
:10503000704700BF704700BF00F0BCBC08B5044813
:1050400000F0C6FDBDE80840024800F0C1BD00BF49
:105050008402002018020020014803F0FDBD00BFBB
:10506000F01A0020014803F0F7BD00BFF01A00203D
:10507000014803F0F1BD00BFF01A0020014803F021
:10508000EBBD00BFF01A0020014803F0E5BD00BFF2
:10509000A41A0020014803F0DFBD00BF581A002009
:1050A000014804F089BA00BF401B002008B502681F
:1050B000044B9A4200D008BDFDF740FFBDE8084010
:1050C000FDF782BF004400400120704708B506F09C
:1050D000E7FF162303604FF0FF3008BD08B506F068
:1050E000DFFF16230360FEE770B5161E07DD0C46D2
:1050F0008D19AFF3008004F8010BA542F9D13046B9
:1051000070BD00BF70B5161E07DD0C468D1914F872
:10511000010BAFF30080A542F9D1304670BD00BF4E
:105120004FF0FF30704700BF4FF400534B6000203A
:10513000704700BF01207047002070470C490D4A9E
:105140000B6810B50C4C121B2BB11844904207D8B9
:105150000860184610BD094B0B6018449042F7D9FF
:1051600006F09EFF0C2303604FF0FF33184610BD7E
:10517000C80B00200080002000040000301D00202B
:10518000034AD2F8883043F47003C2F8883070477D
:1051900000ED00E003480449044A002303800B802B
:1051A00013807047500C00204E0C00204C0C002047
:1051B00000283DD030B584460468BCE80F0089B0B3
:1051C0000DF1040EAEE80F009CE807008EE8070022
:1051D00054B31849184B0A88019492B2C2EBC20228
:1051E00003EB820E0B88154D013303F07F030DF1A5
:1051F000040C0B80BCE80F00AEE80F002C889CE884
:105200000700A4B27F2C8EE8070007D90C4A138848
:10521000013303F07F03138009B030BD2B880133C5
:105220009BB22B8009B030BD00F0D0FB0446D0E724
:10523000704700BF500C0020540C00204C0C002084
:105240004E0C00202DE9F04F254D264E264FDFF85D
:10525000A48089B0042472B62B889BB2002B3AD06C
:1052600033883188013101F07F01318029889BB278
:10527000C3EBC30307EB8302013989B2D2E901CE44
:10528000D2E9039AB2F914B0107E298057F823307E
:10529000B2F91610527E62B6CDE90602CDE901E9F7
:1052A000CDF800C042460591CDE903AB80210F48FF
:1052B00006F0AAFD0D48FBF713F802460B490C480F
:1052C000322392B2013C04F017F814F0FF04C2D16B
:1052D00009B0BDE8F08F62B609B0BDE8F08F00BF3D
:1052E0004C0C00204E0C0020540C0020CC0B002055
:1052F000401B002058F2000800B52B4891B0002355
:10530000CDE90433CDE90633CDE90133CDE90833E6
:10531000CDE90A33CDE90C3303930E938360036127
:1053200083614FF080421123C0E9002340F2E7334C
:10533000C36003F0B3F810BB4FF480531A480493D2
:1053400004A903F073FB40BB174803F027F908BB1F
:1053500000231548019301A9039303F01FFFB0B97F
:105360009FED0F7B002210480A9208A98DED087B63
:105370000C9203F097FD28B911B05DF804FBFDF71E
:105380003FFBD9E7FDF73CFB11B05DF804FBFDF7EF
:1053900037FBE5E7FDF734FBDAE7FDF731FBD3E751
:1053A00010000000F3010000A41A002010B58CB01A
:1053B0002022002104A806F0A0FD1448144C04602B
:1053C0004FF6FF71C160032100230122039103A95D
:1053D000C0E90133CDE90133009303618361059294
:1053E000099203F07FFA48B9002308480093694600
:1053F000029303F0D3FE20B90CB010BDFDF700FB03
:10540000F2E7FDF7FDFA0CB010BD00BF581A0020FE
:105410000008004000B5274A0368934283B005D0D6
:10542000B3F1804F2FD003B05DF804FB224B186E10
:1054300040F4006018661B6E03F400630022042130
:1054400000931820009B01F0DFFC182001F018FDEC
:1054500000220421192001F0D7FC192001F010FDD1
:10546000002204211A2001F0CFFC1A2001F008FDCF
:10547000002204211B2001F0C7FC1B2003B05DF8B3
:1054800004EB01F0FDBC03F504330022986D40F0FD
:10549000010098659B6D03F00103019311461C20E8
:1054A000019B01F0B1FC1C2003B05DF804EB01F09E
:1054B000E7BC00BF002C01400010024000000000CB
:1054C00010B51D4B026888B000249A42CDE9024411
:1054D000CDE90444069401D008B010BD03F50233B1
:1054E0009FED137B9A6D154842F004029A659A6D00
:1054F00002F004020092009ADA6C42F00202DA64CE
:10550000DB6C03F00203019302A902238DED027B01
:105510000693019A01F02EFF224621461E2001F03B
:1055200073FC1E2001F0ACFC08B010BDAFF300808E
:10553000C000000002000000000800400004004815
:1055400070B5284B02688AB000249A42CDE9044421
:10555000CDE90644089401D00AB070BD03F5644358
:105560000426DA6C204842F00402DA64DA6C02F0B5
:1055700004020192019ADA6C42F00202DA64DA6CF7
:1055800002F002020292029ADA6C42F00102DA643C
:10559000DB6C089603F0010303934FF4005204A957
:1055A0000223CDE904230225039B01F0E3FE4FF41F
:1055B000004304A90D480896CDE90435CDE9064419
:1055C00001F0D8FE4FF4B852062304A94FF09040E2
:1055D000CDE90425CDE90644089301F0CBFE0AB0DD
:1055E00070BD00BF002C01400008004800040048C6
:1055F00010B500249CB0214634220FA8CDE9054403
:10560000CDE90144CDE90944CDE90B44CDE90D4490
:10561000049400940894079406F06FFC4748484BA4
:105620000360202141F29A03C0E902134FF4807312
:105630000361802344604461836102F02FFF0028EE
:105640005DD14FF480533D48049304A903F0EEF973
:10565000002870D1394803F0C7F8002868D100232A
:105660007022CDE90023354800236946029303F0F8
:1056700095FD002859D1002000210022CDE90C0120
:1056800060232E48089308A9CDE909220B920E92B7
:1056900003F09EFC002845D12848042208A903F005
:1056A00097FC00283BD12548082208A903F090FC6C
:1056B00090BB41F29903214809930C2208A903F0F9
:1056C00087FC30BB00234FF40050CDE91330552444
:1056D0004FF0007219481B930FA9CDE90F33CDE9A4
:1056E0001134CDE91533CDE91732CDE9193303F083
:1056F000A7FD38B91148FFF723FF1CB010BDFDF717
:105700007FF99EE7FDF77CF90C48FFF719FF1CB005
:1057100010BDFDF775F9D5E7FDF772F9C9E7FDF79B
:105720006FF9C0E7FDF76CF9B6E7FDF769F9A2E795
:10573000FDF766F993E7FDF763F98BE7F01A0020B0
:10574000002C014010B51F481F4C00234FF4E121ED
:105750000C22C0E90041C0E90233C0E90432C0E9CB
:105760000633C0E90833836204F070FE70B915484F
:10577000002104F0C3FE88B91248002104F000FFA4
:10578000A0B9104804F09CFEB8B910BDFDF738F977
:105790000C48002104F0B2FE0028EDD0FDF730F9EE
:1057A0000848002104F0ECFE0028EAD0FDF728F9B3
:1057B000044804F085FE0028E7D0BDE81040FDF75E
:1057C0001FB900BF401B0020004400400000000043
:1057D00010B5044698B00021442207A8CDE9021173
:1057E000CDE90411069106F088FB214B22689A420C
:1057F00001D018B010BD022307A8079302F03CFCAB
:1058000050BB1C4B1C489A6D42F400329A659A6D4D
:1058100002F400320092009ADA6C9FED117B42F0A4
:105820000202DA64DB6C8DED027B9FED0F7B03F0EF
:105830000203019302A907238DED047B0693019ACD
:1058400001F098FD00220821262001F0DDFA262033
:1058500001F016FB18B010BDFDF7D2F8D1E700BF7C
:10586000180000000200000000000000000000001E
:1058700000440040001002400004004808B500F059
:10588000A5F8044B00224FF47A711A72C3E90001A3
:1058900008BD00BFD41B002008B500F097F8064BE8
:1058A0001A7A186002B908BD00221A72BDE80840D1
:1058B0000920FCF77DBB00BFD41B002038B500F0E9
:1058C00085F80B4BD3E90012441AA24201D21D7A8B
:1058D00005B138BD012209201A72FCF747FB2146A9
:1058E0000C20FCF7C3FA2846BDE83840FCF7FAB8AC
:1058F000D41B00200D488546FFF742FC0C480D499B
:105900000D4A002302E0D458C4500433C4188C421A
:10591000F9D30A4A0A4C002301E013600432A24280
:10592000FBD306F0C3FBFCF7C7FDFEE700800020B9
:1059300000000020F4010020E8F70008F801002032
:10594000301D0020FEE7000038B50F4B1B680BB977
:10595000012038BD0D494FF47A720546B2FBF3F3CE
:105960000868B0FBF3F001F099FA04460028EFD183
:105970000F2DEDD8024629464FF0FF3001F044FAD2
:10598000034B20461D6038BD0400002000000020AD
:105990000800002010B5032001F024FA0F20FFF7C3
:1059A000D3FF10B10124204610BD0446FFF71AFBB7
:1059B000204610BD034A0449136809680B4413606C
:1059C000704700BFE01B002004000020014B186856
:1059D000704700BFE01B002030B583B00023019367
:1059E000002800F0AA80C56D0446002D00F0AA80B2
:1059F000226893689D0005D5936823F0204323F027
:105A00003F0393609368D80019D4684B68481B68BB
:105A100091689B09A0FB030321F010419B0921F031
:105A20003F0101335B0041F0805191600193019B84
:105A30002BB1019B013B0193019B002BF9D1936892
:105A4000D9007DD4E36D43F01003E365236E01209C
:105A500003432366936813F0040FE36D69D1DB06FB
:105A600067D4E36D23F4817343F00203E365936825
:105A7000DD0709D44FF0A0439B6813F0010F4D4B95
:105A80009B6801D1D9077AD5E568E36B94F82410B7
:105A90002B43A5682B43657F012943EA453343EA3D
:105AA000014355D0E16A21B1256B01F47871294396
:105AB0000B43D568404929401943D1601369616B94
:105AC00023F040630B43136193681B0722D4D16812
:105AD00094F83830257F21F480415B0021F00201E9
