:020000040800F2
:10000000008000209D7700088D6C0008916C00082E
:10001000956C0008996C00089D6C000800000000B9
:10002000000000000000000000000000A16C0008BB
:10003000A56C000800000000A96C0008AD6C000869
:10004000ED770008ED770008ED770008ED77000800
:10005000ED770008ED770008ED770008ED770008F0
:10006000ED770008ED770008ED770008ED770008E0
:10007000ED770008ED770008ED770008ED770008D0
:10008000ED77000800000000B16C0008ED77000873
:10009000ED770008ED770008ED770008ED770008B0
:1000A000CD6C0008D96C0008E56C0008F16C000804
:1000B000FD6C0008ED770008096D0008ED77000879
:1000C000ED770008ED770008ED770008ED77000880
:1000D000ED770008ED770008156D0008ED77000852
:1000E000ED770008ED770008ED770008ED77000860
:1000F000ED770008ED770008ED77000800000000BC
:1001000000000000ED77000800000000ED77000817
:10011000ED77000800000000ED770008ED7700089B
:10012000ED770008ED770008ED770008ED7700081F
:10013000ED7700080000000000000000ED770008E7
:10014000ED770008ED7700080000000000000000D7
:10015000000000000000000000000000000000009F
:10016000000000000000000000000000ED77000823
:10017000ED77000800000000000000000000000013
:1001800000000000ED770008000000000000000003
:10019000000000000000000000000000000000005F
:1001A0000000000000000000ED770008ED77000877
:1001B000ED770008ED770008ED77000800000000FB
:1001C00000000000ED7700080000000000000000C3
:0801D000ED770008ED7700084F
:1001E00010B5054C237833B9044B13B10448AFF371
:1001F00000800123237010BD0002002000000000D9
:10020000041D010808B5034B1BB103490348AFF3B4
:10021000008008BD0000000004020020041D010849
:1002200010F8012B11F8013B012A28BF9A42F7D0A0
:10023000D01A70470000000000000000000000001D
:1002400001F0FF01102A2BDB10F0070F08D010F887
:10025000013B013A8B422DD010F0070F42B3F6D18B
:10026000F0B441EA012141EA014122F007047FF0A4
:1002700000070023F0E80256083C85EA010586EAFB
:10028000010685FA47F5A3FA87F586FA47F6A5FA37
:1002900087F68EB9EED1F0BC01F0FF0102F0070243
:1002A00032B110F8013B013A83EA010313B1F8D1EE
:1002B0000020704701387047002D06BF35460338CF
:1002C000073815F0010F07D1013015F4807F02BF08
:1002D000013015F4C03F0130F0BC0138704700BF59
:1002E000034613F8012B002AFBD1181A0138704776
:1002F00081F0004102E000BF83F0004330B54FEAD7
:1003000041044FEA430594EA050F08BF90EA020F43
:100310001FBF54EA000C55EA020C7FEA645C7FEAD6
:10032000655C00F0E2804FEA5454D4EB5555B8BFF9
:100330006D420CDD2C4480EA020281EA030382EA6A
:10034000000083EA010180EA020281EA0303362DFC
:1003500088BF30BD11F0004F4FEA01314FF4801CCF
:100360004CEA113102D0404261EB410113F0004FE1
:100370004FEA03334CEA133302D0524263EB430398
:1003800094EA050F00F0A780A4F10104D5F1200E36
:100390000DDB02FA0EFC22FA05F2801841F1000191
:1003A00003FA0EF2801843FA05F359410EE0A5F165
:1003B00020050EF1200E012A03FA0EFC28BF4CF096
:1003C000020C43FA05F3C01851EBE37101F000454C
:1003D00007D54FF0000EDCF1000C7EEB00006EEB59
:1003E0000101B1F5801F1BD3B1F5001F0CD34908E3
:1003F0005FEA30004FEA3C0C04F101044FEA44523A
:1004000012F5800F80F09A80BCF1004F08BF5FEAC0
:10041000500C50F1000041EB045141EA050130BDA0
:100420005FEA4C0C404141EB0101013C28BFB1F5B2
:10043000801FE9D291F0000F04BF01460020B1FAFD
:1004400081F308BF2033A3F10B03B3F120020CDAD0
:100450000C3208DD02F1140CC2F10C0201FA0CF0AE
:1004600021FA02F10CE002F11402D8BFC2F1200C13
:1004700001FA02F120FA0CFCDCBF41EA0C019040C9
:10048000E41AA2BF01EB0451294330BD6FEA040412
:100490001F3C1CDA0C340EDC04F11404C4F12002FD
:1004A00020FA04F001FA02F340EA030021FA04F30F
:1004B00045EA030130BDC4F10C04C4F1200220FA66
:1004C00002F001FA04F340EA0300294630BD21FAA4
:1004D00004F0294630BD94F0000F83F4801306BF6A
:1004E00081F480110134013D4EE77FEA645C18BF5E
:1004F0007FEA655C29D094EA050F08BF90EA020FF5
:1005000005D054EA000C04BF1946104630BD91EAEC
:10051000030F1EBF0021002030BD5FEA545C05D1EF
:100520004000494128BF41F0004130BD14F580042E
:100530003CBF01F5801130BD01F0004545F0FE41A2
:1005400041F470014FF0000030BD7FEA645C1ABFD7
:10055000194610467FEA655C1CBF0B46024650EA0E
:10056000013406BF52EA033591EA030F41F400213A
:1005700030BD00BF90F0000F04BF0021704730B5C0
:100580004FF4806404F132044FF000054FF0000195
:1005900050E700BF90F0000F04BF0021704730B556
:1005A0004FF4806404F1320410F0004548BF40422B
:1005B0004FF000013EE700BF42004FEAE2014FEA80
:1005C00031014FEA02701FBF12F07F4393F07F4F5B
:1005D00081F06051704732F07F4208BF704793F05E
:1005E0007F4F04BF41F40021704730B54FF4607471
:1005F00001F0004521F000411CE700BF50EA010274
:1006000008BF704730B54FF000050AE050EA01021C
:1006100008BF704730B511F0004502D5404261EB8C
:1006200041014FF4806404F132045FEA915C3FF4CD
:10063000D8AE4FF003025FEADC0C18BF03325FEA6A
:10064000DC0C18BF033202EBDC02C2F1200300FA1B
:1006500003FC20FA02F001FA03FE40EA0E0021FA40
:1006600002F11444BDE600BF70B54FF0FF0C4CF42E
:10067000E06C1CEA11541DBF1CEA135594EA0C0FE0
:1006800095EA0C0F00F0DEF82C4481EA030621EA1B
:100690004C5123EA4C5350EA013518BF52EA033556
:1006A00041F4801143F4801338D0A0FB02CE4FF008
:1006B0000005E1FB02E506F00042E0FB03E54FF038
:1006C0000006E1FB03569CF0000F18BF4EF0010E30
:1006D000A4F1FF04B6F5007F64F5407404D25FEA2C
:1006E0004E0E6D4146EB060642EAC62141EA5551DF
:1006F0004FEAC52040EA5E504FEACE2EB4F1FD0C21
:1007000088BFBCF5E06F1ED8BEF1004F08BF5FEA9E
:10071000500E50F1000041EB045170BD06F0004650
:1007200046EA010140EA020081EA0301B4EB5C04FD
:10073000C2BFD4EB0C0541EA045170BD41F48011F5
:100740004FF0000E013C00F3AB8014F1360FDEBF1A
:10075000002001F0004170BDC4F10004203C35DAF6
:100760000C341BDC04F11404C4F1200500FA05F379
:1007700020FA04F001FA05F240EA020001F000421A
:1007800021F0004110EBD37021FA04F642EB060190
:100790005EEA430E08BF20EAD37070BDC4F10C04BA
:1007A000C4F1200500FA04F320FA05F001FA04F27E
:1007B00040EA020001F0004110EBD37041F100016A
:1007C0005EEA430E08BF20EAD37070BDC4F1200575
:1007D00000FA05F24EEA020E20FA04F301FA05F2DD
:1007E00043EA020321FA04F001F0004121FA04F285
:1007F00020EA020000EBD3705EEA430E08BF20EA55
:10080000D37070BD94F0000F0FD101F0004640008E
:1008100041EB010111F4801F08BF013CF7D041EA10
:10082000060195F0000F18BF704703F00046520014
:1008300043EB030313F4801F08BF013DF7D043EAE5
:100840000603704794EA0C0F0CEA135518BF95EA9B
:100850000C0F0CD050EA410618BF52EA4306D1D122
:1008600081EA030101F000414FF0000070BD50EA41
:10087000410606BF1046194652EA430619D094EACB
:100880000C0F02D150EA013613D195EA0C0F05D1B5
:1008900052EA03361CBF104619460AD181EA030109
:1008A00001F0004141F0FE4141F470014FF00000C1
:1008B00070BD41F0FE4141F4780170BD70B54FF05C
:1008C000FF0C4CF4E06C1CEA11541DBF1CEA1355DC
:1008D00094EA0C0F95EA0C0F00F0A7F8A4EB0504BE
:1008E00081EA030E52EA03354FEA013100F08880B5
:1008F0004FEA03334FF0805545EA131343EA12637E
:100900004FEA022245EA111545EA10654FEA002632
:100910000EF000419D4208BF964244F1FD0404F5EB
:10092000407402D25B084FEA3202B61A65EB030547
:100930005B084FEA32024FF480104FF4002CB6EB04
:10094000020E75EB030E22BFB61A754640EA0C0084
:100950005B084FEA3202B6EB020E75EB030E22BFC4
:10096000B61A754640EA5C005B084FEA3202B6EB05
:10097000020E75EB030E22BFB61A754640EA9C00C4
:100980005B084FEA3202B6EB020E75EB030E22BF94
:10099000B61A754640EADC0055EA060E18D04FEA52
:1009A000051545EA16754FEA06164FEAC30343EAF2
:1009B00052734FEAC2025FEA1C1CC0D111F4801FBF
:1009C0000BD141EA00014FF000004FF0004CB6E7B8
:1009D00011F4801F04BF01430020B4F1FD0C88BF57
:1009E000BCF5E06F3FF6AFAEB5EB030C04BFB6EB62
:1009F000020C5FEA500C50F1000041EB045170BD55
:100A00000EF0004E4EEA113114EB5C04C2BFD4EB81
:100A10000C0541EA045170BD41F480114FF0000E05
:100A2000013C90E645EA060E8DE60CEA135594EA81
:100A30000C0F08BF95EA0C0F3FF43BAF94EA0C0F84
:100A40000AD150EA01347FF434AF95EA0C0F7FF4F9
:100A500025AF104619462CE795EA0C0F06D152EA4D
:100A600003353FF4FDAE1046194622E750EA410631
:100A700018BF52EA43067FF4C5AE50EA41047FF442
:100A80000DAF52EA43057FF4EBAE12E74FF0FF3CA7
:100A900006E000BF4FF0010C02E000BF4FF0010C78
:100AA0004DF804CD4FEA410C7FEA6C5C4FEA430CF1
:100AB00018BF7FEA6C5C1BD001B050EA410C0CBF40
:100AC00052EA430C91EA030F02BF90EA020F0020A2
:100AD000704710F1000F91EA030F58BF994208BF09
:100AE00090422CBFD8176FEAE37040F001007047C6
:100AF0004FEA410C7FEA6C5C02D150EA013C07D11D
:100B00004FEA430C7FEA6C5CD6D152EA033CD3D067
:100B10005DF8040B704700BF8446104662468C4661
:100B20001946634600E000BF01B5FFF7B7FF002894
:100B300048BF10F1000F01BD4DF808EDFFF7F4FFBD
:100B40000CBF012000205DF808FB00BF4DF808ED48
:100B5000FFF7EAFF34BF012000205DF808FB00BF6B
:100B60004DF808EDFFF7E0FF94BF012000205DF88D
:100B700008FB00BF4DF808EDFFF7CEFF94BF012042
:100B800000205DF808FB00BF4DF808EDFFF7C4FF3B
:100B900034BF012000205DF808FB00BF4FEA410C84
:100BA0007FEA6C5C02D150EA013C0AD14FEA430C67
:100BB0007FEA6C5C02D152EA033C02D14FF00000A4
:100BC00070474FF0010070474FEA410212F50012E2
:100BD00015D211D56FF47873B3EB625212D94FEA84
:100BE000C12343F0004343EA505311F0004F23FA6E
:100BF00002F018BF404270474FF00000704750EAC3
:100C0000013005D111F0004008BF6FF0004070477F
:100C10004FF00000704700BF4A0011D212F50012D9
:100C200011D20DD56FF47873B3EB62520ED44FEA44
:100C3000C12343F0004343EA505323FA02F07047C4
:100C40004FF00000704750EA013002D14FF0FF3002
:100C500070474FF0000070474FEA4102B2F1E043A5
:100C600024BFB3F5001CDCF1FE5C0DD901F0004C93
:100C70004FEAC0024CEA5070B2F1004F40EB8300E3
:100C800008BF20F00100704711F0804F21D113F10F
:100C90003872BCBF01F00040704741F480114FEA48
:100CA0005252C2F11802C2F1200C10FA0CF320FAD1
:100CB00002F018BF40F001004FEAC1234FEAD323EE
:100CC00003FA0CFC40EA0C0023FA02F34FEA430358
:100CD000CCE77FEA625307D150EA01331EBF4FF0E1
:100CE000FE4040F44000704701F0004040F0FE40FC
:100CF00040F40000704700BF53B94AB9002908BF4B
:100D000000281CBF4FF0FF314FF0FF3000F0BEB99C
:100D1000ADF1080C6DE904CE00F03CF8DDF804E01C
:100D2000DDE9022304B0704738B5002200230446F1
:100D30000D46FFF70BFF28B920462946BDE838408D
:100D400000F00AB8204605F1004100F005F84042E5
:100D500061EB410138BD00BFD0B50C4B0022064607
:100D60000F46FFF781FCFFF757FF0446FFF702FC31
:100D7000074B0022FFF778FC02460B463046394607
:100D8000FFF7BAFAFFF748FF2146D0BD0000F03D5B
:100D90000000F0412DE9F047089D8E460446884644
:100DA000002B4AD18A42174662D9B2FA82F64EB176
:100DB000C6F1200301FA06F820FA03F3B74043EA2C
:100DC0000808B4404FEA174E1FFA87FCB8FBFEF143
:100DD000230C0EFB118843EA084301FB0CF29A42F4
:100DE00009D9FB1801F1FF3080F0EA809A4240F205
:100DF000E78002393B449A1AA3B2B2FBFEF00EFB25
:100E0000102243EA024300FB0CFC9C4509D9FB1865
:100E100000F1FF3280F0D6809C4540F2D3803B4405
:100E2000023840EA0140A3EB0C0300211DB1F3405E
:100E30000022C5E90032BDE8F0878B4205D90DB12B
:100E4000C5E9000100210846F5E7B3FA83F100295E
:100E500046D1734502D3824200F20581841A6EEBBB
:100E6000030201209046002DE5D0C5E90048E2E7E5
:100E7000002A00F09080B2FA82F6002E40F0A480A2
:100E80008A1A030C4FEA174E80B2BCB20121B2FBA2
:100E9000FEFC0EFB1C2243EA024304FB0CF29A42C6
:100EA00007D9FB180CF1FF3802D29A4200F2E08019
:100EB000C4469B1AB3FBFEF20EFB123340EA034317
:100EC00002FB04F49C4207D9FB1802F1FF3002D266
:100ED0009C4200F2CA8002461B1B42EA0C40A5E776
:100EE000C1F120068B4022FA06F71F430EFA01F4E7
:100EF00020FA06F32EFA06FE4FEA1749234300FABA
:100F000001F81FFA87FCBEFBF9F01C0C09FB10EE80
:100F100044EA0E4400FB0CFEA64502FA01F209D990
:100F20003C1900F1FF3A80F09C80A64540F2998080
:100F300002383C44A4EB0E041FFA83FEB4FBF9F321
:100F400009FB13444EEA044403FB0CFCA44508D9F6
:100F50003C1903F1FF3E80F08280A4457FD9023B1B
:100F60003C4443EA0040A4EB0C04A0FB02EC6445C3
:100F70007346E14662D35FD05DB1B8EB030264EB28
:100F8000090404FA06F622FA01F31E43CC40C5E92F
:100F9000006400214FE7B1FBF2FC010C41EA0E4175
:100FA00080B240EA01423B4638463C46B846BE461F
:100FB0002026B1FBF7F1A2EB080241EA0C4166E7FB
:100FC000014618E710462CE7C6F120022EFA02F37C
:100FD000B740B14020FA02F24FEA174E0A43B3FB82
:100FE000FEF8BCB20EFB1833110C41EA034108FBBA
:100FF00004F9B04089454FEA104380B23ED97918D0
:1010000008F1FF3C01D289451FD8A1EB0901B1FBD2
:10101000FEF909FB04F80EFB191192B242EA0142F3
:10102000424529D2BA1809F1FF31C4D24245C2D291
:10103000A9F102013A44BEE7F0459DD2BEEB02039E
:101040006CEB070C0138E14696E7A7EB0909494428
:10105000A8F1020CB1FBFEF909FB04F8DBE77346CB
:101060007FE7504666E70846FDE63B44023A33E731
:10107000ACF1020C3B441CE749469CE7A1EB09019B
:10108000C446B1FBFEF909FB04F8C4E7704700BF92
:1010900010B500249AB03C2221460BA8CDE90044AB
:1010A00002940DF082F92022214603A80DF07DF96B
:1010B00030484FF0A0430360042383610123C0E95B
:1010C0000144C0E90344C0E90B444461848380F8CF
:1010D000244080F83840C46380F84040036206F042
:1010E000CFFB002839D10023012222480092694613
:1010F000CDE9013307F066FD002838D11E480922EA
:101100000023CDE90B027F200422CDE90D300F92A0
:1011100001208422139015921648109380220BA967
:10112000ADF850308DF8523016928DF85C3007F0E3
:101130004BFAC8B9114A06237F200724CDE90323BF
:10114000CDE90540042200230A4803A9CDE907237D
:1011500006F0B4FD20B91AB010BD02F06BFFC2E773
:1011600002F068FF1AB010BD02F064FFE2E702F07F
:1011700061FFC3E78C0200200800900C02003004DD
:1011800010B590B03C22002101A80DF00EF91C48CA
:101190001C490422002382610122C0E90013C0E936
:1011A0000233C0E904338383026280F8243080F87C
:1011B0003830C36380F8403006F062FBC8B912488B
:1011C0000922CDE90102042000237F240122059099
:1011D00001A90B480693CDE903340992ADF82830F4
:1011E0008DF82A308DF8343007F0EEF920B910B0C0
:1011F00010BD02F01FFFE2E702F01CFF10B010BDAF
:1012000020020020000100500800900C00000000A7
:1012100010B504469AB00021442209A8CDE9041172
:10122000CDE9061108910DF0C0F82368B3F1A04F85
:1012300004D03D4A93423BD01AB010BD4FF4004257
:101240004FF0805309A80992189308F06FFE002808
:101250005BD1364A13680133012B136009D1344B3B
:10126000DA6C42F40052DA64DB6C03F4005300934E
:10127000009B2F4BDA6C42F00102DA64DB6C9FEDCD
:10128000267B03F0010301938DED047B019B04A9F0
:1012900000244FF09040069407F0C0FF224604213E
:1012A000122007F005FD122007F03EFD1AB010BD18
:1012B0004FF400424FF0805309A80992189308F0A8
:1012C00035FE28BB194A13680133012B136009D17D
:1012D000174BDA6C42F40052DA64DB6C03F400530F
:1012E0000293029B124BDA6C42F00102DA64DB6C6F
:1012F0009FED0B7B03F0010303938DED047B039BB8
:1013000004A900244FF09040C5E702F093FEA0E747
:1013100002F090FED6E700BF0500000003000000C9
:101320004000000003000000000100501C020020EB
:101330000010024070B505F02FFA044600F0A2FC40
:10134000164D08B9237AB3B1D5F8A06001F094F82E
:101350000446F8B916B995F89830CBB100F006FDFF
:10136000A0B995F898308BB100F006FDA0B97CB912
:1013700076B1042070BDD5F8A06001F07DF848B9C1
:1013800095F898300124002BE8D101E0012070BDD0
:10139000022070BD082070BD052070BD040800202B
:1013A00038B505F0F9F9044601F066F808B10020F7
:1013B00038BD00F0DBFC0028F9D100F0DDFC00288E
:1013C000F5D000F0DFFC0028F1D10C4D284605F0E7
:1013D00053FA0028EBD095F89830002BE7D0D5F8D9
:1013E000A430002BE3D100F04DFC20B9207A003866
:1013F00018BF012038BD012038BD00BF04080020FF
:1014000038B52DED028B08EE900ADFED3B7A3B4CB0
:10141000F8EEE88A94ED078A68EEA78ADFED387A5D
:1014200038EEC88AB0EEC88AB4EEE78AF1EE10FA58
:1014300054D901F02FFED0ED057AF5EEC07AF1EE29
:1014400010FAC8BF88EE277AD0ED047AD4BF9FED9A
:101450002D1AB1EEC71AF5EEC07AC8BF31EE011AE7
:10146000F1EE10FACABF38EE088A9FED267A88EEB0
:10147000277AD4ED047AB4EEC71AF1EE10FA77EEBB
:10148000A77AB8BFB0EE471AB4EEE71AF1EE10FA39
:1014900044BF94ED041A31EE011AB5EEC01AF1EE14
:1014A00010FA17D9184D94ED070A2846F0EE680A8D
:1014B00005F0CCFFAB69C4F8903095ED070A01F058
:1014C0001BFF062084ED250A00F068FBBDEC028BB3
:1014D000012038BDBDEC028B002038BD0A4BC4EDA5
:1014E000248A00210122C4F894105A62FFF722FFD7
:1014F00000F054FBEAE700BFBD3786350408002042
:10150000BD3706350000000060070020704700BFAF
:1015100008B500F049FB831FDBB2012B07D9032874
:1015200005D0FFF707FFBDE8084000F037BB08BD56
:1015300038B51D4B1B7873B100F036FB0446FFF73E
:101540002FFF08B9002038BD601FC0B201288CBF32
:101550000020012038BD05F01FF9044600F08CFF83
:101560000028EFD100F002FC0028EBD10F4D2846F7
:1015700005F082F90028E5D0D5F8A030002BE1D0A5
:1015800000F080FB10B9237A002BDBD000F012FBB7
:101590000028D7D095F89830002BD3D000F0F2FB7C
:1015A000003818BF012038BD0003002004080020C7
:1015B00038B500F061FF08B1002038BD074B0125A8
:1015C00083F898500446FFF7B5FE00F0E7FA21468D
:1015D000032000F047FE284638BD00BF0408002065
:1015E0000C4B0D48D3ED067A0C4A0D4910B5FDEEB3
:1015F000E77A002404700120C1ED007A146083F8BA
:10160000984000F0CBFA2146042000F02BFE012088
:1016100010BD00BF0408002000030020F8020020D5
:10162000FC020020134B144A1449D3ED067A70B51E
:101630000125556200240C70D9695160D969916106
:101640000021D16183F89840DA69C3F89020FDEE5B
:10165000E77AC3F894100A4E0A4BC6ED007A0720C9
:101660001C6000F09BFA2146052000F0FBFD284697
:1016700070BD00BF040800206007002000030020A8
:10168000FC020020F8020020134B144A1449D3ED49
:10169000067A70B50125556200240C70D969516035
:1016A000D96991610021D16183F89840DA69C3F862
:1016B0009020FDEEE77AC3F894100A4E0A4BC6ED6F
:1016C000007A28461C6000F069FA2146062000F0E6
:1016D000C9FD284670BD00BF040800206007002037
:1016E00000030020FC020020F802002070B52DED60
:1016F000028B314B314D1B7895ED068A04469BB326
:1017000000F052FA0546FFF74BFE18B9BDEC028B0C
:10171000002070BD681FC0B20128F7D8FDEEC87A5E
:10172000214617EE905A284601F0FEFD0028EDD024
:10173000E3172C1943EBE57501F0ACFC0268D317F5
:10174000944275EB0303E1DB01F0A4FC4268D3177C
:10175000A242AB41DADB204601F0C0FDBDEC028BBA
:10176000BDE87040FFF74CBE05F016F8064600F0E5
:1017700083FE0028CAD100F0F9FA0028C6D1284615
:1017800005F07AF80028C1D0D5F8A030002BBDD0E4
:1017900000F078FA10B9337A002BB7D000F00AFACB
:1017A0000028B3D095F89830002BAFD000F0EAFABB
:1017B0000028B3D1AAE700BF0003002004080020DE
:1017C00070B5224B1B780546BBB100F0EDF904461D
:1017D000FFF7E6FD08B9002070BD053CE4B2012C1E
:1017E000F9D8284601F0BAFD0028F4D0284601F0C7
:1017F00075FDBDE87040FFF703BE04F0CDFF044661
:1018000000F03AFE0028E6D100F0B0FA0028E2D15C
:101810000F4E304605F030F80028DCD0D6F8A03066
:10182000002BD8D000F02EFA10B9237A002BD2D09A
:1018300000F0C0F90028CED096F89830002BCAD01E
:1018400000F0A0FA0028CCD1C5E700BF00030020BB
:10185000040800202DE9F84330F000431AD080EA54
:10186000E073A3EBE073642B044613DCFFF798FDF1
:1018700080B1194ED6ED067AFDEEE77AE31717EE42
:10188000902A101943EBE27310F1004243F1000378
:10189000002213B10020BDE8F883DFF844900F4F19
:1018A000DFF8408038600125C8F8002089F8005032
:1018B000FFF7A6FD50B9D6ED067A89F80000FDEED7
:1018C000E77AC8F80000C7ED007AE3E70F20214669
:1018D00000F0C8FC2846DEE704080020FC020020D7
:1018E00000030020F8020020014B1878704700BF69
:1018F0000003002008B500F057F9831FDBB2022B6C
:1019000006D9032804D0BDE80840022000F046B9FB
:1019100008BD00BF30B108B5FFF70CFDBDE80840B9
:1019200000F03CB9022000F039B900BF2DE9F041C8
:101930002DED028B00F0A0FD002834D1674C2378F8
:101940001BB100F031F9062851D0FFF7F1FD90B935
:10195000634A644B01215162D8695060D869906133
:101960000021D161DA69C3F89020C3F89410BDEC6E
:10197000028BBDE8F08100F017F906286FD0594DB1
:1019800095ED1C8A01F086FBD0ED037AB4EEE78A70
:10199000F1EE10FAEBDD01F07DFBBDEC028BC368CC
:1019A0002B67BDE8F0814D484E4B4D4AD3ED067A8A
:1019B0004D4D00210170012083F898105062D869C4
:1019C0005060BDEC028BD86990610024D461DA6963
:1019D000C3F89020FDEEE77AC3F89440434BC5ED81
:1019E000007A0820BDE8F041196000F0D7B83C4EFD
:1019F000736A002BA9D0DFF8F0803A4DD8F8007058
:101A000095ED068AFFF7CCFC00284AD007EE907AC5
:101A1000BDEEC88AF8EEE77A18EE103A9FED347AF8
:101A2000324A67EE877AFF1AB7F1004F4FF0000392
:101A3000C6ED017AC6ED067AF361C5ED247AC5F8E4
:101A4000943004D0002FB8BF7F42052F16DD1368F5
:101A500042F20F718B4211D80133136087E7204C9B
:101A6000204D94ED070A01F047FC84ED070AA369B5
:101A7000C5F89030E369C5F8943081E7D5ED067A72
:101A8000FDEEE77A00232370C8ED007A85F89830E0
:101A90001360FFF74FFCBDEC028BBDE8F04100F096
:101AA0007DB8D5ED067AEA697260E9690F4AB161DD
:101AB0000023F361FDEEE77A1060EA69C5F8902033
:101AC0002070C8ED007AC5F89430FFF733FCBDEC08
:101AD000028BBDE8F04100F061B800BF00030020B8
:101AE0006007002004080020FC020020F80200200B
:101AF000BD37863510B5214C237813B1204B5B6A76
:101B000053B900F051F8072833D02378E3B100F03F
:101B10004BF8022825D010BD00F046F80628F0D07A
:101B2000184A1948D2ED067A1849FDEEE77A0023E3
:101B30002370C0ED007A0B6082F89830FFF7FAFB53
:101B4000BDE8104000F02AB800F02EF80628DED1DB
:101B50000B4B5B6A002BDAD0FFF7ECFB00F01EF8B2
:101B6000D5E7FFF7E7FB0228D5D0BDE8104000F02D
:101B700015B8FFF7DFFB00F011F8C6E700030020FF
:101B80006007002004080020FC020020F80200206A
:101B9000014B00221A70704701030020014B18709E
:101BA000704700BF01030020014B1878704700BF49
:101BB0000103002008B500F05FFC08B1002008BD5B
:101BC00000F0CAF90028F9D0034B1878043802282D
:101BD0008CBF0020012008BD0103002009289ABF06
:101BE000024B53F820000248704700BF202701082D
:101BF000F0260108034B04495960002001221860B7
:101C00001A817047040300200060EA46034B044930
:101C100059600020012218601A81704704030020D7
:101C20000060EA4618B107C8014B83E80700704717
:101C300004030020014B1860704700BF040300201C
:101C4000014B83ED010A7047040300200028034B79
:101C5000B4BF4FF0FF3201221A7270470403002014
:101C6000014B1868704700BF04030020014B93ED3F
:101C7000010A704704030020014B93F908007047E4
:101C800004030020014B587A704700BF0403002072
:101C90000038024B18BF012058727047040300201F
:101CA0000B4B9FED0C7A1A68D3ED016A93F908305B
:101CB000821A07EE902AF8EEE77A00EE103A67EE05
:101CC000877AB8EEC00A87EEA67A27EE000A704738
:101CD00004030020DB0FC940014B024A1A60704721
:101CE000100300200100000130B41C4A93781478DE
:101CF0005578C3B18CB90321A446084601250023B9
:101D000064F307036CF30F2365F3174360F31F635A
:101D1000136030BC022000F0A5BA0121002508465E
:101D2000AC460C46EBE7002CF7D15DB9022805D094
:101D300003280DD1AC4601460125E0E701464FF0EE
:101D4000010CDCE70221254608464FF0010CD6E7DE
:101D500001210846AC460C46D1E700BF1003002025
:101D6000014BD878704700BF10030020014B187852
:101D7000704700BF10030020014B5878704700BF28
:101D800010030020014B9878704700BF100300201B
:101D900058B300681F4BC2B210B5B2F1000E18BFA5
:101DA0004FF0010E4FF0000110F47F4C18BF4FF0C0
:101DB000010C6EF307016CF30F2110F47F0F186014
:101DC000C0F30724198006D00121997072B903214C
:101DD000D9705A7010BD4AB974B9DA78022A13D092
:101DE000032A0DD00C4A1A6010BD70470121002251
:101DF000D970A3F8012010BD4FF400725A8010BDB5
:101E000001221C809A7010BD4FF480721A809C7061
:101E100010BD00BF1003002001000001144BA8B941
:101E20005A7899781870B2F1000C18BF4FF0010C75
:101E300083F801C069B9BAB9DA78022A10D0032A46
:101E400004D14FF48072A3F801207047094A1A6048
:101E5000704703214FF48072D970A3F801207047B6
:101E60000122A3F8012070474FF400725A80704796
:101E70001003002001000001174B10B1174A1A602F
:101E800070471A7899785870B2F1000C18BF4FF06B
:101E9000010C83F800C029B1012199701AB90322FD
:101EA000DA7070471AB14FF480725A807047D9784F
:101EB000022907D003290AD001214FF4807219703A
:101EC0005A8070474FF4807119809A7070470121D1
:101ED0001A709970704700BF1003002000010002C3
:101EE00018B11B4B1B4A1A60704710B4184B1C7872
:101EF00059789870B4F1000C18BF4FF0010C0246ED
:101F00006CF30702B1F1000C18BF4FF0010C6CF339
:101F10000F221A804CB991B9DA78022A0BD0032A21
:101F200012D00122DA701A8002E00122DA705870B1
:101F30005DF8044B70474FF480721A80F8E7022274
:101F4000DA705DF8044B7047012219809A70EFE750
:101F5000100300200000010308B500F08DFA064BC5
:101F60001A781043C0B220B99878003818BF012001
:101F700008BD002008BD00BF1003002000487047C6
:101F800010030020014B00221A7070471403002038
:101F900038B5474B474AB3F8E0309B0203F1FF6482
:101FA00004F5FF242168914202D16268012A0BD016
:101FB00001F050F804F0E6FBFFF78EFEFFF726FE77
:101FC0003D4B0020187038BDA268382AF0D103F1CB
:101FD00000633A4AA3F5FE60A3F5F7614FF0FF3CBA
:101FE00010F8013B83EA0C0343F3000C0CEA020CEB
:101FF0008CEA530C43F34003134083EA5C034CF335
:10200000400C0CEA020C8CEA530C43F340031340DF
:1020100083EA5C034CF3400C0CEA020C8CEA530C90
:1020200043F34003134083EA5C034CF3400C0CEA97
:10203000020C8CEA530C43F340031340814283EAC1
:102040005C0CCDD1E3686FEA0C0C9C45B0D104F177
:102050001005284601F084F80028A9D094F83830FB
:10206000013B022BA4D8D4ED107AF5EEC07AF1EE44
:1020700010FA9DD994F944305A1C01D0012B97D104
:1020800094F84530012B93D8284601F007F804F165
:102090002C0004F085FB04F13500FFF779FE04F114
:1020A0003C00FFF7BFFD044B0120187038BD00BF96
:1020B0000075FF1F53544B4D140300202083B8EDCF
:1020C00070B52DED028B5A4BAAB03C22002109A815
:1020D000B3F8E0400CF069F953A3D3E900233821A9
:1020E000CDE90623089100F0D5FF05460FCD0DF18F
:1020F000280CACE80F0095E807008CE8070004F016
:102100004BFB024600685168127A11AB03C31A7088
:10211000FFF734FF0368CDF84D30FFF7A1FD064609
:10212000FFF7A4FDB0EE408AFFF7A6FD0546FFF7D6
:10213000A9FD404A8DF85D00A40215968DED168A22
:102140008DF85C500DF127010DF15F004FF0FF336A
:1021500011F801EF8EEA030E4EF300034EF3400C2C
:10216000134083EA5E030CEA020C8CEA530C43F33F
:1021700040034CF3400E134083EA5C030EEA020E68
:102180008EEA530E43F340034EF3400C134083EAB0
:102190005E030CEA020C8CEA530C43F34003134039
:1021A0004CF3400E83EA5C0388420EEA020C8CEA90
:1021B0005303CDD1DB43482206A918A809930CF09C
:1021C000F4F906F005FF0021A4F500630122CDE932
:1021D0000111DB0A01A902A8CDE90323059206F04B
:1021E0003FFFC8B918AD641B04F1FF642AAE04F5C3
:1021F000FF24D5E900236119002006F031FE58B90B
:102200000835B542F5D106F0F7FE0B4B01201870EA
:102210002AB0BDEC028B70BD06F0EEFE00202AB0A5
:10222000BDEC028B70BD00BF53544B4D010000004C
:102230000075FF1F2083B8ED14030020014B1878B0
:10224000704700BF1403002003480449044A0023D8
:1022500003800B80138070471A03002018030020AE
:102260001603002038B50C46054605F003FB10495F
:102270000B880A889BB2013202F03F0203EB430352
:102280009B000A800B4A0C49D0501A440B881571E8
:102290009BB23F2B946004D80B8801339BB20B8018
:1022A00038BD064A1388013303F03F03138038BD5D
:1022B0001A0300201C03002016030020180300202E
:1022C000044A13889BB2FF2B9ABF1088C0B2FF202C
:1022D000704700BF16030020034618B31348B0F838
:1022E00000C01FFA8CF2D2B110B4114C11492288EF
:1022F00092B202EB420201EB82022188013101F02D
:102300003F01218001885DF8044B013989B20180C9
:1023100007CA4FF0010C83E80700604670479446F7
:102320006046704784466046704700BF1603002031
:10233000180300201C0300200F289ABF024B53F8FB
:1023400020000248704700BF48270108F026010816
:102350000249034A00230B601370704720060020D7
:102360001C060020D8B10E4A38B511680446012376
:1023700001388340194208D00C2C18BF0820BDE852
:10238000384008BF0920FFF709BC1168054D0B4311
:102390000A20214613602C70FFF764FFECE77047BA
:1023A000200600201C06002000B9704710B5274CFD
:1023B0000146236801380122824023EA02030B20F0
:1023C0002360FFF74FFF2368D3B119052BD45A05BB
:1023D0001BD4980529D4D90529D41A0629D458061E
:1023E00029D4990629D4DA061BD4180727D459070B
:1023F00027D49A0727D413F0010318BF012305D16E
:10240000134A137023683BB110BD0B23104ADBB293
:1024100013702368002BF7D1BDE810400120FFF7AF
:10242000BDBB0523F2E70C23EAE70A23EEE7092305
:10243000ECE70823EAE70723E8E70623E6E70423B7
:10244000E4E70323E2E70223E0E700BF20060020E1
:102450001C06002008B5064A064B00210B2011601F
:102460001970FFF7FFFEBDE808400120FFF796BB9B
:10247000200600201C060020024B1868003818BFF8
:102480000120704720060020014B1878704700BFDC
:102490001C060020014B1868704700BF2006002072
:1024A0000C289ABF024B53F820000248704700BF27
:1024B00088270108F026010838B5032303700D684A
:1024C0000446E86AFEF756F816A3D3E90023FEF7A0
:1024D000CBF8FEF7A1FBEA6A60800023013A2A6488
:1024E00001210022E36023616361A361E361236250
:1024F0006362A362E36223636363A363E3632364AE
:10250000A365074860640A23C4E91722C4E91922B5
:10251000C4E91B11C4E91D1338BD00BFAFF300802F
:10252000CDCC4C3FCDCCCCCCCCCCEC3F0000000093
:102530002DE9F8432DED048BB0EE608AF0EE408A71
:10254000F0EE400AB0EE480A8146F0EE419A884625
:1025500015460EF0EDFCB5EEC00AF1EE10FA10EEE5
:10256000100A08D5FEF728F855A3D3E90023FDF794
:10257000C5FEFEF771FBFEF71FF853A3D3E9002356
:1025800006460F46FEF770F8FEF766FB28EE088A4F
:1025900000EE100A0EF058FDA8EEA88AFDEEC07AF3
:1025A000F1EEC88A17EE904A0134062CA8BF062423
:1025B000013C2046FDF7EEFF3DA3D3E90023FEF7E3
:1025C00053F802460B4630463946FDF795FEFEF7B6
:1025D00043FBDFED397A68EEA78A09EE100AFDF7B2
:1025E000EBFF88EEA98A02460B4631A1D1E9000132
:1025F000FDF782FEFEF730FB00EE100A0EF0DEFC67
:10260000F0EE408AB0EE490A0EF0D8FC68EE288A57
:1026100028EE008AF7EE007A38EE887AB4EEE77A90
:10262000F1EE10FADDBF77EEC77AB6EE007A67EE0C
:10263000877ADFED227A042C32D8DFE804F0151A0D
:10264000232A030078EEA78AF0EE676A38EE287A2C
:10265000F0EE687ABDEC048BC9ED007A88ED007A63
:10266000C5ED006ABDE8F88338EEA77A78EE076A10
:10267000F0E738EE278AB0EE677A78EE886AF0EEF7
:10268000487AE7E778EEA76AB0EE677A78EE267ABE
:10269000E0E738EE277AF0EE676A78EE877AD9E7D6
:1026A00078EE276A38EEA67AD4E700BFAFF3008051
:1026B00065732D3852C1F03FD7B3DD3F00000000F5
:1026C000182D4454FB211940C5ACAEA4C88EEE3F72
:1026D000408810B48142084C28BF014682422468D9
:1026E00028BF0246984228BF18466163A263E06390
:1026F0005DF8044B704700BF001B002030B52DED86
:10270000048B90ED169A90ED0A8A85B0B0EE490AD6
:1027100004460D460EF00EFC68EE008AB0EE490A43
:10272000C4ED0B8A0EF04AFC68EE000A95ED1D1A06
:10273000C4ED0C0A03AA02A901A8B0EE680AFFF7CB
:10274000F7FE6088DDED026A9DED037A164B9DED84
:10275000016A1C6807EE900AF8EEE77A67EEA66A4F
:1027600027EE877AFCEEE66A67EE867A16EE903AF6
:10277000BCEEC77A99B2FCEEE77A17EE103A9AB23D
:1027800017EE903A81429BB228BF0146824228BF91
:102790000246834228BF03466363A163E26305B038
:1027A000BDEC048B30BD00BF001B0020000000000A
:1027B000F0B52DED048BD1ED179A91ED187AF0EE6E
:1027C000007AF0EE696AE7EE276A044685B0C4ED48
:1027D000039A16EE900A0D4617461E46FDF7ECFECC
:1027E00050A3D3E90023FDF73FFFFEF735FAD5EDFF
:1027F000098A2061B0EE680A08EE100A0EF09AFB12
:10280000B0EE409AB0EE680A0EF0D8FB68EE096AA6
:1028100028EE008A95ED1C7A94ED086AA9EE898A63
:102820000023E36169EE807AB4EEC76A76EEE75A78
:10283000F1EE10FAF0EE408A84ED058AC4ED065AF6
:1028400006DCB1EE477AB4EEC76AF1EE10FA62D553
:1028500084ED087A77EEE67AB1EE480A77EE877A69
:102860003846C4ED107A84ED0F0A01F0FDFDF0EE5C
:10287000407A3046C4ED097A94ED100A01F0F4FD77
:10288000F0EE407A94ED097A95ED1D1AC4ED0A7ABE
:1028900067EE890A28EEC00AE7EE280A03AA02A911
:1028A000A7EE090A01A8C4ED0C0A84ED0B0AFFF794
:1028B0003FFE6088DDED026A9DED037A184B9DEDC9
:1028C000016A1C6807EE900AF8EEE77A67EEA66ADE
:1028D00027EE877AFCEEE66A67EE867A16EE903A85
:1028E000BCEEC77A99B2FCEEE77A17EE103A9AB2CC
:1028F00017EE903A81429BB228BF0146824228BF20
:102900000246834228BF03466363A163E26305B0C6
:10291000BDEC048BF0BDB0EE467A9BE7AFF30080D0
:10292000001B00201D339045A779E23F0000000006
:102930002DE9F041066E2DED068B1F46036F013623
:102940009E4284B0044606660D46904680F0AF80F5
:10295000D0ED089A95ED17AA95ED187A84ED03AAA3
:10296000F0EE007AF0EE4A6AE7EE276A16EE900A79
:10297000FDF722FE5DA3D3E90023FDF775FEFEF708
:102980006BF9D5ED098A2061B0EE680A08EE100AED
:102990000EF0D0FAB0EE409AB0EE680A0EF00EFBE0
:1029A00068EE096A28EE008A95ED1C7AAAEE098A7B
:1029B0000023E3616AEE007AB4EEE97A36EEE76A64
:1029C000F1EE10FAF0EE408A84ED066A84ED058A95
:1029D00006D4B1EE477AB4EEE97AF1EE10FA63DD8F
:1029E00084ED087A77EEE67AB1EE480A77EE877AD8
:1029F0004046C4ED107A84ED0F0A01F035FDF0EE8B
:102A0000407A3846C4ED097A94ED100A01F02CFDA5
:102A1000F0EE407A94ED097A95ED1D1AC4ED0A7A2C
:102A200069EE270A20EE680AE8EE870A03AA02A9DF
:102A3000A9EE070A01A8C4ED0C0A84ED0B0AFFF702
:102A400077FD6088DDED026A9DED037A264B9DEDF2
:102A5000016A1C6807EE900AF8EEE77A67EEA66A4C
:102A600027EE877AFCEEE66A67EE867A16EE903AF3
:102A7000BCEEC77A99B2FCEEE77A17EE103A9AB23A
:102A800017EE903A81429BB228BF0146824228BF8E
:102A90000246834228BF03466363A163E26304B036
:102AA000BDEC068BBDE8F081B0EE697A9AE7D1ED16
:102AB0000C7A90ED020A30EE670A0023036680ED7F
:102AC0000E0A109801F0D0FCD4ED117A94ED087A3A
:102AD000F7EE009A79EEE79A69EE879AE7EE809A28
:102AE000C4ED089A36E700BF001B00201D33904557
:102AF000A779E23F00000000F0B5C66D2DED068B12
:102B00001F46C36E01369E4285B00446C6650D461B
:102B100080F0D180226E236F01329A42226680F0CB
:102B2000AE80D4ED089A95ED17AA95ED187A84ED4C
:102B300003AAF0EE007AF0EE4A6AE7EE276A16EE94
:102B4000900AFDF739FD65A3D3E90023FDF78CFD5D
:102B5000FEF782F8D5ED098A2061B0EE680A08EE2A
:102B6000100A0EF0E7F9B0EE409AB0EE680A0EF0E7
:102B700025FA68EE096A28EE008A95ED1C7AAAEE1D
:102B8000098A0023E3616AEE007AB4EEE97A36EE50
:102B9000E76AF1EE10FAF0EE408A84ED066A84ED01
:102BA000058A06D4B1EE477AB4EEE97AF1EE10FA6E
:102BB00062DD84ED087A77EEE67AB1EE480A77EEC8
:102BC000877A3846C4ED107A84ED0F0A01F04CFC88
:102BD000F0EE407A1098C4ED097A94ED100A01F0F5
:102BE00043FCF0EE407A94ED097A95ED1D1AC4EDA0
:102BF0000A7A69EE270A20EE680AE8EE870A03AA35
:102C000002A9A9EE070A01A8C4ED0C0A84ED0B0A7B
:102C1000FFF78EFC6088DDED026A9DED037A2E4B96
:102C20009DED016A1C6807EE900AF8EEE77A67EE00
:102C3000A66A27EE877AFCEEE66A67EE867A16EEDB
:102C4000903ABCEEC77A99B2FCEEE77A17EE103AEA
:102C50009AB217EE903A81429BB228BF0146824257
:102C600028BF0246834228BF03466363A163E26331
:102C700005B0BDEC068BF0BDB0EE697A9BE7D5EDF3
:102C80000C7A94ED020A119830EE670A002323664D
:102C900084ED0E0A01F0E8FBD4ED117A94ED087A88
:102CA000F7EE009A79EEE79A69EE879AE0EE279AB6
:102CB000C4ED089A37E792ED060AD1ED077A30EEB7
:102CC000670A0023C36580ED0D0A129801F0CCFB62
:102CD00084ED020A1EE700BF001B00201D33904553
:102CE000A779E23F10B500220124C0E92742C0E9DC
:102CF00029420C4601F0B4F9032200232270A36597
:102D0000A3626365A36410BDF8B510EE107A2DEDD3
:102D1000048B064638460C461546FDF74DFC86A347
:102D2000D3E90023FDF7A0FCFDF796FFD6ED0C8A52
:102D3000D6F8A830E06408EE100AB0EEE87A052B69
:102D400000F2E780DFE803F03043617E9703D4EDC3
:102D5000127A06EE107A76EE277AF5EE006AF4EE35
:102D6000E67AF1EE10FAC4ED127A2DDBDFED767A19
:102D7000B4EEE77AF1EE10FA26D896ED070A0027AE
:102D800086ED230A2770D6ED227A70EE277AF6EECA
:102D9000000A67EEA00AB7EE001A284604F056FBB8
:102DA0000123C6E928370FE0D4ED0A7AB1EE047AA0
:102DB000F4EEC77AF1EE10FA40F1898006EE907ACF
:102DC000E6EE877AC4ED0A7ABDEC048BF8BD94ED8B
:102DD000169A19EE100AFDF7EFFB57A3D3E900236B
:102DE000FDF7C8FE50B1DFED587AF4EEE78AF1EE58
:102DF00010FAACBF03230223C6F8A83038EE098AC4
:102E000084ED168ABDEC048BF8BDA56D2846FDF750
:102E1000D3FB4BA3D3E90023FDF7A2FE48B1DFEDBE
:102E20004B7AF4EEE78AF1EE10FA68D80323C6F87D
:102E3000A83007EE905A77EEC87ABDEC048BC4ED4B
:102E4000167AF8BDD4ED127A07EE107A77EE277A6B
:102E5000B7EE007AF4EEC77A0025F1EE10FAA56518
:102E6000C4ED127AB0DB304601F0FAF80423A56411
:102E7000C6F8A830A8E7D4ED127A237806EE907A47
:102E800076EEA77A012BC4ED127A03D0304BA36003
:102E900001222270F5EE006AF4EEE67AF1EE10FA05
:102EA00092DBDFED297AB4EEE77AF1EE10FA8BD8F7
:102EB000D4ED027AF169C6F8881000230522F1EEFC
:102EC000677AC6F8A820C4ED027AA3647CE7D4ED43
:102ED000127A84ED0A7A06EE107A76EE277AF7EE09
:102EE000006AF4EEE67AF1EE10FAC4ED127AFFF61B
:102EF0006BAF00230122C6F8A820A36464E7002377
:102F0000002203212170A3626362A365C6E928221F
:102F10005AE701220023C6E92723C6E929233046C0
:102F200001F09EF8002303222270A365A36263656B
:102F3000A36449E7AFF30080182D4454FB211940E6
:102F4000182D4454FB2119C00AD7233C0AD723BCAF
:102F5000CDCC4C3D00487047A41E01080048704786
:102F6000B81E010800487047CC1E01080048704791
:102F7000E41E010810B500248AB0CDE90444CDE96F
:102F80000644224B0894D96C41F00401D964D96CF1
:102F900001F0040100910099D96C41F02001D9643D
:102FA000D96C01F0200101910199D96C41F0010126
:102FB000D964D96C01F0010102910299D96C41F0F8
:102FC0000201D964DB6C03F00203224603934FF441
:102FD00000414FF09040039B06F0F2FA4FF400429C
:102FE000012304A94FF09040CDE90423CDE9064424
:102FF00006F014F94FF4806200230548069404A9F2
:10300000CDE9042306F00AF90AB010BD0010024011
:1030100000080048094B0A480A4ADFF834C09A60A1
:1030200042F21071C3E90001C82207480749C3F8FA
:103030000CC0186159619A61704700BF28060020D2
:10304000F0D8FFFFCDCC4C3E0AD7A33B0AD7A33C18
:103050009A99993E094B0A480A4ADFF834C09A60A7
:1030600042F21071C3E90001C82207480749C3F8BA
:103070000CC0186159619A61704700BF2806002092
:10308000F0D8FFFFCDCC4C3E0AD7A33B0AD7A33CD8
:103090009A99993E0048704728060020002858D089
:1030A000D0E900239A42844653DA2A498A4250DB07
:1030B0004CF250318B424CDC9B1A632B49DDD0ED36
:1030C000027AF5EEC07AF1EE10FA42D4B7EE007A49
:1030D000F4EEC77AF1EE10FA3BDC90ED037AF4EEF1
:1030E000C77AF1EE10FA34DCF0EE087AB4EEE77A43
:1030F000F1EE10FA2DDCD0ED047AF5EEC07AF1EEA7
:1031000010FA26D99FED147AF4EEC77AF1EE10FA90
:103110001FDCD0ED057AF5EEC07AF1EE10FA18D981
:10312000B7EE007AF4EEC77AF1EE10FA11DC83699B
:1031300042F20F72013B93420BD8BCE80F0010B46F
:10314000064C0FC49CE8070084E807005DF8044BB8
:1031500070477047B03CFFFFCDCCCC3D2806002027
:1031600000284FD0D0E900239A424ADA26498A4201
:1031700047DB4CF250318B4243DC9B1A632B40DD22
:10318000D0ED027AF5EEC07AF1EE10FA39D4B7EE4E
:10319000007AF4EEC77AF1EE10FA32DC90ED037AA1
:1031A000F4EEC77AF1EE10FA2BDCF0EE087AB4EE0A
:1031B000E77AF1EE10FA24DCD0ED047AF5EEC07A6D
:1031C000F1EE10FA1DD99FED117AF4EEC77AF1EE07
:1031D00010FA16DCD0ED057AF5EEC07AF1EE10FAB1
:1031E0000FD9B7EE007AF4EEC77AF1EE10FA08DCE8
:1031F000806942F20F73013898428CBF0020012091
:1032000070470020704700BFB03CFFFFCDCCCC3DE5
:10321000002A0ADB81420B46A8BF03468142B8BFA1
:103220000146C81AB0EB420F01DC0020704713447E
:10323000891A8B42F9DA264A9342F6DB4CF2503275
:103240009142F2DCCA1A632AEFDD224AD2ED027AF9
:10325000F5EEC07AF1EE10FAE7D4B7EE007AF4EEAC
:10326000C77AF1EE10FAE0DC92ED037AF4EEC77A59
:10327000F1EE10FAD9DCF0EE087AB4EEE77AF1EE6E
:1032800010FAD2DCD2ED047AF5EEC07AF1EE10FA43
:10329000CBD99FED117AF4EEC77AF1EE10FAC4DCC7
:1032A000D2ED057AF5EEC07AF1EE10FABDD9B7EE9F
:1032B000007AF4EEC77AF1EE10FAB6DC906942F2C9
:1032C0000F7C01386045B0D8C2E900310120704759
:1032D000B03CFFFF28060020CDCCCC3D054A03467C
:1032E0001068984204DC52689342A8BF13461846FF
:1032F000704700BF280600200A4BB0EE407A93EDDD
:10330000040AB4EEC70AF1EE10FA0AD4F1EE407ADC
:10331000F4EEC77AF1EE10FAB4BFB0EE470AB0EEA1
:10332000670A70472806002030B40B4D2C68CB1775
:10333000411843EBE073E217A14273EB020208DB92
:103340006868C21788429A41ACBF0120002030BC97
:103350007047002030BC704728060020054B1A68D3
:10336000904205DB5B689842CCBF0020012070478B
:10337000002070472806002010B51C481C4C002374
:103380004FF0000C1A461946C0F81CC0C0F820C007
:10339000C0F814C0C0F818C0C0F80CC0C0F810C005
:1033A000C0F824C0C0F828C0C0F808C0FFF790F9E2
:1033B000237803B910BD08210E4808F05BF80821F6
:1033C0000C4807F08FFA04210A4808F053F804214A
:1033D000084807F087FA0021064808F04BF805482E
:1033E000002107F07FFA0023237010BD880700201A
:1033F00049060020001B002010B5FFF73DF80E4BDA
:103400001B78184310F0FF0008D10C4BD3F8A42010
:103410001AB9D3F8A0401CB1012010BD002010BD86
:10342000074B012203201A70FEF7B8FB0720214644
:10343000FEF718FF0120F0E74B06002004080020EB
:103440004A0600202DE9F041FFF716F810B10020E0
:10345000BDE8F081304D284603F00EFA0028F6D082
:103460002E4A2F4B2F4E11781B7832780B43134383
:10347000EDD195F89830002BE9D1D5F8A430002B88
:10348000E5D1FEF791FB0628E1D0FEF769FC0128A3
:10349000DDD9FEF76BFC0028D9D1FEF76DFC0028C2
:1034A000D5D0FEF76FFC0028D1D172B6284600F0C7
:1034B000D7FD1D4BEA691A60EA695A6000279F60D0
:1034C000DF601F615F61EA699A610124DF611F6249
:1034D0005C62EB69C5F89030C5F8947062B6002064
:1034E0004FF00008FEF7D4FB85F8998085F89840E6
:1034F00004F0C0F90D4A0E4B3470054615600320E8
:103500000C4A18709F659A62FEF748FB07204146F7
:10351000FEF7A8FE20469BE7040800204A0600208C
:103520004B060020480600206007002044060020CB
:1035300088070020CDCCCC3E10B594B038220021B5
:1035400006A80AF032FF0020CDE90100CDE9030012
:10355000059006F0CBF89FED147B02235522CDE9B0
:103560000F320324082206A88DED067BCDE90D3429
:10357000CDE91123139306F033F908B172B6FEE7D3
:10358000042103460F220DEB0100CDE90124CDE912
:103590000333059306F0A2FB08B172B6FEE714B040
:1035A00010BD00BFAFF3008001000000000001006B
:1035B0002DE9884804F042F99FEDC98AC94DCA4CEB
:1035C000CA4EDFEDCB8A9FEDCB9ADFF8B4A3DFF8CC
:1035D000B493FFF7B1FFFFF7CDFC03F06BFDFDF7F0
:1035E00057FD00F0B5FE00F0D1FE03F085FEFDF7BB
:1035F000C7FD03F005FD03F0FBFFBF48BF49C04A0C
:10360000C04B0027076081ED008A82ED008ABE4929
:1036100083ED008ABD4BBE4A81ED008A1A60BD4A27
:10362000BD4BBE49116028464FF07E521A6000F033
:1036300031FDBB492046FEF73FFFBA48B3EE090A09
:1036400000F070FFB748B0EE480A00F073FFB548CD
:10365000B0EE480A00F076FF96ED0B0AD4ED1B7A27
:10366000B048F8EE677AB8EE400A20EE270A20EE5E
:10367000280A00F06FFF9FEDAC0AAA4800F082FF15
:10368000A848B5EE000A00F06DFF9FEDA80AA54816
:1036900000F070FF9FEDA60AA24800F077FFA14856
:1036A000B0EE480A00F08AFF9E48B5EE000A00F02E
:1036B00031FF9FEDA00AA04800F034FF9FED9F0A64
:1036C0009D4800F037FF9C48B0EE480A00F03AFFF2
:1036D00096ED0B0AD4ED1C7A9748F8EE677AB8EEAF
:1036E000400A20EE270A20EE280A00F033FF9FED63
:1036F000940A914800F046FF8F48B0EE080A00F0A7
:1037000031FF9FED8A0A8C4800F034FF9FED880A54
:10371000894800F03BFF8848B0EE480A00F04EFFB1
:103720008548B0EE080A00F0F5FE8648B3EE090AB7
:1037300000F0F8FE9FED840A824800F0FBFE81480D
:10374000B0EE480A00F0FEFE96ED0B0AD4ED1D7AAD
:103750007C48F8EE677AB8EE400A20EE270A20EEA1
:10376000280A00F0F7FE9FED760A764800F00AFF7F
:103770007448B1EE0C0A00F0F5FE9FED6C0A71483A
:1037800000F0F8FE9FED6A0A6E4800F0FFFE6D48FB
:10379000B0EE480A00F012FF6A48B1EE040A00F0E9
:1037A000B9FE6A48B3EE090A00F0BCFE9FED660A56
:1037B000664800F0BFFE6548B0EE480A00F0C2FE61
:1037C00096ED0B0AD4ED1D7A6048F8EE677AB8EEF4
:1037D000400A20EE270A20EE280A00F0BBFE9FEDEB
:1037E000580A5A4800F0CEFE5848B1EE0C0A00F0D4
:1037F000B9FE9FED4E0A554800F0BCFE9FED4C0A05
:10380000524800F0C3FE5148B0EE480A00F0D6FE20
:10381000B1EE040A4D4800F07DFEFEF7B9F9FEF75F
:1038200097FDFEF759FAFEF70FFD03F0F7FA03F0E4
:1038300079FFFFF7EFFB02F09BFF03F005F8FEF7BF
:10384000A1FBFEF7D7F9FDF761FE01F027F9FEF7BE
:103850009FFB0120FEF748FA0120FEF7DFFAFFF791
:1038600019FC3946C3682B670120FEF7FBFCFDF706
:103870004FFE374805F022FF364805F01FFFFFF7DF
:103880007BFD384600F0D8FB0C21254806F05EFE93
:10389000314804F087FD314804F0F2FD39463048E4
:1038A000304F06F053FED6ED0B7A9FED2F7A2F4B5B
:1038B0002F4883ED008AF8EE677A2E492E4A2F4E64
:1038C00080ED008A67EE877A81ED008AFCEEE77A68
:1038D00017EE903A9BB2638041F2883313601AE18D
:1038E000000000000408002088070020002C014090
:1038F000B91D4A320024744968060020640600207D
:10390000600600205C0600205806002054060020B7
:103910000AD7233C500600204C0600200AD723BCBF
:10392000001B002028070020ACC5A7360000C842B5
:1039300000007A44C3F5F040F006002000A0A64441
:103940006F12833AB806002000708A458006002076
:10395000F0080020B0080020200200208C02002087
:10396000B41A00204B0600206666663F74060020ED
:103970007C060020780600206C0600204806002007
:103980004A060020600700203B7893B1D5F8A030AC
:1039900023B1D9F82430002B40F05E81D5F89C305B
:1039A0003BB1D5F8A43023B9D5F8A030002B00F0F6
:1039B00086813378002B47D0FEF75EFD80460028D5
:1039C00040F0CE8003F056FFC34B1B68C01AB0F521
:1039D000AF7F39D372B6C14800F042FBEB69C9F83A
:1039E0000030EB69C9F8043089ED028A89ED038A59
:1039F00089ED048A89ED058AEB69C9F818304FF022
:103A0000010B89ED078A89ED088AC9F824B0EB69B2
:103A1000C5F8903085ED258A62B64046FEF70AF972
:103A20005846FEF735F985F899B086F8008085F894
:103A30009880FFF7A1FC41460820FEF713FC58468A
:103A4000FDF768FFFEF73CFB01F0E0F83B783278C9
:103A5000134324D1FEF710FD20B995F89830002BC0
:103A600040F0EA8000231A4619469D4884ED078AF3
:103A700084ED088A84ED058A84ED068A84ED038A44
:103A800084ED048A84ED098A84ED0A8A84ED028A31
:103A9000FEF71EFE934B1B78002B40F0858003F051
:103AA00053FA03F05FFE02F077FE03794BB1C3795E
:103AB0003BB98D484FF4806105F07CFD034600283A
:103AC0005AD03B783278134323D1FEF7D5FC20B986
:103AD00095F89830002B40F09F8000231A46194635
:103AE0007F4884ED078A84ED088A84ED058A84ED99
:103AF000068A84ED038A84ED048A84ED098A84EDC4
:103B00000A8A84ED028AFEF7E3FD764B1B78002BD0
:103B100066D1FDF7EFFF02F03FFE037943B1C379B1
:103B200033B971484FF4806105F044FD034678B322
:103B30009AF80030002B3FF427AFFEF79DFC0028D9
:103B40007FF422AFD5F89C30002B7FF41DAF01220B
:103B5000634962488AF800303A70FFF7C3F813E708
:103B60004FF0000886F8008085F89880FFF704FC85
:103B70004046FDF7CFFE67E70C208AF800303B7027
:103B8000337085F89830FEF7EDFBFFF7F5FB98E70B
:103B90000C208AF800303B70337085F89830FEF7BF
:103BA000E1FBFFF7E9FBC3E70821504807F062FC9F
:103BB00008214E4806F096FE04214C4807F05AFCB6
:103BC00004214A4806F08EFE0021484807F052FCC6
:103BD0004648002106F086FE424A002313705EE745
:103BE0000821424807F046FC0821404806F07AFECA
:103BF00004213E4807F03EFC04213C4806F072FEDA
:103C000000213A4807F036FC3848002106F06AFEE9
:103C1000344A002313707CE7FDF7C6FF07283FF402
:103C20005CAFFDF7C1FF01283FF457AFFDF7BCFFC4
:103C300009287FF46EAF50E7FDF7B6FF07283FF481
:103C400011AFFDF7B1FF01283FF40CAFFDF7ACFF5A
:103C500009287FF424AF05E7D5ED227AD5ED238A34
:103C600067EE897A68EE898AFDEEE79AFDEEE87ADA
:103C700019EE900A17EE90BA4FF4FA725946FFF710
:103C8000C7FA10B34FF0000840468AF80080FDF7ED
:103C9000D1FF0120FDF7FCFF19EE903A87F8008074
:103CA000ABEB03014FF00108082085F89980FEF77F
:103CB000D9FA4046FDF72EFEFEF702FA79E68AF8B9
:103CC00000303B70FFF758FB73E638700B20FEF7AF
:103CD00049FBFFF751FB6CE6440600200408002076
:103CE000880700204906002000080048001B00202B
:103CF0000368B3F1A04F00D070472DE9F041844C28
:103D0000844A8549854D864E8CB0204600F06AFA7B
:103D1000844994ED040A204600F01AFA824894ED92
:103D2000040A03F0D1FB32782B787F49134314BF88
:103D300001220022204602F0BDFD002840F0D08084
:103D40002B783278134300F0D780784F94ED065AE1
:103D50009FED774A94ED246AD4ED0C6A94ED257AB0
:103D6000D7ED087AD7ED065ADFED724A65EE845A30
:103D700067EE847AFDEEE55A26EE246A15EE903A57
:103D800066EEA46A27EE247AFDEEE77AADF82A30D3
:103D90000023BDEEC55ABDEEC66AFDEEE66ABDEE75
:103DA000C77A059317EE903A8DED065AADF8283094
:103DB0008DED076ACDED086A8DED097AFDF7F4FE09
:103DC0008DF82C00FEF760FB8DF82D0005A803F0A0
:103DD0003FF82B78D3B93378A3B1DFF87C81564B09
:103DE00098F80020DB6AC2B1544B002203213970DD
:103DF000BA65BB623B78032B00F28180DFE803F0F9
:103E0000635A534EFDF794FB002842D0DFF84881F7
:103E1000494B98F80020DB6A3ABBC3F34F031A46BC
:103E200019464248FEF754FC01230021444888F813
:103E3000003006F0B1FC014618BB414807F0A2FA79
:103E4000F8B93F48042106F0A7FCD0B93C4804214A
:103E500007F098FAA8B93A48082106F09DFC80B905
:103E60003748082107F08EFA58B93378002BBBD1B8
:103E70002C78002CBED1FDF797FE062808BF3C70B9
:103E8000B8E7FFF779FA00230B2084F89830FEF7A3
:103E900069FAFFF771FA0CB0BDE8F0811C492348BC
:103EA000FEF72CFCF7E7274B274A19491F48FEF776
:103EB0007FFCF0E7254C234B234A15491B4800940F
:103EC000FEF736FDE7E7224820491E4C1E4B164AF6
:103ED0000094CDE901100E491448FEF70DFEDAE713
:103EE0001C4A002384F8983013702B7033700CB088
:103EF000BDE8F041FFF740BAFDF718FD25E70020C7
:103F00003862104B104A02490848FEF751FCC2E7DC
:103F100004080020200200208C0200204B06002014
:103F200048060020681A002060070020880700204B
:103F300000007A4400247449002C0140CDCCCC3ED2
:103F4000001B002080060020B8060020F00600209C
:103F5000280700204A0600204906002008B503680B
:103F6000B3F1A04F00D008BD03F07EFD034A83B239
:103F700013801046BDE8084000F0D2B904080020C4
:103F800038B50368B3F1804F00D038BD037F012BF3
:103F9000FBD1174D174C2B6801332B60A3680133FD
:103FA000A360A368092B1CD813498B6E01338B6661
:103FB0008B6E092B0DD900238B66D4F8A03043B942
:103FC000D4F8A4302BB19FED0D0A0D4A0948FEF735
:103FD0009BFE2A684EF660239A4284BF00232B6022
:103FE00038BD00230749A360204600F0ABF9DBE7AA
:103FF0007006002004080020880700206F12833A12
:10400000600700208C020020084A0368934200D019
:1040100070471B68064A13F0100F536902D0013B2A
:104020005361704701335361704700BF000800407F
:104030000408002072B6FEE710B4084C23685862EA
:104040001A6842F004021A60DA6842F0010220465F
:104050003C215DF8044BDA6006F064BD681A00206C
:104060000A4A0B4910B44FF0010C146881F800C0E3
:104070000023002262625DF8044B42618361C361E8
:1040800003624362C3620363704700BF681A002083
:10409000000000202649274B9FED277A10B400220C
:1040A00001240C7082600273D3ED0B7A23494163C3
:1040B0004FF07E548463F8EE677A214C0464214CFF
:1040C000446467EE877A204C016500231F49028013
:1040D000C0E9152443674360C0ED047A42618361FF
:1040E0000362C36143628362C3620363C363836425
:1040F000C364C365036643668366C366C0E927225B
:10410000C0E929225DF8044B0167A0F87820C36755
:10411000C0F88030C0F88430C0F88830C0F88C30E7
:10412000C0F89030C0F89430A0F89820704700BFD5
:1041300000000020002C0140B91D4A32CDCCCC3DFE
:104140000000F0420060EA46A009970900004040E4
:1041500038B50D6804466369696A62699342FAD1A9
:1041600041EA034107EE901A9FED1B7A1B4BD4EDF9
:10417000076A1A78C4ED086AF8EEE77A27EE877ABC
:10418000C4ED067A84ED077AA2B1DFED156A84EDFD
:10419000087A0022B0EE666A1A70FDEEE77AC4ED86
:1041A0000C6A17EE900A84ED0B6AFDF779FD84ED39
:1041B000090A38BD37EE667AD4ED0D5A87EE006AEB
:1041C000F7EE006A76EEE56A94ED0C7A66EE876AA1
:1041D000E5EE866AE1E700BFBD37863500000020C6
:1041E0000000000038B50B46044609211846154664
:1041F00004F0C8F90921A4F85400284604F0C2F9D3
:10420000B4F85430DFED3D5AD4ED174A94ED185A06
:1042100006EE903AB4F8583007EE103AB4F85A3037
:1042200080B207EE903A06EE100AB8EE477AF8EE42
:10423000666AF8EE677AB8EE466A76EEC76A36EED8
:10424000676A66EEA56AD4ED147AC4ED1A6A26EEA2
:10425000256AF7EE005A75EEE75A26EEA77A66EE63
:10426000277AA4EEA57AA4F85600E5EE857AD4ED77
:10427000205A84ED1B6AB4EEE57AF1EE10FAC8BF5D
:10428000F0EE475AF4EEE57A77EE276AC8BF84ED80
:10429000207AF1EE10FA94ED216AC8BFC4ED207ABD
:1042A000F1EE666AC8BFF0EE675AF4EEE56AF1EE29
:1042B00010FAB4EEC67AC8BFC4ED206AF1EE10FA67
:1042C00048BFB0EE476AF4EEC67A48BF84ED217A63
:1042D000F1EE10FA48BFB0EE676AF4EEC66A48BF66
:1042E000C4ED217AF1EE10FA84ED177AC4ED187A54
:1042F000C4ED196A48BFC4ED216A38BDA69B443D90
:1043000068B172B60023426D8265C3650366436679
:104310008366C366C0F88030C0F8843062B67047E8
:1043200003889FED077A07EE903AF8EE677A01234B
:1043300067EE877A0373C0ED017AC0ED1D7A70478E
:10434000AE47093C00220280084603F08BBF00BF45
:104350000C4810B540220C4C826000234FF4003111
:104360004FF44042C0E90043C0E9091203610375FC
:104370008361C36205F02AF900B910BDBDE81040A1
:10438000FFF758BEF0080020000301400C4810B5AC
:1043900040220C4C826000234FF400314FF4404225
:1043A000C0E90043C0E90912036103758361C36278
:1043B00005F00CF900B910BDBDE81040FFF73ABE9A
:1043C000B00800200403014000B50268244989B008
:1043D00000238A42CDE90233CDE90433069305D0A8
:1043E000204B9A421BD009B05DF804FB03F18043D7
:1043F00003F504339FED167BDA6C42F00102DA64B8
:10440000DB6C03F00103009302A94FF090408DEDA7
:10441000027B009B04F002FF09B05DF804FB03F58A
:104420008633FC33DA6C42F00102DA64DB6C9FED18
:104430000A7B03F00103019302A94FF090408DED38
:10444000027B019B04F0EAFE09B05DF804FB00BFAB
:104450000E00000003000000E00000000300000068
:104460000003014004030140D0ED087AF1EE676AD1
:10447000F4EEC06AF1EE10FAB0EE407A06D8F4EE2F
:10448000C07AF1EE10FAA8BF9FED217AD0ED077A3D
:10449000D0ED016A90ED036A66EEA76AD0ED007A6E
:1044A000A7EE266AD0ED046AF4EEC66AF1EE10FAC1
:1044B00067EE277A08D4F1EE666AF4EEC66AF1EE8A
:1044C00010FAB8BFF0EE466A36EEA76A90ED050A1C
:1044D000B4EEC60AF1EE10FA06D4B1EE400AB4EE1C
:1044E000C60AF1EE10FA0BDD70EE677A67EE877A96
:1044F000F5EEC07AF1EE10FA04D980ED0D0A70479E
:10450000B0EE460AC0ED036A80ED0D0A704700BFA9
:1045100000000000B5EEC00AF1EE10FA88BF80ED91
:10452000040A7047B5EEC00AF1EE10FA58BF80EDEC
:10453000000A7047B5EEC00AF1EE10FA58BF80EDE0
:10454000010A7047B5EEC00AF1EE10FA58BF80EDCF
:10455000020A7047B5EEC00AF1EE10FA88BF80ED8E
:10456000070A7047B5EEC00AF1EE10FA88BF80ED79
:10457000050A7047B5EEC00AF1EE10FA88BF80ED6B
:10458000060A704780ED080A704700BF9FED0A7A5F
:1045900090ED076AC7EE007AF7EE006A37EE867A8A
:1045A000C6EE077AF4EEE67AF1EE10FA88BFF0EE86
:1045B000667AC0ED0A7A704783F9223EB5EEC00AEA
:1045C000F1EE10FA88BF80ED0C0A704700B599B083
:1045D0000346094A6021684609F06EFE6846FBF70B
:1045E0007FFE0246642392B26946044807F05EF8F3
:1045F00019B05DF804FB00BFF81E0108501B002035
:1046000000B5A3B00346094A009102A8802109F031
:1046100053FE02A8FBF764FE0246642392B202A98D
:10462000034807F043F823B05DF804FB041F0108BA
:10463000501B002000B5A3B00346094A009102A810
:10464000802109F039FE02A8FBF74AFE02466423E6
:1046500092B202A9034807F029F823B05DF804FBE1
:10466000181F0108501B002010B50446A2B010EE20
:10467000100AFBF7A1FF2346CDE90001084A80217B
:1046800002A809F019FE02A8FBF72AFE02466423DD
:1046900092B202A9034807F009F822B010BD00BF8A
:1046A0002C1F0108501B002000B599B0FDF708FD34
:1046B00040B10E490E486423072219B05DF804EB9F
:1046C00006F0F4BF0B4B0C4A6021684609F0F4FD7C
:1046D0006846FBF705FE0246642392B26946044829
:1046E00006F0E4FF19B05DF804FB00BF401F0108AD
:1046F000501B0020481F0108F81E0108014B1878C4
:10470000704700BFB40B002010B50446FBF7E8FD6E
:10471000024621460348BDE81040642392B206F0E9
:10472000C5BF00BF501B002070B5B8B0002872D0C4
:10473000A5490446FBF774FD00283DD0A349204657
:10474000FBF76EFD00284DD0A1492046FBF768FD20
:1047500000285CD09F492046FBF762FD00284CD022
:104760009D492046FBF75CFD00285BD09B49204615
:10477000FBF756FD002863D099492046FBF750FD12
:10478000002861D097492046FBF74AFD002853D006
:1047900095492046FBF744FD002859D1934B93F8E7
:1047A0009810914B924A003918BF0121009108A836
:1047B000802109F081FD09E0FDF7F6F9FDF70EFA19
:1047C0008C4A0346602108A809F076FD08A8FBF78B
:1047D00087FD02466423884892B208A906F066FF66
:1047E00038B070BDFDF750FEFDF75AFE834A034610
:1047F000602108A809F060FDE8E7FDF7B1FA754B04
:1048000000907F4A802108A809F056FDDEE7FDF7F9
:1048100041FE6F4BF4E77B4B7B4A602108A809F00F
:104820004BFDD3E7FDF7A2FA6B4B0090704A802155
:1048300008A809F041FDC9E7FCF77AFE694BF4E7E7
:10484000FDF79AFA654BF0E7FDF79CFA644BECE74D
:104850006E492046FBF7E4FC20B9644BD3F89C106A
:104860006A4B9FE76A492046FBF7DAFC20B95F4BA9
:10487000D3F8A010664B95E766492046FBF7D0FCBD
:1048800020B95A4BD3F8A410624B8BE762492046FB
:10489000FBF7C6FC002839D060492046FBF7C0FC76
:1048A000002838D05E492046FBF7BAFC002839D0F2
:1048B0005C492046FBF7B4FC00283AD05A49204610
:1048C000FBF7AEFC0146002831D058492046FBF7E3
:1048D000A7FC00283BD056492046FBF7A1FC68B353
:1048E00054492046FBF79CFC00285DD052492046E5
:1048F000FBF796FC70BB3D4B4F48197B003918BF46
:10490000012138B0BDE87040FFF77ABEFCF7ECFF3C
:1049100001464148F5E74148642138B0BDE87040A0
:10492000FFF788BE02F00AFB01463D48E9E73E4832
:10493000E7E7FDF783FC01463A48E2E72B4B3C48AA
:10494000D3ED067AFDEEE77A17EE901AE5E73748E1
:104950000121D6E739492046FBF762FC002800F028
:104960008A8037492046FBF75BFC002870D0354928
:104970002046FBF755FC00BBFEF7ECFA0446FEF7B9
:10498000EDFA0546FEF7EEFA0646FEF7EFFACDE938
:10499000005602902C4A2346C02108A809F08CFC3E
:1049A00008A8FFF7B1FE1BE7104B224893ED1D0A44
:1049B00038B0BDE87040FFF757BE244838B0BDE8B6
:1049C0007040FFF703BE00BF601F01087425010897
:1049D000881F0108A81F0108BC1F0108C81F010883
:1049E000D41F0108E81F0108F41F01080408002073
:1049F000041F0108681F0108501B0020781F0108D0
:104A0000941F0108541F0108F81E0108FC1F01082B
:104A10000C2001082020010830200108482001084E
:104A200060200108742001088420010898200108F2
:104A3000AC200108B0200108B8200108C4200108FA
:104A4000D0200108042101080C21010828210108B7
:104A500005A8FDF741FC90B19DF81800059CFDF7F5
:104A60006BFC079B094ACDE90003A021234608A857
:104A700009F022FCAAE6FDF723FC054BC0E6054938
:104A8000054864230F2206F011FEA9E6DC20010888
:104A9000C4200108F4200108501B002038B512483A
:104AA000124B134A1349144D002404701C70134B0D
:104AB0000C7014802146802211481C702C7009F063
:104AC00074FC10484FF40072214609F06EFC2B78FC
:104AD00003B138BD0C490D48012206F081FE0028C3
:104AE000F7D101232B7038BD300900202F09002099
:104AF000320900202E0900202C0900202D09002059
:104B0000340B002034090020B40B0020501B00207F
:104B100038B50C4C0C4D0D49226800232B700B80CE
:104B200008231362204606F01FFF2B7803B138BD1F
:104B300007490122204606F053FE0028F7D1012341
:104B40002B7038BD501B00202C090020320900209A
:104B5000B40B0020F8B5244C244D00230A282A88E1
:104B600023700AD00D2808D07E2A16D8531C2B801B
:104B70001F4B9854237833B1F8BDAAB900232B807A
:104B80002378002BF8D11B491B48012206F028FE90
:104B90000028F1D101232370F8BD184A2B80137827
:104BA00043F001031370EBE71149154E00238B54BA
:104BB0003378032B05D9114A137843F0020313709D
:104BC000DCE7104F104B3878013203EBC01009F0CE
:104BD000ECFC3B78013303F003033B703378013383
:104BE000DBB23370CAE700BF2C0900203209002075
:104BF000340B0020B40B0020501B00202D09002096
:104C00002E09002030090020340900202DE9F04150
:104C10002DED028BCAB072B6B24B1C7800221A700E
:104C2000E4B262B6E10777D4A20763D4AE4C23782E
:104C3000002B55D072B6AD4C23782BB962B64AB072
:104C4000BDEC028BBDE8F081A94EAA4B31780AA8D1
:104C500003EBC11100257F228DF8A75009F0BFFB9F
:104C60003378013303F0030333702378013BDBB265
:104C7000237062B6A0490AA809F0C4FB9E49044605
:104C8000284609F0BFFB9C490646284609F0BAFBB6
:104C900099498046284609F0B5FB0746002C00F0EC
:104CA0000F8102F04DFD95492046FBF7B9FA002827
:104CB00044D16EB192493046FBF7B2FA002800F0B9
:104CC0004B8190493046FBF7ABFA002800F04D824B
:104CD0003046FFF729FD4AB0BDEC028BBDE8F081FC
:104CE00089498A48012206F07BFD0028A2D10123D0
:104CF00023709FE72AAD864B864A6021284609F03B
:104D0000DBFA2846FBF7ECFA0246642392B2294606
:104D10007E4806F0CBFC89E72AAD7F4B7D4A6021B7
:104D2000284609F0C9FA2846FBF7DAFA0246642356
:104D300092B22946754806F0B9FC75E777492046D6
:104D4000FBF76EFAF8B96EB16D493046FBF768FAB9
:104D5000002800F0AB826B493046FBF761FA00286F
:104D600000F0A5816E4B6B4A60212AA809F0A4FAD5
:104D70002AA8FBF7B5FA0246642392B22AA963482F
:104D800006F094FC5BE767492046FBF749FA0028E8
:104D900040F07C81002E00F0D78163493046FBF75C
:104DA0003FFA002800F02C8360493046FBF738FAC0
:104DB000002800F072835E493046FBF731FA002884
:104DC00000F0AC835B493046FBF72AFA002800F07C
:104DD000038559493046FBF723FA002800F0F28595
:104DE00056493046FBF71CFA002800F07A865449F1
:104DF0003046FBF715FA002800F06C875149304621
:104E0000FBF70EFA002840F015874F4C94F89830C5
:104E1000002B41F02580D4F8A460002E41F02080C2
:104E2000FCF7C2FE062801F01B800320FCF7B6FE4B
:104E300031460720FDF716FA72B62046FFF710F943
:104E4000424BE1691960E169596000229A60DA60B9
:104E50001A615A61E16999610125DA611A625D623C
:104E6000E369C4F89030C4F8942062B63046FCF789
:104E7000E1FE2846FCF70CFF84F89950D4ED067A41
:104E8000FDEEE77A082017EE901AFDF7EBF92846B9
:104E9000FCF740FDFDF714F9002840F0BA822C4BD6
:104EA0001C4A60212AA809F007FA2AA8FBF718FA79
:104EB0000246642392B22AA9144806F0F7FBBEE624
:104EC000244B144A60212AA809F0F6F92AA8FBF716
:104ED00007FA0246642392B22AA90C4806F0E6FBC0
:104EE000ADE600BF2D0900202C0900202E0900206E
:104EF0002F09002034090020502101085C210108FD
:104F000060210108301D0108B40B0020501B002057
:104F100040210108F81E010834210108E42301089A
:104F2000042501081025010820250108881D010815
:104F3000901D0108981D0108A01D01087025010899
:104F40007C250108AC25010804080020600700202A
:104F5000481F010854210108FEF79CF80446B8F1E7
:104F6000000F00F0E080AB494046FBF759F90028FC
:104F700000F03082A8494046FBF752F9002800F0C3
:104F80006382A6494046FBF74BF9002800F0AF8248
:104F9000A3494046FBF744F9002800F0E183A1490A
:104FA0004046FBF73DF9002800F0E4849E49404666
:104FB000FBF736F9002800F06C859C494046FBF76A
:104FC0002FF9002800F0018699494046FBF728F99F
:104FD000002800F0138797494046FBF721F9002885
:104FE00000F0E08794494046FBF71AF9002801F0E9
:104FF0009F8092494046FBF713F9002801F0748125
:105000008F494046FBF70CF9002801F0CB818D4910
:105010004046FBF705F9002801F0F6828A49404630
:10502000FBF7FEF8002801F0AA8288494046FBF70A
:10503000F7F8002801F08C8285494046FBF7F0F82C
:10504000002801F0328383494046FBF7E9F8002845
:1050500001F0688380494046FBF7E2F8002801F040
:1050600058837E494046FBF7DBF8002801F049836E
:105070007B494046FBF7D4F8002841F03D83794B4B
:10508000774893ED210AFFF7EFFAD8E5764B774A98
:1050900060212AA809F010F92AA8FBF721F9024695
:1050A000642392B22AA9724806F000FBC7E5B8F162
:1050B000000F00F06C83002F00F069836D494046BB
:1050C000FBF7AEF800242A943B78002840F0668273
:1050D000002B00F06E8309F03BFA2AAD04600A222F
:1050E0002946384608F0C6FB044609F031FA036841
:1050F000002B40F05F832A9B9F4200F05B831B786C
:10510000002B40F05783631E022B00F25383E0B262
:10511000FCF7EAFDFCF7EEFB5749554864230722EC
:1051200006F0C4FA8BE5554B504A60212AA809F0D5
:10513000C3F82AA8FBF7D4F80246642392B22AA93E
:105140004B4806F0B3FA7AE54D4B484A60212AA84D
:1051500009F0B2F82AA8FBF7C3F80246642392B21A
:105160002AA9434806F0A2FA69E501F015FB0446B6
:10517000B8F1000F00F0EC8342494046FBF750F8CD
:10518000002800F04D8140494046FBF749F80028CF
:1051900000F099813D494046FBF742F8002800F0B5
:1051A000CB823B494046FBF73BF8002800F0F683F2
:1051B00038494046FBF734F8002800F07E84364931
:1051C0004046FBF72DF8002800F0EB8433494046B9
:1051D000FBF726F8002800F02B8631494046FBF704
:1051E0001FF8002800F0F3862E494046FBF718F818
:1051F000002800F072872C494046FBF711F8002880
:1052000040F06687FCF73EFD01462748FFF7F8F9B6
:1052100015E500BF7C210108882101089C210108B7
:10522000AC210108C0210108D0210108E0210108BA
:10523000F0210108002201080C22010818220108AF
:1052400024220108302201084022010850220108CE
:10525000602201087022010888220108A0220108AA
:10526000AC22010804080020F0260108F81E0108FD
:10527000501B0020A81F0108401F010868210108D9
:1052800014250108E0220108F02201080C2301087E
:105290001C23010834230108542301086C2301084E
:1052A00084230108A0230108C4230108B8F1000FDA
:1052B00000F0E180002F00F0DE80FDF7EBFE0446F9
:1052C0000FCC03AD0FC594E8070085E807009F49A0
:1052D0004046FAF7A5FF002800F0E9819C494046C6
:1052E000FAF79EFF002800F0B4829A494046FAF788
:1052F00097FF0446002800F08F8397494046FAF74D
:105300008FFF0446002800F00B8494494046FAF7CA
:1053100087FF0446002800F0358591494046FAF79A
:105320007FFF0446002800F001868E494046FAF7C8
:1053300077FF0446002800F07F868B494046FAF745
:105340006FFF0446002800F0938788494046FAF72B
:1053500067FF0446002840F051872A903B78002BD5
:1053600000F0088709F0F4F82AAD04600A22294603
:10537000384608F07FFA044609F0EAF80368002B83
:1053800040F0F9862A9B9F4200F0F5861B78002B9F
:1053900040F0F186631C02D0012C41F0798060B2AC
:1053A000FCF754FCFCF7A6FAFCF78AFE002840F054
:1053B000C7826F4B6F4A6021284608F07DFF284660
:1053C000FAF78EFF0246642392B229466A4806F035
:1053D0006DF934E4A068FBF7EFF85C4B674ACDE960
:1053E000000180212AA808F067FF2AA8FAF778FFB1
:1053F0000246642392B22AA95F4806F057F91EE4D8
:1054000002F09EF95E495C486423072206F04EF9DB
:1054100015E45B4958486423072206F047F90EE477
:105420002178584B584A00912AA8802108F044FF5F
:105430002AA8FAF755FF0246642392B22AA94E48D9
:1054400006F034F9FFF7FBBBE068FBF7B5F8404B1B
:105450004A4ACDE9000180212AA808F02DFF2AA898
:10546000FAF73EFF0246642392B22AA9424806F0A8
:105470001DF9FFF7E4BB454B3E4A60212AA808F01E
:105480001BFF2AA8FAF72CFF0246642392B22AA92E
:10549000394806F00BF9FFF7D2BBFCF789F8002872
:1054A000B7D13B4B334A60212AA808F005FF2AA850
:1054B000FAF716FF0246642392B22AA92E4806F094
:1054C000F5F8FFF7BCBB6178324B2F4A00912AA850
:1054D000802108F0F1FE2AA8FAF702FF02466423B1
:1054E00092B22AA9244806F0E1F8FFF7A8BB206988
:1054F000FBF762F8174B214ACDE9000180212AA869
:1055000008F0DAFE2AA8FAF7EBFE0246642392B20C
:105510002AA9194806F0CAF8FFF791BBFCF760F812
:1055200000287FF476AF1C4B124A60212AA808F0AD
:10553000C3FE2AA8FAF7D4FE0246642392B22AA92F
:105540000D4806F0B3F8FFF77ABB00BF7C210108D5
:10555000882101089C210108AC210108C021010813
:10556000D0210108E0210108F021010800220108F2
:10557000481F0108F81E0108501B00202C1F0108BD
:10558000401F0108E0220108041F0108E823010868
:105590002C250108F02201083C250108002B00F011
:1055A000458108F0D5FF2AAD04600A222946384615
:1055B00008F060F9044608F0CBFF0368002B40F0C8
:1055C00036812A9B9F4200F032811B78002B40F0ED
:1055D0002E81012C00F22B81C0494046E4B2FAF73B
:1055E0001FFE002800F06184BD494046FAF718FE0E
:1055F000002800F00585BB494046FAF711FE002857
:1056000000F0AE85B8494046FAF70AFE002800F0DF
:10561000C485B6494046FAF703FE002800F02F87FC
:10562000B3494046FAF7FCFD002800F04387B14932
:105630004046FAF7F5FD002800F04E87AE49404697
:10564000FAF7EEFD002800F03E87AC494046FAF735
:10565000E7FD002801F01B80A9494046FAF7E0FD6C
:10566000002801F00580A7494046FAF7D9FD002837
:1056700001F03380A4494046FAF7D2FD002801F03A
:105680001D80A2494046FAF7CBFD002840F0E6878E
:10569000204601F0D1F8C4F10E000421C0B2FCF79D
:1056A000E1FDFCF727F9FEF7FFFFFFF7C8BA2A90E4
:1056B0003B78002B00F0A78008F04AFF2AAD0023BA
:1056C00003602946384607F0F7FFB0EE408A08F03D
:1056D0003FFF0368002B40F097802A9B9F4200F019
:1056E00093801B78002B40F08F8003A88DED058AF6
:1056F000FDF736FD002800F0338303A8FDF7CEFC4C
:10570000834B069A1A67FCF7F5F8FCF7D9FC0028DA
:1057100040F016817F4B804A6021284608F0CCFD7E
:105720002846FAF7DDFD0246642392B229467B48FB
:1057300005F0BCFFFFF783BAA1786E4B784A009161
:105740002AA8802108F0B8FD2AA8FAF7C9FD024668
:10575000642392B22AA9714805F0A8FFFFF76FBA37
:105760006069FAF729FF6F4B6F4ACDE9000180218C
:105770002AA808F0A1FD2AA8FAF7B2FD0246642380
:1057800092B22AA9654805F091FFFFF758BA674B16
:10579000614A60212AA808F08FFD2AA8FAF7A0FD27
:1057A0000246642392B22AA95C4805F07FFFFFF706
:1057B00046BA2AAD5E4B584A6021284608F07CFD67
:1057C0002846FAF78DFD0246642392B229465348D3
:1057D00005F06CFFFFF733BAFBF724FF00287FF4D6
:1057E00018AE544B4C4A60212AA808F065FD2AA83F
:1057F000FAF776FD0246642392B22AA9474805F0DB
:1058000055FFFFF71CBA2AAD4B4B434A602128468F
:1058100008F052FD2846FAF763FD0246642392B26F
:1058200029463E4805F042FFFFF709BA2AAD434B2F
:10583000394A6021284608F03FFD2846FAF750FD16
:105840000246642392B22946344805F02FFFFFF741
:10585000F6B900242A943B78002B00F0CA8008F0A7
:1058600077FE2AAD04602946384607F025FFB0EEE2
:10587000408A08F06DFE0368002B40F0BB802A9B35
:105880009F4200F0B7801B78002B40F0B38003A844
:105890008DED068AFDF764FC002800F0108303A854
:1058A000FDF7FCFB1A4B069A1A67FCF723F8FCF786
:1058B00007FC002844D1174B174A6021284608F0FE
:1058C000FBFC2846FAF70CFD0246642392B22946F7
:1058D000124805F0EBFEFFF7B2B900BFBC1F01088C
:1058E000C81F0108D41F010860200108E022010838
:1058F000F02201080C2301081C23010834230108AD
:10590000542301086C23010884230108A023010803
:1059100004080020481F0108F81E0108501B002041
:10592000041F0108AC2101082C1F0108B82401083C
:10593000CC24010850250108FC230108D8240108C3
:10594000AC49AD486423072205F0B0FEFFF777B9F4
:10595000AA4BAB4A60212AA808F0AEFC2AA8FAF7A5
:10596000BFFC0246642392B22AA9A34805F09EFE1A
:10597000FFF765B92168A34BA34A00912AA88021AB
:1059800008F09AFC2AA8FAF7ABFC0246642392B20C
:105990002AA9994805F08AFEFFF751B9E1789B4B97
:1059A0009B4A00912AA8802108F086FC2AA8FAF7D1
:1059B00097FC0246642392B22AA98F4805F076FE2E
:1059C000FFF73DB9FBF760FE00287FF422AD914B55
:1059D0008B4A60212AA808F06FFC2AA8FAF780FCFD
:1059E0000246642392B22AA9834805F05FFEFFF7BE
:1059F00026B92AAD884B824A6021284608F05CFC13
:105A00002846FAF76DFC0246642392B229467A488A
:105A100005F04CFEFFF713B92A903B78002B6CD0B1
:105A200008F096FD2AAD04602946384607F044FE8A
:105A3000B0EE408A08F08CFD0368002B5ED12A9BF3
:105A40009F425BD01B78002B58D103A88DED078AAD
:105A5000FDF786FB002800F0DD8203A8FDF71EFBA2
:105A6000FBF748FFFCF72CFB00287FF469AF6B4B7A
:105A7000634A6021284608F01FFC2846FAF730FCEC
:105A80000246642392B229465B4805F00FFEFFF7F9
:105A9000D6B86168624B5C4A00912AA8802108F060
:105AA0000BFC2AA8FAF71CFC0246642392B22AA92E
:105AB000514805F0FBFDFFF7C2B82179594B544A14
:105AC00000912AA8802108F0F7FB2AA8FAF708FC21
:105AD0000246642392B22AA9474805F0E7FDFFF782
