:020000040800F2
:100000000080002045590008695000086D50000824
:100010007150000875500008795000080000000079
:100020000000000000000000000000007D500008FB
:100030008150000800000000855000088950000829
:1000400095590008955900089559000895590008D8
:1000500095590008955900089559000895590008C8
:1000600095590008955900089559000895590008B8
:1000700095590008955900089559000895590008A8
:1000800095590008000000008D500008955900089F
:100090009559000895590008955900089559000888
:1000A000A9500008B5500008C1500008CD50000804
:1000B000D950000895590008E550000895590008E6
:1000C0009559000895590008955900089559000858
:1000D0009559000895590008F150000895590008F5
:1000E0009559000895590008955900089559000838
:1000F000955900089559000895590008000000001E
:100100000000000095590008000000009559000803
:1001100095590008000000009559000895590008FD
:1001200095590008955900089559000895590008F7
:1001300095590008000000000000000095590008D3
:1001400095590008955900080000000000000000C3
:10015000000000000000000000000000000000009F
:100160000000000000000000000000009559000899
:100170009559000800000000000000000000000089
:100180000000000095590008000000000000000079
:10019000000000000000000000000000000000005F
:1001A0000000000000000000955900089559000863
:1001B000955900089559000895590008000000005D
:1001C0000000000095590008000000000000000039
:0801D00095590008955900083B
:1001E00010B5054C237833B9044B13B10448AFF371
:1001F00000800123237010BDF801002000000000E2
:10020000D0EA000808B5034B1BB103490348AFF31C
:10021000008008BD00000000FC010020D0EA0008BA
:1002200010F8012B11F8013B012A28BF9A42F7D0A0
:10023000D01A70470000000000000000000000001D
:1002400001F0FF01102A2BDB10F0070F08D010F887
:10025000013B013A8B422DD010F0070F42B3F6D18B
:10026000F0B441EA012141EA014122F007047FF0A4
:1002700000070023F0E80256083C85EA010586EAFB
:10028000010685FA47F5A3FA87F586FA47F6A5FA37
:1002900087F68EB9EED1F0BC01F0FF0102F0070243
:1002A00032B110F8013B013A83EA010313B1F8D1EE
:1002B0000020704701387047002D06BF35460338CF
:1002C000073815F0010F07D1013015F4807F02BF08
:1002D000013015F4C03F0130F0BC0138704700BF59
:1002E000034613F8012B002AFBD1181A0138704776
:1002F00081F0004102E000BF83F0004330B54FEAD7
:1003000041044FEA430594EA050F08BF90EA020F43
:100310001FBF54EA000C55EA020C7FEA645C7FEAD6
:10032000655C00F0E2804FEA5454D4EB5555B8BFF9
:100330006D420CDD2C4480EA020281EA030382EA6A
:10034000000083EA010180EA020281EA0303362DFC
:1003500088BF30BD11F0004F4FEA01314FF4801CCF
:100360004CEA113102D0404261EB410113F0004FE1
:100370004FEA03334CEA133302D0524263EB430398
:1003800094EA050F00F0A780A4F10104D5F1200E36
:100390000DDB02FA0EFC22FA05F2801841F1000191
:1003A00003FA0EF2801843FA05F359410EE0A5F165
:1003B00020050EF1200E012A03FA0EFC28BF4CF096
:1003C000020C43FA05F3C01851EBE37101F000454C
:1003D00007D54FF0000EDCF1000C7EEB00006EEB59
:1003E0000101B1F5801F1BD3B1F5001F0CD34908E3
:1003F0005FEA30004FEA3C0C04F101044FEA44523A
:1004000012F5800F80F09A80BCF1004F08BF5FEAC0
:10041000500C50F1000041EB045141EA050130BDA0
:100420005FEA4C0C404141EB0101013C28BFB1F5B2
:10043000801FE9D291F0000F04BF01460020B1FAFD
:1004400081F308BF2033A3F10B03B3F120020CDAD0
:100450000C3208DD02F1140CC2F10C0201FA0CF0AE
:1004600021FA02F10CE002F11402D8BFC2F1200C13
:1004700001FA02F120FA0CFCDCBF41EA0C019040C9
:10048000E41AA2BF01EB0451294330BD6FEA040412
:100490001F3C1CDA0C340EDC04F11404C4F12002FD
:1004A00020FA04F001FA02F340EA030021FA04F30F
:1004B00045EA030130BDC4F10C04C4F1200220FA66
:1004C00002F001FA04F340EA0300294630BD21FAA4
:1004D00004F0294630BD94F0000F83F4801306BF6A
:1004E00081F480110134013D4EE77FEA645C18BF5E
:1004F0007FEA655C29D094EA050F08BF90EA020FF5
:1005000005D054EA000C04BF1946104630BD91EAEC
:10051000030F1EBF0021002030BD5FEA545C05D1EF
:100520004000494128BF41F0004130BD14F580042E
:100530003CBF01F5801130BD01F0004545F0FE41A2
:1005400041F470014FF0000030BD7FEA645C1ABFD7
:10055000194610467FEA655C1CBF0B46024650EA0E
:10056000013406BF52EA033591EA030F41F400213A
:1005700030BD00BF90F0000F04BF0021704730B5C0
:100580004FF4806404F132044FF000054FF0000195
:1005900050E700BF90F0000F04BF0021704730B556
:1005A0004FF4806404F1320410F0004548BF40422B
:1005B0004FF000013EE700BF42004FEAE2014FEA80
:1005C00031014FEA02701FBF12F07F4393F07F4F5B
:1005D00081F06051704732F07F4208BF704793F05E
:1005E0007F4F04BF41F40021704730B54FF4607471
:1005F00001F0004521F000411CE700BF50EA010274
:1006000008BF704730B54FF000050AE050EA01021C
:1006100008BF704730B511F0004502D5404261EB8C
:1006200041014FF4806404F132045FEA915C3FF4CD
:10063000D8AE4FF003025FEADC0C18BF03325FEA6A
:10064000DC0C18BF033202EBDC02C2F1200300FA1B
:1006500003FC20FA02F001FA03FE40EA0E0021FA40
:1006600002F11444BDE600BF70B54FF0FF0C4CF42E
:10067000E06C1CEA11541DBF1CEA135594EA0C0FE0
:1006800095EA0C0F00F0DEF82C4481EA030621EA1B
:100690004C5123EA4C5350EA013518BF52EA033556
:1006A00041F4801143F4801338D0A0FB02CE4FF008
:1006B0000005E1FB02E506F00042E0FB03E54FF038
:1006C0000006E1FB03569CF0000F18BF4EF0010E30
:1006D000A4F1FF04B6F5007F64F5407404D25FEA2C
:1006E0004E0E6D4146EB060642EAC62141EA5551DF
:1006F0004FEAC52040EA5E504FEACE2EB4F1FD0C21
:1007000088BFBCF5E06F1ED8BEF1004F08BF5FEA9E
:10071000500E50F1000041EB045170BD06F0004650
:1007200046EA010140EA020081EA0301B4EB5C04FD
:10073000C2BFD4EB0C0541EA045170BD41F48011F5
:100740004FF0000E013C00F3AB8014F1360FDEBF1A
:10075000002001F0004170BDC4F10004203C35DAF6
:100760000C341BDC04F11404C4F1200500FA05F379
:1007700020FA04F001FA05F240EA020001F000421A
:1007800021F0004110EBD37021FA04F642EB060190
:100790005EEA430E08BF20EAD37070BDC4F10C04BA
:1007A000C4F1200500FA04F320FA05F001FA04F27E
:1007B00040EA020001F0004110EBD37041F100016A
:1007C0005EEA430E08BF20EAD37070BDC4F1200575
:1007D00000FA05F24EEA020E20FA04F301FA05F2DD
:1007E00043EA020321FA04F001F0004121FA04F285
:1007F00020EA020000EBD3705EEA430E08BF20EA55
:10080000D37070BD94F0000F0FD101F0004640008E
:1008100041EB010111F4801F08BF013CF7D041EA10
:10082000060195F0000F18BF704703F00046520014
:1008300043EB030313F4801F08BF013DF7D043EAE5
:100840000603704794EA0C0F0CEA135518BF95EA9B
:100850000C0F0CD050EA410618BF52EA4306D1D122
:1008600081EA030101F000414FF0000070BD50EA41
:10087000410606BF1046194652EA430619D094EACB
:100880000C0F02D150EA013613D195EA0C0F05D1B5
:1008900052EA03361CBF104619460AD181EA030109
:1008A00001F0004141F0FE4141F470014FF00000C1
:1008B00070BD41F0FE4141F4780170BD70B54FF05C
:1008C000FF0C4CF4E06C1CEA11541DBF1CEA1355DC
:1008D00094EA0C0F95EA0C0F00F0A7F8A4EB0504BE
:1008E00081EA030E52EA03354FEA013100F08880B5
:1008F0004FEA03334FF0805545EA131343EA12637E
:100900004FEA022245EA111545EA10654FEA002632
:100910000EF000419D4208BF964244F1FD0404F5EB
:10092000407402D25B084FEA3202B61A65EB030547
:100930005B084FEA32024FF480104FF4002CB6EB04
:10094000020E75EB030E22BFB61A754640EA0C0084
:100950005B084FEA3202B6EB020E75EB030E22BFC4
:10096000B61A754640EA5C005B084FEA3202B6EB05
:10097000020E75EB030E22BFB61A754640EA9C00C4
:100980005B084FEA3202B6EB020E75EB030E22BF94
:10099000B61A754640EADC0055EA060E18D04FEA52
:1009A000051545EA16754FEA06164FEAC30343EAF2
:1009B00052734FEAC2025FEA1C1CC0D111F4801FBF
:1009C0000BD141EA00014FF000004FF0004CB6E7B8
:1009D00011F4801F04BF01430020B4F1FD0C88BF57
:1009E000BCF5E06F3FF6AFAEB5EB030C04BFB6EB62
:1009F000020C5FEA500C50F1000041EB045170BD55
:100A00000EF0004E4EEA113114EB5C04C2BFD4EB81
:100A10000C0541EA045170BD41F480114FF0000E05
:100A2000013C90E645EA060E8DE60CEA135594EA81
:100A30000C0F08BF95EA0C0F3FF43BAF94EA0C0F84
:100A40000AD150EA01347FF434AF95EA0C0F7FF4F9
:100A500025AF104619462CE795EA0C0F06D152EA4D
:100A600003353FF4FDAE1046194622E750EA410631
:100A700018BF52EA43067FF4C5AE50EA41047FF442
:100A80000DAF52EA43057FF4EBAE12E74FF0FF3CA7
:100A900006E000BF4FF0010C02E000BF4FF0010C78
:100AA0004DF804CD4FEA410C7FEA6C5C4FEA430CF1
:100AB00018BF7FEA6C5C1BD001B050EA410C0CBF40
:100AC00052EA430C91EA030F02BF90EA020F0020A2
:100AD000704710F1000F91EA030F58BF994208BF09
:100AE00090422CBFD8176FEAE37040F001007047C6
:100AF0004FEA410C7FEA6C5C02D150EA013C07D11D
:100B00004FEA430C7FEA6C5CD6D152EA033CD3D067
:100B10005DF8040B704700BF8446104662468C4661
:100B20001946634600E000BF01B5FFF7B7FF002894
:100B300048BF10F1000F01BD4DF808EDFFF7F4FFBD
:100B40000CBF012000205DF808FB00BF4DF808ED48
:100B5000FFF7EAFF34BF012000205DF808FB00BF6B
:100B60004DF808EDFFF7E0FF94BF012000205DF88D
:100B700008FB00BF4DF808EDFFF7CEFF94BF012042
:100B800000205DF808FB00BF4DF808EDFFF7C4FF3B
:100B900034BF012000205DF808FB00BF4FEA410C84
:100BA0007FEA6C5C02D150EA013C0AD14FEA430C67
:100BB0007FEA6C5C02D152EA033C02D14FF00000A4
:100BC00070474FF0010070474FEA410212F50012E2
:100BD00015D211D56FF47873B3EB625212D94FEA84
:100BE000C12343F0004343EA505311F0004F23FA6E
:100BF00002F018BF404270474FF00000704750EAC3
:100C0000013005D111F0004008BF6FF0004070477F
:100C10004FF00000704700BF4A0011D212F50012D9
:100C200011D20DD56FF47873B3EB62520ED44FEA44
:100C3000C12343F0004343EA505323FA02F07047C4
:100C40004FF00000704750EA013002D14FF0FF3002
:100C500070474FF0000070474FEA4102B2F1E043A5
:100C600024BFB3F5001CDCF1FE5C0DD901F0004C93
:100C70004FEAC0024CEA5070B2F1004F40EB8300E3
:100C800008BF20F00100704711F0804F21D113F10F
:100C90003872BCBF01F00040704741F480114FEA48
:100CA0005252C2F11802C2F1200C10FA0CF320FAD1
:100CB00002F018BF40F001004FEAC1234FEAD323EE
:100CC00003FA0CFC40EA0C0023FA02F34FEA430358
:100CD000CCE77FEA625307D150EA01331EBF4FF0E1
:100CE000FE4040F44000704701F0004040F0FE40FC
:100CF00040F40000704700BF53B94AB9002908BF4B
:100D000000281CBF4FF0FF314FF0FF3000F0BEB99C
:100D1000ADF1080C6DE904CE00F03CF8DDF804E01C
:100D2000DDE9022304B0704738B5002200230446F1
:100D30000D46FFF70BFF28B920462946BDE838408D
:100D400000F00AB8204605F1004100F005F84042E5
:100D500061EB410138BD00BFD0B50C4B0022064607
:100D60000F46FFF781FCFFF757FF0446FFF702FC31
:100D7000074B0022FFF778FC02460B463046394607
:100D8000FFF7BAFAFFF748FF2146D0BD0000F03D5B
:100D90000000F0412DE9F047089D8E460446884644
:100DA000002B4AD18A42174662D9B2FA82F64EB176
:100DB000C6F1200301FA06F820FA03F3B74043EA2C
:100DC0000808B4404FEA174E1FFA87FCB8FBFEF143
:100DD000230C0EFB118843EA084301FB0CF29A42F4
:100DE00009D9FB1801F1FF3080F0EA809A4240F205
:100DF000E78002393B449A1AA3B2B2FBFEF00EFB25
:100E0000102243EA024300FB0CFC9C4509D9FB1865
:100E100000F1FF3280F0D6809C4540F2D3803B4405
:100E2000023840EA0140A3EB0C0300211DB1F3405E
:100E30000022C5E90032BDE8F0878B4205D90DB12B
:100E4000C5E9000100210846F5E7B3FA83F100295E
:100E500046D1734502D3824200F20581841A6EEBBB
:100E6000030201209046002DE5D0C5E90048E2E7E5
:100E7000002A00F09080B2FA82F6002E40F0A480A2
:100E80008A1A030C4FEA174E80B2BCB20121B2FBA2
:100E9000FEFC0EFB1C2243EA024304FB0CF29A42C6
:100EA00007D9FB180CF1FF3802D29A4200F2E08019
:100EB000C4469B1AB3FBFEF20EFB123340EA034317
:100EC00002FB04F49C4207D9FB1802F1FF3002D266
:100ED0009C4200F2CA8002461B1B42EA0C40A5E776
:100EE000C1F120068B4022FA06F71F430EFA01F4E7
:100EF00020FA06F32EFA06FE4FEA1749234300FABA
:100F000001F81FFA87FCBEFBF9F01C0C09FB10EE80
:100F100044EA0E4400FB0CFEA64502FA01F209D990
:100F20003C1900F1FF3A80F09C80A64540F2998080
:100F300002383C44A4EB0E041FFA83FEB4FBF9F321
:100F400009FB13444EEA044403FB0CFCA44508D9F6
:100F50003C1903F1FF3E80F08280A4457FD9023B1B
:100F60003C4443EA0040A4EB0C04A0FB02EC6445C3
:100F70007346E14662D35FD05DB1B8EB030264EB28
:100F8000090404FA06F622FA01F31E43CC40C5E92F
:100F9000006400214FE7B1FBF2FC010C41EA0E4175
:100FA00080B240EA01423B4638463C46B846BE461F
:100FB0002026B1FBF7F1A2EB080241EA0C4166E7FB
:100FC000014618E710462CE7C6F120022EFA02F37C
:100FD000B740B14020FA02F24FEA174E0A43B3FB82
:100FE000FEF8BCB20EFB1833110C41EA034108FBBA
:100FF00004F9B04089454FEA104380B23ED97918D0
:1010000008F1FF3C01D289451FD8A1EB0901B1FBD2
:10101000FEF909FB04F80EFB191192B242EA0142F3
:10102000424529D2BA1809F1FF31C4D24245C2D291
:10103000A9F102013A44BEE7F0459DD2BEEB02039E
:101040006CEB070C0138E14696E7A7EB0909494428
:10105000A8F1020CB1FBFEF909FB04F8DBE77346CB
:101060007FE7504666E70846FDE63B44023A33E731
:10107000ACF1020C3B441CE749469CE7A1EB09019B
:10108000C446B1FBFEF909FB04F8C4E7704700BF92
:1010900010B500249AB03C2221460BA8CDE90044AB
:1010A00002940AF052FF2022214603A80AF04DFFC5
:1010B00030484FF0A0430360042383610123C0E95B
:1010C0000144C0E90344C0E90B444461848380F8CF
:1010D000244080F83840C46380F84040036204F044
:1010E000A3FC002839D1002301222248009269463E
:1010F000CDE9013305F03AFE002838D11E48092217
:101100000023CDE90B027F200422CDE90D300F92A0
:1011100001208422139015921648109380220BA967
:10112000ADF850308DF8523016928DF85C3005F0E5
:101130001FFBC8B9114A06237F200724CDE90323EA
:10114000CDE90540042200230A4803A9CDE907237D
:1011500004F088FE20B91AB010BD01F051FCC2E7BE
:1011600001F04EFC1AB010BD01F04AFCE2E701F0BC
:1011700047FCC3E7840200200800900C0200300402
:1011800010B590B03C22002101A80AF0DEFE1C48F8
:101190001C490422002382610122C0E90013C0E936
:1011A0000233C0E904338383026280F8243080F87C
:1011B0003830C36380F8403004F036FCC8B91248B8
:1011C0000922CDE90102042000237F240122059099
:1011D00001A90B480693CDE903340992ADF82830F4
:1011E0008DF82A308DF8343005F0C2FA20B910B0ED
:1011F00010BD01F005FCE2E701F002FC10B010BDEB
:1012000018020020000100500800900C00000000AF
:1012100010B504469AB00021442209A8CDE9041172
:10122000CDE9061108910AF090FE2368B3F1A04FB2
:1012300004D03D4A93423BD01AB010BD4FF4004257
:101240004FF0805309A80992189306F03DFF00283B
:101250005BD1364A13680133012B136009D1344B3B
:10126000DA6C42F40052DA64DB6C03F4005300934E
:10127000009B2F4BDA6C42F00102DA64DB6C9FEDCD
:10128000267B03F0010301938DED047B019B04A9F0
:1012900000244FF09040069406F094F82246042172
:1012A000122005F0D9FD122005F012FE1AB010BD73
:1012B0004FF400424FF0805309A80992189306F0AA
:1012C00003FF28BB194A13680133012B136009D1AE
:1012D000174BDA6C42F40052DA64DB6C03F400530F
:1012E0000293029B124BDA6C42F00102DA64DB6C6F
:1012F0009FED0B7B03F0010303938DED047B039BB8
:1013000004A900244FF09040C5E701F079FBA0E765
:1013100001F076FBD6E700BF0500000003000000E7
:1013200040000000030000000001005014020020F3
:1013300000100240704700BF10B500F053FA831F41
:10134000DBB2012B19D9032817D003F04DFC04465A
:1013500000F0B6FA90B9237A83B900F087FE00BB9B
:10136000144B93F898300BB3012400F001FB68B1E3
:101370000120BDE8104000F02FBA10BD00F076FE4D
:10138000044670B900F0F4FA0028F1D1094B93F843
:101390009830002BECD000F0F1FA48B934B90420B1
:1013A000E7E7BDE81040082000F016BA0220E0E7A9
:1013B0000520DEE7F007002010B503F015FC044619
:1013C00000F054FE08B1002010BD00F0D1FA002852
:1013D000F9D10D4803F078FC0028F4D000F070FA41
:1013E00010B9237A002BEED000F002FA0028EAD0E0
:1013F000054B93F89830002BE5D000F0C5FA003883
:1014000018BF012010BD00BFF007002070B500F02C
:101410002DFE08B1002070BD184E012486F89840BA
:1014200003F0E2FB054600F04BFA48B92B7A3BB9D2
:1014300000F01CFEF0B996F898302BB902200AE0B3
:1014400000F014FE0446A8B900F092FA10B996F81C
:10145000983043B9012000F0BFF90021032000F0CB
:1014600005FD012070BD00F089FA28B9002CE5D1F6
:101470000420F0E70820EEE70520ECE7F007002065
:1014800010B5064B0024012083F8984000F0A4F921
:101490002146042000F0EAFC012010BDF0070020E6
:1014A0000D4A38B50D4B01245462D8695060D86993
:1014B000906100210025D16183F89850DA69C3F862
:1014C00090200720C3F8941000F086F929460520E3
:1014D00000F0CCFC204638BD4C070020F00700206F
:1014E0000D4A38B50D4B01245462D8695060D86953
:1014F000906100210025D16183F89850DA69C3F822
:1015000090202046C3F8941000F066F92946062082
:1015100000F0ACFC204638BD4C070020F00700204E
:10152000002070470020704708B500F05BF9831F6A
:10153000DBB2022B06D9032804D0BDE80840022004
:1015400000F04AB908BD00BF10B310B503F04CFB62
:10155000044600F0B5F978B100F088FD044600BB00
:1015600000F006FA18B9154B93F898309BB9012092
:10157000BDE8104000F030B9237A002BECD100F028
:1015800075FD70B90D4B93F898307BB10124E7E7F6
:10159000022000F021B900F0F1F960B934B904205B
:1015A000E6E7BDE81040082000F016B9BDE810409D
:1015B000022000F011B90520DAE700BFF007002093
:1015C00038B52DED028B00F051FD58BBFFF7F4FE4E
:1015D00088B9284A284B01215162D8695060D869DE
:1015E00090610021D161DA69C3F89020C3F89410AA
:1015F000BDEC028B38BD00F0F5F806282BD01E4C50
:1016000094ED1C8A00F044FED0ED037AB4EEE78A34
:10161000F1EE10FAECDD00F03BFEBDEC028BC3688E
:10162000236738BD144B134A0020012183F898002A
:101630005162D8695060BDEC028BD869906100217D
:10164000D161DA69C3F890200820C3F89410BDE88E
:10165000384000F0C1B8074D074C95ED070A00F07F
:10166000D5FE85ED070AAB69C4F89030EB69C4F884
:101670009430C5E74C070020F007002010B500F0BB
:10168000B1F807283AD000F0ADF806281DD000F0D8
:10169000A9F8022800D010BD03F0A6FA044600F015
:1016A0000FF9002840D000F0E1FC044600287AD170
:1016B00000F05EF920B9434B93F89830002B68D1C5
:1016C0000120BDE8104000F087B83F4B5B6A002B5B
:1016D000DDD003F089FA044600F0F2F800283DD18D
:1016E000237A002B3AD100F0C1FC00285FD1354BA2
:1016F00093F89830002B5CD0012433E003F074FAA7
:10170000044600F0DDF8E8B100F0B0FC0446002823
:1017100047D100F02DF918B92A4B93F8983093BBB4
:10172000012000F059F8AEE7237A002BBBD100F07E
:101730009DFC002837D1234B93F89830002BAAD07A
:101740000124B5E7237A002BDED100F08FFC40BBEB
:101750001C4B93F8983043B30124DAE700F086FC81
:10176000044620BB00F004F948B9164B93F89830B2
:101770002BB100F003F910BBDCB9042000E001201C
:1017800000F02AF883E700F0F9F8A0B96CB904205A
:10179000C7E700F0F3F880B9002C7FF47CAF042099
:1017A0008FE70820BDE708208BE70220B9E7082073
:1017B000E6E70220E4E70520B3E7052081E70520FE
:1017C000DEE700BFF00700204C070020014B00229D
:1017D0001A707047F0020020014B1870704700BF6C
:1017E000F0020020014B1878704700BFF002002083
:1017F00008B500F03BFC08B1002008BD00F0AEF9D0
:101800000028F9D0034B1878043802288CBF002038
:10181000012008BDF002002009289ABF024B53F8AE
:1018200020000248704700BF20F30008F0F20008D3
:10183000034B044959600020012218601A81704747
:10184000F40200200060EA46034B0449596000207E
:10185000012218601A817047F40200200060EA46F5
:1018600018B107C8014B83E807007047F402002055
:10187000014B1860704700BFF4020020014B83ED5C
:10188000010A7047F40200200028034BB4BF4FF058
:10189000FF3201221A727047F4020020014B1868CF
:1018A000704700BFF4020020014B93ED010A70471E
:1018B000F4020020014B93F908007047F402002065
:1018C000014B587A704700BFF40200200038024BE9
:1018D00018BF012058727047F4020020014B024AE1
:1018E0001A607047000300200100000130B41C4A58
:1018F000937814785578C3B18CB90321A44608466F
:101900000125002364F307036CF30F2365F31743EA
:1019100060F31F63136030BC022000F0A7BA0121FE
:1019200000250846AC460C46EBE7002CF7D15DB924
:10193000022805D003280DD1AC4601460125E0E779
:1019400001464FF0010CDCE70221254608464FF026
:10195000010CD6E701210846AC460C46D1E700BF92
:1019600000030020014BD878704700BF000300201F
:10197000014B1878704700BF00030020014B5878D6
:10198000704700BF00030020014B9878704700BFEC
:101990000003002058B300681F4BC2B210B5B2F16B
:1019A000000E18BF4FF0010E4FF0000110F47F4CF5
:1019B00018BF4FF0010C6EF307016CF30F2110F408
:1019C0007F0F1860C0F30724198006D00121997099
:1019D00072B90321D9705A7010BD4AB974B9DA7856
:1019E000022A13D0032A0DD00C4A1A6010BD70478A
:1019F00001210022D970A3F8012010BD4FF400721C
:101A00005A8010BD01221C809A7010BD4FF4807264
:101A10001A809C7010BD00BF00030020010000016F
:101A2000144BA8B95A7899781870B2F1000C18BF05
:101A30004FF0010C83F801C069B9BAB9DA78022A0B
:101A400010D0032A04D14FF48072A3F8012070470C
:101A5000094A1A60704703214FF48072D970A3F8C5
:101A6000012070470122A3F8012070474FF4007253
:101A70005A8070470003002001000001174B10B18D
:101A8000174A1A6070471A7899785870B2F1000CAA
:101A900018BF4FF0010C83F800C029B101219970E3
:101AA0001AB90322DA7070471AB14FF480725A8063
:101AB0007047D978022907D003290AD001214FF4B1
:101AC000807219705A8070474FF4807119809A7033
:101AD000704701211A709970704700BF0003002001
:101AE0000001000218B11B4B1B4A1A60704710B46A
:101AF000184B1C7859789870B4F1000C18BF4FF04F
:101B0000010C02466CF30702B1F1000C18BF4FF054
:101B1000010C6CF30F221A804CB991B9DA78022AC1
:101B20000BD0032A12D00122DA701A8002E00122BF
:101B3000DA7058705DF8044B70474FF480721A8069
:101B4000F8E70222DA705DF8044B70470122198031
:101B50009A70EFE7000300200000010308B500F0D1
:101B600085FA064B1A781043C0B220B9987800382D
:101B700018BF012008BD002008BD00BF00030020E1
:101B80000048704700030020014B00221A70704784
:101B90000403002038B5474B474AB3F8E0309B02B6
:101BA00003F1FF6404F5FF242168914202D16268C9
:101BB000012A0BD000F04CFB03F00CF8FFF78EFE6F
:101BC000FFF742FE3D4B0020187038BDA268382A4E
:101BD000F0D103F100633A4AA3F5FE60A3F5F76183
:101BE0004FF0FF3C10F8013B83EA0C0343F3000C79
:101BF0000CEA020C8CEA530C43F34003134083EAD3
:101C00005C034CF3400C0CEA020C8CEA530C43F3DB
:101C10004003134083EA5C034CF3400C0CEA020CD3
:101C20008CEA530C43F34003134083EA5C034CF308
:101C3000400C0CEA020C8CEA530C43F340031340B3
:101C4000814283EA5C0CCDD1E3686FEA0C0C9C45C1
:101C5000B0D104F11005284600F080FB0028A9D07F
:101C600094F83830013B022BA4D8D4ED107AF5EE6D
:101C7000C07AF1EE10FA9DD994F944305A1C01D083
:101C8000012B97D194F84530012B93D8284600F0CA
:101C900003FB04F12C0002F0ABFF04F13500FFF769
:101CA00079FE04F13C00FFF7DBFD044B01201870C6
:101CB00038BD00BF0075FF1F53544B4D0403002077
:101CC0002083B8ED0000000070B52DED028B5A4B5B
:101CD000AAB03C22002109A8B3F8E0400AF035F987
:101CE00053A3D3E900233821CDE90623089100F05E
:101CF000CFFA05460FCD0DF1280CACE80F0095E8A2
:101D000007008CE8070002F06FFF02460068516888
:101D1000127A11AB03C31A70FFF732FF0368CDF8D4
:101D20004D30FFF7BBFD0646FFF7BEFDB0EE408A23
:101D3000FFF7C0FD0546FFF7C3FD404A8DF85D0083
:101D4000A40215968DED168A8DF85C500DF12701D1
:101D50000DF15F004FF0FF3311F801EF8EEA030E33
:101D60004EF300034EF3400C134083EA5E030CEA8B
:101D7000020C8CEA530C43F340034CF3400E134027
:101D800083EA5C030EEA020E8EEA530E43F340032D
:101D90004EF3400C134083EA5E030CEA020C8CEA1B
:101DA000530C43F3400313404CF3400E83EA5C03AF
:101DB00088420EEA020C8CEA5303CDD1DB43482261
:101DC00006A918A809930AF0C0F905F0D5F9002171
:101DD000A4F500630122CDE90111DB0A01A902A8E3
:101DE000CDE90323059205F00FFAC8B918AD641BBD
:101DF00004F1FF642AAE04F5FF24D5E9002361193C
:101E0000002005F001F958B90835B542F5D105F0C3
:101E1000C7F90B4B012018702AB0BDEC028B70BDC6
:101E200005F0BEF900202AB0BDEC028B70BD00BFEA
:101E300053544B4D010000000075FF1F2083B8ED87
:101E400004030020014B1878704700BF04030020F2
:101E500003480449044A002303800B801380704721
:101E60000A030020080300200603002038B50C46B2
:101E7000054603F0D3FD10490B880A889BB2013256
:101E800002F03F0203EB43039B000A800B4A0C491C
:101E9000D0501A440B8815719BB23F2B946004D824
:101EA0000B8801339BB20B8038BD064A138801337F
:101EB00003F03F03138038BD0A0300200C03002009
:101EC0000603002008030020044A13889BB2FF2B5E
:101ED0009ABF1088C0B2FF20704700BF06030020E1
:101EE000034618B31348B0F800C01FFA8CF2D2B101
:101EF00010B4114C1149228892B202EB420201EB5C
:101F000082022188013101F03F01218001885DF8C2
:101F1000044B013989B2018007CA4FF0010C83E8F4
:101F200007006046704794466046704784466046A6
:101F3000704700BF06030020080300200C030020A8
:101F40000E289ABF024B53F820000248704700BF8A
:101F500048F30008F0F200080249034A00230B602E
:101F600013707047100600200C060020D8B10E4AEE
:101F700038B511680446012301388340194208D05E
:101F80000C2C18BF0820BDE8384008BF0920FFF717
:101F900023BC1168054D0B430A20214613602C70A9
:101FA000FFF764FFECE77047100600200C060020E6
:101FB00000B9704710B5224C014623680138012250
:101FC000824023EA02030B202360FFF74FFF2368C0
:101FD000D3B1180522D4590519D49A0520D4DC05AB
:101FE00020D4180620D4590620D49A0620D4DC0622
:101FF00012D418071ED459071ED49A071ED413F002
:10200000010318BF012303D10E4A137010BD0B2327
:102010000C4ADBB2137010BD0523F9E70C23F3E77C
:102020000A23F5E70923F3E70823F1E70723EFE79E
:102030000623EDE70423EBE70323E9E70223E7E7C1
:10204000100600200C06002008B5064A064B0021A9
:102050000B2011601970FFF709FFBDE8084001204F
:10206000FFF7BABB100600200C060020024B1868D0
:10207000003818BF0120704710060020014B187867
:10208000704700BF0C060020014B1868704700BF66
:10209000100600200C289ABF024B53F8200002487B
:1020A000704700BF84F30008F0F200080000000051
:1020B00038B5032303700D680446E86AFEF75AFA40
:1020C00016A3D3E90023FEF7CFFAFEF7A5FDEA6ACF
:1020D00060800023013A2A6401210022E360236129
:1020E0006361A361E36123626362A362E3622363CA
:1020F0006363A363E3632364A365074860640A23FF
:10210000C4E91722C4E91922C4E91B11C4E91D134B
:1021100038BD00BFAFF30080CDCC4C3FCDCCCCCC94
:10212000CCCCEC3F408810B48142084C28BF01461B
:102130008242246828BF0246984228BF184661633D
:10214000A263E0635DF8044B704700BFF01A002003
:10215000004870475CEC00080048704770EC0008CD
:102160000048704784EC0008004870479CEC000869
:1021700010B500248AB0CDE90444CDE90644224BD1
:102180000894D96C41F00401D964D96C01F00401C0
:1021900000910099D96C41F02001D964D96C01F00B
:1021A000200101910199D96C41F00101D964D96CE8
:1021B00001F0010102910299D96C41F00201D96448
:1021C000DB6C03F00203224603934FF400414FF00F
:1021D0009040039B05F0C2FA4FF40042012304A98A
:1021E0004FF09040CDE90423CDE9064405F0EAF82C
:1021F0004FF4806200230548069404A9CDE9042326
:1022000005F0E0F80AB010BD0010024000080048D8
:10221000094B0A480A4ADFF834C09A6042F210714A
:10222000C3E90001C82207480749C3F80CC0186178
:1022300059619A61704700BF18060020F0D8FFFF6F
:10224000CDCC4C3E0AD7A33B0AD7A33C9A99993EE2
:10225000094B0A480A4ADFF834C09A6042F210710A
:10226000C3E90001C82207480749C3F80CC0186138
:1022700059619A61704700BF18060020F0D8FFFF2F
:10228000CDCC4C3E0AD7A33B0AD7A33C9A99993EA2
:102290000048704718060020002858D0D0E90023D5
:1022A0009A42844653DA2A498A4250DB4CF2503132
:1022B0008B424CDC9B1A632B49DDD0ED027AF5EEA4
:1022C000C07AF1EE10FA42D4B7EE007AF4EEC77A93
:1022D000F1EE10FA3BDC90ED037AF4EEC77AF1EE02
:1022E00010FA34DCF0EE087AB4EEE77AF1EE10FA88
:1022F0002DDCD0ED047AF5EEC07AF1EE10FA26D995
:102300009FED147AF4EEC77AF1EE10FA1FDCD0EDEF
:10231000057AF5EEC07AF1EE10FA18D9B7EE007A28
:10232000F4EEC77AF1EE10FA11DC836942F20F7213
:10233000013B93420BD8BCE80F0010B4064C0FC40D
:102340009CE8070084E807005DF8044B704770477D
:10235000B03CFFFFCDCCCC3D1806002000284FD06C
:10236000D0E900239A424ADA26498A4247DB4CF2F6
:1023700050318B4243DC9B1A632B40DDD0ED027A57
:10238000F5EEC07AF1EE10FA39D4B7EE007AF4EE39
:10239000C77AF1EE10FA32DC90ED037AF4EEC77AE8
:1023A000F1EE10FA2BDCF0EE087AB4EEE77AF1EEFB
:1023B00010FA24DCD0ED047AF5EEC07AF1EE10FAD2
:1023C0001DD99FED117AF4EEC77AF1EE10FA16DC02
:1023D000D0ED057AF5EEC07AF1EE10FA0FD9B7EE2E
:1023E000007AF4EEC77AF1EE10FA08DC806942F266
:1023F0000F73013898428CBF0020012070470020E5
:10240000704700BFB03CFFFFCDCCCC3D0A4BB0EED7
:10241000407A93ED040AB4EEC70AF1EE10FA0AD43A
:10242000F1EE407AF4EEC77AF1EE10FAB4BFB0EEF6
:10243000470AB0EE670A7047180600200000000047
:1024400010B594B03822002106A809F07EFD0020C6
:10245000CDE90100CDE90300059005F015FA9FEDE7
:10246000147B02235522CDE90F320324082206A84B
:102470008DED067BCDE90D34CDE91123139305F0E5
:102480007DFA08B172B6FEE7042103460F220DEB78
:102490000100CDE90124CDE90333059305F0ECFCFF
:1024A00008B172B6FEE714B010BD00BFAFF30080F4
:1024B000010000000000010080B503F093FA9FEDD9
:1024C000C48AC44FC44CC54DDFEDC58AFFF7B8FFC1
:1024D000FFF74EFE02F092FFFEF7DAFD00F0E8FB98
:1024E00000F004FC03F0ACF8FEF74AFE02F02CFF0B
:1024F00003F050F9BB48BC49BC4ABD4B00260660FE
:1025000081ED008A82ED008ABA4983ED008ABA4BD8
:10251000BA4A81ED008A1A60B94ABA4BBA491160C9
:1025200038464FF07E521A6000F06CFAB7492046E8
:10253000FFF7BEFDB648B3EE090A00F04DFCB44803
:10254000B0EE480A00F050FCB148B0EE480A00F086
:1025500053FC95ED0B0AD4ED1B7AAD48F8EE677A83
:10256000B8EE400A20EE270A20EE280A00F04CFCC4
:102570009FEDA80AA64800F05FFCA548B5EE000A4A
:1025800000F04AFC9FEDA40AA14800F04DFC9FED2D
:10259000A30A9F4800F054FC9D48B0EE480A00F0A2
:1025A00067FC9B48B5EE000A00F00EFC9FED9C0A0C
:1025B0009C4800F011FC9FED9C0A9A4800F014FC26
:1025C0009848B0EE480A00F017FC95ED0B0AD4EDE0
:1025D0001C7A9448F8EE677AB8EE400A20EE270A93
:1025E00020EE280A00F010FC9FED900A8D4800F0C4
:1025F00023FC8C48B0EE080A00F00EFC9FED860A22
:10260000884800F011FC9FED850A864800F018FC10
:102610008448B0EE480A00F02BFC8248B0EE080A6D
:1026200000F0D2FB8248B3EE090A00F0D5FB9FED23
:10263000810A7F4800F0D8FB7D48B0EE480A00F0E0
:10264000DBFB95ED0B0AD4ED1D7A7948F8EE677A3D
:10265000B8EE400A20EE270A20EE280A00F0D4FB4C
:102660009FED720A724800F0E7FB7148B1EE0C0A68
:1026700000F0D2FB9FED680A6D4800F0D5FB9FED9E
:10268000670A6B4800F0DCFB6948B0EE480A00F0CE
:10269000EFFB6748B1EE040A00F096FB6648B3EE24
:1026A000090A00F099FB9FED630A634800F09CFB68
:1026B0006148B0EE480A00F09FFB95ED0B0AD4ED9F
:1026C0001D7A5D48F8EE677AB8EE400A20EE270AD8
:1026D00020EE280A00F098FB9FED540A564800F0BF
:1026E000ABFB5548B1EE0C0A00F096FB9FED4A0A91
:1026F000514800F099FB9FED490A4F4800F0A0FBBC
:102700004D48B0EE480A00F0B3FBB1EE040A4A4867
:1027100000F05AFBFFF75AF8FFF71EFCFFF7DEF850
:10272000FFF796FB02F05EFD03F0D0F8FFF770FDB7
:1027300002F046FA02F0B0FAFFF726FAFFF778F84F
:10274000FEF7F8FD00F06EFCFFF724FAFFF7A0FD9E
:102750003146C3683B670120FFF788FBFEF7ECFDBD
:10276000364805F079F8364805F076F80C21274808
:1027700005F0BAFF334803F0E9FE334803F054FF95
:102780003146324805F0B0FFD5ED0B7A9FED307A37
:10279000304B314883ED008AF8EE677A2F49304A92
:1027A00080ED008A67EE877A81ED008AFCEEE77A99
:1027B00017EE903A9BB2638041F28833136000F0C9
:1027C000B1FC02F067FD03F0A1F8FEF757FFF6E752
:1027D00000000000F007002074070020002C0140DA
:1027E000B91D4A3254060020500600204C06002035
:1027F0004806002044060020400600200AD7233C5B
:102800003C060020380600200AD723BCF01A00201E
:1028100014070020ACC5A7360000C84200007A4467
:10282000C3F5F040DC06002000A0A6446F12833AF6
:10283000A406002000708A456C060020E0080020F5
:10284000A00800201802002084020020A41A002002
:102850006666663F60060020680600206406002069
:10286000580600200368B3F1A04F00D0704770B540
:10287000374C384A3849394E88B0204600F072F952
:10288000374994ED040A204600F016F935493278AC
:10289000204602F037FA0546002847D1FEF790FEA1
:1028A000314B94ED065A9FED314AD4ED245A94ED04
:1028B0000C6AD4ED256A93ED087AD3ED067ADFED44
:1028C0002C4A019527EE047A67EE847ABDEEC77A2A
:1028D00065EEA45A17EE103A26EE246A66EEA46A54
:1028E000FDEEE77ABDEEC55AFDEEE55ABDEEC66ACD
:1028F000FDEEE66AADF8183017EE903A8DED025A0B
:10290000CDED035A8DED046ACDED056AADF81A30B0
:10291000FEF768FF8DF81C00FFF7B0FB034601A827
:102920008DF81D3002F06CFC08B070BD0E4800221E
:10293000002384F898301946C261026242628262C2
:1029400082601A46337008B0BDE87040FFF7EABBFA
:10295000F007002018020020840200203406002026
:10296000581A00204C0700207407002000007A4409
:102970000024744908B50368B3F1A04F00D008BD26
:1029800003F046F9034A83B213801046BDE80840BD
:1029900000F076B9F00700200368B3F1804F00D053
:1029A0007047037F012BFBD1074A084813680133A6
:1029B00013608368013383608368092BF0D9002397
:1029C0000349836000F06EB95C060020F007002028
:1029D00084020020084A0368934200D070471B68B5
:1029E000064A13F0100F536902D0013B5361704740
:1029F00001335361704700BF00080040F00700201A
:102A000072B6FEE70022244B9FED247A244910B4CD
:102A100082600273D3ED0B7A41634FF07E5484637E
:102A2000F8EE677A1F4C04641F4C446467EE877AA3
:102A30001E4C016500231E490280C0E9152443672E
:102A40004360C0ED047A426183610362C361436203
:102A50008362C3620363C3638364C364C365036641
:102A600043668366C3660167C0E92722C0E929225D
:102A70005DF8044BA0F87820C367C0F88030C0F838
:102A80008430C0F88830C0F88C30C0F89030C0F87E
:102A90009430A0F898207047002C0140B91D4A32AC
:102AA000CDCCCC3D0000F0420060EA46A009970979
:102AB0000000404000000000F8B50D68044663695E
:102AC000696A62699342FAD141EA034107EE901ABA
:102AD000DFED236AD4ED074A94ED0D5A94ED0C4ACC
:102AE000C4ED084AF8EEE77AB7EE007A67EEA66A18
:102AF00037EE457A36EEE46A27EE047AC6EE005ADF
:102B000094ED134A94ED126AC4ED067A36EE446AE7
:102B1000C4ED076A76EE277AC4ED0B5A17EE900AD9
:102B2000F0EE477AE5EE257AC4ED0C7AFDF744FD28
:102B300009A3D3E90023FDF797FD0646606C0F4615
:102B4000FDF73AFD02460B4630463946FDF7B6FE24
:102B5000FEF782F86062F8BD182D4454FB2119403D
:102B6000BD37863538B50B4604460921184615464B
:102B700003F0DCFD0921A4F85400284603F0D6FD3B
:102B8000B4F85430DFED3D5AD4ED174A94ED185A9D
:102B900006EE903AB4F8583007EE103AB4F85A30CE
:102BA00080B207EE903A06EE100AB8EE477AF8EED9
:102BB000666AF8EE677AB8EE466A76EEC76A36EE6F
:102BC000676A66EEA56AD4ED147AC4ED1A6A26EE39
:102BD000256AF7EE005A75EEE75A26EEA77A66EEFA
:102BE000277AA4EEA57AA4F85600E5EE857AD4ED0E
:102BF000205A84ED1B6AB4EEE57AF1EE10FAC8BFF4
:102C0000F0EE475AF4EEE57A77EE276AC8BF84ED16
:102C1000207AF1EE10FA94ED216AC8BFC4ED207A53
:102C2000F1EE666AC8BFF0EE675AF4EEE56AF1EEBF
:102C300010FAB4EEC67AC8BFC4ED206AF1EE10FAFD
:102C400048BFB0EE476AF4EEC67A48BF84ED217AF9
:102C5000F1EE10FA48BFB0EE676AF4EEC66A48BFFC
:102C6000C4ED217AF1EE10FA84ED177AC4ED187AEA
:102C7000C4ED196A48BFC4ED216A38BDA69B443D26
:102C800003889FED077A07EE903AF8EE677A012302
:102C900067EE877A0373C0ED017AC0ED1D7A704745
:102CA000AE47093C00220280084603F0AFBB00BFDC
:102CB0000C4810B540220C4C826000234FF40031C8
:102CC0004FF44042C0E90043C0E9091203610375B3
:102CD0008361C36204F048FD00B910BDBDE8104037
:102CE000FFF78EBEE0080020000301400C4810B53D
:102CF00040220C4C826000234FF400314FF44042DC
:102D0000C0E90043C0E90912036103758361C3622E
:102D100004F02AFD00B910BDBDE81040FFF770BEF9
:102D2000A00800200403014000B50268244989B0CE
:102D300000238A42CDE90233CDE90433069305D05E
:102D4000204B9A421BD009B05DF804FB03F180438D
:102D500003F504339FED167BDA6C42F00102DA646E
:102D6000DB6C03F00103009302A94FF090408DED5E
:102D7000027B009B04F026FB09B05DF804FB03F521
:102D80008633FC33DA6C42F00102DA64DB6C9FEDCF
:102D90000A7B03F00103019302A94FF090408DEDEF
:102DA000027B019B04F00EFB09B05DF804FB00BF41
:102DB0000E00000003000000E0000000030000001F
:102DC0000003014004030140B5EEC00AF1EE10FA21
:102DD00088BF80ED040A7047B5EEC00AF1EE10FA24
:102DE00058BF80ED000A7047B5EEC00AF1EE10FA48
:102DF00058BF80ED010A7047B5EEC00AF1EE10FA37
:102E000058BF80ED020A7047B5EEC00AF1EE10FA25
:102E100088BF80ED070A7047B5EEC00AF1EE10FAE0
:102E200088BF80ED050A7047B5EEC00AF1EE10FAD2
:102E300088BF80ED060A704780ED080A704700BF22
:102E40009FED0A7A90ED076AC7EE007AF7EE006A06
:102E500037EE867AC6EE077AF4EEE67AF1EE10FAED
:102E600088BFF0EE667AC0ED0A7A704783F9223E99
:102E7000B5EEC00AF1EE10FA88BF80ED0C0A70477B
:102E800070B582B00025019510B10378044613B9DE
:102E9000002002B070BD0E4609F02AF90A22056032
:102EA00001A9204608F0B6FA054609F021F90368A1
:102EB000002BEDD1019BA342EAD01B78002BE7D178
:102EC0000120356002B070BD00B599B00346094AD3
:102ED0006021684608F0C0FF6846FDF701FA024627
:102EE000642392B26946044806F02EFA19B05DF8E0
:102EF00004FB00BFB0EC0008401B002000B5A3B0ED
:102F00000346094A009102A8802108F0A5FF02A803
:102F1000FDF7E6F90246642392B202A9034806F0DF
:102F200013FA23B05DF804FBBCEC0008401B002042
:102F300000B5A3B00346094A009102A8802108F019
:102F40008BFF02A8FDF7CCF90246642392B202A9D6
:102F5000034806F0F9F923B05DF804FBD0EC000853
:102F6000401B002010B50446A2B010EE100AFDF779
:102F700023FB2346CDE90001084A802102A808F07E
:102F80006BFF02A8FDF7ACF90246642392B202A9D6
:102F9000034806F0D9F922B010BD00BFE4EC0008E8
:102FA000401B002000B599B0FEF78EFE40B10E49DF
:102FB0000E486423072219B05DF804EB06F0C4B98B
:102FC0000B4B0C4A6021684608F046FF6846FDF747
:102FD00087F90246642392B26946044806F0B4F9C0
:102FE00019B05DF804FB00BFF8EC0008401B00209E
:102FF00000ED0008B0EC0008014B1878704700BFE6
:10300000A40B002010B50446FDF76AF902462146DC
:103010000348BDE81040642392B206F095B900BFA2
:10302000401B002010B50E480E4B0F4A0F490024DC
:1030300004701C700E4B0C701480214680220D48C9
:103040001C7008F082FF21464FF400720A4808F015
:103050007CFFBDE8104009490948012206F00EBA7C
:103060001F0900201E090020200900201D09002042
:103070001C090020240B002024090020A40B0020A0
:10308000401B002070B51F4C0A28228808D00D284C
:1030900006D07E2A0ED81C49531C8854238002E097
:1030A00082B900232380BDE87040184918480122E6
:1030B00006F0E4B9174A1378002143F00103218098
:1030C0001370F0E7144D104900238B542B78032B19
:1030D00005D9104A137843F002031370E1E70F4E4D
:1030E0000F4B3078013203EBC01009F02EF8337823
:1030F000013303F0030333702B780133DBB22B7001
:10310000CFE700BF20090020240B0020A40B0020E3
:10311000401B00201C0900201D0900201F09002061
:10312000240900202DE9F0412DED028BDCB072B6B0
:10313000B64B1C7800221A70E4B262B6E10700F1C7
:10314000BE80A20700F1A98072B6B14C23782BB9DA
:1031500062B65CB0BDEC028BBDE8F081AD4EAE4B0B
:1031600031780CA803EBC11100257F228DF8AF50F8
:1031700008F005FF3378013303F00303337023783D
:10318000013BDBB2237062B6A4490CA808F00AFF29
:10319000A2498046284608F005FFA0490446284673
:1031A00008F000FF9D490746284608F0FBFE06464A
:1031B000B8F1000F00F0188102F096FB98494046E4
:1031C000FDF72EF8002840F08C80002C00F0C5811F
:1031D00094492046FDF724F8002800F061819249C7
:1031E0002046FDF71DF8002800F049828F4920464F
:1031F000FDF716F8002800F095828D492046FDF76E
:103200000FF8002800F0BA818A492046FDF708F837
:10321000002800F0898388492046FDF701F800283E
:1032200000F0F18385492046FCF7FAFF002800F002
:10323000F08483492046FCF7F3FF002800F0AA85BC
:1032400080492046FCF7ECFF002800F0AD867E495F
:103250002046FCF7E5FF002800F043877B49204625
:10326000FCF7DEFF002840F05187794B794A93F84C
:103270009810764B003918BF012100912CA88021AD
:1032800008F0EAFD2CA8FDF72BF80246642392B261
:103290002CA9714806F058F85BE72CAD6F4B704ACB
:1032A0006021284608F0D8FD2846FDF719F80246A7
:1032B000642392B22946684806F046F844E72CADEC
:1032C000684B674A6021284608F0C6FD2846FDF78E
:1032D00007F80246642392B229465F4806F034F8A4
:1032E0002FE761494046FCF79BFFF8B96CB14D49A7
:1032F0002046FCF795FF002800F064824A492046EA
:10330000FCF78EFF002800F04E81584B544A602194
:103310002CA808F0A1FD2CA8FCF7E2FF02466423CC
:1033200092B22CA94C4806F00FF812E750494046DB
:10333000FCF776FF002840F0FF80002C00F08E8123
:103340004C492046FCF76CFF002800F0E4824A4913
:103350002046FCF765FF002800F03F8347492046E0
:10336000FCF75EFF002800F03D8445492046FCF74D
:1033700057FF002800F0F78442492046FCF750FF31
:10338000002800F0FA8540492046FCF749FF002854
:1033900000F09B863D492046FCF742FF0546002889
:1033A00000F076873A492046FCF73AFF002801F002
:1033B0006A8038492046FCF733FF002841F04780F7
:1033C000002F01F0A4822CA93846FFF759FD0028F0
:1033D00001F002822C98FEF7A3F8002801F02F825A
:1033E0002D48FFF70FFEB4E62C4B1D4A60212CA898
:1033F00008F032FD2CA8FCF773FF0246642392B25A
:103400002CA9154805F0A0FFA3E600BF1C09002069
:103410001D0900201E0900202409002028ED0008B5
:1034200034ED000838ED0008F8EA00081CEF000849
:103430003CF2000844EF000864EF000878EF000851
:1034400084EF000890EF0008A4EF0008B0EF000838
:10345000F0070020D0EC0008401B002018ED000809
:10346000B0EC00080CED0008ACF00008CCF100084E
:10347000D8F10008E8F1000850EB000858EB00080C
:1034800060EB000868EB000838F2000844F200081E
:1034900050F200086CF20008F8EC00082CED00086F
:1034A000FEF7F6FE0446002F00F0C780A849384614
:1034B000FCF7B6FE002800F01882A6493846FCF753
:1034C000AFFE002800F06082A3493846FCF7A8FE52
:1034D000002800F0C182A1493846FCF7A1FE00286F
:1034E00000F0F1839E493846FCF79AFE002800F070
:1034F0001C859C493846FCF793FE002800F0BD85EA
:1035000099493846FCF78CFE002800F098869749C8
:103510003846FCF785FE002800F054879449384669
:10352000FCF77EFE002840F07487FEF7C3F90146E1
:103530008F48FFF7E3FC0CE68E4B8F4A60212CA8E6
:1035400008F08AFC2CA8FCF7CBFE0246642392B25A
:103550002CA98A4805F0F8FEFBE5894B864A6021D4
:103560002CA808F079FC2CA8FCF7BAFE02466423CC
:1035700092B22CA9814805F0E7FEEAE5FEF77EFD50
:10358000FEF788FD7F4A034660212CA808F064FC02
:103590002CA8FCF7A5FE0246642392B22CA977481A
:1035A00005F0D2FED5E5002F00F0CB83002E00F011
:1035B000C88375493846FCF733FE00242C943378D1
:1035C000002840F08D82002B00F0A88308F090FDC9
:1035D0002CAD04600A222946304607F01BFF044642
:1035E00008F086FD0368002B40F099832C9B9E42D7
:1035F00000F095831B78002B40F09183631E022B13
:1036000000F28D83E0B2FEF771F9FDF78DFFFEF752
:103610005BFB002840F09C815C4B574A60212846A8
:1036200008F01AFC2846FCF75BFE0246642392B2BF
:103630002946524805F088FE8BE5554B4E4A6021DD
:103640002CA808F009FC2CA8FCF74AFE02466423CB
:1036500092B22CA9494805F077FE7AE54D4B464ACF
:1036600060212CA808F0F8FB2CA8FCF739FE0246D4
:10367000642392B22CA9414805F066FE69E501F089
:10368000B3FA0446002F00F03E8443493846FCF765
:10369000C7FD002800F0648140493846FCF7C0FDB2
:1036A000002800F0C5813E493846FCF7B9FD0028E6
:1036B00000F020833B493846FCF7B2FD002800F0BB
:1036C000488439493846FCF7ABFD002800F0E9840E
:1036D00036493846FCF7A4FD002800F0C58534497A
:1036E0003846FCF79DFD002800F0988631493846A1
:1036F000FCF796FD002800F049872F493846FCF773
:103700008FFD002800F0D0872C493846FCF788FD53
:10371000002840F0C487FEF7D3F801462748FFF79A
:1037200007FC16E5FEF75EF8FEF776F8244A034636
:1037300060212CA808F090FB2CA8FCF7D1FD0246D4
:10374000642392B22CA90D4805F0FEFD01E500BFEF
:1037500054ED000860ED000874ED000884ED0008E9
:1037600098ED0008A8ED0008B8ED0008C8ED0008C5
:10377000D8ED0008F0F20008B0EC0008401B002073
:1037800010EF000834EF000864EF000800ED0008B7
:1037900040ED0008DCF100080CEE00081CEE00080B
:1037A00038EE000848EE000860EE000880EE0008E1
:1037B00098EE0008B0EE0008CCEE0008F0EE00082D
:1037C00024EF0008002F00F0F680002E00F0F380B8
:1037D000FEF75EFD04460FCC05AD0FC594E807006B
:1037E00085E80700A8493846FCF71AFD002800F0D4
:1037F0002582A6493846FCF713FD002800F03883DF
:10380000A3493846FCF70CFD0446002800F0F48379
:10381000A0493846FCF704FD0446002800F0CE8499
:103820009D493846FCF7FCFC0446002800F08E85D4
:103830009A493846FCF7F4FC0446002800F06A86F2
:1038400097493846FCF7ECFC0446002800F0D28685
:1038500094493846FCF7E4FC0446002800F05887F9
:1038600091493846FCF7DCFC0446002840F0A2876A
:103870002C903378002B00F0CF8708F039FC2CAD6A
:1038800004600A222946304607F0C4FD044608F0C9
:103890002FFC0368002B40F0C0872C9B9E4200F059
:1038A000BC871B78002B40F0B887631C02D0012C2A
:1038B00041F0738060B2FDF7E7FFFDF735FEFEF7DC
:1038C00003FA002840F01783784B794A6021284694
:1038D00008F0C2FA2846FCF703FD0246642392B2C0
:1038E0002946744805F030FD33E4A068FCF764FE17
:1038F000654B714ACDE9000180212CA808F0ACFA93
:103900002CA8FCF7EDFC0246642392B22CA969486E
:1039100005F01AFD1DE401F0E7FF684965486423DE
:10392000072205F011FD14E4FEF7AEFB644B654A77
:10393000009080212CA808F08FFA2CA8FCF7D0FC6E
:103940000246642392B22CA95A4805F0FDFC00E41B
:103950005A4958486423072205F0F6FCFFF7F9BBE3
:103960002178594B594A00912CA8802108F074FA0B
:103970002CA8FCF7B5FC0246642392B22CA94D4852
:1039800005F0E2FCFFF7E5BBE068FCF715FE3F4BF6
:10399000494ACDE9000180212CA808F05DFA2CA845
:1039A000FCF79EFC0246642392B22CA9414805F024
:1039B000CBFCFFF7CEBB464B3D4A60212CA808F05C
:1039C0004BFA2CA8FCF78CFC0246642392B22CA97B
:1039D000384805F0B9FCFFF7BCBBFDF717FD002820
:1039E000B6D13C4B324A60212CA808F035FA2CA8FD
:1039F000FCF776FC0246642392B22CA92D4805F010
:103A0000A3FCFFF7A6BBFDF7ADFF334B2D4A00909B
:103A100080212CA808F020FA2CA8FCF761FC0246B3
:103A2000642392B22CA9234805F08EFCFFF791BBCA
:103A300061782A4B254A00912CA8802108F00CFAC5
:103A40002CA8FCF74DFC0246642392B22CA919481D
:103A500005F07AFCFFF77DBB2069FCF7ADFD0C4B50
:103A6000154ACDE9000180212CA808F0F5F92CA811
:103A7000FCF736FC0246642392B22CA90D4805F0EF
:103A800063FCFFF766BB00BF54ED000860ED000863
:103A900074ED000884ED000898ED0008A8ED00081A
:103AA000B8ED0008C8ED0008D8ED000800ED0008EA
:103AB000B0EC0008401B0020E4EC0008F8EC000823
:103AC00044EF000850EF00080CEE0008D0EC0008AE
:103AD000B0F00008F4F1000864EF00081CEE0008E4
:103AE000002B00F07F8108F003FB2CAD04600A225C
:103AF0002946304607F08EFC044608F0F9FA0368C0
:103B0000002B40F070812C9B9E4200F06C811B7852
:103B1000002B40F06881012C00F26581BB493846DA
:103B2000E4B2FCF77DFB002800F0C484B8493846B5
:103B3000FCF776FB002800F02F85B6493846FCF7E5
:103B40006FFB002800F0C885B3493846FCF768FBD6
:103B5000002800F05886B1493846FCF761FB002880
:103B600000F07286AE493846FCF75AFB002800F098
:103B70002687AC493846FCF753FB002800F0318714
:103B8000A9493846FCF74CFB002800F02187A749DB
:103B90003846FCF745FB002800F04F87A44938461B
:103BA000FCF73EFB002800F03987A2493846FCF7B5
:103BB00037FB002800F023879F493846FCF730FB8D
:103BC000002840F01787204601F05EF8C4F10E008F
:103BD0000421C0B2FEF74AF9FDF7A6FCFFF7E2F9AF
:103BE000FFF7B7BAFDF74CFC00287FF4B1AE934B5A
:103BF000934A60212CA808F02FF92CA8FCF770FB41
:103C00000246642392B22CA98E4805F09DFBFFF773
:103C1000A0BAFDF7ADFE7D4B8B4A009080212CA809
:103C200008F01AF92CA8FCF75BFB0246642392B259
:103C30002CA9844805F088FBFFF78BBA2C903378C9
:103C4000002B00F0BC8008F053FA2CAD0023036079
:103C50002946304607F000FBB0EE408A08F048FAEB
:103C60000368002B40F0AC802C9B9E4200F0A880A3
:103C70001B78002B40F0A48005A88DED078AFEF785
:103C80006DFB002800F0508305A8FEF705FB6F4B85
:103C9000089A1A67FDF748FCFEF716F8002840F06E
:103CA0002A816B4B664A6021284608F0D5F82846E1
:103CB000FCF716FB0246642392B22946614805F0E0
:103CC00043FBFFF746BA6069FCF776FC614B624A3A
:103CD000CDE9000180212CA808F0BEF82CA8FCF743
:103CE000FFFA0246642392B22CA9564805F02CFB39
:103CF000FFF72FBAA1784A4B534A00912CA8802194
:103D000008F0AAF82CA8FCF7EBFA0246642392B25A
:103D10002CA94C4805F018FBFFF71BBA2CAD4F4BF4
:103D2000474A6021284608F097F82846FCF7D8FA59
:103D30000246642392B22946424805F005FBFFF78C
:103D400008BA474B3E4A60212CA808F085F82CA8F9
:103D5000FCF7C6FA0246642392B22CA9394805F052
:103D6000F3FAFFF7F6B9FDF79BFB00287FF4F0ADFF
:103D70003C4B334A60212CA808F06EF82CA8FCF7C5
:103D8000AFFA0246642392B22CA92E4805F0DCFA61
:103D9000FFF7DFB9FDF7F2FD1D4B2B4A00908021A4
:103DA0002CA808F059F82CA8FCF79AFA02466423CC
:103DB00092B22CA9234805F0C7FAFFF7CAB92CAD77
:103DC000294B1F4A6021284608F046F82846FCF790
:103DD00087FA0246642392B229461A4805F0B4FADB
:103DE000FFF7B7B92CAD214B154A6021284608F0E2
:103DF00033F82846FCF774FA0246642392B2294647
:103E0000104805F0A1FAFFF7A4B900BF78EF000849
:103E100084EF000890EF00080CEE00081CEE00088C
:103E200038EE000848EE000860EE000880EE00085A
:103E300098EE0008B0EE0008CCEE000804F200088E
:103E4000B0EC0008401B0020D0EC0008F007002078
:103E500000ED000884ED0008E4EC000894F100088F
:103E600080F1000818F20008C4F00008A0F1000872
:103E700000242C943378002B00F0AB8008F038F944
:103E80002CAD04602946304607F0E6F9B0EE408AD2
:103E900008F02EF90368002B40F09C802C9B9E427A
:103EA00000F098801B78002B40F0948005A88DEDE1
:103EB000088AFEF753FA002800F0EA8205A8FEF708
:103EC000EBF9AC4B089A1A67FDF72EFBFDF7FCFEE9
:103ED00088B9A94BA94A6021284607F0BDFF2846AA
:103EE000FCF7FEF90246642392B22946A44805F085
:103EF0002BFAFFF72EB9A349A1486423072205F046
:103F000023FAFFF726B9A04B9C4A60212CA807F0A2
:103F1000A3FF2CA8FCF7E4F90246642392B22CA973
:103F2000974805F011FAFFF714B92168974B984AA2
:103F300000912CA8802107F08FFF2CA8FCF7D0F966
:103F40000246642392B22CA98D4805F0FDF9FFF7D3
:103F500000B9E1788F4B904A00912CA8802107F09E
:103F60007BFF2CA8FCF7BCF90246642392B22CA973
:103F7000834805F0E9F9FFF7ECB8FDF7B1FA00283E
:103F80007FF4E6AC854B7D4A60212CA807F064FFE6
:103F90002CA8FCF7A5F90246642392B22CA9784814
:103FA00005F0D2F9FFF7D5B8FDF7EEFC7C4B7A4A65
:103FB000009080212CA807F04FFF2CA8FCF790F967
:103FC0000246642392B22CA96D4805F0BDF9FFF7B3
:103FD000C0B82CAD734B694A6021284607F03CFFFE
:103FE0002846FCF77DF90246642392B229466448CC
:103FF00005F0AAF9FFF7ADB82C903378002B00F04C
:10400000A58008F075F82CAD04602946304607F00D
:1040100023F9B0EE408A08F06BF80368002B40F0FB
:1040200096802C9B9E4200F092801B78002B40F0E3
:104030008E8005A88DED098AFEF790F9002800F022
:10404000B48205A8FEF728F9FDF76EFAFDF73CFEED
:1040500000287FF450AF484B484A6021284607F0BB
:10406000FBFE2846FCF73CF90246642392B229463F
:10407000434805F069F9FFF76CB861684A4B444A58
:1040800000912CA8802107F0E7FE2CA8FCF728F966
:104090000246642392B22CA9394805F055F9FFF77E
:1040A00058B82179414B3C4A00912CA8802107F057
:1040B000D3FE2CA8FCF714F90246642392B22CA973
:1040C0002F4805F041F9FFF744B8FDF7BDFFFDF7B4
:1040D00033F92C492A486423072205F035F9FFF704
:1040E00038B8FDF769F9324B2B4A009080212CA893
:1040F00007F0B2FE2CA8FCF7F3F80246642392B254
:104100002CA91F4805F020F9FFF723B829492046BC
:10411000FCF786F8002840F05C81164B1E4AD3F865
:104120009C10244B003918BF012100912CA880213C
:1041300007F092FE2CA8FCF7D3F80246642392B253
:104140002CA90F4805F000F9FFF703B82CAD1A4B66
:104150000A4A6021284607F07FFE2846FCF7C0F88F
:104160000246642392B22946054805F0EDF8FEF7B1
:10417000F0BF00BFF007002000ED0008B0EC000821
:10418000401B0020F8EC0008F8ED000898ED00084E
:10419000BCEC000848EE0008D0EC000828F200084B
:1041A00090EF0008D8F00008A8ED000860EE0008C5
:1041B000A4EF0008B8EF0008F0F000082C90337866
:1041C000002B00F09E8007F093FF2CAD0460294681
:1041D000304607F041F8B0EE408A07F089FF0368E7
:1041E000002B40F08F802C9B9E4200F08B801B7830
:1041F000002B40F0878005A88DED0A8AFEF7AEF807
:10420000002800F0578205A8FEF746F8FDF78CF964
:10421000FDF75AFD00287FF46EAEAB4BAB4A602130
:10422000284607F019FE2846FCF75AF80246642390
:1042300092B22946A64805F087F8FEF78ABFFDF737
:104240002DFBA44BA44A009080212CA807F004FE6B
:104250002CA8FCF745F80246642392B22CA99C488E
:1042600005F072F8FEF775BF61799C4B9C4A00918E
:104270002CA8802107F0F0FD2CA8FCF731F80246AD
:10428000642392B22CA9924805F05EF8FEF761BF54
:10429000944C0320FDF7A0FA29460720FDF7E6FD20
:1042A000D4ED067AFDEEE77A012517EE900AFDF7C8
:1042B000DFFA0120FDF70AFB84F89950D4ED067A65
:1042C000FDEEE77A082017EE901AFDF7CFFD28469D
:1042D000FDF73AF9FDF7F8FC00287FF439AB7A4B8B
:1042E0007A4A60212CA807F0B7FD2CA8FBF7F8FF4D
:1042F0000246642392B22CA9754805F025F8FEF712
:1043000028BF2CAD784B714A6021284607F0A4FDE8
:104310002846FBF7E5FF0246642392B229466C4823
:1043200005F012F8FEF715BF704B684A6021284669
:1043300007F092FD2846FBF7D3FF0246642392B2B2
:104340002946634805F000F8FEF703BF2C90337848
:10435000002B69D007F0CCFE2CAD04600A22294660
:10436000304607F057F8044607F0C2FE0368002BFA
:104370005BD12C9B9E4258D01B78002B55D105A8B1
:104380000594FDF7EBFF002800F02B8205A8FDF750
:1043900083FFFDF7C9F8FDF797FC00287FF4ABAD6C
:1043A000494B4A4A6021284607F056FD2846FBF74C
:1043B00097FF0246642392B22946454804F0C4FFA1
:1043C000FEF7C7BEFDF770FA4948FEF7CBFDFEF7D2
:1043D000C0BE48492046FBF723FF002840F03F813C
:1043E000404B3F4AD3F8A010424B003918BF01217F
:1043F00000912CA8802107F02FFD2CA8FBF770FF5F
:104400000246642392B22CA9314804F09DFFFEF7C6
:10441000A0BE3948FEF758FDFEF79BBEA17937488C
:10442000FEF786FDFEF795BE2CAD354B274A602181
:10443000284607F011FD2846FBF752FF0246642389
:1044400092B22946224804F07FFFFEF782BE2D4932
:104450002046FBF7E5FE002840F09481002F00F095
:1044600085822CA93846FEF70BFD002800F06B82F0
:104470002C98FDF757F8002800F060822248FEF7DC
:10448000C1FDFEF766BE2148FEF71EFDFEF761BEC8
:104490001F4B0E4A6021284607F0DEFC2846FBF73A
:1044A0001FFF0246642392B22946094804F04CFFDC
:1044B000FEF74FBE2046FDF7B3FAFDF735F8FEF7DD
:1044C00071FDFEF746BE00BF00ED0008B0EC00082D
:1044D000401B0020B8ED0008BCEC000880EE00088E
:1044E000D0EC0008F007002004F10008C4F0000838
:1044F000C8ED0008C8EF0008E4ED000898EE0008D9
:104500001CF10008ACF20008F8EC000858F20008B2
:10451000D8F000082C903378002B58D007F0E8FD35
:104520002CAD04600A222946304606F073FF04468B
:1045300007F0DEFD0368002B4AD12C9B9E4247D03A
:104540001B78002B44D105A80694FDF707FF00282F
:1045500000F0E28105A8FDF79FFEFCF7E5FFFDF7FF
:10456000B3FB00287FF4C7ACBC4BBD4A6021284692
:1045700007F072FC2846FBF7B3FE0246642392B2B2
:104580002946B84804F0E0FEFEF7E3BDE179B648FD
:10459000FEF7CEFCFEF7DDBD2046FDF76FFAFCF717
:1045A000C3FFFEF7FFFCFEF7D4BDB04BAC4A602161
:1045B000284607F051FC2846FBF792FE024664238A
:1045C00092B22946A74804F0BFFEFEF7C2BD2CAD4B
:1045D000A74BA34A6021284607F03EFC2846FBF77C
:1045E0007FFE0246642392B229469E4804F0ACFE48
:1045F000FEF7AFBD2C903378002B76D007F078FD16
:104600002CAD04600A222946304606F003FF04461A
:1046100007F06EFD0368002B68D12C9B9E4265D08D
:104620001B78002B62D12046FDF722F9FCF77CFFB6
:10463000FDF74AFB00287FF45EAC884B884A602176
:10464000284607F009FC2846FBF74AFE0246642389
:1046500092B22946834804F077FEFEF77ABD854979
:104660002046FBF7DDFD002840F01E81824B834A87
:10467000D3F8A4107F4B003918BF012100912CA85A
:10468000802107F0E9FB2CA8FBF72AFE02466423F1
:1046900092B22CA9734804F057FEFEF75ABD784831
:1046A000FEF712FCFEF755BD217A7648FEF740FC76
:1046B000FEF74FBD744B6A4A6021284607F0CCFBD9
:1046C0002846FBF70DFE0246642392B22946654850
:1046D00004F03AFEFEF73DBD2046FDF703FAFCF775
:1046E00023FFFEF75FFCFEF734BD2CAD674B5C4A41
:1046F0006021284607F0B0FB2846FBF7F1FD024693
:10470000642392B22946574804F01EFEFEF721BDED
:104710002C903378002B3AD007F0EAFC2CAD0460E3
:104720002946304606F098FDB0EE408A07F0E0FCDE
:1047300003686BBB2C9B9E422AD01B7843BBB5EE13
:10474000C08AF1EE10FA40F21681B0EE480AFDF789
:1047500095F8FCF7E9FEFDF7B7FA00287FF4CBAB3C
:104760003E4B3F4A6021284607F076FB2846FBF780
:10477000B7FD0246642392B229463A4804F0E4FDAC
:10478000FEF7E7BC4248FEF79FFBFEF7E2BC2CAD0C
:10479000404B334A6021284607F05EFB2846FBF772
:1047A0009FFD0246642392B229462E4804F0CCFDB8
:1047B000FEF7CFBC384B2A4A60212CA807F04CFBEF
:1047C0002CA8FBF78DFD0246642392B22CA9254844
:1047D00004F0BAFDFEF7BDBC3048FEF775FBFEF7EE
:1047E000B8BC234B1E4A6021284607F035FB2846FB
:1047F000FBF776FD0246642392B22946194804F07D
:10480000A3FDFEF7A6BC204600F0FEF9FCF78CFEE7
:10481000FEF7C8FBFEF79DBC2CAD214B104A602172
:10482000284607F019FB2846FBF75AFD0246642389
:1048300092B229460B4804F087FDFEF78ABC19485E
:10484000FEF742FBFEF785BC204600F0E5F9FCF7D9
:104850006BFEFEF7A7FBFEF77CBC00BF00ED000877
:10486000B0EC0008401B0020B0EE0008F0F000089B
:104870001CF10008DCEF0008F0070020D0EC000875
:10488000FCEE0008CCEE000804F1000830F100084E
:10489000ECF2000844F100086CF1000888F200080E
:1048A00058F1000898F20008AC492046FBF7B8FC24
:1048B000002853D0AA492046FBF7B2FC002847D075
:1048C000A8492046FBF7ACFC0146002800F04181D6
:1048D000A5492046FBF7A4FC002800F02E81A3493F
:1048E0002046FBF79DFC002800F0DF80A049204611
:1048F000FBF796FC002840F0AF809E4B9C48197B4C
:10490000003918BF0121FEF713FBFEF722BC9A48BD
:10491000FEF7DAFAFEF71DBC984B994A602128464B
:1049200007F09AFA2846FBF7DBFC0246642392B2B2
:104930002946944804F008FDFEF70BBC9248FEF7A8
:10494000C3FAFEF706BC9148FEF7BEFAFEF701BCBB
:1049500083480121FEF7ECFAFEF7FBBBFDF772FA84
:1049600001467E48FEF7E4FAFEF7F3BB8848FEF7FF
:10497000ABFAFEF7EEBB874B814A6021284607F071
:104980006BFA2846FBF7ACFC0246642392B2294638
:104990007C4804F0D9FCFEF7DCBB7F4B784A6021F1
:1049A000284607F059FA2846FBF79AFC024664238A
:1049B00092B22946734804F0C7FCFEF7CABB2046F2
:1049C00000F032F9FCF7B0FDFEF7ECFAFEF7C1BBE0
:1049D000204600F039F9FCF7A7FDFEF7E3FAFEF7F1
:1049E000B8BB204600F028F9FCF79EFDFEF7DAFA86
:1049F000FEF7AFBB6948FEF767FAFEF7AABB204691
:104A000000F03AF9C4F10E000321C0B2FDF72EFA0E
:104A1000FCF78AFDFEF7C6FAFEF79BBB204600F0C6
:104A200023F9C4F10E000221C0B2FDF71FFAFCF712
:104A30007BFDFEF7B7FAFEF78CBB204600F00CF9C1
:104A4000C4F10E000121C0B2FDF710FAFCF76CFDB5
:104A5000FEF7A8FAFEF77DBB51492046FBF7E0FBC5
:104A600000284DD04F492046FBF7DAFB50B34E49A2
:104A70002046FBF7D5FB00BBFDF76AFB0446FDF7BC
:104A80006BFB0546FDF76CFB0646FDF76DFBCDE9BC
:104A900000560290454A2346C0212CA807F0DCF9B5
:104AA0002CA8FEF7AFFAFEF754BB324B2F4893ED1C
:104AB0001D0AFEF757FAFEF74CBB3D48FEF704FA15
:104AC000FEF747BB05A8FDF70BFA70B39DF8180079
:104AD000059CFDF735FA079B364ACDE90003A02176
:104AE00023462CA807F0B8F92CA8FBF7F9FB0246DF
:104AF000642392B22CA9234804F026FCFEF729BBBC
:104B0000FDF7E2F9264B2C4A009080212CA807F0F3
:104B1000A3F92CA8FBF7E4FB0246642392B22CA96C
:104B2000184804F011FCFEF714BB2449154864230F
:104B30000F2204F009FCFEF70CBB0E4B0A48D3ED24
:104B4000067AFDEEE77A17EE901AFEF7D7F9FEF730
:104B500000BB0448FEF7ECF9FEF7FBBAECEF0008E7
:104B6000FCEF000810F0000824F0000828F000080E
:104B700030F00008F007002078F200081CF100086F
:104B8000B0EC0008401B0020D8F20008C8F2000872
:104B9000B8F2000844F1000858F10008B8F1000824
:104BA0003CF0000848F000087CF0000884F00008A1
:104BB000A0F0000854F0000850EF00086CF0000866
:104BC000034B00224FF48031C3E900121A72704780
:104BD000A80B0020034B00224FF48031C3E90012E0
:104BE0001A727047A80B002000487047A80B0020DD
:104BF000034628B159680068024A03C21B7A137041
:104C0000704700BFA80B00200038024B18BF0120DE
:104C100018707047A80B00200038024B18BF012005
:104C200058707047A80B00200038024B18BF0120B5
:104C300098707047A80B00200038024B18BF012065
:104C4000D8707047A80B00200038024B18BF012015
:104C500018717047A80B00200038024B18BF0120C4
:104C600058717047A80B00200038024B18BF012074
:104C700098717047A80B00200038024B18BF012024
:104C8000D8717047A80B00200038024B18BF0120D4
:104C900018727047A80B002030B40648064D074C28
:104CA0000749084A00232B602360036030BC0B6077
:104CB00013607047BC0B0020C40B0020C00B002009
:104CC000B80B0020B40B00200346C0B1027B02F0F9
:104CD000FF00AAB193ED1D7AF2EE007AB4EEE77A06
:104CE000F1EE10FA0BD493ED1D7AF3EE0E7AB4EEDA
:104CF000E77AF1EE10FA94BF0120002070470020FF
:104D0000704700BF2DE9F04104462DED028B0F46A0
:104D10001646FDF7BDFA002C00F0A080002F00F031
:104D20009D80D4ED177AD4ED186A94ED197AF0EEDF
:104D3000E66AF0EEE77AF4EEE67AF1EE10FAB8BF42
:104D4000F0EE667AB0EEC77AF4EEC77AF1EE10FABA
:104D5000D0ED036AB8BFF0EE477AF4EEE76AF1EE01
:104D600010FA054651D5227BAC4902F0FF080B68CA
:104D7000002A79D1022B00F2DA800133032B0B6079
:104D800000F0D580A64BC3F80080A64B00221A6025
:104D9000002E40F097800126D4ED067A2A68FDEEB9
:104DA000E77AA2F57A7217EE903A9A4200F396806B
:104DB0006A6802F57A729A42C0F29080D4F8A03004
:104DC000D5ED047A94ED0C7AF7EE086A67EEA67AD0
:104DD000B0EEC77AB4EEE77AF1EE10FA00F39F80F6
:104DE000914B00221A60FCF7FDFC06287FD08F4B08
:104DF00000221A60002E6AD1FDF738F9003818BF7A
:104E00000120BDEC028BBDE8F081237B03F0FF02A3
:104E1000002B5ED094ED1D7AF2EE007AB4EEE77AC4
:104E2000F1EE10FA94ED1D7A40F18880F3EE0E7ADF
:104E30007B4A7A491368B4EEE77A0020F1EE10FA63
:104E4000086040F3BD80632B04D80133642B1360EA
:104E500040F09B800720FDF789F896E0BDEC028BBF
:104E6000BDE8F041FDF702B994ED1D7AF2EE007A4B
:104E7000B4EEE77AF1EE10FA76D5022B94ED1D8AA6
:104E800000F2A9800133032B0B6000F0A480644A78
:104E90001368632B40F2A9800720FDF767F8F3EE53
:104EA0000E7AB4EEE78AF1EE10FA7FF76EAF5D4A44
:104EB0001368632B6DD80133642B136069D0002E07
:104EC0003FF469AF5849594A00230B601360012031
:104ED00097E7524B1A60524B1A6056E7D4F8A0304D
:104EE000002B3FF46DAF0320FDF740F868E7D7EDE6
:104EF000067AD4ED076A9FED4E7A77EEE67AF0EE09
:104F0000E77AF4EEC77AF1EE10FA7FF770AF474A0E
:104F10001368632B6FD90320FDF728F86AE7424A2C
:104F20001368132B3CD90420FDF720F85BE7012020
:104F3000FDF71CF83A4BC3F8008026E7F3EE0E7A33
:104F4000B4EEE77AF1EE10FA49DC34483449354AD8
:104F5000002303600B601360002E3FF41DAF324945
:104F6000324A0B60136047E794ED1D7AF3EE0E7A38
:104F7000B4EEE77AF1EE10FA18DD022B45D90120E4
:104F8000FCF7F4FF264B00221A60264A1368632BB5
:104F900091D90820FCF7EAFF002E3FF4FCAE91E720
:104FA0000133142B13607FF41EAFBCE7022B28D80B
:104FB0000133032B0B6024D0194B00221A60E4E666
:104FC000632B04D80133642B13607FF4DEAE07201B
:104FD000FCF7CCFFD9E60120FCF7C8FF57E70F49E3
:104FE0000F4A00230B601360CFE70133642B13607B
:104FF0007FF455AF50E70133642B13607FF4FAAEB2
:1050000089E70120FCF7B2FFD6E70133032B0B60E1
:10501000B5D0034B00221A60B7E700BFC40B0020D5
:10502000B80B0020B40B0020C00B0020BC0B0020EC
:105030006F12033B0B4B1A6E42F0010282B01A66EC
:105040001A6E02F001020092009A9A6D42F08052AC
:105050009A659B6D03F080530193019B02B002F0AF
:1050600085BC00BF00100240FEE700BFFEE700BFA6
:10507000FEE700BFFEE700BFFEE700BF704700BFCE
:10508000704700BF704700BF00F0BCBC08B50448C3
:1050900000F0C6FDBDE80840024800F0C1BD00BFF9
:1050A0008402002018020020014803F0FDBD00BF6B
:1050B000F01A0020014803F0F7BD00BFF01A0020ED
:1050C000014803F0F1BD00BFF01A0020014803F0D1
:1050D000EBBD00BFF01A0020014803F0E5BD00BFA2
:1050E000A41A0020014803F0DFBD00BF581A0020B9
:1050F000014804F089BA00BF401B002008B50268CF
:10510000044B9A4200D008BDFDF776FFBDE8084089
:10511000FDF7B8BF004400400120704708B506F015
:10512000E7FF162303604FF0FF3008BD08B506F017
:10513000DFFF16230360FEE770B5161E07DD0C4681
:105140008D19AFF3008004F8010BA542F9D1304668
:1051500070BD00BF70B5161E07DD0C468D1914F822
:10516000010BAFF30080A542F9D1304670BD00BFFE
:105170004FF0FF30704700BF4FF400534B600020EA
:10518000704700BF01207047002070470C490D4A4E
:105190000B6810B50C4C121B2BB11844904207D869
:1051A0000860184610BD094B0B6018449042F7D9AF
:1051B00006F09EFF0C2303604FF0FF33184610BD2E
:1051C000C80B00200080002000040000301D0020DB
:1051D000034AD2F8883043F47003C2F8883070472D
:1051E00000ED00E003480449044A002303800B80DB
:1051F00013807047500C00204E0C00204C0C0020F7
:1052000000283DD030B584460468BCE80F0089B062
:105210000DF1040EAEE80F009CE807008EE80700D1
:1052200054B31849184B0A88019492B2C2EBC202D7
:1052300003EB820E0B88154D013303F07F030DF154
:10524000040C0B80BCE80F00AEE80F002C889CE833
:105250000700A4B27F2C8EE8070007D90C4A1388F8
:10526000013303F07F03138009B030BD2B88013375
:105270009BB22B8009B030BD00F0D0FB0446D0E7D4
:10528000704700BF500C0020540C00204C0C002034
:105290004E0C00202DE9F04F254D264E264FDFF80D
:1052A000A48089B0042472B62B889BB2002B3AD01C
:1052B00033883188013101F07F01318029889BB228
:1052C000C3EBC30307EB8302013989B2D2E901CEF4
:1052D000D2E9039AB2F914B0107E298057F823302E
:1052E000B2F91610527E62B6CDE90602CDE901E9A7
:1052F000CDF800C042460591CDE903AB80210F48AF
:1053000006F0AAFD0D48FAF7EBFF02460B490C48E0
:10531000322392B2013C04F017F814F0FF04C2D11A
:1053200009B0BDE8F08F62B609B0BDE8F08F00BFEC
:105330004C0C00204E0C0020540C0020CC0B002004
:10534000401B0020F8F2000800B52B4891B0002364
:10535000CDE90433CDE90633CDE90133CDE9083396
:10536000CDE90A33CDE90C3303930E9383600361D7
:1053700083614FF080421123C0E9002340F2E733FC
:10538000C36003F0B3F810BB4FF480531A48049382
:1053900004A903F073FB40BB174803F027F908BBCF
:1053A00000231548019301A9039303F01FFFB0B92F
:1053B0009FED0F7B002210480A9208A98DED087B13
:1053C0000C9203F097FD28B911B05DF804FBFDF7CE
:1053D00017FBD9E7FDF714FB11B05DF804FBFDF7EF
:1053E0000FFBE5E7FDF70CFBDAE7FDF709FBD3E779
:1053F00010000000F3010000A41A002010B58CB0CA
:105400002022002104A806F0A0FD1448144C0460DA
:105410004FF6FF71C160032100230122039103A90C
:10542000C0E90133CDE90133009303618361059243
:10543000099203F07FFA48B90023084800936946AF
:10544000029303F0D3FE20B90CB010BDFDF7D8FADB
:10545000F2E7FDF7D5FA0CB010BD00BF581A0020D6
:105460000008004000B5274A0368934283B005D086
:10547000B3F1804F2FD003B05DF804FB224B186EC0
:1054800040F4006018661B6E03F4006300220421E0
:1054900000931820009B01F0DFFC182001F018FD9C
:1054A00000220421192001F0D7FC192001F010FD81
:1054B000002204211A2001F0CFFC1A2001F008FD7F
:1054C000002204211B2001F0C7FC1B2003B05DF863
:1054D00004EB01F0FDBC03F504330022986D40F0AD
:1054E000010098659B6D03F00103019311461C2098
:1054F000019B01F0B1FC1C2003B05DF804EB01F04E
:10550000E7BC00BF002C014000100240000000007A
:1055100010B51D4B026888B000249A42CDE90244C0
:10552000CDE90444069401D008B010BD03F5023360
:105530009FED137B9A6D154842F004029A659A6DAF
:1055400002F004020092009ADA6C42F00202DA647D
:10555000DB6C03F00203019302A902238DED027BB1
:105560000693019A01F02EFF224621461E2001F0EB
:1055700073FC1E2001F0ACFC08B010BDAFF300803E
:10558000C0000000020000000008004000040048C5
:1055900070B5284B02688AB000249A42CDE90444D1
:1055A000CDE90644089401D00AB070BD03F5644308
:1055B0000426DA6C204842F00402DA64DA6C02F065
:1055C00004020192019ADA6C42F00202DA64DA6CA7
:1055D00002F002020292029ADA6C42F00102DA64EC
:1055E000DB6C089603F0010303934FF4005204A907
:1055F0000223CDE904230225039B01F0E3FE4FF4CF
:10560000004304A90D480896CDE90435CDE90644C8
:1056100001F0D8FE4FF4B852062304A94FF0904091
:10562000CDE90425CDE90644089301F0CBFE0AB08C
:1056300070BD00BF002C0140000800480004004875
:1056400010B500249CB0214634220FA8CDE90544B2
:10565000CDE90144CDE90944CDE90B44CDE90D4440
:10566000049400940894079406F06FFC4748484B54
:105670000360202141F29A03C0E902134FF48073C2
:105680000361802344604461836102F02FFF00289E
:105690005DD14FF480533D48049304A903F0EEF923
:1056A000002870D1394803F0C7F8002868D10023DA
:1056B0007022CDE90023354800236946029303F0A8
:1056C00095FD002859D1002000210022CDE90C01D0
:1056D00060232E48089308A9CDE909220B920E9267
:1056E00003F09EFC002845D12848042208A903F0B5
:1056F00097FC00283BD12548082208A903F090FC1C
:1057000090BB41F29903214809930C2208A903F0A8
:1057100087FC30BB00234FF40050CDE913305524F3
:105720004FF0007219481B930FA9CDE90F33CDE953
:105730001134CDE91533CDE91732CDE9193303F032
:10574000A7FD38B91148FFF723FF1CB010BDFDF7C6
:1057500057F99EE7FDF754F90C48FFF719FF1CB005
:1057600010BDFDF74DF9D5E7FDF74AF9C9E7FDF79B
:1057700047F9C0E7FDF744F9B6E7FDF741F9A2E7BD
:10578000FDF73EF993E7FDF73BF98BE7F01A0020B0
:10579000002C014010B51F481F4C00234FF4E1219D
:1057A0000C22C0E90041C0E90233C0E90432C0E97B
:1057B0000633C0E90833836204F070FE70B91548FF
:1057C000002104F0C3FE88B91248002104F000FF54
:1057D000A0B9104804F09CFEB8B910BDFDF710F94F
:1057E0000C48002104F0B2FE0028EDD0FDF708F9C6
:1057F0000848002104F0ECFE0028EAD0FDF700F98B
:10580000044804F085FE0028E7D0BDE81040FDF70D
:10581000F7B800BF401B002000440040000000001B
:1058200010B5044698B00021442207A8CDE9021122
:10583000CDE90411069106F088FB214B22689A42BB
:1058400001D018B010BD022307A8079302F03CFC5A
:1058500050BB1C4B1C489A6D42F400329A659A6DFD
:1058600002F400320092009ADA6C9FED117B42F054
:105870000202DA64DB6C8DED027B9FED0F7B03F09F
:105880000203019302A907238DED047B0693019A7D
:1058900001F098FD00220821262001F0DDFA2620E3
:1058A00001F016FB18B010BDFDF7AAF8D1E700BF54
:1058B00018000000020000000000000000000000CE
:1058C00000440040001002400004004808B500F009
:1058D000A5F8044B00224FF47A711A72C3E9000153
:1058E00008BD00BFD41B002008B500F097F8064B98
:1058F0001A7A186002B908BD00221A72BDE8084081
:105900000920FCF755BB00BFD41B002038B500F0C0
:1059100085F80B4BD3E90012441AA24201D21D7A3A
:1059200005B138BD012209201A72FCF71FFB214680
:105930000C20FCF79BFA2846BDE83840FCF7D2B8AB
:10594000D41B00200D488546FFF742FC0C480D494A
:105950000D4A002302E0D458C4500433C4188C42CA
:10596000F9D30A4A0A4C002301E013600432A24230
:10597000FBD306F0C3FBFCF79FFDFEE70080002091
:1059800000000020F401002088F80008F801002041
:10599000301D0020FEE7000038B50F4B1B680BB927
:1059A000012038BD0D494FF47A720546B2FBF3F37E
:1059B0000868B0FBF3F001F099FA04460028EFD133
:1059C0000F2DEDD8024629464FF0FF3001F044FA82
:1059D000034B20461D6038BD04000020000000205D
:1059E0000800002010B5032001F024FA0F20FFF773
:1059F000D3FF10B10124204610BD0446FFF71AFB67
:105A0000204610BD034A0449136809680B4413601B
:105A1000704700BFE01B002004000020014B186805
:105A2000704700BFE01B002030B583B00023019316
:105A3000002800F0AA80C56D0446002D00F0AA8061
:105A4000226893689D0005D5936823F0204323F0D6
:105A50003F0393609368D80019D4684B68481B686B
:105A600091689B09A0FB030321F010419B0921F0E1
:105A70003F0101335B0041F0805191600193019B34
:105A80002BB1019B013B0193019B002BF9D1936842
:105A9000D9007DD4E36D43F01003E365236E01204C
:105AA00003432366936813F0040FE36D69D1DB06AB
:105AB00067D4E36D23F4817343F00203E3659368D5
:105AC000DD0709D44FF0A0439B6813F0010F4D4B45
:105AD0009B6801D1D9077AD5E568E36B94F8241067
