:020000040800F2
:1000000000800020F55F000885560008895600082A
:100010008D56000891560008955600080000000013
:1000200000000000000000000000000099560008D9
:100030009D56000800000000A1560008A5560008C3
:1000400045600008456000084560000845600008FC
:1000500045600008456000084560000845600008EC
:1000600045600008456000084560000845600008DC
:1000700045600008456000084560000845600008CC
:100080004560000800000000A9560008456000080F
:1000900045600008456000084560000845600008AC
:1000A000C5560008D1560008DD560008E95600087C
:1000B000F556000845600008015700084560000833
:1000C000456000084560000845600008456000087C
:1000D00045600008456000080D57000845600008AD
:1000E000456000084560000845600008456000085C
:1000F00045600008456000084560000800000000F9
:100100000000000045600008000000004560000895
:1001100045600008000000004560000845600008D8
:10012000456000084560000845600008456000081B
:100130004560000800000000000000004560000865
:100140004560000845600008000000000000000055
:10015000000000000000000000000000000000009F
:1001600000000000000000000000000045600008E2
:1001700045600008000000000000000000000000D2
:1001800000000000456000080000000000000000C2
:10019000000000000000000000000000000000005F
:1001A00000000000000000004560000845600008F5
:1001B0004560000845600008456000080000000038
:1001C0000000000045600008000000000000000082
:0801D0004560000845600008CD
:1001E00010B5054C237833B9044B13B10448AFF371
:1001F00000800123237010BD0002002000000000D9
:1002000078F2000808B5034B1BB103490348AFF36C
:10021000008008BD000000000402002078F2000801
:1002200010F8012B11F8013B012A28BF9A42F7D0A0
:10023000D01A70470000000000000000000000001D
:1002400001F0FF01102A2BDB10F0070F08D010F887
:10025000013B013A8B422DD010F0070F42B3F6D18B
:10026000F0B441EA012141EA014122F007047FF0A4
:1002700000070023F0E80256083C85EA010586EAFB
:10028000010685FA47F5A3FA87F586FA47F6A5FA37
:1002900087F68EB9EED1F0BC01F0FF0102F0070243
:1002A00032B110F8013B013A83EA010313B1F8D1EE
:1002B0000020704701387047002D06BF35460338CF
:1002C000073815F0010F07D1013015F4807F02BF08
:1002D000013015F4C03F0130F0BC0138704700BF59
:1002E000034613F8012B002AFBD1181A0138704776
:1002F00081F0004102E000BF83F0004330B54FEAD7
:1003000041044FEA430594EA050F08BF90EA020F43
:100310001FBF54EA000C55EA020C7FEA645C7FEAD6
:10032000655C00F0E2804FEA5454D4EB5555B8BFF9
:100330006D420CDD2C4480EA020281EA030382EA6A
:10034000000083EA010180EA020281EA0303362DFC
:1003500088BF30BD11F0004F4FEA01314FF4801CCF
:100360004CEA113102D0404261EB410113F0004FE1
:100370004FEA03334CEA133302D0524263EB430398
:1003800094EA050F00F0A780A4F10104D5F1200E36
:100390000DDB02FA0EFC22FA05F2801841F1000191
:1003A00003FA0EF2801843FA05F359410EE0A5F165
:1003B00020050EF1200E012A03FA0EFC28BF4CF096
:1003C000020C43FA05F3C01851EBE37101F000454C
:1003D00007D54FF0000EDCF1000C7EEB00006EEB59
:1003E0000101B1F5801F1BD3B1F5001F0CD34908E3
:1003F0005FEA30004FEA3C0C04F101044FEA44523A
:1004000012F5800F80F09A80BCF1004F08BF5FEAC0
:10041000500C50F1000041EB045141EA050130BDA0
:100420005FEA4C0C404141EB0101013C28BFB1F5B2
:10043000801FE9D291F0000F04BF01460020B1FAFD
:1004400081F308BF2033A3F10B03B3F120020CDAD0
:100450000C3208DD02F1140CC2F10C0201FA0CF0AE
:1004600021FA02F10CE002F11402D8BFC2F1200C13
:1004700001FA02F120FA0CFCDCBF41EA0C019040C9
:10048000E41AA2BF01EB0451294330BD6FEA040412
:100490001F3C1CDA0C340EDC04F11404C4F12002FD
:1004A00020FA04F001FA02F340EA030021FA04F30F
:1004B00045EA030130BDC4F10C04C4F1200220FA66
:1004C00002F001FA04F340EA0300294630BD21FAA4
:1004D00004F0294630BD94F0000F83F4801306BF6A
:1004E00081F480110134013D4EE77FEA645C18BF5E
:1004F0007FEA655C29D094EA050F08BF90EA020FF5
:1005000005D054EA000C04BF1946104630BD91EAEC
:10051000030F1EBF0021002030BD5FEA545C05D1EF
:100520004000494128BF41F0004130BD14F580042E
:100530003CBF01F5801130BD01F0004545F0FE41A2
:1005400041F470014FF0000030BD7FEA645C1ABFD7
:10055000194610467FEA655C1CBF0B46024650EA0E
:10056000013406BF52EA033591EA030F41F400213A
:1005700030BD00BF90F0000F04BF0021704730B5C0
:100580004FF4806404F132044FF000054FF0000195
:1005900050E700BF90F0000F04BF0021704730B556
:1005A0004FF4806404F1320410F0004548BF40422B
:1005B0004FF000013EE700BF42004FEAE2014FEA80
:1005C00031014FEA02701FBF12F07F4393F07F4F5B
:1005D00081F06051704732F07F4208BF704793F05E
:1005E0007F4F04BF41F40021704730B54FF4607471
:1005F00001F0004521F000411CE700BF50EA010274
:1006000008BF704730B54FF000050AE050EA01021C
:1006100008BF704730B511F0004502D5404261EB8C
:1006200041014FF4806404F132045FEA915C3FF4CD
:10063000D8AE4FF003025FEADC0C18BF03325FEA6A
:10064000DC0C18BF033202EBDC02C2F1200300FA1B
:1006500003FC20FA02F001FA03FE40EA0E0021FA40
:1006600002F11444BDE600BF70B54FF0FF0C4CF42E
:10067000E06C1CEA11541DBF1CEA135594EA0C0FE0
:1006800095EA0C0F00F0DEF82C4481EA030621EA1B
:100690004C5123EA4C5350EA013518BF52EA033556
:1006A00041F4801143F4801338D0A0FB02CE4FF008
:1006B0000005E1FB02E506F00042E0FB03E54FF038
:1006C0000006E1FB03569CF0000F18BF4EF0010E30
:1006D000A4F1FF04B6F5007F64F5407404D25FEA2C
:1006E0004E0E6D4146EB060642EAC62141EA5551DF
:1006F0004FEAC52040EA5E504FEACE2EB4F1FD0C21
:1007000088BFBCF5E06F1ED8BEF1004F08BF5FEA9E
:10071000500E50F1000041EB045170BD06F0004650
:1007200046EA010140EA020081EA0301B4EB5C04FD
:10073000C2BFD4EB0C0541EA045170BD41F48011F5
:100740004FF0000E013C00F3AB8014F1360FDEBF1A
:10075000002001F0004170BDC4F10004203C35DAF6
:100760000C341BDC04F11404C4F1200500FA05F379
:1007700020FA04F001FA05F240EA020001F000421A
:1007800021F0004110EBD37021FA04F642EB060190
:100790005EEA430E08BF20EAD37070BDC4F10C04BA
:1007A000C4F1200500FA04F320FA05F001FA04F27E
:1007B00040EA020001F0004110EBD37041F100016A
:1007C0005EEA430E08BF20EAD37070BDC4F1200575
:1007D00000FA05F24EEA020E20FA04F301FA05F2DD
:1007E00043EA020321FA04F001F0004121FA04F285
:1007F00020EA020000EBD3705EEA430E08BF20EA55
:10080000D37070BD94F0000F0FD101F0004640008E
:1008100041EB010111F4801F08BF013CF7D041EA10
:10082000060195F0000F18BF704703F00046520014
:1008300043EB030313F4801F08BF013DF7D043EAE5
:100840000603704794EA0C0F0CEA135518BF95EA9B
:100850000C0F0CD050EA410618BF52EA4306D1D122
:1008600081EA030101F000414FF0000070BD50EA41
:10087000410606BF1046194652EA430619D094EACB
:100880000C0F02D150EA013613D195EA0C0F05D1B5
:1008900052EA03361CBF104619460AD181EA030109
:1008A00001F0004141F0FE4141F470014FF00000C1
:1008B00070BD41F0FE4141F4780170BD70B54FF05C
:1008C000FF0C4CF4E06C1CEA11541DBF1CEA1355DC
:1008D00094EA0C0F95EA0C0F00F0A7F8A4EB0504BE
:1008E00081EA030E52EA03354FEA013100F08880B5
:1008F0004FEA03334FF0805545EA131343EA12637E
:100900004FEA022245EA111545EA10654FEA002632
:100910000EF000419D4208BF964244F1FD0404F5EB
:10092000407402D25B084FEA3202B61A65EB030547
:100930005B084FEA32024FF480104FF4002CB6EB04
:10094000020E75EB030E22BFB61A754640EA0C0084
:100950005B084FEA3202B6EB020E75EB030E22BFC4
:10096000B61A754640EA5C005B084FEA3202B6EB05
:10097000020E75EB030E22BFB61A754640EA9C00C4
:100980005B084FEA3202B6EB020E75EB030E22BF94
:10099000B61A754640EADC0055EA060E18D04FEA52
:1009A000051545EA16754FEA06164FEAC30343EAF2
:1009B00052734FEAC2025FEA1C1CC0D111F4801FBF
:1009C0000BD141EA00014FF000004FF0004CB6E7B8
:1009D00011F4801F04BF01430020B4F1FD0C88BF57
:1009E000BCF5E06F3FF6AFAEB5EB030C04BFB6EB62
:1009F000020C5FEA500C50F1000041EB045170BD55
:100A00000EF0004E4EEA113114EB5C04C2BFD4EB81
:100A10000C0541EA045170BD41F480114FF0000E05
:100A2000013C90E645EA060E8DE60CEA135594EA81
:100A30000C0F08BF95EA0C0F3FF43BAF94EA0C0F84
:100A40000AD150EA01347FF434AF95EA0C0F7FF4F9
:100A500025AF104619462CE795EA0C0F06D152EA4D
:100A600003353FF4FDAE1046194622E750EA410631
:100A700018BF52EA43067FF4C5AE50EA41047FF442
:100A80000DAF52EA43057FF4EBAE12E74FF0FF3CA7
:100A900006E000BF4FF0010C02E000BF4FF0010C78
:100AA0004DF804CD4FEA410C7FEA6C5C4FEA430CF1
:100AB00018BF7FEA6C5C1BD001B050EA410C0CBF40
:100AC00052EA430C91EA030F02BF90EA020F0020A2
:100AD000704710F1000F91EA030F58BF994208BF09
:100AE00090422CBFD8176FEAE37040F001007047C6
:100AF0004FEA410C7FEA6C5C02D150EA013C07D11D
:100B00004FEA430C7FEA6C5CD6D152EA033CD3D067
:100B10005DF8040B704700BF8446104662468C4661
:100B20001946634600E000BF01B5FFF7B7FF002894
:100B300048BF10F1000F01BD4DF808EDFFF7F4FFBD
:100B40000CBF012000205DF808FB00BF4DF808ED48
:100B5000FFF7EAFF34BF012000205DF808FB00BF6B
:100B60004DF808EDFFF7E0FF94BF012000205DF88D
:100B700008FB00BF4DF808EDFFF7CEFF94BF012042
:100B800000205DF808FB00BF4DF808EDFFF7C4FF3B
:100B900034BF012000205DF808FB00BF4FEA410C84
:100BA0007FEA6C5C02D150EA013C0AD14FEA430C67
:100BB0007FEA6C5C02D152EA033C02D14FF00000A4
:100BC00070474FF0010070474FEA410212F50012E2
:100BD00015D211D56FF47873B3EB625212D94FEA84
:100BE000C12343F0004343EA505311F0004F23FA6E
:100BF00002F018BF404270474FF00000704750EAC3
:100C0000013005D111F0004008BF6FF0004070477F
:100C10004FF00000704700BF4A0011D212F50012D9
:100C200011D20DD56FF47873B3EB62520ED44FEA44
:100C3000C12343F0004343EA505323FA02F07047C4
:100C40004FF00000704750EA013002D14FF0FF3002
:100C500070474FF0000070474FEA4102B2F1E043A5
:100C600024BFB3F5001CDCF1FE5C0DD901F0004C93
:100C70004FEAC0024CEA5070B2F1004F40EB8300E3
:100C800008BF20F00100704711F0804F21D113F10F
:100C90003872BCBF01F00040704741F480114FEA48
:100CA0005252C2F11802C2F1200C10FA0CF320FAD1
:100CB00002F018BF40F001004FEAC1234FEAD323EE
:100CC00003FA0CFC40EA0C0023FA02F34FEA430358
:100CD000CCE77FEA625307D150EA01331EBF4FF0E1
:100CE000FE4040F44000704701F0004040F0FE40FC
:100CF00040F40000704700BF53B94AB9002908BF4B
:100D000000281CBF4FF0FF314FF0FF3000F0BEB99C
:100D1000ADF1080C6DE904CE00F03CF8DDF804E01C
:100D2000DDE9022304B0704738B5002200230446F1
:100D30000D46FFF70BFF28B920462946BDE838408D
:100D400000F00AB8204605F1004100F005F84042E5
:100D500061EB410138BD00BFD0B50C4B0022064607
:100D60000F46FFF781FCFFF757FF0446FFF702FC31
:100D7000074B0022FFF778FC02460B463046394607
:100D8000FFF7BAFAFFF748FF2146D0BD0000F03D5B
:100D90000000F0412DE9F047089D8E460446884644
:100DA000002B4AD18A42174662D9B2FA82F64EB176
:100DB000C6F1200301FA06F820FA03F3B74043EA2C
:100DC0000808B4404FEA174E1FFA87FCB8FBFEF143
:100DD000230C0EFB118843EA084301FB0CF29A42F4
:100DE00009D9FB1801F1FF3080F0EA809A4240F205
:100DF000E78002393B449A1AA3B2B2FBFEF00EFB25
:100E0000102243EA024300FB0CFC9C4509D9FB1865
:100E100000F1FF3280F0D6809C4540F2D3803B4405
:100E2000023840EA0140A3EB0C0300211DB1F3405E
:100E30000022C5E90032BDE8F0878B4205D90DB12B
:100E4000C5E9000100210846F5E7B3FA83F100295E
:100E500046D1734502D3824200F20581841A6EEBBB
:100E6000030201209046002DE5D0C5E90048E2E7E5
:100E7000002A00F09080B2FA82F6002E40F0A480A2
:100E80008A1A030C4FEA174E80B2BCB20121B2FBA2
:100E9000FEFC0EFB1C2243EA024304FB0CF29A42C6
:100EA00007D9FB180CF1FF3802D29A4200F2E08019
:100EB000C4469B1AB3FBFEF20EFB123340EA034317
:100EC00002FB04F49C4207D9FB1802F1FF3002D266
:100ED0009C4200F2CA8002461B1B42EA0C40A5E776
:100EE000C1F120068B4022FA06F71F430EFA01F4E7
:100EF00020FA06F32EFA06FE4FEA1749234300FABA
:100F000001F81FFA87FCBEFBF9F01C0C09FB10EE80
:100F100044EA0E4400FB0CFEA64502FA01F209D990
:100F20003C1900F1FF3A80F09C80A64540F2998080
:100F300002383C44A4EB0E041FFA83FEB4FBF9F321
:100F400009FB13444EEA044403FB0CFCA44508D9F6
:100F50003C1903F1FF3E80F08280A4457FD9023B1B
:100F60003C4443EA0040A4EB0C04A0FB02EC6445C3
:100F70007346E14662D35FD05DB1B8EB030264EB28
:100F8000090404FA06F622FA01F31E43CC40C5E92F
:100F9000006400214FE7B1FBF2FC010C41EA0E4175
:100FA00080B240EA01423B4638463C46B846BE461F
:100FB0002026B1FBF7F1A2EB080241EA0C4166E7FB
:100FC000014618E710462CE7C6F120022EFA02F37C
:100FD000B740B14020FA02F24FEA174E0A43B3FB82
:100FE000FEF8BCB20EFB1833110C41EA034108FBBA
:100FF00004F9B04089454FEA104380B23ED97918D0
:1010000008F1FF3C01D289451FD8A1EB0901B1FBD2
:10101000FEF909FB04F80EFB191192B242EA0142F3
:10102000424529D2BA1809F1FF31C4D24245C2D291
:10103000A9F102013A44BEE7F0459DD2BEEB02039E
:101040006CEB070C0138E14696E7A7EB0909494428
:10105000A8F1020CB1FBFEF909FB04F8DBE77346CB
:101060007FE7504666E70846FDE63B44023A33E731
:10107000ACF1020C3B441CE749469CE7A1EB09019B
:10108000C446B1FBFEF909FB04F8C4E7704700BF92
:1010900010B500249AB03C2221460BA8CDE90044AB
:1010A00002940BF026FB2022214603A80BF021FB23
:1010B00030484FF0A0430360042383610123C0E95B
:1010C0000144C0E90344C0E90B444461848380F8CF
:1010D000244080F83840C46380F84040036204F044
:1010E000FBFF002839D100230122224800926946E3
:1010F000CDE9013306F092F9002838D11E480922C3
:101100000023CDE90B027F200422CDE90D300F92A0
:1011100001208422139015921648109380220BA967
:10112000ADF850308DF8523016928DF85C3005F0E5
:1011300077FEC8B9114A06237F200724CDE903238F
:10114000CDE90540042200230A4803A9CDE907237D
:1011500005F0E0F920B91AB010BD01F0DFFCC2E7DC
:1011600001F0DCFC1AB010BD01F0D8FCE2E701F0A0
:10117000D5FCC3E78C0200200800900C020030046C
:1011800010B590B03C22002101A80BF0B2FA1C4827
:101190001C490422002382610122C0E90013C0E936
:1011A0000233C0E904338383026280F8243080F87C
:1011B0003830C36380F8403004F08EFFC8B912485D
:1011C0000922CDE90102042000237F240122059099
:1011D00001A90B480693CDE903340992ADF82830F4
:1011E0008DF82A308DF8343005F01AFE20B910B091
:1011F00010BD01F093FCE2E701F090FC10B010BDCF
:1012000020020020000100500800900C00000000A7
:1012100010B504469AB00021442209A8CDE9041172
:10122000CDE9061108910BF064FA2368B3F1A04FE1
:1012300004D03D4A93423BD01AB010BD4FF4004257
:101240004FF0805309A80992189307F095FA0028E7
:101250005BD1364A13680133012B136009D1344B3B
:10126000DA6C42F40052DA64DB6C03F4005300934E
:10127000009B2F4BDA6C42F00102DA64DB6C9FEDCD
:10128000267B03F0010301938DED047B019B04A9F0
:1012900000244FF09040069406F0ECFB2246042117
:1012A000122006F031F9122006F06AF91AB010BDCA
:1012B0004FF400424FF0805309A80992189307F0A9
:1012C0005BFA28BB194A13680133012B136009D15B
:1012D000174BDA6C42F40052DA64DB6C03F400530F
:1012E0000293029B124BDA6C42F00102DA64DB6C6F
:1012F0009FED0B7B03F0010303938DED047B039BB8
:1013000004A900244FF09040C5E701F007FCA0E7D6
:1013100001F004FCD6E700BF050000000300000058
:101320004000000003000000000100501C020020EB
:1013300000100240704700BF10B500F0B3FA831FE1
:10134000DBB2012B19D9032817D003F021FF044683
:1013500000F016FB90B9237A83B900F00DFF00BBB3
:10136000144B93F898300BB3012400F07DFB68B167
:101370000120BDE8104000F08FBA10BD00F0FCFE67
:10138000044670B900F070FB0028F1D1094B93F8C6
:101390009830002BECD000F06DFB48B934B9042034
:1013A000E7E7BDE81040082000F076BA0220E0E749
:1013B0000520DEE7F807002010B503F0E9FE04463B
:1013C00000F0DAFE08B1002010BD00F04DFB00284F
:1013D000F9D10D4803F04CFF0028F4D000F0D0FA0A
:1013E00010B9237A002BEED000F062FA0028EAD080
:1013F000054B93F89830002BE5D000F041FB003806
:1014000018BF012010BD00BFF807002070B500F024
:10141000B3FE08B1002070BD184E012486F8984034
:1014200003F0B6FE054600F0ABFA48B92B7A3BB99B
:1014300000F0A2FEF0B996F898302BB902200AE02D
:1014400000F09AFE0446A8B900F00EFB10B996F819
:10145000983043B9012000F01FFA0021032000F06A
:1014600081FD012070BD00F005FB28B9002CE5D1FD
:101470000420F0E70820EEE70520ECE7F80700205D
:1014800010B5084B084A996900240120147083F8AC
:10149000984000F001FA2146042000F063FD01208D
:1014A00010BD00BFF8070020F802002038B50F4A31
:1014B0000F4B012599695562D8695060D8699061D0
:1014C000002100240B48D16183F89840DA69047048
:1014D0000720C3F89020C3F8941000F0DDF92146EE
:1014E000052000F03FFD284638BD00BF540700200E
:1014F000F8070020F802002038B50F4A0F4B0124EE
:1015000099695462D8695060D869906100210025BA
:101510000B48D16183F89850DA6905702046C3F80A
:101520009020C3F8941000F0B7F92946062000F087
:1015300019FD204638BD00BF54070020F8070020E1
:10154000F8020020002070470020704700207047FC
:10155000014B1878704700BFF802002008B500F072
:10156000A1F9831FDBB2022B06D9032804D0BDE802
:101570000840022000F090B908BD00BF10B310B5BC
:1015800003F006FE044600F0FBF978B100F0F4FD2C
:10159000044600BB00F068FA18B9154B93F8983070
:1015A0009BB90120BDE8104000F076B9237A002BEA
:1015B000ECD100F0E1FD70B90D4B93F898307BB1A0
:1015C0000124E7E7022000F067B900F053FA60B9A0
:1015D00034B90420E6E7BDE81040082000F05CB90B
:1015E000BDE81040022000F057B90520DAE700BF3F
:1015F000F807002038B52DED028B00F0BDFD58BB7B
:10160000FFF7DAFE88B92B4A2B4B01215162D869CA
:101610005060D86990610021D161DA69C3F89020E7
:10162000C3F89410BDEC028B38BD00F03BF90628DE
:1016300030D0214C94ED1C8A00F0AEFED0ED037A40
:10164000B4EEE78AF1EE10FAECDD00F0A5FEBDEC99
:10165000028BC368236738BD174B164A9C6900206C
:10166000012183F898005162DC695460134CD3F86F
:101670001CC02070BDEC028B0021C2F818C0D161E3
:10168000DA69C3F890200820C3F89410BDE8384008
:1016900000F002B9074D084C95ED070A00F03AFF3B
:1016A00085ED070AAB69C4F89030EB69C4F8943053
:1016B000C0E700BF54070020F8070020F802002010
:1016C00038B56F4C237813B16E4B5B6A63B900F089
:1016D000E9F8072800F090802378002B34D000F040
:1016E000E1F802285FD038BD00F0DCF80628EED023
:1016F000654D0023AA69237085F8983003F048FDF2
:10170000044600F03DF900286FD1237A002B6CD1FC
:1017100000F032FD00286DD195F89830002B00F0D4
:10172000A480012400F0A0F9002859D195F8983040
:10173000002B55D000F09EF9002840F09880002C36
:1017400040F0938004204CE000F0ACF80628C6D1AD
:101750004C4B5B6A002BC2D003F01AFD044600F02C
:101760000FF9002878D1237A002B75D100F004FD01
:10177000002876D1444B93F89830002B7BD001247D
:1017800000F072F900286ED13F4B93F89830002B8F
:1017900069D000F06FF900286FD1002C6BD10420C4
:1017A00000F07AF89BE703F0F3FC044600F0E8F859
:1017B00058B9237A4BB900F0DFFCD8B9324B93F813
:1017C0009830002B8FD0012403E000F0D5FC0446B4
:1017D00080B900F049F918B92B4B93F898305BBBEE
:1017E0000120BDE8384000F057B800F0C5FC0446C1
:1017F000002897D00820F4E703F0CAFC054600F063
:10180000BFF850B92B7A43B900F0B6FC00BB1E4BB1
:1018100093F89830F3B1012503E000F0ADFC0546E4
:10182000B0B900F021F918B9174B93F898304BB9BB
:10183000012000F031F84FE700F01CF9B8B9002C96
:1018400080D038BD00F016F998B91DB90420F0E732
:101850000820EEE70220ECE700F08EFC04460028AA
:101860008ED008209CE701209AE70220B9E70520E6
:10187000B7E70520DDE7022092E7052090E700BFEB
:10188000F802002054070020F8070020014B002236
:101890001A707047F9020020014B1870704700BFA2
:1018A000F9020020014B1878704700BFF9020020B0
:1018B00008B500F061FC08B1002008BD00F0CAF9CD
:1018C0000028F9D0034B1878043802288CBF002078
:1018D000012008BDF902002009289ABF024B53F8E5
:1018E00020000248704700BF98FC000868FC000810
:1018F000034B044959600020012218601A81704787
:10190000FC0200200060EA46034B044959600020B5
:10191000012218601A817047FC0200200060EA462C
:1019200018B107C8014B83E807007047FC0200208C
:10193000014B1860704700BFFC020020014B83ED93
:10194000010A7047FC0200200028034BB4BF4FF08F
:10195000FF3201221A727047FC020020014B186806
:10196000704700BFFC020020014B93ED010A704755
:10197000FC020020014B93F908007047FC02002094
:10198000014B587A704700BFFC0200200038024B20
:1019900018BF012058727047FC0200200B4B9FEDCE
:1019A0000C7A1A68D3ED016A93F90830821A07EEAF
:1019B000902AF8EEE77A00EE103A67EE877AB8EEF2
:1019C000C00A87EEA67A27EE000A7047FC020020C4
:1019D000DB0FC940014B024A1A6070470803002020
:1019E0000100000130B41C4A937814785578C3B1D3
:1019F0008CB90321A44608460125002364F307039C
:101A00006CF30F2365F3174360F31F63136030BC5F
:101A1000022000F0A7BA012100250846AC460C467A
:101A2000EBE7002CF7D15DB9022805D003280DD1D2
:101A3000AC4601460125E0E701464FF0010CDCE72A
:101A40000221254608464FF0010CD6E70121084641
:101A5000AC460C46D1E700BF08030020014BD87804
:101A6000704700BF08030020014B1878704700BF83
:101A700008030020014B5878704700BF080300207E
:101A8000014B9878704700BF0803002058B30068E6
:101A90001F4BC2B210B5B2F1000E18BF4FF0010ECD
:101AA0004FF0000110F47F4C18BF4FF0010C6EF3A3
:101AB00007016CF30F2110F47F0F1860C0F30724A7
:101AC000198006D00121997072B90321D9705A701A
:101AD00010BD4AB974B9DA78022A13D0032A0DD09E
:101AE0000C4A1A6010BD704701210022D970A3F87A
:101AF000012010BD4FF400725A8010BD01221C80DD
:101B00009A7010BD4FF480721A809C7010BD00BF97
:101B10000803002001000001144BA8B95A789978F5
:101B20001870B2F1000C18BF4FF0010C83F801C01F
:101B300069B9BAB9DA78022A10D0032A04D14FF46D
:101B40008072A3F801207047094A1A607047032188
:101B50004FF48072D970A3F8012070470122A3F8D6
:101B6000012070474FF400725A807047080300202C
:101B700001000001174B10B1174A1A6070471A781C
:101B800099785870B2F1000C18BF4FF0010C83F82F
:101B900000C029B1012199701AB90322DA70704787
:101BA0001AB14FF480725A807047D978022907D051
:101BB00003290AD001214FF4807219705A807047AE
:101BC0004FF4807119809A70704701211A709970D2
:101BD000704700BF080300200001000218B11B4B32
:101BE0001B4A1A60704710B4184B1C7859789870CB
:101BF000B4F1000C18BF4FF0010C02466CF3070261
:101C0000B1F1000C18BF4FF0010C6CF30F221A80D9
:101C10004CB991B9DA78022A0BD0032A12D00122EA
:101C2000DA701A8002E00122DA7058705DF8044B15
:101C300070474FF480721A80F8E70222DA705DF87C
:101C4000044B7047012219809A70EFE708030020C7
:101C50000000010308B500F08FFA064B1A78104314
:101C6000C0B220B99878003818BF012008BD002004
:101C700008BD00BF0803002000487047080300208B
:101C8000014B00221A7070470C03002038B5474BF7
:101C9000474AB3F8E0309B0203F1FF6404F5FF24E8
:101CA0002168914202D16268012A0BD000F054FBF6
:101CB00003F064FAFFF78EFEFFF726FE3D4B00208F
:101CC000187038BDA268382AF0D103F100633A4A8F
:101CD000A3F5FE60A3F5F7614FF0FF3C10F8013B60
:101CE00083EA0C0343F3000C0CEA020C8CEA530C5D
:101CF00043F34003134083EA5C034CF3400C0CEACB
:101D0000020C8CEA530C43F34003134083EA5C0358
:101D10004CF3400C0CEA020C8CEA530C43F34003E6
:101D2000134083EA5C034CF3400C0CEA020C8CEA8F
:101D3000530C43F340031340814283EA5C0CCDD142
:101D4000E3686FEA0C0C9C45B0D104F110052846FD
:101D500000F088FB0028A9D094F83830013B022B12
:101D6000A4D8D4ED107AF5EEC07AF1EE10FA9DD930
:101D700094F944305A1C01D0012B97D194F8453086
:101D8000012B93D8284600F00BFB04F12C0003F044
:101D900003FA04F13500FFF779FE04F13C00FFF788
:101DA000BFFD044B0120187038BD00BF0075FF1F38
:101DB00053544B4D0C0300202083B8ED000000006D
:101DC00070B52DED028B5A4BAAB03C22002109A818
:101DD000B3F8E0400AF08DFC53A3D3E90023382187
:101DE000CDE90623089100F0D7FA05460FCD0DF195
:101DF000280CACE80F0095E807008CE8070003F01A
:101E0000C7F9024600685168127A11AB03C31A7011
:101E1000FFF732FF0368CDF84D30FFF79FFD064610
:101E2000FFF7A2FDB0EE408AFFF7A4FD0546FFF7DD
:101E3000A7FD404A8DF85D00A40215968DED168A27
:101E40008DF85C500DF127010DF15F004FF0FF336D
:101E500011F801EF8EEA030E4EF300034EF3400C2F
:101E6000134083EA5E030CEA020C8CEA530C43F342
:101E700040034CF3400E134083EA5C030EEA020E6B
:101E80008EEA530E43F340034EF3400C134083EAB3
:101E90005E030CEA020C8CEA530C43F3400313403C
:101EA0004CF3400E83EA5C0388420EEA020C8CEA93
:101EB0005303CDD1DB43482206A918A809930AF0A1
:101EC00018FD05F0B1FC0021A4F500630122CDE965
:101ED0000111DB0A01A902A8CDE90323059205F04F
:101EE000EBFCC8B918AD641B04F1FF642AAE04F51D
:101EF000FF24D5E900236119002005F0DDFB58B966
:101F00000835B542F5D105F0A3FC0B4B0120187044
:101F10002AB0BDEC028B70BD05F09AFC00202AB0FF
:101F2000BDEC028B70BD00BF53544B4D010000004F
:101F30000075FF1F2083B8ED0C030020014B1878BB
:101F4000704700BF0C03002003480449044A0023E3
:101F500003800B80138070471203002010030020C1
:101F60000E03002038B50C46054604F0AFF81049C2
:101F70000B880A889BB2013202F03F0203EB430355
:101F80009B000A800B4A0C49D0501A440B881571EB
:101F90009BB23F2B946004D80B8801339BB20B801B
:101FA00038BD064A1388013303F03F03138038BD60
:101FB00012030020140300200E0300201003002051
:101FC000044A13889BB2FF2B9ABF1088C0B2FF202F
:101FD000704700BF0E030020034618B31348B0F843
:101FE00000C01FFA8CF2D2B110B4114C11492288F2
:101FF00092B202EB420201EB82022188013101F030
:102000003F01218001885DF8044B013989B20180CC
:1020100007CA4FF0010C83E80700604670479446FA
:102020006046704784466046704700BF0E0300203C
:1020300010030020140300200F289ABF024B53F80E
:1020400020000248704700BFC0FC000868FC000880
:102050000249034A00230B601370704718060020E2
:1020600014060020D8B10E4A38B511680446012381
:1020700001388340194208D00C2C18BF0820BDE855
:10208000384008BF0920FFF707BC1168054D0B4316
:102090000A20214613602C70FFF764FFECE77047BD
:1020A000180600201406002000B9704710B5274C10
:1020B0000146236801380122824023EA02030B20F3
:1020C0002360FFF74FFF2368D3B119052BD45A05BE
:1020D0001BD4980529D4D90529D41A0629D4580621
:1020E00029D4990629D4DA061BD4180727D459070E
:1020F00027D49A0727D413F0010318BF012305D171
:10210000134A137023683BB110BD0B23104ADBB296
:1021100013702368002BF7D1BDE810400120FFF7B2
:10212000BBBB0523F2E70C23EAE70A23EEE709230A
:10213000ECE70823EAE70723E8E70623E6E70423BA
:10214000E4E70323E2E70223E0E700BF18060020EC
:102150001406002008B5064A064B00210B2011602A
:102160001970FFF7FFFEBDE808400120FFF794BBA0
:102170001806002014060020024B1868003818BF0B
:102180000120704718060020014B1878704700BFE7
:1021900014060020014B1868704700BF1806002085
:1021A0000C289ABF024B53F820000248704700BF2A
:1021B00000FD000868FC000838B5032303700D68B3
:1021C0000446E86AFEF7D6F916A3D3E90023FEF722
:1021D0004BFAFEF721FDEA6A60800023013A2A6487
:1021E00001210022E36023616361A361E361236253
:1021F0006362A362E36223636363A363E3632364B1
:10220000A365074860640A23C4E91722C4E91922B8
:10221000C4E91B11C4E91D1338BD00BFAFF3008032
:10222000CDCC4C3FCDCCCCCCCCCCEC3F408810B40A
:102230008142084C28BF01468242246828BF0246DA
:10224000984228BF18466163A263E0635DF8044BBF
:10225000704700BFF81A00200048704714F40008C7
:102260000048704728F40008004870473CF4000814
:102270000048704754F4000810B500248AB0CDE936
:102280000444CDE90644224B0894D96C41F0040182
:10229000D964D96C01F0040100910099D96C41F026
:1022A0002001D964D96C01F0200101910199D96C08
:1022B00041F00101D964D96C01F001010291029948
:1022C000D96C41F00201D964DB6C03F002032246B1
:1022D00003934FF400414FF09040039B05F096FDAF
:1022E0004FF40042012304A94FF09040CDE90423AC
:1022F000CDE9064405F0BEFB4FF48062002305489B
:10230000069404A9CDE9042305F0B4FB0AB010BD7E
:102310000010024000080048094B0A480A4ADFF84A
:1023200034C09A6042F21071C3E90001C822074824
:102330000749C3F80CC0186159619A61704700BF22
:1023400020060020F0D8FFFFCDCC4C3E0AD7A33B9F
:102350000AD7A33C9A99993E094B0A480A4ADFF8E2
:1023600034C09A6042F21071C3E90001C8220748E4
:102370000749C3F80CC0186159619A61704700BFE2
:1023800020060020F0D8FFFFCDCC4C3E0AD7A33B5F
:102390000AD7A33C9A99993E00487047200600202E
:1023A000002858D0D0E900239A42844653DA2A49BB
:1023B0008A4250DB4CF250318B424CDC9B1A632B2F
:1023C00049DDD0ED027AF5EEC07AF1EE10FA42D492
:1023D000B7EE007AF4EEC77AF1EE10FA3BDC90ED3E
:1023E000037AF4EEC77AF1EE10FA34DCF0EE087AF4
:1023F000B4EEE77AF1EE10FA2DDCD0ED047AF5EECA
:10240000C07AF1EE10FA26D99FED147AF4EEC77A6D
:10241000F1EE10FA1FDCD0ED057AF5EEC07AF1EEA0
:1024200010FA18D9B7EE007AF4EEC77AF1EE10FA86
:1024300011DC836942F20F72013B93420BD8BCE876
:102440000F0010B4064C0FC49CE8070084E8070096
:102450005DF8044B70477047B03CFFFFCDCCCC3DDE
:102460002006002000284FD0D0E900239A424ADA03
:1024700026498A4247DB4CF250318B4243DC9B1A9F
:10248000632B40DDD0ED027AF5EEC07AF1EE10FA62
:1024900039D4B7EE007AF4EEC77AF1EE10FA32DCF6
:1024A00090ED037AF4EEC77AF1EE10FA2BDCF0EE41
:1024B000087AB4EEE77AF1EE10FA24DCD0ED047A73
:1024C000F5EEC07AF1EE10FA1DD99FED117AF4EE17
:1024D000C77AF1EE10FA16DCD0ED057AF5EEC07A87
:1024E000F1EE10FA0FD9B7EE007AF4EEC77AF1EEFA
:1024F00010FA08DC806942F20F73013898428CBFF1
:102500000020012070470020704700BFB03CFFFF53
:10251000CDCCCC3D0A4BB0EE407A93ED040AB4EE3C
:10252000C70AF1EE10FA0AD4F1EE407AF4EEC77A57
:10253000F1EE10FAB4BFB0EE470AB0EE670A70478A
:10254000200600200000000010B594B038220021C1
:1025500006A80AF0CEF80020CDE90100CDE903007D
:10256000059005F0E9FC9FED147B02235522CDE98F
:102570000F320324082206A88DED067BCDE90D3429
:10258000CDE91123139305F051FD08B172B6FEE7B2
:10259000042103460F220DEB0100CDE90124CDE912
:1025A0000333059305F0C0FF08B172B6FEE714B01F
:1025B00010BD00BFAFF3008001000000000001006B
:1025C00080B503F067FD9FEDC78AC74FC74CC84D64
:1025D000DFEDC88AFFF7B8FFFFF74EFE03F066FA9B
:1025E000FEF756FD00F014FC00F030FC03F080FB19
:1025F000FEF7C6FD03F000FA03F024FCBE48BF4915
:10260000BF4AC04B0026066081ED008A82ED008A39
:10261000BD4983ED008ABD4BBD4A81ED008A1A6039
:10262000BC4ABD4BBD49116038464FF07E521A601E
:1026300000F090FABA492046FFF7BEFDB948B3EE64
:10264000090A00F079FCB748B0EE480A00F07CFCBB
:10265000B448B0EE480A00F07FFC95ED0B0AD4EDCB
:102660001B7AB048F8EE677AB8EE400A20EE270AE7
:1026700020EE280A00F078FC9FEDAB0AA94800F094
:102680008BFCA848B5EE000A00F076FC9FEDA70A87
:10269000A44800F079FC9FEDA60AA24800F080FC57
:1026A000A048B0EE480A00F093FC9E48B5EE000A40
:1026B00000F03AFC9FED9F0A9F4800F03DFC9FED23
:1026C0009F0A9D4800F040FC9B48B0EE480A00F08D
:1026D00043FC95ED0B0AD4ED1C7A9748F8EE677A27
:1026E000B8EE400A20EE270A20EE280A00F03CFC53
:1026F0009FED930A904800F04FFC8F48B0EE080A17
:1027000000F03AFC9FED890A8B4800F03DFC9FEDFC
:10271000880A894800F044FC8748B0EE480A00F077
:1027200057FC8548B0EE080A00F0FEFB8548B3EE82
:10273000090A00F001FC9FED840A824800F004FCC5
:102740008048B0EE480A00F007FC95ED0B0AD4ED86
:102750001D7A7C48F8EE677AB8EE400A20EE270A28
:1027600020EE280A00F000FC9FED750A754800F085
:1027700013FC7448B1EE0C0A00F0FEFB9FED6B0AEF
:10278000704800F001FC9FED6A0A6E4800F008FCFA
:102790006C48B0EE480A00F01BFC6A48B1EE040A2F
:1027A00000F0C2FB6948B3EE090A00F0C5FB9FEDDB
:1027B000660A664800F0C8FB6448B0EE480A00F0BC
:1027C000CBFB95ED0B0AD4ED1D7A6048F8EE677AE5
:1027D000B8EE400A20EE270A20EE280A00F0C4FBDB
:1027E0009FED570A594800F0D7FB5848B1EE0C0A44
:1027F00000F0C2FB9FED4D0A544800F0C5FB9FED71
:102800004C0A524800F0CCFB5048B0EE480A00F0A9
:10281000DFFBB1EE040A4D4800F086FBFFF736F807
:10282000FFF716FCFFF7D6F8FFF78EFB02F0F2FF7A
:1028300003F0A4FBFFF770FD02F096FC02F000FD30
:10284000FFF71EFAFFF754F8FEF774FD00F030FEB4
:10285000FFF71CFA0120FFF7C5F80120FFF75CF92C
:10286000FFF79AFD3146C3683B670120FFF77AFB0B
:10287000FEF762FD364805F047FB364805F044FB9D
:102880000C21274806F088FA334804F0B7F933489A
:1028900004F022FA3146324806F07EFAD5ED0B7A82
:1028A0009FED307A304B314883ED008AF8EE677A3D
:1028B0002F49304A80ED008A67EE877A81ED008AE1
:1028C000FCEEE77A17EE903A9BB2638041F28833D0
:1028D000136000F0A5FE03F033F803F06FFBFEF782
:1028E000EFFEF6E700000000F80700207C0700205C
:1028F000002C0140B91D4A325C0600205806002019
:1029000054060020500600204C06002048060020F7
:102910000AD7233C44060020400600200AD723BCE7
:10292000F81A00201C070020ACC5A7360000C842DA
:1029300000007A44C3F5F040E406002000A0A6445D
:102940006F12833AAC06002000708A45740600209E
:10295000E8080020A8080020200200208C020020A7
:10296000AC1A00206666663F6806002070060020EC
:102970006C060020600600200368B3F1A04F00D071
:10298000704770B5394C3A4A3A493B4E88B02046B8
:1029900000F088F9394994ED040A204600F038F92E
:1029A00037493278204602F081FC0546002847D19D
:1029B000FEF720FE334B94ED065A9FED334AD4EDDB
:1029C000245A94ED0C6AD4ED256A93ED087AD3ED80
:1029D000067ADFED2E4A019527EE047A67EE847AB7
:1029E000BDEEC77A65EEA45A17EE103A26EE246AB9
:1029F00066EEA46AFDEEE77ABDEEC55AFDEEE55A35
:102A0000BDEEC66AFDEEE66AADF8183017EE903AF4
:102A10008DED025ACDED035A8DED046ACDED056AB8
:102A2000ADF81A30FEF73EFF8DF81C00FFF7ACFB47
:102A3000034601A88DF81D3002F006FF08B070BDF6
:102A400010480022002384F898301946C2610262BF
:102A500042618261C26002614262826282601A46A1
:102A6000337008B0BDE87040FFF7E0BBF807002006
:102A7000200200208C0200203C060020601A00206A
:102A8000540700207C07002000007A440024744989
:102A900008B50368B3F1A04F00D008BD03F010FCE7
:102AA000034A83B213801046BDE8084000F098B98D
:102AB000F80700200368B3F1804F00D07047037F10
:102AC000012BFBD1074A0848136801331360836860
:102AD000013383608368092BF0D9002303498360A5
:102AE00000F090B964060020F80700208C02002056
:102AF000084A0368934200D070471B68064A13F0E7
:102B0000100F536902D0013B536170470133536189
:102B1000704700BF00080040F807002072B6FEE7CB
:102B20000A4A0B4910B44FF0010C146881F800C038
:102B30000023002262625DF8044B42618361C3613D
:102B400003624362C3620363704700BF601A0020E0
:102B5000000000202649274B9FED277A10B4002261
:102B600001240C7082600273D3ED0B7A2349416318
:102B70004FF07E548463F8EE677A214C0464214C54
:102B8000446467EE877A204C016500231F49028068
:102B9000C0E9152443674360C0ED047A4261836154
:102BA0000362C36143628362C3620363C36383647A
:102BB000C364C365036643668366C366C0E92722B0
:102BC000C0E929225DF8044B0167A0F87820C367AB
:102BD000C0F88030C0F88430C0F88830C0F88C303D
:102BE000C0F89030C0F89430A0F89820704700BF2B
:102BF00000000020002C0140B91D4A32CDCCCC3D54
:102C00000000F0420060EA46A00997090000404039
:102C100038B50D6804466369696A62699342FAD1FE
:102C200041EA034107EE901A9FED1B7A1B4BD4ED4E
:102C3000076A1A78C4ED086AF8EEE77A27EE877A11
:102C4000C4ED067A84ED077AA2B1DFED156A84ED52
:102C5000087A0022B0EE666A1A70FDEEE77AC4EDDB
:102C60000C6A17EE900A84ED0B6AFEF797FE84ED6E
:102C7000090A38BD37EE667AD4ED0D5A87EE006A40
:102C8000F7EE006A76EEE56A94ED0C7A66EE876AF6
:102C9000E5EE866AE1E700BFBD378635000000201B
:102CA0000000000038B50B460446092118461546B9
:102CB00004F094F80921A4F85400284604F08EF892
:102CC000B4F85430DFED3D5AD4ED174A94ED185A5C
:102CD00006EE903AB4F8583007EE103AB4F85A308D
:102CE00080B207EE903A06EE100AB8EE477AF8EE98
:102CF000666AF8EE677AB8EE466A76EEC76A36EE2E
:102D0000676A66EEA56AD4ED147AC4ED1A6A26EEF7
:102D1000256AF7EE005A75EEE75A26EEA77A66EEB8
:102D2000277AA4EEA57AA4F85600E5EE857AD4EDCC
:102D3000205A84ED1B6AB4EEE57AF1EE10FAC8BFB2
:102D4000F0EE475AF4EEE57A77EE276AC8BF84EDD5
:102D5000207AF1EE10FA94ED216AC8BFC4ED207A12
:102D6000F1EE666AC8BFF0EE675AF4EEE56AF1EE7E
:102D700010FAB4EEC67AC8BFC4ED206AF1EE10FABC
:102D800048BFB0EE476AF4EEC67A48BF84ED217AB8
:102D9000F1EE10FA48BFB0EE676AF4EEC66A48BFBB
:102DA000C4ED217AF1EE10FA84ED177AC4ED187AA9
:102DB000C4ED196A48BFC4ED216A38BDA69B443DE5
:102DC00068B172B60023426D8265C36503664366CF
:102DD0008366C366C0F88030C0F8843062B670473E
:102DE00003889FED077A07EE903AF8EE677A0123A1
:102DF00067EE877A0373C0ED017AC0ED1D7A7047E4
:102E0000AE47093C00220280084603F057BE00BFCF
:102E10000C4810B540220C4C826000234FF4003166
:102E20004FF44042C0E90043C0E909120361037551
:102E30008361C36204F0F0FF00B910BDBDE810402B
:102E4000FFF76CBEE8080020000301400C4810B5F5
:102E500040220C4C826000234FF400314FF440427A
:102E6000C0E90043C0E90912036103758361C362CD
:102E700004F0D2FF00B910BDBDE81040FFF74EBE10
:102E8000A80800200403014000B50268244989B065
:102E900000238A42CDE90233CDE90433069305D0FD
:102EA000204B9A421BD009B05DF804FB03F180432C
:102EB00003F504339FED167BDA6C42F00102DA640D
:102EC000DB6C03F00103009302A94FF090408DEDFD
:102ED000027B009B04F0CEFD09B05DF804FB03F516
:102EE0008633FC33DA6C42F00102DA64DB6C9FED6E
:102EF0000A7B03F00103019302A94FF090408DED8E
:102F0000027B019B04F0B6FD09B05DF804FB00BF35
:102F10000E00000003000000E000000003000000BD
:102F20000003014004030140B5EEC00AF1EE10FABF
:102F300088BF80ED040A7047B5EEC00AF1EE10FAC2
:102F400058BF80ED000A7047B5EEC00AF1EE10FAE6
:102F500058BF80ED010A7047B5EEC00AF1EE10FAD5
:102F600058BF80ED020A7047B5EEC00AF1EE10FAC4
:102F700088BF80ED070A7047B5EEC00AF1EE10FA7F
:102F800088BF80ED050A7047B5EEC00AF1EE10FA71
:102F900088BF80ED060A704780ED080A704700BFC1
:102FA0009FED0A7A90ED076AC7EE007AF7EE006AA5
:102FB00037EE867AC6EE077AF4EEE67AF1EE10FA8C
:102FC00088BFF0EE667AC0ED0A7A704783F9223E38
:102FD000B5EEC00AF1EE10FA88BF80ED0C0A70471A
:102FE00000B599B00346094A6021684609F008FB1C
:102FF0006846FDF775F90246642392B269460448B3
:1030000006F0FAFC19B05DF804FB00BF68F4000894
:10301000481B002000B5A3B00346094A009102A84E
:10302000802109F0EDFA02A8FDF75AF9024664235F
:1030300092B202A9034806F0DFFC23B05DF804FB5E
:1030400074F40008481B002000B5A3B00346094AE9
:10305000009102A8802109F0D3FA02A8FDF740F9F7
:103060000246642392B202A9034806F0C5FC23B0CD
:103070005DF804FB88F40008481B002010B50446E6
:10308000A2B010EE100AFDF797FA2346CDE9000131
:10309000084A802102A809F0B3FA02A8FDF720F936
:1030A0000246642392B202A9034806F0A5FC22B0AE
:1030B00010BD00BF9CF40008481B002000B599B06B
:1030C000FEF77EFE40B10E490E486423072219B078
:1030D0005DF804EB06F090BC0B4B0C4A602168468F
:1030E00009F08EFA6846FDF7FBF80246642392B2B7
:1030F0006946044806F080FC19B05DF804FB00BF87
:10310000B0F40008481B0020B8F4000868F4000878
:10311000014B1878704700BFAC0B002010B5044677
:10312000FDF7DEF8024621460348BDE8104064235F
:1031300092B206F061BC00BF481B002070B5B8B069
:10314000002872D0A5490446FDF76AF800283DD052
:10315000A3492046FDF764F800284DD0A149204638
:10316000FDF75EF800285CD09F492046FDF758F82F
:1031700000284CD09D492046FDF752F800285BD02E
:103180009B492046FDF74CF8002863D0994920461A
:10319000FDF746F8002861D097492046FDF740F832
:1031A000002853D095492046FDF73AF8002859D118
:1031B000934B93F89810914B924A003918BF012114
:1031C000009108A8802109F01BFA09E0FEF76AFBCC
:1031D000FEF782FB8C4A0346602108A809F010FA2A
:1031E00008A8FDF77DF802466423884892B208A932
:1031F00006F002FC38B070BDFEF7C6FFFEF7D0FF48
:10320000834A0346602108A809F0FAF9E8E7FEF7C7
:1032100025FC754B00907F4A802108A809F0F0F941
:10322000DEE7FEF7B7FF6F4BF4E77B4B7B4A60218D
:1032300008A809F0E5F9D3E7FEF716FC6B4B009000
:10324000704A802108A809F0DBF9C9E7FEF7B4F855
:10325000694BF4E7FEF70EFC654BF0E7FEF710FC58
:10326000644BECE76E492046FCF7DAFF20B9644B6B
:10327000D3F89C106A4B9FE76A492046FCF7D0FFC1
:1032800020B95F4BD3F8A010664B95E766492046FE
:10329000FCF7C6FF20B95A4BD3F8A410624B8BE75A
:1032A00062492046FCF7BCFF002839D0604920461F
:1032B000FCF7B6FF002838D05E492046FCF7B0FF87
:1032C000002839D05C492046FCF7AAFF00283BD0F3
:1032D0005A492046FCF7A4FF002832D0584920461E
:1032E000FCF79EFF014600283CD056492046FCF7DB
:1032F00097FF70B354492046FCF792FF00285DD039
:1033000052492046FCF78CFF70BB3D4B4F48197B60
:10331000003918BF012138B0BDE87040FFF794BEF6
:10332000FEF716F901464148F5E74148642138B0F7
:10333000BDE87040FFF76EBE02F0FCFA01463D4862
:10334000E9E73E480121E6E7FEF7F8FD01463A4885
:10335000E1E72B4B3B48D3ED067AFDEEE77A17EE1B
:10336000901AE4E73648D6E739492046FCF758FF7B
:10337000002800F08A8037492046FCF751FF0028DA
:1033800070D035492046FCF74BFF00BBFEF764FFC9
:103390000446FEF765FF0546FEF766FF0646FEF7A4
:1033A00067FFCDE9005602902C4A2346C02108A8A9
:1033B00009F026F908A8FFF7B1FE1BE7104B2248D9
:1033C00093ED1D0A38B0BDE87040FFF757BE2448A2
:1033D00038B0BDE87040FFF703BE00BFD0F400086E
:1033E000E4FA0008F8F4000818F500082CF50008C5
:1033F00038F5000844F5000858F5000864F50008A1
:10340000F807002088F40008D8F40008481B0020C2
:10341000E8F4000804F50008C4F4000868F40008A3
:103420006CF500087CF5000890F50008A0F5000890
:10343000B8F50008D0F50008E4F50008F4F5000838
:1034400008F600081CF6000820F6000828F6000818
:1034500034F6000840F6000874F600087CF6000810
:1034600098F6000805A8FEF7B7FD90B19DF8180082
:10347000059CFEF7E1FD079B094ACDE90003A02169
:10348000234608A809F0BCF8AAE6FEF799FD054B0B
:10349000C0E60549054864230F2206F0ADFAA9E607
:1034A0004CF6000834F6000864F60008481B0020BB
:1034B00038B51248124B134A1349144D00240470B6
:1034C0001C70134B0C7014802146802211481C7014
:1034D0002C7009F00EF910484FF40072214609F0E3
:1034E00008F92B7803B138BD0C490D48012206F0CC
:1034F0001DFB0028F7D101232B7038BD28090020BF
:10350000270900202A09002026090020240900207C
:10351000250900202C0B00202C090020AC0B0020DA
:10352000481B002038B50C4C0C4D0D492268002377
:103530002B700B8008231362204606F0BBFB2B7810
:1035400003B138BD07490122204606F0EFFA0028F2
:10355000F7D101232B7038BD481B0020240900201F
:103560002A090020AC0B0020F8B5244C244D002380
:103570000A282A8823700AD00D2808D07E2A16D857
:10358000531C2B801F4B9854237833B1F8BDAAB934
:1035900000232B802378002BF8D11B491B480122E4
:1035A00006F0C4FA0028F1D101232370F8BD184AAF
:1035B0002B80137843F001031370EBE71149154E8C
:1035C00000238B543378032B05D9114A137843F029
:1035D00002031370DCE7104F104B3878013203EB15
:1035E000C01009F086F93B78013303F003033B7008
:1035F00033780133DBB23370CAE700BF24090020FF
:103600002A0900202C0B0020AC0B0020481B0020B6
:103610002509002026090020280900202C09002067
:103620002DE9F0412DED028BCAB072B6B24B1C7879
:1036300000221A70E4B262B6E10777D4A20763D41D
:10364000AE4C2378002B55D072B6AD4C23782BB9F5
:1036500062B64AB0BDEC028BBDE8F081A94EAA4B20
:1036600031780AA803EBC11100257F228DF8A750FD
:1036700009F059F83378013303F0030333702378EA
:10368000013BDBB2237062B6A0490AA809F05EF8DC
:103690009E490446284609F059F89C4906462846A2
:1036A00009F054F899498046284609F04FF8074632
:1036B000002C00F00F8102F06FFC95492046FCF7CA
:1036C000AFFD002844D16EB192493046FCF7A8FD09
:1036D000002800F04B8190493046FCF7A1FD0028FE
:1036E00000F04D823046FFF729FD4AB0BDEC028B59
:1036F000BDE8F08189498A48012206F017FA0028BE
:10370000A2D1012323709FE72AAD864B864A602110
:10371000284608F075FF2846FCF7E2FD02466423C0
:1037200092B229467E4806F067F989E72AAD7F4BB9
:103730007D4A6021284608F063FF2846FCF7D0FD4B
:103740000246642392B22946754806F055F975E79A
:1037500077492046FCF764FDF8B96EB16D493046F3
:10376000FCF75EFD002800F0AB826B493046FCF7A9
:1037700057FD002800F0A5816E4B6B4A60212AA8F6
:1037800008F03EFF2AA8FCF7ABFD0246642392B284
:103790002AA9634806F030F95BE767492046FCF741
:1037A0003FFD002840F07C81002E00F0D781634966
:1037B0003046FCF735FD002800F02C836049304688
:1037C000FCF72EFD002800F072835E493046FCF7BE
:1037D00027FD002800F0AC835B493046FCF720FD54
:1037E000002800F0038559493046FCF719FD0028F0
:1037F00000F0F28556493046FCF712FD002800F033
:103800007A8654493046FCF70BFD002800F06C879F
:1038100051493046FCF704FD002840F015874F4C15
:1038200094F89830002B41F02580D4F8A460002E45
:1038300041F02080FEF736F8062801F01B800320B7
:10384000FEF72AF831460720FEF78CFB72B62046B9
:10385000FFF766F9424BE1691960E169596000229E
:103860009A60DA601A615A61E16999610125DA6149
:103870001A625D62E369C4F89030C4F8942062B6BD
:103880003046FEF755F82846FEF780F884F8995040
:10389000D4ED067AFDEEE77A082017EE901AFEF7CF
:1038A00061FB2846FDF76AFEFEF78AFA002840F021
:1038B000BA822C4B1C4A60212AA808F0A1FE2AA833
:1038C000FCF70EFD0246642392B22AA9144806F0C2
:1038D00093F8BEE6244B144A60212AA808F090FE13
:1038E0002AA8FCF7FDFC0246642392B22AA90C48E0
:1038F00006F082F8ADE600BF25090020240900206B
:1039000026090020270900202C090020C0F6000805
:10391000CCF60008D0F60008A0F20008AC0B00209E
:10392000481B0020B0F6000868F40008A4F6000860
:1039300054F9000874FA000880FA000890FA0008A8
:10394000F8F2000800F3000808F3000810F300087C
:10395000E0FA0008ECFA00081CFB0008F807002059
:1039600054070020B8F40008C4F60008FEF714FD60
:103970000446B8F1000F00F0E080AB494046FCF788
:103980004FFC002800F03082A8494046FCF748FC74
:10399000002800F06382A6494046FCF741FC00285D
:1039A00000F0AF82A3494046FCF73AFC002800F043
:1039B000E183A1494046FCF733FC002800F0E48491
:1039C0009E494046FCF72CFC002800F06C859C4981
:1039D0004046FCF725FC002800F001869949404646
:1039E000FCF71EFC002800F0138797494046FCF7BF
:1039F00017FC002800F0E08794494046FCF710FCD3
:103A0000002801F09A8092494046FCF709FC002802
:103A100001F06A818F494046FCF702FC002801F062
:103A2000C1818D494046FCF7FBFB002801F0BF82B5
:103A30008A494046FCF7F4FB002801F0A08288493F
:103A40004046FCF7EDFB002801F0828285494046A4
:103A5000FCF7E6FB002801F0288383494046FCF789
:103A6000DFFB002801F05E8380494046FCF7D8FB6D
:103A7000002801F04E837E494046FCF7D1FB002828
:103A800001F03F837B494046FCF7CAFB002841F028
:103A90003383794B774893ED210AFFF7EFFAD8E5A6
:103AA000764B774A60212AA808F0AAFD2AA8FCF7DD
:103AB00017FC0246642392B22AA9724805F09CFFC3
:103AC000C7E5B8F1000F00F06C83002F00F06983A8
:103AD0006D494046FCF7A4FB00242A943B7800285B
:103AE00040F06682002B00F06E8308F0D5FE2AAD10
:103AF00004600A222946384608F060F8044608F0B7
:103B0000CBFE0368002B40F05F832A9B9F4200F0AE
:103B10005B831B78002B40F05783631E022B00F25F
:103B20005383E0B2FDF75EFFFDF718FD5749554896
:103B30006423072205F060FF8BE5554B504A602156
:103B40002AA808F05DFD2AA8FCF7CAFB02466423F8
:103B500092B22AA94B4805F04FFF7AE54D4B484AEF
:103B600060212AA808F04CFD2AA8FCF7B9FB024600
:103B7000642392B22AA9434805F03EFF69E501F0AB
:103B800007FB0446B8F1000F00F0EC8342494046C1
:103B9000FCF746FB002800F04D8140494046FCF709
:103BA0003FFB002800F099813D494046FCF738FB77
:103BB000002800F0CB823B494046FCF731FB00284F
:103BC00000F0F68338494046FCF72AFB002800F055
:103BD0007E8436494046FCF723FB002800F0EB8446
:103BE00033494046FCF71CFB002800F02B86314986
:103BF0004046FCF715FB002800F0F3862E494046AE
:103C0000FCF70EFB002800F06D872C494046FCF7BE
:103C100007FB002840F06187FDF7B2FE0146274808
:103C2000FFF712FA15E500BFECF60008F8F60008F9
:103C30000CF700081CF7000830F7000840F70008F0
:103C400050F7000860F7000870F700087CF70008DC
:103C500088F7000894F70008A0F70008B0F70008FC
:103C6000C0F70008D0F70008E0F70008F8F70008F0
:103C700010F800081CF80008F807002068FC00088D
:103C800068F40008481B002018F50008B0F400088C
:103C9000D8F6000884FA000850F8000860F8000818
:103CA0007CF800088CF80008A4F80008C4F80008A4
:103CB000DCF80008F4F8000810F9000834F90008EE
:103CC000B8F1000F00F0E180002F00F0DE80FEF779
:103CD00063FB04460FCC03AD0FC594E8070085E8ED
:103CE00007009F494046FCF79BFA002800F0E98155
:103CF0009C494046FCF794FA002800F0B4829A49A7
:103D00004046FCF78DFA0446002800F08F8397495F
:103D10004046FCF785FA0446002800F00B849449DD
:103D20004046FCF77DFA0446002800F035859149AD
:103D30004046FCF775FA0446002800F001868E49DB
:103D40004046FCF76DFA0446002800F07F868B4958
:103D50004046FCF765FA0446002800F06187884970
:103D60004046FCF75DFA0446002840F047872A9059
:103D70003B78002B00F0038708F08EFD2AAD04602D
:103D80000A222946384607F019FF044608F084FD48
:103D90000368002B40F0F4862A9B9F4200F0F086D7
:103DA0001B78002B40F0EC86631C02D0012C41F004
:103DB0006F8060B2FDF7C8FDFDF7D0FBFEF700F89D
:103DC000002840F0C7826F4B6F4A6021284608F0F8
:103DD00017FC2846FCF784FA0246642392B229466F
:103DE0006A4805F009FE34E4A068FCF7E5FB5C4B8B
:103DF000674ACDE9000180212AA808F001FC2AA821
:103E0000FCF76EFA0246642392B22AA95F4805F0D5
:103E1000F3FD1EE402F0C0F85E495C48642307220B
:103E200005F0EAFD15E45B4958486423072205F0D4
:103E3000E3FD0EE42178584B584A00912AA88021CE
:103E400008F0DEFB2AA8FCF74BFA0246642392B284
:103E50002AA94E4805F0D0FDFFF7FBBBE068FCF750
:103E6000ABFB404B4A4ACDE9000180212AA808F06B
:103E7000C7FB2AA8FCF734FA0246642392B22AA9A7
:103E8000424805F0B9FDFFF7E4BB454B3E4A6021CF
:103E90002AA808F0B5FB2AA8FCF722FA02466423F8
:103EA00092B22AA9394805F0A7FDFFF7D2BBFDF76A
:103EB000ADFA0028B7D13B4B334A60212AA808F05D
:103EC0009FFB2AA8FCF70CFA0246642392B22AA9A7
:103ED0002E4805F091FDFFF7BCBB6178324B2F4AAD
:103EE00000912AA8802108F08BFB2AA8FCF7F8F99A
:103EF0000246642392B22AA9244805F07DFDFFF70B
:103F0000A8BB2069FCF758FB174B214ACDE90001FB
:103F100080212AA808F074FB2AA8FCF7E1F90246E0
:103F2000642392B22AA9194805F066FDFFF791BBF8
:103F3000FDF7A6FA00287FF476AF1C4B124A6021E9
:103F40002AA808F05DFB2AA8FCF7CAF902466423F8
:103F500092B22AA90D4805F04FFDFFF77ABB00BFCA
:103F6000ECF60008F8F600080CF700081CF700084B
:103F700030F7000840F7000850F7000860F7000825
:103F800070F70008B8F4000868F40008481B002027
:103F90009CF40008B0F4000850F8000888F4000809
:103FA00058F900089CFA000860F80008ACFA00080C
:103FB000002B00F0458108F06FFC2AAD04600A2256
:103FC0002946384607F0FAFD044608F065FC036808
:103FD000002B40F036812A9B9F4200F032811B78F3
:103FE000002B40F02E81012C00F22B81C04940466D
:103FF000E4B2FCF715F9002800F06184BD494046A1
:10400000FCF70EF9002800F00585BB494046FCF797
:1040100007F9002800F0A985B8494046FCF700F9E7
:10402000002800F0BF85B6494046FCF7F9F80028A3
:1040300000F02587B3494046FCF7F2F8002800F06D
:104040003987B1494046FCF7EBF8002800F0448777
:10405000AE494046FCF7E4F8002800F03487AC494C
:104060004046FCF7DDF8002801F01180A9494046E0
:10407000FCF7D6F8002800F0FB87A7494046FCF77C
:10408000CFF8002801F02980A4494046FCF7C8F881
:10409000002801F01380A2494046FCF7C1F800282F
:1040A00040F0DC87204601F0C3F8C4F10E00042183
:1040B000C0B2FDF757FFFDF751FAFEF7FFFFFFF71C
:1040C000C8BA2A903B78002B00F0A78008F0E4FBE8
:1040D0002AAD002303602946384607F091FCB0EE74
:1040E000408A08F0D9FB0368002B40F097802A9B98
:1040F0009F4200F093801B78002B40F08F8003A834
:104100008DED058AFEF7AEF9002800F0338303A891
:10411000FEF746F9834B069A1A67FDF71FFAFDF77B
:104120004FFE002840F016817F4B804A60212846D0
:1041300008F066FA2846FCF7D3F80246642392B2E8
:1041400029467B4805F058FCFFF783BAA1786E4BEF
:10415000784A00912AA8802108F052FA2AA8FCF790
:10416000BFF80246642392B22AA9714805F044FCC4
:10417000FFF76FBA6069FCF71FFA6F4B6F4ACDE922
:10418000000180212AA808F03BFA2AA8FCF7A8F829
:104190000246642392B22AA9654805F02DFCFFF778
:1041A00058BA674B614A60212AA808F029FA2AA860
:1041B000FCF796F80246642392B22AA95C4805F0FF
:1041C0001BFCFFF746BA2AAD5E4B584A60212846D1
:1041D00008F016FA2846FCF783F80246642392B2E8
:1041E0002946534805F008FCFFF733BAFDF75EF99E
:1041F00000287FF418AE544B4C4A60212AA808F0DE
:10420000FFF92AA8FCF76CF80246642392B22AA9A7
:10421000474805F0F1FBFFF71CBA2AAD4B4B434A68
:104220006021284608F0ECF92846FCF759F80246C8
:10423000642392B229463E4805F0DEFBFFF709BA37
:104240002AAD434B394A6021284608F0D9F928465F
:10425000FCF746F80246642392B22946344805F03A
:10426000CBFBFFF7F6B900242A943B78002B00F033
:10427000CA8008F011FB2AAD04602946384607F0D1
:10428000BFFBB0EE408A08F007FB0368002B40F04C
:10429000BB802A9B9F4200F0B7801B78002B40F028
:1042A000B38003A88DED068AFEF7DCF8002800F045
:1042B000108303A8FEF774F81A4B069A1A67FDF7E5
:1042C0004DF9FDF77DFD002844D1174B174A6021B9
:1042D000284608F095F92846FCF702F802466423C0
:1042E00092B22946124805F087FBFFF7B2B900BF2A
:1042F0002CF5000838F5000844F50008D0F5000852
:1043000050F8000860F800087CF800088CF80008F5
:10431000A4F80008C4F80008DCF80008F4F8000865
:1043200010F90008F8070020B8F4000868F4000845
:10433000481B002088F400081CF700089CF40008C3
:1043400028FA00083CFA0008C0FA00086CF90008D6
:1043500048FA0008AC49AD486423072205F04CFB3D
:10436000FFF777B9AA4BAB4A60212AA808F048F9B1
:104370002AA8FBF7B5FF0246642392B22AA9A348F4
:1043800005F03AFBFFF765B92168A34BA34A0091FA
:104390002AA8802108F034F92AA8FBF7A1FF0246D9
:1043A000642392B22AA9994805F026FBFFF751B978
:1043B000E1789B4B9B4A00912AA8802108F020F9C4
:1043C0002AA8FBF78DFF0246642392B22AA98F48E0
:1043D00005F012FBFFF73DB9FDF78EF800287FF4DA
:1043E00022AD914B8B4A60212AA808F009F92AA82E
:1043F000FBF776FF0246642392B22AA9834805F0B0
:10440000FBFAFFF726B92AAD884B824A602128467D
:1044100008F0F6F82846FBF763FF0246642392B2E1
:1044200029467A4805F0E8FAFFF713B92A903B7855
:10443000002B6CD008F030FA2AAD046029463846CB
:1044400007F0DEFAB0EE408A08F026FA0368002B87
:104450005ED12A9B9F425BD01B78002B58D103A8CA
:104460008DED078AFDF7FEFF002800F0DD8203A82E
:10447000FDF796FFFDF772F8FDF7A2FC00287FF428
:1044800069AF6B4B634A6021284608F0B9F82846AB
:10449000FBF726FF0246642392B229465B4805F0EB
:1044A000ABFAFFF7D6B86168624B5C4A00912AA864
:1044B000802108F0A5F82AA8FBF712FF0246642322
:1044C00092B22AA9514805F097FAFFF7C2B82179AC
:1044D000594B544A00912AA8802108F091F82AA843
:1044E000FBF7FEFE0246642392B22AA9474805F074
:1044F00083FAFFF7AEB8FDF72DFEFCF71DFF42492A
:1045000042486423072205F077FAFFF7A2B82AADE4
:104510004A4B404A6021284608F072F82846FBF7CB
:10452000DFFE0246642392B22946384805F064FA59
:10453000FFF78FB82A903B78002B00F0088108F035
:10454000ABF92AAD04602946384607F059FAB0EEB7
:10455000408A08F0A1F90368002B40F0F9802A9BFB
:104560009F4200F0F5801B78002B40F0F18003A8FB
:104570008DED088AFDF776FF002800F0B98203A8C8
:10458000FDF70EFFFCF7EAFFFDF71AFC00287FF4A9
:10459000E1AE274B1F4A6021284608F031F8284633
:1045A000FBF79EFE0246642392B22946174805F0A7
:1045B00023FAFFF74EB86179214B1A4A00912AA8D5
:1045C000802108F01DF82AA8FBF78AFE0246642322
:1045D00092B22AA90D4805F00FFAFFF73AB8FDF795
:1045E000BDF9184B0D4A009080212AA808F008F860
:1045F0002AA8FBF775FE0246642392B22AA9034853
:1046000005F0FAF9FFF725B8B0F40008481B0020C0
:104610003CF8000868F4000830F7000874F400085B
:104620008CF8000888F40008D0FA000880F9000827
:10463000B8F4000840F70008A4F8000898F900084A
:10464000C4F8000850F70008AB493046FBF7E8FD16
:10465000002800F03082A9493046FBF7E1FD002830
:1046600000F0BA82A6493046FBF7DAFD044600287E
:1046700040F06583B8F1000F00F0DE842A9098F8CE
:104680000030002B00F0D68308F006F92AAD046054
:104690000A222946404607F091FA044608F0FCF841
:1046A0000368002B40F0C7832A9B984500F0C38322
:1046B0001B78002B40F0BF832046FCF743FF002807
:1046C0007FF4B1AB8F4B904A6021284607F098FFEA
:1046D0002846FBF705FE0246642392B229468B4822
:1046E00005F08AF9FEF7B5BFFDF7DCF80346884808
:1046F00090F89820002A40F0AB80D0F8A420002A3F
:1047000040F0A680062B00F0A380032B00F0A080D1
:10471000FEF756FB00F094FD01210820FDF722FC76
:10472000FDF74EFB00287FF47EAB7A4B764A602182
:104730002AA807F065FF2AA8FBF7D2FD02466423EA
:1047400092B22AA9714805F057F9FEF782BF2AAD47
:10475000714B6D4A6021284607F052FF2846FBF74F
:10476000BFFD0246642392B22946684805F044F929
:10477000FEF76FBF694B644A6021284607F040FF8F
:104780002846FBF7ADFD0246642392B229465F48F6
:1047900005F032F9FEF75DBF2A903B78002B7BD005
:1047A00008F07AF82AAD04600A222946384607F054
:1047B00005FA044608F070F80368002B6DD12A9BB7
:1047C0009F426AD01B78002B67D103A80394FDF7A2
:1047D00049FE002800F0EE8103A8FDF7E1FDFCF79B
:1047E000BDFEFDF7EDFA00287FF4B4AD494B464A13
:1047F0006021284607F004FF2846FBF771FD0246BA
:10480000642392B22946414805F0F6F8FEF721BF2D
:10481000FDF7AAF810EE100AFBF7CEFE404B414A16
:10482000CDE9000180212AA807F0EAFE2AA8FBF7BB
:1048300057FD0246642392B22AA9344805F0DCF8F9
:10484000FEF707BFA1793848FEF7FEFBFEF701BF70
:10485000364B2D4A60212AA807F0D2FE2AA8FBF782
:104860003FFD0246642392B22AA9284805F0C4F805
:10487000FEF7EFBE2E4B244A60212AA807F0C0FEA7
:104880002AA8FBF72DFD0246642392B22AA91F48ED
:1048900005F0B2F8FEF7DDBE2AAD264B1A4A6021BC
:1048A000284607F0ADFE2846FBF71AFD02466423B2
:1048B00092B22946154805F09FF8FEF7CABE204679
:1048C000FDF72AF9FCF74AFE1B48FEF727FCFEF726
:1048D000C0BE1A4B0C4A6021284607F091FE2846BC
:1048E000FBF7FEFC0246642392B22946074805F016
:1048F00083F8FEF7AEBE00BF3CFB000870FB00086B
:104900008CFB0008B8FB000868F40008481B002076
:10491000F8070020B8F40008ACF900086CF90008AA
:1049200060F700089CF40008DCF8000800FB0008B1
:1049300028FB0008C4F90008B0F4000880F900085A
:104940002A903B78002B52D007F0A6FF2AAD0460D6
:104950000A222946384607F031F9044607F09CFF41
:104960000368002B44D12A9B9F4241D01B78002B27
:104970003ED103A80494FDF775FD002800F06D8278
:1049800003A8FDF70DFDFCF7E9FDFDF719FA002876
:104990007FF4E0ACC04BC14A6021284607F030FEEE
:1049A0002846FBF79DFC0246642392B22946BC4888
:1049B00005F022F8FEF74DBEFCF7DCFFB94BBA4A12
:1049C000009080212AA807F01BFE2AA8FBF788FC8C
:1049D0000246642392B22AA9B14805F00DF8FEF709
:1049E00038BEE179B148FEF72FFBFEF732BE2AADA3
:1049F000AF4BAA4A6021284607F002FE2846FBF783
:104A00006FFC0246642392B22946A54804F0F4FFE5
:104A1000FEF71FBE2046FDF7ADF8FCF79FFDA54849
:104A2000FEF77CFBFEF715BEA34B9C4A602128468F
:104A300007F0E6FD2846FBF753FC0246642392B2DA
:104A40002946974804F0D8FFFEF703BE2A903B782A
:104A5000002B5FD007F020FF2AAD04600A22294610
:104A6000384607F0ABF8044607F016FF0368002B42
:104A700051D12A9B9F424ED01B78002B4BD1204610
:104A8000FCF756FFFCF76AFDFDF79AF900287FF462
:104A900061AC814B814A6021284607F0B1FD284670
:104AA000FBF71EFC0246642392B229467C4804F0C0
:104AB000A3FFFEF7CEBD814B784A60212AA807F0FC
:104AC0009FFD2AA8FBF70CFC0246642392B22AA998
:104AD000734804F091FFFEF7BCBD7948FEF780FAF9
:104AE000FEF7B7BD217A7748FEF7AEFAFEF7B1BD03
:104AF000754B6A4A6021284607F082FD2846FBF77D
:104B0000EFFB0246642392B22946654804F074FF25
:104B1000FEF79FBD2AAD6D4B604A6021284607F025
:104B20006FFD2846FBF7DCFB0246642392B2294660
:104B30005B4804F061FFFEF78CBD654BD86DFBF759
:104B40003BFD644B644ACDE9000180212AA807F0AF
:104B500057FD2AA8FBF7C4FB0246642392B22AA998
:104B60004F4804F049FFFEF774BD2046FDF736F8C4
:104B7000FCF7F4FC4F48FEF7D1FAFEF76ABD2AAD08
:104B8000564B464A6021284607F03AFD2846FBF777
:104B9000A7FB0246642392B22946414804F02CFF49
:104BA000FEF757BD204600F0ABFE4248FEF7B6FACE
:104BB000FEF74FBD3E4B394A6021284607F020FDE5
:104BC0002846FBF78DFB0246642392B229463448FF
:104BD00004F012FFFEF73DBD414B304A60212AA888
:104BE00007F00EFD2AA8FBF77BFB0246642392B276
:104BF0002AA92B4804F000FFFEF72BBD394B274AAA
:104C000060212AA807F0FCFC2AA8FBF769FB0246F2
:104C1000642392B22AA9224804F0EEFEFEF719BDE1
:104C20002A903B78002B77D007F036FE2AAD04603F
:104C30002946384606F0E4FEB0EE408A07F02CFE26
:104C40000368002B69D12A9B9F4266D01B78002BFA
:104C500063D1B5EEC08AF1EE10FA40F25D81B0EE9C
:104C6000480AFCF76BFEFCF779FCFDF7A9F8002871
:104C70007FF470AB084B094A6021284607F0C0FC5E
:104C80002846FBF72DFB0246642392B229460448CE
:104C900004F0B2FEFEF7DDBCB8F4000868F40008CA
:104CA000481B002070F7000874F40008F4F80008AE
:104CB000C4F90008B0F4000898F9000850FB000897
:104CC00040F9000810F90008ACF90008D8F900080C
:104CD000F80700207CF700089CF4000800FA0008A0
:104CE00078FB000814FA0008BD4B186EFBF764FC53
:104CF000BC4BBD4ACDE9000180212AA807F080FC09
:104D00002AA8FBF7EDFA0246642392B22AA9B74813
:104D100004F072FEFEF79DBC2AADB54BB54A60218A
:104D2000284607F06DFC2846FBF7DAFA02466423B2
:104D300092B22946AD4804F05FFEFEF78ABCAE4948
:104D40003046FBF76DFA002844D1B8F1000F00F0AF
:104D5000A7812A9098F80030002B00F0F48007F02B
:104D60009BFD002202602AA90A22404606F026FF87
:104D7000044607F091FD0368002B40F0E4802A9B75
:104D8000984500F0E0801B78002B40F0DC80204646
:104D9000FCF7DCFB002840F0D1809848FEF720F9B2
:104DA000FEF757BC8E4B586EFBF706FC944B8E4AB1
:104DB000CDE9000180212AA807F022FC2AA8FBF7F0
:104DC0008FFA0246642392B22AA9884804F014FE9E
:104DD000FEF73FBC8B493046FBF722FA002840F033
:104DE0008980B8F1000F00F03E8100242A9498F8E1
:104DF0000030002B79D007F04FFD0A2204602AA969
:104E0000404606F0DBFE044607F046FD0368002B33
:104E10006BD12A9B984568D01B78002B65D1204622
:104E2000FCF792FB002840F089807748FEF7D8F81D
:104E3000FEF70FBC2AAD754B6E4A6021284607F07D
:104E4000DFFB2846FBF74CFA0246642392B2294660
:104E5000664804F0D1FDFEF7FCBB6D4B654A60214E
:104E6000284607F0CDFB2846FBF73AFA02466423B2
:104E700092B229465D4804F0BFFDFEF7EABB20462A
:104E800000F096F9FCF76AFBFEF718F9FEF7E1BBB4
:104E9000604B584A6021284607F0B2FB2846FBF7D2
:104EA0001FFA0246642392B22946504804F0A4FD3A
:104EB000FEF7CFBB204600F083F9FCF74FFBFEF76F
:104EC000FDF8FEF7C6BB204600F08AF9FCF746FB6A
:104ED000FEF7F4F8FEF7BDBB204600F079F9FCF7C9
:104EE0003DFBFEF7EBF8FEF7B4BB4B48FEF778F856
:104EF000FEF7AFBB494B3F4A60212AA807F080FB71
:104F00002AA8FBF7EDF90246642392B22AA9374892
:104F100004F072FDFEF79DBB354B364A60212846F2
:104F200007F06EFB2846FBF7DBF90246642392B2DA
:104F300029462E4804F060FDFEF78BBB3848FEF78B
:104F4000EDF8FEF786BB3748FEF74AF8FEF781BB5F
:104F5000234B354AB3F85410344B89B200912AA838
:104F6000802107F04DFB2AA8FBF7BAF9024664231B
:104F700092B22AA91D4804F03FFDFEF76ABB184B08
:104F8000D86EFBF719FB2A4B174ACDE900018021A7
:104F90002AA807F035FB2AA8FBF7A2F902466423EA
:104FA00092B22AA9114804F027FDFEF752BB0C4B20
:104FB000986EFBF701FB1F4B0B4ACDE900018021E6
:104FC0002AA807F01DFB2AA8FBF78AF902466423EA
:104FD00092B22AA9054804F00FFDFEF73ABB00BFC4
:104FE000F807002088F700089CF40008481B002000
:104FF000ECF9000868F40008CCFB00080CFC000881
:1050000094F7000824FC000850FC0008A8FB0008E6
:10501000C4F9000800FA000840FC000864FC00081D
:10502000B0F40008F4FB000874F40008C0F70008AE
:10503000B0F70008A0F700083F4B404A60212AA8BB
:1050400007F0DEFA2AA8FBF74BF90246642392B276
:105050002AA93B4804F0D0FCFEF7FBBA3948FDF71B
:10506000BFFFFEF7F6BA3848FDF7BAFFFEF7F1BA10
:10507000204600F0C5F8C4F10E000121C0B2FCF7D3
:1050800071FFFCF76BFAFEF719F8FEF7E2BA20465B
:1050900000F0AEF8FCF762FAFEF710F8FEF7D9BAA6
:1050A0002A48FDF79DFFFEF7D4BA294B2948B3F8EB
:1050B000561089B2FDF7AEFFFEF7CBBA204600F0DE
:1050C000AFF8C4F10E000321C0B2FCF74BFFFCF7B0
:1050D00045FAFDF7F3FFFEF7BCBA204600F098F85A
:1050E000C4F10E000221C0B2FCF73CFFFCF736FA17
:1050F000FDF7E4FFFEF7ADBA1748FDF771FFFEF7C5
:10510000A8BA134B154893ED200AFDF7B7FFFEF739
:10511000A0BA0F4B1248B3F85A1089B2FDF77AFFC4
:10512000FEF797BA0A4B0F48B3F8581089B2FDF74B
:1051300071FFFEF78EBA00BF98FB000868F4000804
:10514000481B002060FA000830FC0008DCFB000867
:10515000F8070020D0F7000828F8000810F8000829
:10516000F8F70008E0F70008034B00224FF4803105
:10517000C3E900121A727047B00B0020034B0022E3
:105180004FF48031C3E900121A727047B00B00204F
:1051900000487047B00B0020034628B159680068EA
:1051A000024A03C21B7A1370704700BFB00B002085
:1051B0000038024B18BF012018707047B00B002058
:1051C0000038024B18BF012058707047B00B002008
:1051D0000038024B18BF012098707047B00B0020B8
:1051E0000038024B18BF0120D8707047B00B002068
:1051F0000038024B18BF012018717047B00B002017
:105200000038024B18BF012058717047B00B0020C6
:105210000038024B18BF012098717047B00B002076
:105220000038024B18BF0120D8717047B00B002026
:105230000038024B18BF012018727047B00B0020D5
:1052400030B40648064D074C0749084A00232B6036
:105250002360036030BC0B6013607047C40B0020F8
:10526000CC0B0020C80B0020C00B0020BC0B002082
:105270000346C0B1027B02F0FF00AAB193ED1D7A94
:10528000F2EE007AB4EEE77AF1EE10FA0BD493ED79
:105290001D7AF3EE0E7AB4EEE77AF1EE10FA94BFCF
:1052A0000120002070470020704700BF2DE9F04129
:1052B00004460E461746FDF76FF8002C00F0AA8052
:1052C000002E00F0A780D4ED177AD4ED186A94ED83
:1052D000197A237BF0EEE66AF0EEE77AF4EEE67AEE
:1052E000F1EE10FAB8BFF0EE667AB0EEC77AF4EEDF
:1052F000C77AF1EE10FAD0ED036A0546B8BFF0EEBA
:10530000477A03F0FF08002B4BD094ED1D6AB2EEF4
:10531000007AB4EEC76A94ED1D6AF1EE10FAB3EEAE
:105320000E7AB4EEC76A79D5F1EE10FAF4EEE76AB8
:1053300000F3AB80F1EE10FA40F12981A94A13681D
:10534000022B00F261814FF000080133032B136040
:1053500000F07781A44A1368632B40F22B81072069
:10536000FCF780FEB8F1000F2FD0A04A1368632B22
:1053700000F2AE800133642B136000F0A9804FF07F
:1053800001084FB39A499B4A00230B601360B8F1A0
:10539000000F6FD1FCF7F0FE003818BF0120BDE808
:1053A000F081F4EEE76AF1EE10FA52D58D4A1368F7
:1053B000022B04D80133032B136040F03681012007
:1053C000FCF750FE884BC3F800804FF00108874B74
:1053D00000221A60002FD5D1FCF764FAD4ED067ACA
:1053E0002B68FDEEE77AA3F57A7217EE903A9A42AF
:1053F000074642DC6A6802F57A729A423DDBD4F8CD
:10540000A030062F6AD07A4B00221A60794B002216
:105410001A60BCE7BDE8F041FCF7AEBEF1EE10FA51
:10542000F4EEE76A47DCF1EE10FA40F1A2806D4A33
:105430001368022B04D80133032B136040F0F9806A
:105440000120FCF70FFE684B00221A604FF00008A5
:10545000BDE7644BC3F80080634BC3F80080634B27
:10546000C3F80080002F63D0614A624BC2F800800D
:10547000C3F800800120BDE8F081D4F8A030002BF3
:10548000BFD00320FCF7EEFDBBE7F1EE10FA52D5DA
:10549000544A1368022B40F28A800120FCF7E2FD97
:1054A000514A1368632B51D80133642B13600AD11E
:1054B0004FF0010853E7F1EE10FA4BD449494A4A3C
:1054C00000230B601360494A1368632B7FF652AFC9
:1054D0000820FCF7C7FD4FF0010852E7D5ED047A2C
:1054E00094ED0C7AF7EE086A67EEA67AB0EEC77A0A
:1054F000B4EEE77AF1EE10FA66DC3D4B00221A605A
:10550000D6ED067AD4ED076A9FED3B7A77EEE67A20
:10551000F0EEE77AF4EEC77AF1EE10FA7FF776AFA5
:10552000344A1368632B57D90320FCF79BFD2EE701
:105530004FF0010850E72B4B2B4A002119601368EC
:10554000632B03D80133642B1360BCD10720FCF715
:1055500089FDB8E7234A1368022B03D80133032BD4
:1055600013606AD10120FCF77DFD1F4B00221A60F9
:10557000A9E71C481C491D4A002303600B60136007
:10558000002F50D01A491B4A0B60136002E7154BDD
:10559000154A002119601368632B04D80133642B6A
:1055A00013607FF412AF0720FCF75CFD0DE74FF0AE
:1055B0000108CAE60133642B13603FF4D0AEB8F1A2
:1055C000000F7FF4D2AE00E7094A1368132B15D9F8
:1055D0000420FCF747FD93E70133642B13607FF44D
:1055E000D6AEA1E7CC0B0020C00B0020BC0B0020E6
:1055F000C80B0020C40B00206F12033B0133142B97
:1056000013607FF47DAFE3E70120FCF72BFD0F4A29
:105610001368632BC7D80133642B13607FF4D5AEB6
:105620004FF000089BE6B846D6E6084BC3F800806A
:10563000CBE6064B00221A6008E7044B00221A60F2
:1056400041E70120FCF70EFD84E600BFC00B0020FF
:105650000B4B1A6E42F0010282B01A661A6E02F00B
:1056600001020092009A9A6D42F080529A659B6DF9
:1056700003F080530193019B02B002F0CFBC00BF46
:1056800000100240FEE700BFFEE700BFFEE700BFDC
:10569000FEE700BFFEE700BF704700BF704700BFD6
:1056A000704700BF00F006BD08B5044800F010FECA
:1056B000BDE80840024800F00BBE00BF8C0200208D
:1056C00020020020014803F047BE00BFF81A002066
:1056D000014803F041BE00BFF81A0020014803F062
:1056E0003BBE00BFF81A0020014803F035BE00BFE2
:1056F000F81A0020014803F02FBE00BFAC1A0020AA
:10570000014803F029BE00BF601A0020014804F0E0
:105710004FBB00BF481B002008B50268044B9A42EB
:1057200000D008BDFDF7F4FCBDE80840FDF71CBF44
:1057300000440040034B02689A4200D07047FDF7D6
:10574000F1BE00BF004400400120704708B507F0DB
:10575000A3F8162303604FF0FF3008BD08B507F02B
:105760009BF816230360FEE770B5161E07DD0C4696
:105770008D19AFF3008004F8010BA542F9D1304632
:1057800070BD00BF70B5161E07DD0C468D1914F8EC
:10579000010BAFF30080A542F9D1304670BD00BFC8
:1057A0004FF0FF30704700BF4FF400534B600020B4
:1057B000704700BF01207047002070470C490D4A18
:1057C0000B6810B50C4C121B2BB11844904207D833
:1057D0000860184610BD094B0B6018449042F7D979
:1057E00007F05AF80C2303604FF0FF33184610BD42
:1057F000D00B00200080002000040000381D002095
:10580000034AD2F8883043F47003C2F888307047F6
:1058100000ED00E030B40749074C0848084A094D3C
:1058200000230B8001212380038011702B6030BC8A
:10583000704700BF5C0C00205A0C0020580C002060
:1058400008000020540C002010B1274B1B7803B92E
:1058500070472DE9F04188B0044600F037FC234A38
:105860001368054613B1C31A132B31D92368204F8F
:105870001560002B18BF1D463B88DFF88080A446CA
:105880009BB21C4CC3EBC30304EB8304BCE80F00C6
:105890000DF1040E7646AEE80F009CE80700019576
:1058A0008EE807000FCE0FC49EE8070084E80700CB
:1058B0003B88013303F07F033B80B8F800309BB294
:1058C0007F2B08D8B8F8003001339BB2A8F800301D
:1058D00008B0BDE8F081084A1388013303F07F0364
:1058E000138008B0BDE8F08108000020540C0020AF
:1058F0005C0C0020600C00205A0C0020580C00208A
:1059000072B6084B003818BF012018701B7803F0DE
:10591000FF022BB904480549054B02800A801A8012
:1059200062B67047080000205C0C00205A0C002072
:10593000580C0020014B1878704700BF0800002069
:10594000254B1B78002B46D02DE9F04788B072B666
:10595000224C23889BB2002B39D02148214903884F
:105960009BB2C3EBC30301EB830251F823300188E0
:1059700055689668B2F914E0B2F9168092F818905A
:1059800092F819A0013101F07F01018021880139CD
:1059900089B2D2E9037C218062B6134A1348CDE96B
:1059A00004E8CDE9027C8021CDE9069ACDE90056D4
:1059B00006F026FE0D48FAF793FC0C4902460C4807
:1059C000322392B208B0BDE8F04704F015B862B6D1
:1059D00008B0BDE8F087704708000020580C002090
:1059E0005A0C0020600C002070FC0008D40B002032
:1059F000481B00200000000000B52B4891B0002398
:105A0000CDE90433CDE90633CDE90133CDE90833DF
:105A1000CDE90A33CDE90C3303930E938360036120
:105A200083614FF080421123C0E9002340F2E73345
:105A3000C36003F0B3F810BB4FF480531A480493CB
:105A400004A903F073FB40BB174803F027F908BB18
:105A500000231548019301A9039303F01FFFB0B978
:105A60009FED0F7B002210480A9208A98DED087B5C
:105A70000C9203F097FD28B911B05DF804FBFDF717
:105A80004DF8D9E7FDF74AF811B05DF804FBFDF7D2
:105A900045F8E5E7FDF742F8DAE7FDF73FF8D3E729
:105AA00010000000F3010000AC1A002010B58CB00B
:105AB0002022002104A806F01CFE1448144C0460A7
:105AC0004FF6FF71C160032100230122039103A956
:105AD000C0E90133CDE9013300930361836105928D
