:020000040800F2
:1000000000800020AD6B00082D6100083161000800
:1000100035610008396100083D61000800000000FA
:100020000000000000000000000000004161000826
:100030004561000800000000496100084D610008AA
:10004000FD6B0008FD6B0008FD6B0008FD6B0008F0
:10005000FD6B0008FD6B0008FD6B0008FD6B0008E0
:10006000FD6B0008FD6B0008FD6B0008FD6B0008D0
:10007000FD6B0008FD6B0008FD6B0008FD6B0008C0
:10008000FD6B00080000000051610008FD6B0008D6
:10009000FD6B0008FD6B0008FD6B0008FD6B0008A0
:1000A0006D610008796100088561000891610008B0
:1000B0009D610008FD6B0008A9610008FD6B000848
:1000C000FD6B0008FD6B0008FD6B0008FD6B000870
:1000D000FD6B0008FD6B0008B5610008FD6B0008B2
:1000E000FD6B0008FD6B0008FD6B0008FD6B000850
:1000F000FD6B0008FD6B0008FD6B000800000000B0
:1001000000000000FD6B000800000000FD6B00080F
:10011000FD6B000800000000FD6B0008FD6B00088F
:10012000FD6B0008FD6B0008FD6B0008FD6B00080F
:10013000FD6B00080000000000000000FD6B0008DF
:10014000FD6B0008FD6B00080000000000000000CF
:10015000000000000000000000000000000000009F
:10016000000000000000000000000000FD6B00081F
:10017000FD6B00080000000000000000000000000F
:1001800000000000FD6B00080000000000000000FF
:10019000000000000000000000000000000000005F
:1001A0000000000000000000FD6B0008FD6B00086F
:1001B000FD6B0008FD6B0008FD6B000800000000EF
:1001C00000000000FD6B00080000000000000000BF
:0801D000FD6B0008FD6B000847
:1001E00010B5054C237833B9044B13B10448AFF371
:1001F00000800123237010BDF801002000000000E2
:10020000440E010808B5034B1BB103490348AFF383
:10021000008008BD00000000FC010020440E010821
:1002200010F8012B11F8013B012A28BF9A42F7D0A0
:10023000D01A70470000000000000000000000001D
:1002400001F0FF01102A2BDB10F0070F08D010F887
:10025000013B013A8B422DD010F0070F42B3F6D18B
:10026000F0B441EA012141EA014122F007047FF0A4
:1002700000070023F0E80256083C85EA010586EAFB
:10028000010685FA47F5A3FA87F586FA47F6A5FA37
:1002900087F68EB9EED1F0BC01F0FF0102F0070243
:1002A00032B110F8013B013A83EA010313B1F8D1EE
:1002B0000020704701387047002D06BF35460338CF
:1002C000073815F0010F07D1013015F4807F02BF08
:1002D000013015F4C03F0130F0BC0138704700BF59
:1002E000034613F8012B002AFBD1181A0138704776
:1002F00081F0004102E000BF83F0004330B54FEAD7
:1003000041044FEA430594EA050F08BF90EA020F43
:100310001FBF54EA000C55EA020C7FEA645C7FEAD6
:10032000655C00F0E2804FEA5454D4EB5555B8BFF9
:100330006D420CDD2C4480EA020281EA030382EA6A
:10034000000083EA010180EA020281EA0303362DFC
:1003500088BF30BD11F0004F4FEA01314FF4801CCF
:100360004CEA113102D0404261EB410113F0004FE1
:100370004FEA03334CEA133302D0524263EB430398
:1003800094EA050F00F0A780A4F10104D5F1200E36
:100390000DDB02FA0EFC22FA05F2801841F1000191
:1003A00003FA0EF2801843FA05F359410EE0A5F165
:1003B00020050EF1200E012A03FA0EFC28BF4CF096
:1003C000020C43FA05F3C01851EBE37101F000454C
:1003D00007D54FF0000EDCF1000C7EEB00006EEB59
:1003E0000101B1F5801F1BD3B1F5001F0CD34908E3
:1003F0005FEA30004FEA3C0C04F101044FEA44523A
:1004000012F5800F80F09A80BCF1004F08BF5FEAC0
:10041000500C50F1000041EB045141EA050130BDA0
:100420005FEA4C0C404141EB0101013C28BFB1F5B2
:10043000801FE9D291F0000F04BF01460020B1FAFD
:1004400081F308BF2033A3F10B03B3F120020CDAD0
:100450000C3208DD02F1140CC2F10C0201FA0CF0AE
:1004600021FA02F10CE002F11402D8BFC2F1200C13
:1004700001FA02F120FA0CFCDCBF41EA0C019040C9
:10048000E41AA2BF01EB0451294330BD6FEA040412
:100490001F3C1CDA0C340EDC04F11404C4F12002FD
:1004A00020FA04F001FA02F340EA030021FA04F30F
:1004B00045EA030130BDC4F10C04C4F1200220FA66
:1004C00002F001FA04F340EA0300294630BD21FAA4
:1004D00004F0294630BD94F0000F83F4801306BF6A
:1004E00081F480110134013D4EE77FEA645C18BF5E
:1004F0007FEA655C29D094EA050F08BF90EA020FF5
:1005000005D054EA000C04BF1946104630BD91EAEC
:10051000030F1EBF0021002030BD5FEA545C05D1EF
:100520004000494128BF41F0004130BD14F580042E
:100530003CBF01F5801130BD01F0004545F0FE41A2
:1005400041F470014FF0000030BD7FEA645C1ABFD7
:10055000194610467FEA655C1CBF0B46024650EA0E
:10056000013406BF52EA033591EA030F41F400213A
:1005700030BD00BF90F0000F04BF0021704730B5C0
:100580004FF4806404F132044FF000054FF0000195
:1005900050E700BF90F0000F04BF0021704730B556
:1005A0004FF4806404F1320410F0004548BF40422B
:1005B0004FF000013EE700BF42004FEAE2014FEA80
:1005C00031014FEA02701FBF12F07F4393F07F4F5B
:1005D00081F06051704732F07F4208BF704793F05E
:1005E0007F4F04BF41F40021704730B54FF4607471
:1005F00001F0004521F000411CE700BF50EA010274
:1006000008BF704730B54FF000050AE050EA01021C
:1006100008BF704730B511F0004502D5404261EB8C
:1006200041014FF4806404F132045FEA915C3FF4CD
:10063000D8AE4FF003025FEADC0C18BF03325FEA6A
:10064000DC0C18BF033202EBDC02C2F1200300FA1B
:1006500003FC20FA02F001FA03FE40EA0E0021FA40
:1006600002F11444BDE600BF70B54FF0FF0C4CF42E
:10067000E06C1CEA11541DBF1CEA135594EA0C0FE0
:1006800095EA0C0F00F0DEF82C4481EA030621EA1B
:100690004C5123EA4C5350EA013518BF52EA033556
:1006A00041F4801143F4801338D0A0FB02CE4FF008
:1006B0000005E1FB02E506F00042E0FB03E54FF038
:1006C0000006E1FB03569CF0000F18BF4EF0010E30
:1006D000A4F1FF04B6F5007F64F5407404D25FEA2C
:1006E0004E0E6D4146EB060642EAC62141EA5551DF
:1006F0004FEAC52040EA5E504FEACE2EB4F1FD0C21
:1007000088BFBCF5E06F1ED8BEF1004F08BF5FEA9E
:10071000500E50F1000041EB045170BD06F0004650
:1007200046EA010140EA020081EA0301B4EB5C04FD
:10073000C2BFD4EB0C0541EA045170BD41F48011F5
:100740004FF0000E013C00F3AB8014F1360FDEBF1A
:10075000002001F0004170BDC4F10004203C35DAF6
:100760000C341BDC04F11404C4F1200500FA05F379
:1007700020FA04F001FA05F240EA020001F000421A
:1007800021F0004110EBD37021FA04F642EB060190
:100790005EEA430E08BF20EAD37070BDC4F10C04BA
:1007A000C4F1200500FA04F320FA05F001FA04F27E
:1007B00040EA020001F0004110EBD37041F100016A
:1007C0005EEA430E08BF20EAD37070BDC4F1200575
:1007D00000FA05F24EEA020E20FA04F301FA05F2DD
:1007E00043EA020321FA04F001F0004121FA04F285
:1007F00020EA020000EBD3705EEA430E08BF20EA55
:10080000D37070BD94F0000F0FD101F0004640008E
:1008100041EB010111F4801F08BF013CF7D041EA10
:10082000060195F0000F18BF704703F00046520014
:1008300043EB030313F4801F08BF013DF7D043EAE5
:100840000603704794EA0C0F0CEA135518BF95EA9B
:100850000C0F0CD050EA410618BF52EA4306D1D122
:1008600081EA030101F000414FF0000070BD50EA41
:10087000410606BF1046194652EA430619D094EACB
:100880000C0F02D150EA013613D195EA0C0F05D1B5
:1008900052EA03361CBF104619460AD181EA030109
:1008A00001F0004141F0FE4141F470014FF00000C1
:1008B00070BD41F0FE4141F4780170BD70B54FF05C
:1008C000FF0C4CF4E06C1CEA11541DBF1CEA1355DC
:1008D00094EA0C0F95EA0C0F00F0A7F8A4EB0504BE
:1008E00081EA030E52EA03354FEA013100F08880B5
:1008F0004FEA03334FF0805545EA131343EA12637E
:100900004FEA022245EA111545EA10654FEA002632
:100910000EF000419D4208BF964244F1FD0404F5EB
:10092000407402D25B084FEA3202B61A65EB030547
:100930005B084FEA32024FF480104FF4002CB6EB04
:10094000020E75EB030E22BFB61A754640EA0C0084
:100950005B084FEA3202B6EB020E75EB030E22BFC4
:10096000B61A754640EA5C005B084FEA3202B6EB05
:10097000020E75EB030E22BFB61A754640EA9C00C4
:100980005B084FEA3202B6EB020E75EB030E22BF94
:10099000B61A754640EADC0055EA060E18D04FEA52
:1009A000051545EA16754FEA06164FEAC30343EAF2
:1009B00052734FEAC2025FEA1C1CC0D111F4801FBF
:1009C0000BD141EA00014FF000004FF0004CB6E7B8
:1009D00011F4801F04BF01430020B4F1FD0C88BF57
:1009E000BCF5E06F3FF6AFAEB5EB030C04BFB6EB62
:1009F000020C5FEA500C50F1000041EB045170BD55
:100A00000EF0004E4EEA113114EB5C04C2BFD4EB81
:100A10000C0541EA045170BD41F480114FF0000E05
:100A2000013C90E645EA060E8DE60CEA135594EA81
:100A30000C0F08BF95EA0C0F3FF43BAF94EA0C0F84
:100A40000AD150EA01347FF434AF95EA0C0F7FF4F9
:100A500025AF104619462CE795EA0C0F06D152EA4D
:100A600003353FF4FDAE1046194622E750EA410631
:100A700018BF52EA43067FF4C5AE50EA41047FF442
:100A80000DAF52EA43057FF4EBAE12E74FF0FF3CA7
:100A900006E000BF4FF0010C02E000BF4FF0010C78
:100AA0004DF804CD4FEA410C7FEA6C5C4FEA430CF1
:100AB00018BF7FEA6C5C1BD001B050EA410C0CBF40
:100AC00052EA430C91EA030F02BF90EA020F0020A2
:100AD000704710F1000F91EA030F58BF994208BF09
:100AE00090422CBFD8176FEAE37040F001007047C6
:100AF0004FEA410C7FEA6C5C02D150EA013C07D11D
:100B00004FEA430C7FEA6C5CD6D152EA033CD3D067
:100B10005DF8040B704700BF8446104662468C4661
:100B20001946634600E000BF01B5FFF7B7FF002894
:100B300048BF10F1000F01BD4DF808EDFFF7F4FFBD
:100B40000CBF012000205DF808FB00BF4DF808ED48
:100B5000FFF7EAFF34BF012000205DF808FB00BF6B
:100B60004DF808EDFFF7E0FF94BF012000205DF88D
:100B700008FB00BF4DF808EDFFF7CEFF94BF012042
:100B800000205DF808FB00BF4DF808EDFFF7C4FF3B
:100B900034BF012000205DF808FB00BF4FEA410C84
:100BA0007FEA6C5C02D150EA013C0AD14FEA430C67
:100BB0007FEA6C5C02D152EA033C02D14FF00000A4
:100BC00070474FF0010070474FEA410212F50012E2
:100BD00015D211D56FF47873B3EB625212D94FEA84
:100BE000C12343F0004343EA505311F0004F23FA6E
:100BF00002F018BF404270474FF00000704750EAC3
:100C0000013005D111F0004008BF6FF0004070477F
:100C10004FF00000704700BF4A0011D212F50012D9
:100C200011D20DD56FF47873B3EB62520ED44FEA44
:100C3000C12343F0004343EA505323FA02F07047C4
:100C40004FF00000704750EA013002D14FF0FF3002
:100C500070474FF0000070474FEA4102B2F1E043A5
:100C600024BFB3F5001CDCF1FE5C0DD901F0004C93
:100C70004FEAC0024CEA5070B2F1004F40EB8300E3
:100C800008BF20F00100704711F0804F21D113F10F
:100C90003872BCBF01F00040704741F480114FEA48
:100CA0005252C2F11802C2F1200C10FA0CF320FAD1
:100CB00002F018BF40F001004FEAC1234FEAD323EE
:100CC00003FA0CFC40EA0C0023FA02F34FEA430358
:100CD000CCE77FEA625307D150EA01331EBF4FF0E1
:100CE000FE4040F44000704701F0004040F0FE40FC
:100CF00040F40000704700BF53B94AB9002908BF4B
:100D000000281CBF4FF0FF314FF0FF3000F0BEB99C
:100D1000ADF1080C6DE904CE00F03CF8DDF804E01C
:100D2000DDE9022304B0704738B5002200230446F1
:100D30000D46FFF70BFF28B920462946BDE838408D
:100D400000F00AB8204605F1004100F005F84042E5
:100D500061EB410138BD00BFD0B50C4B0022064607
:100D60000F46FFF781FCFFF757FF0446FFF702FC31
:100D7000074B0022FFF778FC02460B463046394607
:100D8000FFF7BAFAFFF748FF2146D0BD0000F03D5B
:100D90000000F0412DE9F047089D8E460446884644
:100DA000002B4AD18A42174662D9B2FA82F64EB176
:100DB000C6F1200301FA06F820FA03F3B74043EA2C
:100DC0000808B4404FEA174E1FFA87FCB8FBFEF143
:100DD000230C0EFB118843EA084301FB0CF29A42F4
:100DE00009D9FB1801F1FF3080F0EA809A4240F205
:100DF000E78002393B449A1AA3B2B2FBFEF00EFB25
:100E0000102243EA024300FB0CFC9C4509D9FB1865
:100E100000F1FF3280F0D6809C4540F2D3803B4405
:100E2000023840EA0140A3EB0C0300211DB1F3405E
:100E30000022C5E90032BDE8F0878B4205D90DB12B
:100E4000C5E9000100210846F5E7B3FA83F100295E
:100E500046D1734502D3824200F20581841A6EEBBB
:100E6000030201209046002DE5D0C5E90048E2E7E5
:100E7000002A00F09080B2FA82F6002E40F0A480A2
:100E80008A1A030C4FEA174E80B2BCB20121B2FBA2
:100E9000FEFC0EFB1C2243EA024304FB0CF29A42C6
:100EA00007D9FB180CF1FF3802D29A4200F2E08019
:100EB000C4469B1AB3FBFEF20EFB123340EA034317
:100EC00002FB04F49C4207D9FB1802F1FF3002D266
:100ED0009C4200F2CA8002461B1B42EA0C40A5E776
:100EE000C1F120068B4022FA06F71F430EFA01F4E7
:100EF00020FA06F32EFA06FE4FEA1749234300FABA
:100F000001F81FFA87FCBEFBF9F01C0C09FB10EE80
:100F100044EA0E4400FB0CFEA64502FA01F209D990
:100F20003C1900F1FF3A80F09C80A64540F2998080
:100F300002383C44A4EB0E041FFA83FEB4FBF9F321
:100F400009FB13444EEA044403FB0CFCA44508D9F6
:100F50003C1903F1FF3E80F08280A4457FD9023B1B
:100F60003C4443EA0040A4EB0C04A0FB02EC6445C3
:100F70007346E14662D35FD05DB1B8EB030264EB28
:100F8000090404FA06F622FA01F31E43CC40C5E92F
:100F9000006400214FE7B1FBF2FC010C41EA0E4175
:100FA00080B240EA01423B4638463C46B846BE461F
:100FB0002026B1FBF7F1A2EB080241EA0C4166E7FB
:100FC000014618E710462CE7C6F120022EFA02F37C
:100FD000B740B14020FA02F24FEA174E0A43B3FB82
:100FE000FEF8BCB20EFB1833110C41EA034108FBBA
:100FF00004F9B04089454FEA104380B23ED97918D0
:1010000008F1FF3C01D289451FD8A1EB0901B1FBD2
:10101000FEF909FB04F80EFB191192B242EA0142F3
:10102000424529D2BA1809F1FF31C4D24245C2D291
:10103000A9F102013A44BEE7F0459DD2BEEB02039E
:101040006CEB070C0138E14696E7A7EB0909494428
:10105000A8F1020CB1FBFEF909FB04F8DBE77346CB
:101060007FE7504666E70846FDE63B44023A33E731
:10107000ACF1020C3B441CE749469CE7A1EB09019B
:10108000C446B1FBFEF909FB04F8C4E7704700BF92
:1010900010B500249AB03C2221460BA8CDE90044AB
:1010A00002940CF022FA2022214603A80CF01DFA2B
:1010B00030484FF0A0430360042383610123C0E95B
:1010C0000144C0E90344C0E90B444461848380F8CF
:1010D000244080F83840C46380F84040036205F043
:1010E000D7FD002839D10023012222480092694609
:1010F000CDE9013306F06EFF002838D11E480922E1
:101100000023CDE90B027F200422CDE90D300F92A0
:1011100001208422139015921648109380220BA967
:10112000ADF850308DF8523016928DF85C3006F0E4
:1011300053FCC8B9114A06237F200724CDE90323B5
:10114000CDE90540042200230A4803A9CDE907237D
:1011500005F0BCFF20B91AB010BD02F033FCC2E7A5
:1011600002F030FC1AB010BD02F02CFCE2E702F0F5
:1011700029FCC3E7840200200800900C0200300420
:1011800010B590B03C22002101A80CF0AEF91C482B
:101190001C490422002382610122C0E90013C0E936
:1011A0000233C0E904338383026280F8243080F87C
:1011B0003830C36380F8403005F06AFDC8B9124882
:1011C0000922CDE90102042000237F240122059099
:1011D00001A90B480693CDE903340992ADF82830F4
:1011E0008DF82A308DF8343006F0F6FB20B910B0B7
:1011F00010BD02F0E7FBE2E702F0E4FB10B010BD27
:1012000018020020000100500800900C00000000AF
:1012100010B504469AB00021442209A8CDE9041172
:10122000CDE9061108910CF060F92368B3F1A04FE5
:1012300004D03D4A93423BD01AB010BD4FF4004257
:101240004FF0805309A80992189308F077F8002806
:101250005BD1364A13680133012B136009D1344B3B
:10126000DA6C42F40052DA64DB6C03F4005300934E
:10127000009B2F4BDA6C42F00102DA64DB6C9FEDCD
:10128000267B03F0010301938DED047B019B04A9F0
:1012900000244FF09040069407F0C8F9224604213C
:1012A000122006F00DFF122006F046FF1AB010BD06
:1012B0004FF400424FF0805309A80992189308F0A8
:1012C0003DF828BB194A13680133012B136009D17B
:1012D000174BDA6C42F40052DA64DB6C03F400530F
:1012E0000293029B124BDA6C42F00102DA64DB6C6F
:1012F0009FED0B7B03F0010303938DED047B039BB8
:1013000004A900244FF09040C5E702F05BFBA0E782
:1013100002F058FBD6E700BF050000000300000004
:1013200040000000030000000001005014020020F3
:101330000010024070B504F0B9FC044600F00CFB4C
:10134000164D08B9237AB3B1D5F8A06000F0DAFEE3
:101350000446F8B916B995F89830CBB100F054FBB3
:10136000A0B995F898308BB100F054FBA0B97CB9C6
:1013700076B1042070BDD5F8A06000F0C3FE48B976
:1013800095F898300124002BE8D101E0012070BDD0
:10139000022070BD082070BD052070BDF007002040
:1013A00038B52DED028B08EE900ADFED3B7A3B4C11
:1013B000F8EEE88A94ED078A68EEA78ADFED387ABE
:1013C00038EEC88AB0EEC88AB4EEE78AF1EE10FAB9
:1013D00054D901F0A7FCD0ED057AF5EEC07AF1EE14
:1013E00010FAC8BF88EE277AD0ED047AD4BF9FEDFB
:1013F0002D1AB1EEC71AF5EEC07AC8BF31EE011A48
:10140000F1EE10FACABF38EE088A9FED267A88EE10
:10141000277AD4ED047AB4EEC71AF1EE10FA77EE1B
:10142000A77AB8BFB0EE471AB4EEE71AF1EE10FA99
:1014300044BF94ED041A31EE011AB5EEC01AF1EE74
:1014400010FA17D9184D94ED070A2846F0EE680AED
:1014500005F004FAAB69C4F8903095ED070A01F085
:1014600093FD062084ED250A00F002FABDEC028B04
:10147000012038BDBDEC028B002038BD0A4BC4ED05
:10148000248A00210122C4F894105A62FFF752FF07
:1014900000F0EEF9EAE700BFBD378635F00700201F
:1014A000BD370635000000004C070020704700BF24
:1014B00008B500F0E3F9831FDBB2012B07D903283D
:1014C00005D0FFF737FFBDE8084000F0D1B908BDEF
:1014D00038B504F0EBFB044600F014FE08B1002020
:1014E00038BD00F091FA0028F9D10F4D284604F0DC
:1014F0004DFC0028F3D0D5F8A030002BEFD000F041
:101500002BFA68B100F0C0F90028E8D095F89830BF
:10151000002BE4D000F084FA003818BF012038BD59
:10152000237A002BEED1DAE7F007002038B500F07F
:10153000E9FD08B1002038BD074B012583F898501C
:101540000446FFF7F7FE00F093F92146032000F070
:10155000D9FC284638BD00BFF007002010B5064B67
:101560000024012083F8984000F082F921460420ED
:1015700000F0C8FC012010BDF00700200D4A38B56E
:101580000D4B01245462D8695060D86990610021E4
:101590000025D16183F89850DA69C3F890200720BC
:1015A000C3F8941000F064F92946052000F0AAFC65
:1015B000204638BD4C070020F00700200D4A38B502
:1015C0000D4B01245462D8695060D86990610021A4
:1015D0000025D16183F89850DA69C3F8902020463D
:1015E000C3F8941000F044F92946062000F08AFC64
:1015F000204638BD4C070020F007002070B52B4E68
:101600002DED028B044696ED068A04F04FFB05464D
:1016100000F078FD18B1BDEC028B002070BD00F029
:10162000F3F90028F7D1304604F0B0FB0028F2D0DF
:10163000D6F8A030002BEED000F08EF988B300F081
:1016400023F90028E7D096F89830002BE3D000F07B
:10165000E7F90028DFD0FDEEC87A214617EE905A50
:10166000284601F0A9FC0028D5D0E3172C1943EB3C
:10167000E57501F057FB0268D317944275EB03033D
:10168000C9DB01F04FFB4268D317A242AB41C2DB7A
:10169000204601F06BFCBDEC028BBDE87040FFF70B
:1016A0007FBE2B7A002BCAD1B5E700BFF007002020
:1016B00070B5054604F0FAFA044600F023FD08B1BF
:1016C000002070BD00F0A0F90028F9D1144E30467A
:1016D00004F05CFB0028F3D0D6F8A030002BEFD04C
:1016E00000F03AF9B8B100F0CFF80028E8D096F849
:1016F0009830002BE4D000F093F90028E0D0284681
:1017000001F074FC0028DBD0284601F02FFCBDE876
:101710007040FFF745BE237A002BE4D1D0E700BF2D
:10172000F007002008B500F0A9F8831FDBB2022BF8
:1017300006D9032804D0BDE80840022000F098B87C
:1017400008BD00BF30B108B5FFF7F4FDBDE80840A3
:1017500000F08EB8022000F08BB800BF38B52DED38
:10176000028B00F0CFFC58BBFFF7B2FE88B9284AC5
:10177000284B01215162D8695060D86990610021DD
:10178000D161DA69C3F89020C3F89410BDEC028BE4
:1017900038BD00F073F806282BD01E4C94ED1C8A3F
:1017A00001F0C0FAD0ED037AB4EEE78AF1EE10FA58
:1017B000ECDD01F0B7FABDEC028BC368236738BDDE
:1017C000144B134A0020012183F898005162D86914
:1017D0005060BDEC028BD86990610021D161DA695B
:1017E000C3F890200820C3F89410BDE8384000F0FA
:1017F0003FB8074D074C95ED070A01F0C5FB85ED95
:10180000070AAB69C4F89030EB69C4F89430C5E7B7
:101810004C070020F007002008B500F02FF807283B
:1018200019D000F02BF806280CD000F027F8022879
:1018300000D008BDFFF77EFD0228FAD0BDE80840C1
:1018400000F016B8064B5B6A002BEED0FFF772FD76
:1018500000F00EF8E9E7FFF76DFD00F009F8E0E7AA
:101860004C070020014B00221A707047F002002044
:10187000014B1870704700BFF0020020014B187830
:10188000704700BFF002002008B500F03BFC08B133
:10189000002008BD00F0AEF90028F9D0034B1878FD
:1018A000043802288CBF0020012008BDF00200206F
:1018B00009289ABF024B53F820000248704700BF26
:1018C0009416010864160108034B0449596000206E
:1018D000012218601A817047F40200200060EA4675
:1018E000034B044959600020012218601A81704797
:1018F000F40200200060EA4618B107C8014B83E8F3
:1019000007007047F4020020014B1860704700BFC9
:10191000F4020020014B83ED010A7047F40200201D
:101920000028034BB4BF4FF0FF3201221A727047F8
:10193000F4020020014B1868704700BFF402002039
:10194000014B93ED010A7047F4020020014B93F91B
:1019500008007047F4020020014B587A704700BF1E
:10196000F40200200038024B18BF01205872704763
:10197000F4020020014B024A1A6070470003002065
:101980000100000130B41C4A937814785578C3B133
:101990008CB90321A44608460125002364F30703FC
:1019A0006CF30F2365F3174360F31F63136030BCC0
:1019B000022000F0A7BA012100250846AC460C46DB
:1019C000EBE7002CF7D15DB9022805D003280DD133
:1019D000AC4601460125E0E701464FF0010CDCE78B
:1019E0000221254608464FF0010CD6E701210846A2
:1019F000AC460C46D1E700BF00030020014BD8786D
:101A0000704700BF00030020014B1878704700BFEB
:101A100000030020014B5878704700BF00030020EE
:101A2000014B9878704700BF0003002058B300684E
:101A30001F4BC2B210B5B2F1000E18BF4FF0010E2D
:101A40004FF0000110F47F4C18BF4FF0010C6EF303
:101A500007016CF30F2110F47F0F1860C0F3072407
:101A6000198006D00121997072B90321D9705A707A
:101A700010BD4AB974B9DA78022A13D0032A0DD0FE
:101A80000C4A1A6010BD704701210022D970A3F8DA
:101A9000012010BD4FF400725A8010BD01221C803D
:101AA0009A7010BD4FF480721A809C7010BD00BFF8
:101AB0000003002001000001144BA8B95A7899785E
:101AC0001870B2F1000C18BF4FF0010C83F801C080
:101AD00069B9BAB9DA78022A10D0032A04D14FF4CE
:101AE0008072A3F801207047094A1A6070470321E9
:101AF0004FF48072D970A3F8012070470122A3F837
:101B0000012070474FF400725A8070470003002094
:101B100001000001174B10B1174A1A6070471A787C
:101B200099785870B2F1000C18BF4FF0010C83F88F
:101B300000C029B1012199701AB90322DA707047E7
:101B40001AB14FF480725A807047D978022907D0B1
:101B500003290AD001214FF4807219705A8070470E
:101B60004FF4807119809A70704701211A70997032
:101B7000704700BF000300200001000218B11B4B9A
:101B80001B4A1A60704710B4184B1C78597898702B
:101B9000B4F1000C18BF4FF0010C02466CF30702C1
:101BA000B1F1000C18BF4FF0010C6CF30F221A803A
:101BB0004CB991B9DA78022A0BD0032A12D001224B
:101BC000DA701A8002E00122DA7058705DF8044B76
:101BD00070474FF480721A80F8E70222DA705DF8DD
:101BE000044B7047012219809A70EFE70003002030
:101BF0000000010308B500F085FA064B1A7810437F
:101C0000C0B220B99878003818BF012008BD002064
:101C100008BD00BF000300200048704700030020FB
:101C2000014B00221A7070470403002038B5474B5F
:101C3000474AB3F8E0309B0203F1FF6404F5FF2448
:101C40002168914202D16268012A0BD001F04AF862
:101C500004F022F8FFF78EFEFFF742FE3D4B002016
:101C6000187038BDA268382AF0D103F100633A4AEF
:101C7000A3F5FE60A3F5F7614FF0FF3C10F8013BC0
:101C800083EA0C0343F3000C0CEA020C8CEA530CBD
:101C900043F34003134083EA5C034CF3400C0CEA2B
:101CA000020C8CEA530C43F34003134083EA5C03B9
:101CB0004CF3400C0CEA020C8CEA530C43F3400347
:101CC000134083EA5C034CF3400C0CEA020C8CEAF0
:101CD000530C43F340031340814283EA5C0CCDD1A3
:101CE000E3686FEA0C0C9C45B0D104F1100528465E
:101CF00001F07EF80028A9D094F83830013B022B7F
:101D0000A4D8D4ED107AF5EEC07AF1EE10FA9DD990
:101D100094F944305A1C01D0012B97D194F84530E6
:101D2000012B93D8284601F001F804F12C0003F0B0
:101D3000C1FF04F13500FFF779FE04F13C00FFF725
:101D4000DBFD044B0120187038BD00BF0075FF1F7C
:101D500053544B4D040300202083B8ED00000000D5
:101D600070B52DED028B5A4BAAB03C22002109A878
:101D7000B3F8E0400BF0B9FB53A3D3E900233821BB
:101D8000CDE90623089100F0CDFF05460FCD0DF1FA
:101D9000280CACE80F0095E807008CE8070003F07A
:101DA00085FF024600685168127A11AB03C31A70AE
:101DB000FFF732FF0368CDF84D30FFF7BBFD064655
:101DC000FFF7BEFDB0EE408AFFF7C0FD0546FFF706
:101DD000C3FD404A8DF85D00A40215968DED168A6C
:101DE0008DF85C500DF127010DF15F004FF0FF33CE
:101DF00011F801EF8EEA030E4EF300034EF3400C90
:101E0000134083EA5E030CEA020C8CEA530C43F3A2
:101E100040034CF3400E134083EA5C030EEA020ECB
:101E20008EEA530E43F340034EF3400C134083EA13
:101E30005E030CEA020C8CEA530C43F3400313409C
:101E40004CF3400E83EA5C0388420EEA020C8CEAF3
:101E50005303CDD1DB43482206A918A809930BF000
:101E600044FC06F0BDFA0021A4F500630122CDE98F
:101E70000111DB0A01A902A8CDE90323059206F0AE
:101E8000F7FAC8B918AD641B04F1FF642AAE04F573
:101E9000FF24D5E900236119002006F0E9F958B9BB
:101EA0000835B542F5D106F0AFFA0B4B012018709A
:101EB0002AB0BDEC028B70BD06F0A6FA00202AB055
:101EC000BDEC028B70BD00BF53544B4D01000000B0
:101ED0000075FF1F2083B8ED04030020014B187824
:101EE000704700BF0403002003480449044A00234C
:101EF00003800B80138070470A0300200803002032
:101F00000603002038B50C46054604F0BBFE104918
:101F10000B880A889BB2013202F03F0203EB4303B5
:101F20009B000A800B4A0C49D0501A440B8815714B
:101F30009BB23F2B946004D80B8801339BB20B807B
:101F400038BD064A1388013303F03F03138038BDC0
:101F50000A0300200C0300200603002008030020D1
:101F6000044A13889BB2FF2B9ABF1088C0B2FF208F
:101F7000704700BF06030020034618B31348B0F8AB
:101F800000C01FFA8CF2D2B110B4114C1149228852
:101F900092B202EB420201EB82022188013101F090
:101FA0003F01218001885DF8044B013989B201802D
:101FB00007CA4FF0010C83E807006046704794465B
:101FC0006046704784466046704700BF06030020A5
:101FD000080300200C0300200E289ABF024B53F880
:101FE00020000248704700BFBC16010864160108B3
:101FF0000249034A00230B6013707047100600204B
:102000000C060020D8B10E4A38B5116804460123E9
:1020100001388340194208D00C2C18BF0820BDE8B5
:10202000384008BF0920FFF723BC1168054D0B435A
:102030000A20214613602C70FFF764FFECE770471D
:10204000100600200C06002000B9704710B5224C85
:102050000146236801380122824023EA02030B2053
:102060002360FFF74FFF2368D3B1180522D4590529
:1020700019D49A0520D4DC0520D4180620D459069A
:1020800020D49A0620D4DC0612D418071ED459078F
:102090001ED49A071ED413F0010318BF012303D1E5
:1020A0000E4A137010BD0B230C4ADBB2137010BD27
:1020B0000523F9E70C23F3E70A23F5E70923F3E700
:1020C0000823F1E70723EFE70623EDE70423EBE717
:1020D0000323E9E70223E7E7100600200C060020AF
:1020E00008B5064A064B00210B2011601970FFF756
:1020F00009FFBDE808400120FFF7BABB1006002029
:102100000C060020024B1868003818BF01207047E9
:1021100010060020014B1878704700BF0C06002005
:10212000014B1868704700BF100600200C289ABFAA
:10213000024B53F820000248704700BFF816010810
:10214000641601080000000038B5032303700D6811
:102150000446E86AFEF70EFA16A3D3E90023FEF759
:1021600083FAFEF759FDEA6A60800023013A2A6487
:1021700001210022E36023616361A361E3612362C3
:102180006362A362E36223636363A363E363236421
:10219000A365074860640A23C4E91722C4E9192229
:1021A000C4E91B11C4E91D1338BD00BFAFF30080A3
:1021B000CDCC4C3FCDCCCCCCCCCCEC3F0000000007
:1021C0002DE9F8432DED048BB0EE608AF0EE408AE5
:1021D000F0EE400AB0EE480A8146F0EE419A884699
:1021E00015460DF045FFB5EEC00AF1EE10FA10EEFF
:1021F000100A08D5FEF7E0F955A3D3E90023FEF74E
:102200007DF8FEF729FDFEF7D7F953A3D3E90023A4
:1022100006460F46FEF728FAFEF71EFD28EE088A4E
:1022200000EE100A0DF0B0FFA8EEA88AFDEEC07A0D
:10223000F1EEC88A17EE904A0134062CA8BF062496
:10224000013C2046FEF7A6F93DA3D3E90023FEF7A3
:102250000BFA02460B4630463946FEF74DF8FEF7BC
:10226000FBFCDFED397A68EEA78A09EE100AFEF76B
:10227000A3F988EEA98A02460B4631A1D1E90001F3
:10228000FEF73AF8FEF7E8FC00EE100A0DF036FF14
:10229000F0EE408AB0EE490A0DF030FF68EE288A71
:1022A00028EE008AF7EE007A38EE887AB4EEE77A04
:1022B000F1EE10FADDBF77EEC77AB6EE007A67EE80
:1022C000877ADFED227A042C32D8DFE804F0151A81
:1022D000232A030078EEA78AF0EE676A38EE287AA0
:1022E000F0EE687ABDEC048BC9ED007A88ED007AD7
:1022F000C5ED006ABDE8F88338EEA77A78EE076A84
:10230000F0E738EE278AB0EE677A78EE886AF0EE6A
:10231000487AE7E778EEA76AB0EE677A78EE267A31
:10232000E0E738EE277AF0EE676A78EE877AD9E749
:1023300078EE276A38EEA67AD4E700BFAFF30080C4
:1023400065732D3852C1F03FD7B3DD3F0000000068
:10235000182D4454FB211940C5ACAEA4C88EEE3FE5
:10236000408810B48142084C28BF0146824224684C
:1023700028BF0246984228BF18466163A263E06303
:102380005DF8044B704700BFF01A002030B52DED0A
:10239000048B90ED169A90ED0A8A85B0B0EE490A4A
:1023A00004460D460DF066FE68EE008AB0EE490A5E
:1023B000C4ED0B8A0DF0A2FE68EE000A95ED1D1A21
:1023C000C4ED0C0A03AA02A901A8B0EE680AFFF73F
:1023D000F7FE6088DDED026A9DED037A164B9DEDF8
:1023E000016A1C6807EE900AF8EEE77A67EEA66AC3
:1023F00027EE877AFCEEE66A67EE867A16EE903A6A
:10240000BCEEC77A99B2FCEEE77A17EE103A9AB2B0
:1024100017EE903A81429BB228BF0146824228BF04
:102420000246834228BF03466363A163E26305B0AB
:10243000BDEC048B30BD00BFF01A0020000000008E
:10244000F0B52DED048BD1ED179A91ED187AF0EEE1
:10245000007AF0EE696AE7EE276A044685B0C4EDBB
:10246000039A16EE900A0D4617461E46FEF7A4F88C
:1024700050A3D3E90023FEF7F7F8FEF7EDFBD5ED07
:10248000098A2061B0EE680A08EE100A0DF0F2FD2C
:10249000B0EE409AB0EE680A0DF030FE68EE096AC0
:1024A00028EE008A95ED1C7A94ED086AA9EE898AD7
:1024B0000023E36169EE807AB4EEC76A76EEE75AEC
:1024C000F1EE10FAF0EE408A84ED058AC4ED065A6A
:1024D00006DCB1EE477AB4EEC76AF1EE10FA62D5C7
:1024E00084ED087A77EEE67AB1EE480A77EE877ADD
:1024F0003846C4ED107A84ED0F0A01F069FCF0EE65
:10250000407A3046C4ED097A94ED100A01F060FC7F
:10251000F0EE407A94ED097A95ED1D1AC4ED0A7A31
:1025200067EE890A28EEC00AE7EE280A03AA02A984
:10253000A7EE090A01A8C4ED0C0A84ED0B0AFFF707
:102540003FFE6088DDED026A9DED037A184B9DED3C
:10255000016A1C6807EE900AF8EEE77A67EEA66A51
:1025600027EE877AFCEEE66A67EE867A16EE903AF8
:10257000BCEEC77A99B2FCEEE77A17EE103A9AB23F
:1025800017EE903A81429BB228BF0146824228BF93
:102590000246834228BF03466363A163E26305B03A
:1025A000BDEC048BF0BDB0EE467A9BE7AFF3008044
:1025B000F01A00201D339045A779E23F000000008B
:1025C0002DE9F041066E2DED068B1F46036F013697
:1025D0009E4284B0044606660D46904680F0AF8069
:1025E000D0ED089A95ED17AA95ED187A84ED03AA17
:1025F000F0EE007AF0EE4A6AE7EE276A16EE900AED
:10260000FDF7DAFF5DA3D3E90023FEF72DF8FEF70F
:1026100023FBD5ED098A2061B0EE680A08EE100AA6
:102620000DF028FDB0EE409AB0EE680A0DF066FDA0
:1026300068EE096A28EE008A95ED1C7AAAEE098AEE
:102640000023E3616AEE007AB4EEE97A36EEE76AD7
:10265000F1EE10FAF0EE408A84ED066A84ED058A08
:1026600006D4B1EE477AB4EEE97AF1EE10FA63DD02
:1026700084ED087A77EEE67AB1EE480A77EE877A4B
:102680004046C4ED107A84ED0F0A01F0A1FBF0EE94
:10269000407A3846C4ED097A94ED100A01F098FBAF
:1026A000F0EE407A94ED097A95ED1D1AC4ED0A7AA0
:1026B00069EE270A20EE680AE8EE870A03AA02A953
:1026C000A9EE070A01A8C4ED0C0A84ED0B0AFFF776
:1026D00077FD6088DDED026A9DED037A264B9DED66
:1026E000016A1C6807EE900AF8EEE77A67EEA66AC0
:1026F00027EE877AFCEEE66A67EE867A16EE903A67
:10270000BCEEC77A99B2FCEEE77A17EE103A9AB2AD
:1027100017EE903A81429BB228BF0146824228BF01
:102720000246834228BF03466363A163E26304B0A9
:10273000BDEC068BBDE8F081B0EE697A9AE7D1ED89
:102740000C7A90ED020A30EE670A0023036680EDF2
:102750000E0A109801F03CFBD4ED117A94ED087A42
:10276000F7EE009A79EEE79A69EE879AE7EE809A9B
:10277000C4ED089A36E700BFF01A00201D339045DB
:10278000A779E23F00000000F0B5C66D2DED068B85
:102790001F46C36E01369E4285B00446C6650D468F
:1027A00080F0D180226E236F01329A42226680F03F
:1027B000AE80D4ED089A95ED17AA95ED187A84EDC0
:1027C00003AAF0EE007AF0EE4A6AE7EE276A16EE08
:1027D000900AFDF7F1FE65A3D3E90023FDF744FF5E
:1027E000FEF73AFAD5ED098A2061B0EE680A08EEE4
:1027F000100A0DF03FFCB0EE409AB0EE680A0DF002
:102800007DFC68EE096A28EE008A95ED1C7AAAEE36
:10281000098A0023E3616AEE007AB4EEE97A36EEC3
:10282000E76AF1EE10FAF0EE408A84ED066A84ED74
:10283000058A06D4B1EE477AB4EEE97AF1EE10FAE1
:1028400062DD84ED087A77EEE67AB1EE480A77EE3B
:10285000877A3846C4ED107A84ED0F0A01F0B8FA91
:10286000F0EE407A1098C4ED097A94ED100A01F068
:10287000AFFAF0EE407A94ED097A95ED1D1AC4EDA9
:102880000A7A69EE270A20EE680AE8EE870A03AAA8
:1028900002A9A9EE070A01A8C4ED0C0A84ED0B0AEF
:1028A000FFF78EFC6088DDED026A9DED037A2E4B0A
:1028B0009DED016A1C6807EE900AF8EEE77A67EE74
:1028C000A66A27EE877AFCEEE66A67EE867A16EE4F
:1028D000903ABCEEC77A99B2FCEEE77A17EE103A5E
:1028E0009AB217EE903A81429BB228BF01468242CB
:1028F00028BF0246834228BF03466363A163E263A5
:1029000005B0BDEC068BF0BDB0EE697A9BE7D5ED66
:102910000C7A94ED020A119830EE670A00232366C0
:1029200084ED0E0A01F054FAD4ED117A94ED087A90
:10293000F7EE009A79EEE79A69EE879AE0EE279A29
:10294000C4ED089A37E792ED060AD1ED077A30EE2A
:10295000670A0023C36580ED0D0A129801F038FA6A
:1029600084ED020A1EE700BFF01A00201D339045D7
:10297000A779E23F10B500220124C0E92742C0E94F
:1029800029420C4601F034F8032200232270A3658B
:10299000A3626365A36410BDF8B510EE107A2DED47
:1029A000048B064638460C461546FDF705FE86A301
:1029B000D3E90023FDF758FEFEF74EF9D6ED0C8A59
:1029C000D6F8A830E06408EE100AB0EEE87A052BDD
:1029D00000F2E780DFE803F03043617E9703D4ED37
:1029E000127A06EE107A76EE277AF5EE006AF4EEA9
:1029F000E67AF1EE10FAC4ED127A2DDBDFED767A8D
:102A0000B4EEE77AF1EE10FA26D896ED070A002721
:102A100086ED230A2770D6ED227A70EE277AF6EE3D
:102A2000000A67EEA00AB7EE001A284603F016FF68
:102A30000123C6E928370FE0D4ED0A7AB1EE047A13
:102A4000F4EEC77AF1EE10FA40F1898006EE907A42
:102A5000E6EE877AC4ED0A7ABDEC048BF8BD94EDFE
:102A6000169A19EE100AFDF7A7FD57A3D3E9002324
:102A7000FEF780F850B1DFED587AF4EEE78AF1EE18
:102A800010FAACBF03230223C6F8A83038EE098A37
:102A900084ED168ABDEC048BF8BDA56D2846FDF7C4
:102AA0008BFD4BA3D3E90023FEF75AF848B1DFEDC5
:102AB0004B7AF4EEE78AF1EE10FA68D80323C6F8F1
:102AC000A83007EE905A77EEC87ABDEC048BC4EDBF
:102AD000167AF8BDD4ED127A07EE107A77EE277ADF
:102AE000B7EE007AF4EEC77A0025F1EE10FAA5658C
:102AF000C4ED127AB0DB304600F07AFF0423A564FF
:102B0000C6F8A830A8E7D4ED127A237806EE907ABA
:102B100076EEA77A012BC4ED127A03D0304BA36076
:102B200001222270F5EE006AF4EEE67AF1EE10FA78
:102B300092DBDFED297AB4EEE77AF1EE10FA8BD86A
:102B4000D4ED027AF169C6F8881000230522F1EE6F
:102B5000677AC6F8A820C4ED027AA3647CE7D4EDB6
:102B6000127A84ED0A7A06EE107A76EE277AF7EE7C
:102B7000006AF4EEE67AF1EE10FAC4ED127AFFF68E
:102B80006BAF00230122C6F8A820A36464E70023EA
:102B9000002203212170A3626362A365C6E9282293
:102BA0005AE701220023C6E92723C6E92923304634
:102BB00000F01EFF002303222270A365A362636559
:102BC000A36449E7AFF30080182D4454FB2119405A
:102BD000182D4454FB2119C00AD7233C0AD723BC23
:102BE000CDCC4C3D00487047D40F010800487047D9
:102BF000E80F010800487047FC0F010800487047C3
:102C00001410010810B500248AB0CDE90444CDE9C0
:102C10000644224B0894D96C41F00401D964D96C64
:102C200001F0040100910099D96C41F02001D964B0
:102C3000D96C01F0200101910199D96C41F0010199
:102C4000D964D96C01F0010102910299D96C41F06B
:102C50000201D964DB6C03F00203224603934FF4B4
:102C600000414FF09040039B05F0B2FE4FF400424C
:102C7000012304A94FF09040CDE90423CDE9064497
:102C800005F0D4FC4FF4806200230548069404A9A3
:102C9000CDE9042305F0CAFC0AB010BD00100240C3
:102CA00000080048094B0A480A4ADFF834C09A6015
:102CB00042F21071C3E90001C82207480749C3F86E
:102CC0000CC0186159619A61704700BF1806002056
:102CD000F0D8FFFFCDCC4C3E0AD7A33B0AD7A33C8C
:102CE0009A99993E094B0A480A4ADFF834C09A601B
:102CF00042F21071C3E90001C82207480749C3F82E
:102D00000CC0186159619A61704700BF1806002015
:102D1000F0D8FFFFCDCC4C3E0AD7A33B0AD7A33C4B
:102D20009A99993E0048704718060020002858D00C
:102D3000D0E900239A42844653DA2A498A4250DB7A
:102D40004CF250318B424CDC9B1A632B49DDD0EDA9
:102D5000027AF5EEC07AF1EE10FA42D4B7EE007ABC
:102D6000F4EEC77AF1EE10FA3BDC90ED037AF4EE64
:102D7000C77AF1EE10FA34DCF0EE087AB4EEE77AB6
:102D8000F1EE10FA2DDCD0ED047AF5EEC07AF1EE1A
:102D900010FA26D99FED147AF4EEC77AF1EE10FA04
:102DA0001FDCD0ED057AF5EEC07AF1EE10FA18D9F5
:102DB000B7EE007AF4EEC77AF1EE10FA11DC83690F
:102DC00042F20F72013B93420BD8BCE80F0010B4E3
:102DD000064C0FC49CE8070084E807005DF8044B2C
:102DE00070477047B03CFFFFCDCCCC3D18060020AB
:102DF00000284FD0D0E900239A424ADA26498A4275
:102E000047DB4CF250318B4243DC9B1A632B40DD95
:102E1000D0ED027AF5EEC07AF1EE10FA39D4B7EEC1
:102E2000007AF4EEC77AF1EE10FA32DC90ED037A14
:102E3000F4EEC77AF1EE10FA2BDCF0EE087AB4EE7D
:102E4000E77AF1EE10FA24DCD0ED047AF5EEC07AE0
:102E5000F1EE10FA1DD99FED117AF4EEC77AF1EE7A
:102E600010FA16DCD0ED057AF5EEC07AF1EE10FA24
:102E70000FD9B7EE007AF4EEC77AF1EE10FA08DC5B
:102E8000806942F20F73013898428CBF0020012004
:102E900070470020704700BFB03CFFFFCDCCCC3D59
:102EA000002A0ADB81420B46A8BF03468142B8BF15
:102EB0000146C81AB0EB420F01DC002070471344F2
:102EC000891A8B42F9DA264A9342F6DB4CF25032E9
:102ED0009142F2DCCA1A632AEFDD224AD2ED027A6D
:102EE000F5EEC07AF1EE10FAE7D4B7EE007AF4EE20
:102EF000C77AF1EE10FAE0DC92ED037AF4EEC77ACD
:102F0000F1EE10FAD9DCF0EE087AB4EEE77AF1EEE1
:102F100010FAD2DCD2ED047AF5EEC07AF1EE10FAB6
:102F2000CBD99FED117AF4EEC77AF1EE10FAC4DC3A
:102F3000D2ED057AF5EEC07AF1EE10FABDD9B7EE12
:102F4000007AF4EEC77AF1EE10FAB6DC906942F23C
:102F50000F7C01386045B0D8C2E9003101207047CC
:102F6000B03CFFFF18060020CDCCCC3D054A0346FF
:102F70001068984204DC52689342A8BF1346184672
:102F8000704700BF180600200A4BB0EE407A93ED60
:102F9000040AB4EEC70AF1EE10FA0AD4F1EE407A50
:102FA000F4EEC77AF1EE10FAB4BFB0EE470AB0EE15
:102FB000670A70471806002030B40B4D2C68CB17F9
:102FC000411843EBE073E217A14273EB020208DB06
:102FD0006868C21788429A41ACBF0120002030BC0B
:102FE0007047002030BC704718060020054B1A6857
:102FF000904205DB5B689842CCBF002001207047FF
:10300000002070471806002010B5FFF77BF80E4B24
:103010001B78184310F0FF0008D10C4BD3F8A42004
:103020001AB9D3F8A0401CB1012010BD002010BD7A
:10303000074B012203201A70FEF71AFC07202146D5
:10304000FEF760FF0120F0E735060020F0070020C2
:10305000340600200000000010B594B03822002192
:1030600006A80AF042FA0020CDE90100CDE90300EC
:10307000059005F043FD9FED147B02235522CDE919
:103080000F320324082206A88DED067BCDE90D340E
:10309000CDE91123139305F0ABFD08B172B6FEE73D
:1030A000042103460F220DEB0100CDE90124CDE9F7
:1030B0000333059306F01AF808B172B6FEE714B0B0
:1030C00010BD00BFAFF30080010000000000010050
:1030D0002DE9884803F0BAFD9FEDD18AD14ED24C3C
:1030E000D24FDFEDD38ADFF8D893DFF8D883FFF72C
:1030F000B3FFFFF787FD03F0E5F9FDF7C9FF00F027
:10310000DBFD00F0F7FD03F0FFFAFEF739F803F0FE
:103110007FF903F075FCC748C749C84AC84B00256A
:10312000056081ED008A82ED008AC64983ED008A40
:10313000C54BC64A81ED008A1A60C54AC54BC649CF
:10314000116030464FF07E521A6000F061FCC349B6
:103150002046FEF7F9FFC248B3EE090A00F096FEDA
:10316000BF48B0EE480A00F099FEBD48B0EE480AEC
:1031700000F09CFE97ED0B0AD4ED1B7AB848F8EEF0
:10318000677AB8EE400A20EE270A20EE280A00F0FF
:1031900095FE9FEDB40AB24800F0A8FEB048B5EE27
:1031A000000A00F093FE9FEDB00AAD4800F096FED5
:1031B0009FEDAE0AAA4800F09DFEA948B0EE480A6D
:1031C00000F0B0FEA648B5EE000A00F057FE9FEDF5
:1031D000A80AA84800F05AFE9FEDA70AA54800F0EB
:1031E0005DFEA448B0EE480A00F060FE97ED0B0AC1
:1031F000D4ED1C7A9F48F8EE677AB8EE400A20EECC
:10320000270A20EE280A00F059FE9FED9C0A9948F3
:1032100000F06CFE9748B0EE080A00F057FE9FEDF4
:10322000920A944800F05AFE9FED900A914800F0EF
:1032300061FE9048B0EE480A00F074FE8D48B0EE92
:10324000080A00F01BFE8E48B3EE090A00F01EFECD
:103250009FED8C0A8A4800F021FE8948B0EE480AAA
:1032600000F024FE97ED0B0AD4ED1D7A8448F8EEA9
:10327000677AB8EE400A20EE270A20EE280A00F00E
:103280001DFE9FED7E0A7E4800F030FE7C48B1EEC8
:103290000C0A00F01BFE9FED740A794800F01EFE38
:1032A0009FED720A764800F025FE7548B0EE480A98
:1032B00000F038FE7248B1EE040A00F0DFFD7248FB
:1032C000B3EE090A00F0E2FD9FED6E0A6E4800F0D1
:1032D000E5FD6D48B0EE480A00F0E8FD97ED0B0AF9
:1032E000D4ED1D7A6848F8EE677AB8EE400A20EE11
:1032F000270A20EE280A00F0E1FD9FED600A6248EF
:10330000DFED628A00F0F2FD5F48B1EE0C0A00F0DA
:10331000DDFD9FED550A5C4800F0E0FD9FED530A8E
:10332000594800F0E7FD5848B0EE480A00F0FAFDB1
:10333000B1EE040A544800F0A1FDFEF793FAFEF73F
:1033400057FEFEF717FBFEF7CFFD02F0ADFF03F0CF
:10335000F1FBFFF7A7FC02F095FC02F0FFFCFEF783
:103360005FFCFEF7B1FAFEF7A1F800F0B5FEFEF73C
:103370005DFCFFF7D7FC2946C36833670120FEF7E1
:10338000C1FDFEF795F8424805F0A0FB414805F065
:103390009DFB2946314806F007FC29462F4807F0D7
:1033A0007DF904212D4806F0FFFB04212B4807F08E
:1033B00075F90821294806F0F7FB0821274807F08E
:1033C0006DF9284600F000FB0C21244806F0C6FAEF
:1033D000314804F0EFF9314804F05AFA29463048F0
:1033E000304D06F0BBFAD7ED0B7A9FED2F7A2F4BBD
:1033F0002F4883ED008AF8EE677A2E492E4A2F4F28
:1034000080ED008A67EE877A81ED008AFCEEE77A2C
:1034100017EE903A9BB2638041F288331360B0E0BC
:1034200000000000F007002074070020002C01407D
:10343000B91D4A3254060020500600204C060020D8
:103440004806002044060020400600200AD7233CFE
:103450003C060020380600200AD723BCF01A0020C2
:1034600014070020ACC5A7360000C84200007A440B
:10347000C3F5F040DC06002000A0A6446F12833A9A
:10348000A406002000708A456C06002000247449C0
:10349000E0080020A008002018020020840200207C
:1034A000A41A0020350600206666663F60060020EC
:1034B000680600206406002058060020340600201C
:1034C0004C070020000800482B7893B1D6F8A030B4
:1034D00023B1D9F82430002B40F0C280D6F89C30BC
:1034E0003BB1D6F8A43023B9D6F8A030002B00F0B9
:1034F000EB8000F071FE2B78B3B9FEF703FE18B92C
:1035000096F89830002B5DD10023834884ED078A1C
:103510001A46194684ED088A84ED098A84ED0A8AE0
:1035200084ED028AFEF71CFF02F016FF03F022FB77
:1035300002F0BCFB03794BB1C3793BB94FF4806116
:10354000404605F03FFA8246002855D02B78B3B9A3
:10355000FEF7D8FD18B996F89830002B3FD100231C
:103560006D4884ED078A1A46194684ED088A84ED71
:10357000098A84ED0A8A84ED028AFEF7F1FEFEF7DD
:103580004BF902F093FB03794BB1C3793BB94FF48C
:103590008061404605F016FA8246002846D03B7806
:1035A000002B91D0FEF7AEFD00288DD1D6F89C30CF
:1035B000002B89D10122584958483B702A70FFF7E7
:1035C000D9F981E7FEF75AF907289DD0FEF756F999
:1035D000012899D0FEF752F90928A5D194E7FEF702
:1035E0004DF90728BBD0FEF749F90128B7D0FEF7FF
:1035F00045F90928C3D1B2E70C2087F800A085F867
:1036000000A086F898A0FEF7FDFC434884ED078AE9
:1036100053465246514684ED088A84ED098A84ED6A
:103620000A8A84ED028AFEF79BFE8FE70C2087F85A
:1036300000A085F800A086F898A0FEF7E3FC3648C5
:1036400084ED078A53465246514684ED088A84ED3C
:10365000098A84ED0A8A84ED028AFEF781FE9EE7DC
:10366000D6ED227A96ED237A67EEA87A27EE287AAD
:10367000BDEEE79AFDEEC79A19EE100A19EE901A00
:103680004FF4FA72FFF70CFC824678B34FF0000B50
:10369000584687F800B0FEF737F90120FEF762F9C7
:1036A00019EE903A19EE102A4FF0010A991A0820E3
:1036B00086F899A085F800B0FEF724FC5046FEF786
:1036C00041F8FEF74DFB14E7134884ED078A1A46CC
:1036D000194684ED088A3B7084ED098A2B7084EDCD
:1036E0000A8A84ED028AFEF73BFE02E70B2085F88A
:1036F00000A0FEF787FC084884ED078A534652462F
:10370000514684ED088A84ED098A84ED0A8A84EDA5
:10371000028AFEF725FEECE674070020F007002081
:103720000368B3F1A04F00D0704770B5614C624A96
:103730006249634D8CB0204600F018FA614994ED5F
:10374000040A204600F0BCF95F4894ED040A03F037
:10375000C3F85D492A78204602F036FB002840F085
:103760008C802B78002B00F08580584E94ED065A03
:103770009FED574AD4ED245A94ED0C6AD4ED256A96
:1037800096ED087AD6ED067ADFED524A27EE047AF6
:1037900067EE847ABDEEC77A002365EEA45A26EE62
:1037A000246A66EEA46AFDEEE77A059317EE103AF6
:1037B000BDEEC55AFDEEE55ABDEEC66AFDEEE66AFF
:1037C000ADF8283017EE903A8DED065ACDED075A38
:1037D0008DED086ACDED096AADF82A30FEF74EF896
:1037E0008DF82C00FEF796FC034605A88DF82D30C9
:1037F00002F068FD2B78002B29D03378032B50D8AA
:10380000DFE803F0180F08022A493048FEF7BEFD32
:103810000CB070BD304B314A26492C48FEF710FEE3
:10382000F6E72F4C2C4B2D4A224928480094FEF7EE
:10383000C7FEEDE72B482A49274C284B224A009423
:10384000CDE901101B492148FEF79EFFE0E7FDF797
:103850003FFE0028D1D1002284F898000346F2618F
:10386000014632627262B262B26002463046FEF7D0
:1038700077FDCDE7FDF772FF77E714481A4900237B
:10388000002284F898300B70C261194602624262CD
:10389000826282601A462B700CB0BDE87040FEF761
:1038A0005FBD002030620C4B0C4A02490748FEF70E
:1038B000C7FDADE7F00700201802002084020020B9
:1038C00035060020581A00204C07002074070020FD
:1038D00000007A44002474496C060020A4060020ED
:1038E000DC060020140700203406002008B5036819
:1038F000B3F1A04F00D008BD03F0BEFA034A83B273
:1039000013801046BDE8084000F0BEB9F007002063
:1039100038B50368B3F1804F00D038BD037F012B69
:10392000FBD1174D174C2B6801332B60A368013373
:10393000A360A368092B1CD813498B6E01338B66D7
:103940008B6E092B0DD900238B66D4F8A03043B9B8
:10395000D4F8A4302BB19FED0D0A0D4A0948FFF7AA
:103960001BF82A684EF660239A4284BF00232B601E
:1039700038BD00230749A360204600F097F9DBE734
:103980005C060020F0070020740700206F12833AC5
:103990004C07002084020020084A0368934200D0AC
:1039A00070471B68064A13F0100F536902D0013BA1
:1039B0005361704701335361704700BF00080040F6
:1039C000F007002072B6FEE710B4084C2368586276
:1039D0001A6842F004021A60DA6842F001022046D6
:1039E0003C215DF8044BDA6006F028BA581A002032
:1039F000064A1168002300224A6242618361C36162
:103A000003624362C3620363704700BF581A002019
:103A10000022244B9FED247A244910B48260027363
:103A2000D3ED0B7A41634FF07E548463F8EE677AEE
:103A30001F4C04641F4C446467EE877A1E4C01657A
:103A400000231E490280C0E9152443674360C0ED8E
:103A5000047A426183610362C36143628362C36229
:103A60000363C3638364C364C36503664366836699
:103A7000C3660167C0E92722C0E929225DF8044B2B
:103A8000A0F87820C367C0F88030C0F88430C0F850
:103A90008830C0F88C30C0F89030C0F89430A0F86E
:103AA00098207047002C0140B91D4A32CDCCCC3D46
:103AB0000000F0420060EA46A0099709000040407B
:103AC000F8B50D6804466369696A62699342FAD180
:103AD00041EA034107EE901ADFED236AD4ED074A6D
:103AE00094ED0D5A94ED0C4AC4ED084AF8EEE77ACD
:103AF000B7EE007A67EEA66A37EE457A36EEE46AEC
:103B000027EE047AC6EE005A94ED134A94ED126A39
:103B1000C4ED067A36EE446AC4ED076A76EE277A7B
:103B2000C4ED0B5A17EE900AF0EE477AE5EE257ACF
:103B3000C4ED0C7AFCF740FD09A3D3E90023FCF7A0
:103B400093FD0646606C0F46FCF736FD02460B46B9
:103B500030463946FCF7B2FEFDF77EF86062F8BDEC
:103B6000182D4454FB211940BD37863538B50B4616
:103B7000044609211846154603F00CFF0921A4F854
:103B80005400284603F006FFB4F85430DFED3D5AE8
:103B9000D4ED174A94ED185A06EE903AB4F858301E
:103BA00007EE103AB4F85A3080B207EE903A06EEBB
:103BB000100AB8EE477AF8EE666AF8EE677AB8EE61
:103BC000466A76EEC76A36EE676A66EEA56AD4ED97
:103BD000147AC4ED1A6A26EE256AF7EE005A75EEDD
:103BE000E75A26EEA77A66EE277AA4EEA57AA4F81D
:103BF0005600E5EE857AD4ED205A84ED1B6AB4EECA
:103C0000E57AF1EE10FAC8BFF0EE475AF4EEE57A25
:103C100077EE276AC8BF84ED207AF1EE10FA94EDB2
:103C2000216AC8BFC4ED207AF1EE666AC8BFF0EE23
:103C3000675AF4EEE56AF1EE10FAB4EEC67AC8BF40
:103C4000C4ED206AF1EE10FA48BFB0EE476AF4EE18
:103C5000C67A48BF84ED217AF1EE10FA48BFB0EE83
:103C6000676AF4EEC66A48BFC4ED217AF1EE10FA35
:103C700084ED177AC4ED187AC4ED196A48BFC4ED13
:103C8000216A38BDA69B443D03889FED077A07EE65
:103C9000903AF8EE677A012367EE877A0373C0EDF6
:103CA000017AC0ED1D7A7047AE47093C00220280C0
:103CB000084603F0DFBC00BF0C4810B540220C4C96
:103CC000826000234FF400314FF44042C0E90043CA
:103CD000C0E90912036103758361C36204F07EFECB
:103CE00000B910BDBDE81040FFF76CBEE008002031
:103CF000000301400C4810B540220C4C82600023A8
:103D00004FF400314FF44042C0E90043C0E90912CA
:103D1000036103758361C36204F060FE00B910BDE6
:103D2000BDE81040FFF74EBEA0080020040301408C
:103D300000B50268244989B000238A42CDE90233E4
:103D4000CDE90433069305D0204B9A421BD009B02D
:103D50005DF804FB03F1804303F504339FED167B0C
:103D6000DA6C42F00102DA64DB6C03F001030093C9
:103D700002A94FF090408DED027B009B04F056FCB1
:103D800009B05DF804FB03F58633FC33DA6C42F0CE
:103D90000102DA64DB6C9FED0A7B03F001030193FF
:103DA00002A94FF090408DED027B019B04F03EFC98
:103DB00009B05DF804FB00BF0E0000000300000026
:103DC000E000000003000000000301400403014084
:103DD000D0ED087AF1EE676AF4EEC06AF1EE10FAFF
:103DE000B0EE407A06D8F4EEC07AF1EE10FAA8BF31
:103DF0009FED217AD0ED077AD0ED016A90ED036A4C
:103E000066EEA76AD0ED007AA7EE266AD0ED046AC6
:103E1000F4EEC66AF1EE10FA67EE277A08D4F1EEF6
:103E2000666AF4EEC66AF1EE10FAB8BFF0EE466AC2
:103E300036EEA76A90ED050AB4EEC60AF1EE10FA66
:103E400006D4B1EE400AB4EEC60AF1EE10FA0BDD6C
:103E500070EE677A67EE877AF5EEC07AF1EE10FAC7
:103E600004D980ED0D0A7047B0EE460AC0ED036A32
:103E700080ED0D0A704700BF00000000B5EEC00ADB
:103E8000F1EE10FA88BF80ED040A7047B5EEC00A63
:103E9000F1EE10FA58BF80ED000A7047B5EEC00A87
:103EA000F1EE10FA58BF80ED010A7047B5EEC00A76
:103EB000F1EE10FA58BF80ED020A7047B5EEC00A65
:103EC000F1EE10FA88BF80ED070A7047B5EEC00A20
:103ED000F1EE10FA88BF80ED050A7047B5EEC00A12
:103EE000F1EE10FA88BF80ED060A704780ED080AEF
:103EF000704700BF9FED0A7A90ED076AC7EE007A1F
:103F0000F7EE006A37EE867AC6EE077AF4EEE67AC6
:103F1000F1EE10FA88BFF0EE667AC0ED0A7A7047CB
:103F200083F9223EB5EEC00AF1EE10FA88BF80EDAB
:103F30000C0A704770B582B00025019510B1037866
:103F4000044613B9002002B070BD0E4609F0A0FB74
:103F50000A22056001A9204608F02CFD054609F05B
:103F600097FB0368002BEDD1019BA342EAD01B789D
:103F7000002BE7D10120356002B070BD00B599B0CB
:103F80000346094A6021684609F036FA6846FCF79C
:103F9000A7F90246642392B26946044806F0A4FCDD
:103FA00019B05DF804FB00BF28100108401B002079
:103FB00000B5A3B00346094A009102A8802109F088
:103FC0001BFA02A8FCF78CF90246642392B202A9FC
:103FD000034806F089FC23B05DF804FB34100108A7
:103FE000401B002000B5A3B00346094A009102A877
:103FF000802109F001FA02A8FCF772F90246642355
:1040000092B202A9034806F06FFC23B05DF804FBEE
:1040100048100108401B002010B50446A2B010EE65
:10402000100AFCF7C9FA2346CDE90001084A8021AD
:1040300002A809F0E1F902A8FCF752F9024664234C
:1040400092B202A9034806F04FFC22B010BD00BF97
:104050005C100108401B002000B599B0FDF780FE00
:1040600040B10E490E486423072219B05DF804EBF5
:1040700006F03ABC0B4B0C4A6021684609F0BCF9CB
:104080006846FCF72DF90246642392B2694604485B
:1040900006F02AFC19B05DF804FB00BF701001089F
:1040A000401B00207810010828100108014B1878E7
:1040B000704700BFA40B002010B50446FCF710F9B0
:1040C000024621460348BDE81040642392B206F040
:1040D0000BBC00BF401B002010B50E480E4B0F4A12
:1040E0000F49002404701C700E4B0C701480214684
:1040F00080220D481C7009F0F8F921464FF4007237
:104100000A4809F0F2F9BDE81040094909480122BE
:1041100006F084BC1F0900201E0900202009002091
:104120001D0900201C090020240B00202409002068
:10413000A40B0020401B002070B51F4C0A282288C9
:1041400008D00D2806D07E2A0ED81C49531C88544E
:10415000238002E082B900232380BDE87040184923
:104160001848012206F05ABC174A1378002143F080
:10417000010321801370F0E7144D104900238B5484
:104180002B78032B05D9104A137843F002031370E0
:10419000E1E70F4E0F4B3078013203EBC01009F00E
:1041A000A4FA3378013303F0030333702B7801331F
:1041B000DBB22B70CFE700BF20090020240B0020CA
:1041C000A40B0020401B00201C0900201D0900201A
:1041D0001F090020240900202DE9F0412DED028B5C
:1041E000DCB072B6B64B1C7800221A70E4B262B62C
:1041F000E10700F1BE80A20700F1A98072B6B14CC0
:1042000023782BB962B65CB0BDEC028BBDE8F081BF
:10421000AD4EAE4B31780CA803EBC11100257F22C7
:104220008DF8AF5009F07BF93378013303F00303C5
:1042300033702378013BDBB2237062B6A4490CA82B
:1042400009F080F9A2498046284609F07BF9A04987
:104250000446284609F076F99D490746284609F0A4
:1042600071F90646B8F1000F00F0188102F070FCF9
:1042700098494046FBF7D4FF002840F08C80002C82
:1042800000F0C58194492046FBF7CAFF002800F0E2
:10429000618192492046FBF7C3FF002800F0498264
:1042A0008F492046FBF7BCFF002800F095828D491E
:1042B0002046FBF7B5FF002800F0BA818A49204666
:1042C000FBF7AEFF002800F0898388492046FBF702
:1042D000A7FF002800F0F18385492046FBF7A0FFE7
:1042E000002800F0F08483492046FBF799FF00285E
:1042F00000F0AA8580492046FBF792FF002800F0D5
:10430000AD867E492046FBF78BFF002800F04387EF
:104310007B492046FBF784FF002840F05187794B0A
:10432000794A93F89810764B003918BF0121009113
:104330002CA8802109F060F82CA8FBF7D1FF0246D9
:10434000642392B22CA9714806F0CEFA5BE72CAD3B
:104350006F4B704A6021284609F04EF82846FBF75B
:10436000BFFF0246642392B22946684806F0BCFAB1
:1043700044E72CAD684B674A6021284609F03CF8B9
:104380002846FBF7ADFF0246642392B229465F48F8
:1043900006F0AAFA2FE761494046FBF741FFF8B95A
:1043A0006CB14D492046FBF73BFF002800F06482CA
:1043B0004A492046FBF734FF002800F04E81584B55
:1043C000544A60212CA809F017F82CA8FBF788FFA5
:1043D0000246642392B22CA94C4806F085FA12E7F3
:1043E00050494046FBF71CFF002840F0FF80002C9E
:1043F00000F08E814C492046FBF712FF002800F0A8
:10440000E4824A492046FBF70BFF002800F03F8377
:1044100047492046FBF704FF002800F03D8445494A
:104420002046FBF7FDFE002800F0F78442492046B5
:10443000FBF7F6FE002800F0FA8540492046FBF71E
:10444000EFFE002800F09B863D492046FBF7E8FE82
:104450000546002800F076873A492046FBF7E0FE43
:10446000002801F06A8038492046FBF7D9FE002871
:1044700041F04780002F01F0C5822CA93846FFF794
:1044800059FD002801F0C9812C98FDF7B7F80028E4
:1044900001F0A1822D48FFF70FFEB4E62C4B1D4A18
:1044A00060212CA808F0A8FF2CA8FBF719FF0246F2
:1044B000642392B22CA9154806F016FAA3E600BFB1
:1044C0001C0900201D0900201E09002024090020CD
:1044D000A0100108AC100108B0100108700E01080E
:1044E00094120108B4150108BC120108DC1201087D
:1044F000F0120108FC120108081301081C1301083E
:1045000028130108F007002048100108401B002074
:1045100090100108281001088410010824140108D3
:10452000441501085015010860150108C80E01085E
:10453000D00E0108D80E0108E00E0108B0150108E0
:10454000BC150108C8150108E01501087010010824
:10455000A4100108FEF7E6FB0446002F00F0C78018
:10456000A8493846FBF75CFE002800F01882A649EF
:104570003846FBF755FE002800F06082A349384614
:10458000FBF74EFE002800F0C182A1493846FBF738
:1045900047FE002800F0F1839E493846FBF740FEB5
:1045A000002800F01C859C493846FBF739FE00289E
:1045B00000F0BD8599493846FBF732FE002800F02F
:1045C000988697493846FBF72BFE002800F0548761
:1045D00094493846FBF724FE002840F07487FDF725
:1045E000B5F901468F48FFF7E3FC0CE68E4B8F4A86
:1045F00060212CA808F000FF2CA8FBF771FE0246F2
:10460000642392B22CA98A4806F06EF9FBE5894B27
:10461000864A60212CA808F0EFFE2CA8FBF760FE6C
:104620000246642392B22CA9814806F05DF9EAE5BE
:10463000FDF770FDFDF77AFD7F4A034660212CA847
:1046400008F0DAFE2CA8FBF74BFE0246642392B278
:104650002CA9774806F048F9D5E5002F00F0CB8368
:10466000002E00F0C88375493846FBF7D9FD0024B9
:104670002C943378002840F08D82002B00F0A88322
:1046800009F006F82CAD04600A222946304608F0ED
:1046900091F9044608F0FCFF0368002B40F0998371
:1046A0002C9B9E4200F095831B78002B40F0918359
:1046B000631E022B00F28D83E0B2FDF763F9FDF774
:1046C00031F8FDF74DFB002840F09C815C4B574AC8
:1046D0006021284608F090FE2846FBF701FE0246BE
:1046E000642392B22946524806F0FEF88BE5554BFA
:1046F0004E4A60212CA808F07FFE2CA8FBF7F0FDA5
:104700000246642392B22CA9494806F0EDF87AE5F6
:104710004D4B464A60212CA808F06EFE2CA8FBF7F2
:10472000DFFD0246642392B22CA9414806F0DCF872
:1047300069E501F0BBFA0446002F00F03E844349CE
:104740003846FBF76DFD002800F06481404938468B
:10475000FBF766FD002800F0C5813E493846FBF7AF
:104760005FFD002800F020833B493846FBF758FDE9
:10477000002800F0488439493846FBF751FD0028ED
:1047800000F0E98436493846FBF74AFD002800F07E
:10479000C58534493846FBF743FD002800F098866C
:1047A00031493846FBF73CFD002800F04D872F4982
:1047B0003846FBF735FD002800F0F2872C493846D3
:1047C000FBF72EFD002840F0CA87FDF7C5F801462B
:1047D0002748FFF707FC16E5FDF750F8FDF768F8E6
:1047E000244A034660212CA808F006FE2CA8FBF7FB
:1047F00077FD0246642392B22CA90D4806F074F8A6
:1048000001E500BFCC100108D8100108EC10010828
:10481000FC100108101101082011010830110108D5
:104820004011010850110108641601082810010800
:10483000401B002088120108AC120108DC1201089C
:1048400078100108B81001085415010884110108F6
:1048500094110108B0110108C0110108D811010814
:10486000F811010810120108281201084412010869
:10487000681201089C120108002F00F0F680002E3B
:1048800000F0F380FEF74EFA04460FCC05AD0FC5DD
:1048900094E8070085E80700A8493846FBF7C0FC04
:1048A000002800F02582A6493846FBF7B9FC00280D
:1048B00000F03883A3493846FBF7B2FC04460028D1
:1048C00000F0F483A0493846FBF7AAFC0446002810
:1048D00000F0CE849D493846FBF7A2FC0446002830
:1048E00000F08E859A493846FBF79AFC044600286A
:1048F00000F02D8697493846FBF792FC04460028C5
:1049000000F0FB8694493846FBF78AFC04460028F1
:1049100000F0A88791493846FBF782FC044600283E
:1049200040F08E872C903378002B00F0638708F0DE
:10493000AFFE2CAD04600A222946304608F03AF852
:10494000044608F0A5FE0368002B40F054872C9B1A
:104950009E4200F050871B78002B40F04C87631C70
:1049600002D0012C41F0538060B2FCF7D9FFFCF774
:10497000D9FEFDF7F5F9002840F01783784B794A06
:104980006021284608F038FD2846FBF7A9FC0246BE
:10499000642392B22946744805F0A6FF33E4A06868
:1049A000FBF70AFE654B714ACDE9000180212CA876
:1049B00008F022FD2CA8FBF793FC0246642392B278
:1049C0002CA9694805F090FF1DE402F0C1F8684980
:1049D00065486423072205F087FF14E4FDF7A0FB78
:1049E000644B654A009080212CA808F005FD2CA896
:1049F000FBF776FC0246642392B22CA95A4805F0D4
:104A000073FF00E45A4958486423072205F06CFFFD
:104A1000FFF7F9BB2178594B594A00912CA8802106
:104A200008F0EAFC2CA8FBF75BFC0246642392B278
:104A30002CA94D4805F058FFFFF7E5BBE068FBF7F0
:104A4000BBFD3F4B494ACDE9000180212CA808F06D
:104A5000D3FC2CA8FBF744FC0246642392B22CA999
:104A6000414805F041FFFFF7CEBB464B3D4A602170
:104A70002CA808F0C1FC2CA8FBF732FC02466423EA
:104A800092B22CA9384805F02FFFFFF7BCBBFCF70A
:104A90004DFD0028B6D13C4B324A60212CA808F0CD
:104AA000ABFC2CA8FBF71CFC0246642392B22CA999
:104AB0002D4805F019FFFFF7A6BBFCF79FFF334B0E
:104AC0002D4A009080212CA808F096FC2CA8FBF71A
:104AD00007FC0246642392B22CA9234805F004FF88
:104AE000FFF791BB61782A4B254A00912CA88021C1
:104AF00008F082FC2CA8FBF7F3FB0246642392B279
:104B00002CA9194805F0F0FEFFF77DBB2069FBF7E3
:104B100053FD0C4B154ACDE9000180212CA808F06B
:104B20006BFC2CA8FBF7DCFB0246642392B22CA999
:104B30000D4805F0D9FEFFF766BB00BFCC10010899
:104B4000D8100108EC100108FC1001081011010830
:104B5000201101083011010840110108501101080D
:104B60007810010828100108401B00205C10010883
:104B700070100108BC120108C81201088411010854
:104B800048100108281401086C150108DC120108FE
:104B900094110108002B00F07F8108F079FD2CAD05
:104BA00004600A222946304607F004FF044608F054
:104BB0006FFD0368002B40F070812C9B9E4200F03B
:104BC0006C811B78002B40F06881012C00F265811C
:104BD000BB493846E4B2FBF723FB002800F0F7841A
:104BE000B8493846FBF71CFB002800F04585B6495C
:104BF0003846FBF715FB002800F0C985B349384655
:104C0000FBF70EFB002800F00D86B1493846FBF794
:104C100007FB002800F0D686AE493846FBF700FBBC
:104C2000002800F03D87AC493846FBF7F9FA002828
:104C300000F01B87A9493846FBF7F2FA002800F07C
:104C40000B87A7493846FBF7EBFA002800F04087AE
:104C5000A4493846FBF7E4FA002800F02A87A24965
:104C60003846FBF7DDFA002800F046879F493846B2
:104C7000FBF7D6FA002840F03A87204601F066F8A4
:104C8000C4F10E000421C0B2FDF73CF9FCF74AFD67
:104C9000FFF7E2F9FFF7B7BAFCF760FC00287FF4F2
:104CA000B1AE934B934A60212CA808F0A5FB2CA829
:104CB000FBF716FB0246642392B22CA98E4805F03E
:104CC00013FEFFF7A0BAFCF79FFE7D4B8B4A0090C6
:104CD00080212CA808F090FB2CA8FBF701FB0246D2
:104CE000642392B22CA9844805F0FEFDFFF78BBA2D
:104CF0002C903378002B00F0BC8008F0C9FC2CAD60
:104D0000002303602946304607F076FDB0EE408A66
:104D100008F0BEFC0368002B40F0AC802C9B9E4248
:104D200000F0A8801B78002B40F0A48005A88DED32
:104D3000078AFEF75DF8002800F0508305A8FDF70C
:104D4000F5FF6F4B089A1A67FCF7ECFCFDF708F8C3
:104D5000002840F02A816B4B664A6021284608F003
:104D60004BFB2846FBF7BCFA0246642392B2294665
:104D7000614805F0B9FDFFF746BA6069FBF71CFC16
:104D8000614B624ACDE9000180212CA808F034FB78
:104D90002CA8FBF7A5FA0246642392B22CA9564828
:104DA00005F0A2FDFFF72FBAA1784A4B534A0091B4
:104DB0002CA8802108F020FB2CA8FBF791FA0246D2
:104DC000642392B22CA94C4805F08EFDFFF71BBA64
:104DD0002CAD4F4B474A6021284608F00DFB284672
:104DE000FBF77EFA0246642392B22946424805F058
:104DF0007BFDFFF708BA474B3E4A60212CA808F01C
:104E0000FBFA2CA8FBF76CFA0246642392B22CA999
:104E1000394805F069FDFFF7F6B9FCF7AFFB00284C
:104E20007FF4F0AD3C4B334A60212CA808F0E4FA43
:104E30002CA8FBF755FA0246642392B22CA92E48FF
:104E400005F052FDFFF7DFB9FCF7E4FD1D4B2B4ADF
:104E5000009080212CA808F0CFFA2CA8FBF740FA8C
:104E60000246642392B22CA9234805F03DFDFFF7CA
:104E7000CAB92CAD294B1F4A6021284608F0BCFA5C
:104E80002846FBF72DFA0246642392B229461A48B7
:104E900005F02AFDFFF7B7B92CAD214B154A60216B
:104EA000284608F0A9FA2846FBF71AFA02466423B6
:104EB00092B22946104805F017FDFFF7A4B900BFCC
:104EC000F0120108FC1201080813010884110108FE
:104ED00094110108B0110108C0110108D81101088E
:104EE000F8110108101201082812010844120108E3
:104EF0007C15010828100108401B002048100108FB
:104F0000F007002078100108FC1001085C1001086F
:104F10000C150108F8140108901501083C1401084B
:104F20001815010800242C943378002B00F0AB8076
:104F300008F0AEFB2CAD04602946304607F05CFC5F
:104F4000B0EE408A08F0A4FB0368002B40F09C8080
:104F50002C9B9E4200F098801B78002B40F09480A0
:104F600005A88DED088AFDF743FF002800F05A835D
:104F700005A8FDF7DBFEAC4B089A1A67FCF7D2FBDD
:104F8000FCF7EEFE88B9A94BA94A6021284608F033
:104F900033FA2846FBF7A4F90246642392B2294665
:104FA000A44805F0A1FCFFF72EB9A349A14864234A
:104FB000072205F099FCFFF726B9A04B9C4A602117
:104FC0002CA808F019FA2CA8FBF78AF902466423EA
:104FD00092B22CA9974805F087FCFFF714B9216815
:104FE000974B984A00912CA8802108F005FA2CA82C
:104FF000FBF776F90246642392B22CA98D4805F09E
:1050000073FCFFF700B9E1788F4B904A00912CA810
:10501000802108F0F1F92CA8FBF762F9024664231D
:1050200092B22CA9834805F05FFCFFF7ECB8FCF7BF
:10503000C5FA00287FF4E6AC854B7D4A60212CA898
:1050400008F0DAF92CA8FBF74BF90246642392B278
:105050002CA9784805F048FCFFF7D5B8FCF7E0FC30
:105060007C4B7A4A009080212CA808F0C5F92CA826
:10507000FBF736F90246642392B22CA96D4805F07D
:1050800033FCFFF7C0B82CAD734B694A602128464A
:1050900008F0B2F92846FBF723F90246642392B2DE
:1050A0002946644805F020FCFFF7ADB82C90337812
:1050B000002B00F0A58008F0EBFA2CAD0460294627
:1050C000304607F099FBB0EE408A08F0E1FA036839
:1050D000002B40F096802C9B9E4200F092801B7823
:1050E000002B40F08E8005A88DED098AFDF780FE2B
:1050F000002800F0AF8205A8FDF718FEFCF712FBB0
:10510000FCF72EFE00287FF450AF484B484A602140
:10511000284608F071F92846FBF7E2F802466423B6
:1051200092B22946434805F0DFFBFFF76CB861688F
:105130004A4B444A00912CA8802108F05DF92CA824
:10514000FBF7CEF80246642392B22CA9394805F049
:10515000CBFBFFF758B82179414B3C4A00912CA872
:10516000802108F049F92CA8FBF7BAF8024664231D
:1051700092B22CA92F4805F0B7FBFFF744B8FCF713
:10518000AFFFFCF795F92C492A486423072205F064
:10519000ABFBFFF738B8FCF79BF9324B2B4A00907A
:1051A00080212CA808F028F92CA8FBF799F80246D2
:1051B000642392B22CA91F4805F096FBFFF723B891
:1051C00029492046FBF72CF8002840F05C81164B5B
:1051D0001E4AD3F89C10244B003918BF01210091BE
:1051E0002CA8802108F008F92CA8FBF779F80246D2
:1051F000642392B22CA90F4805F076FBFFF703B8A1
:105200002CAD1A4B0A4A6021284608F0F5F82846CA
:10521000FBF766F80246642392B22946054805F07A
:1052200063FBFEF7F0BF00BFF00700207810010815
:1052300028100108401B002070100108701101089F
:105240001011010834100108C011010848100108AC
:10525000A0150108081301085014010820110108C5
:10526000D81101081C130108301301086814010843
:105270002C903378002B00F09E8008F009FA2CADBA
:1052800004602946304607F0B7FAB0EE408A08F0CD
:10529000FFF90368002B40F08F802C9B9E4200F0AA
:1052A0008B801B78002B40F0878005A88DED0A8A43
:1052B000FDF79EFD002800F0798205A8FDF736FD78
:1052C000FCF730FAFCF74CFD00287FF46EAEC44BBF
:1052D000C44A6021284608F08FF82846FBF700F8FA
:1052E0000246642392B22946BF4805F0FDFAFEF754
:1052F0008ABFFCF71FFBBD4BBD4A009080212CA844
:1053000008F07AF82CA8FAF7EBFF0246642392B271
:105310002CA9B54805F0E8FAFEF775BF6179B54BE1
:10532000B54A00912CA8802108F066F82CA8FAF75D
:10533000D7FF0246642392B22CA9AB4805F0D4FAF9
:10534000FEF761BFAD4C0320FCF792FA2946072017
:10535000FCF7D8FDD4ED067AFDEEE77A012517EECD
:10536000900AFCF7D1FA0120FCF7FCFA84F8995076
:10537000D4ED067AFDEEE77A082017EE901AFCF7D6
:10538000C1FD2846FCF7DEF9FCF7EAFC00287FF4B3
:1053900039AB934B934A60212CA808F02DF82CA828
:1053A000FAF79EFF0246642392B22CA98E4805F0BC
:1053B0009BFAFEF728BF2CAD914B8A4A6021284604
:1053C00008F01AF82846FAF78BFF0246642392B2D7
:1053D0002946854805F088FAFEF715BF894B814AB2
:1053E0006021284608F008F82846FAF779FF0246B7
:1053F000642392B229467C4805F076FAFEF703BF93
:105400002C903378002B69D008F042F92CAD046061
:105410000A222946304607F0CDFA044608F038F94A
:105420000368002B5BD12C9B9E4258D01B78002B2D
:1054300055D105A80594FDF7DBFC002800F0C881D4
:1054400005A8FDF773FCFCF76DF9FCF789FC002853
:105450007FF4ABAD624B634A6021284607F0CCFF76
:105460002846FAF73DFF0246642392B229465E4879
:1054700005F03AFAFEF7C7BEFCF762FA6248FEF79B
:10548000CBFDFEF7C0BE61492046FAF7C9FE0028F1
:1054900040F01381594B584AD3F8A0105B4B0039A8
:1054A00018BF012100912CA8802107F0A5FF2CA88E
:1054B000FAF716FF0246642392B22CA94A4805F077
:1054C00013FAFEF7A0BE5248FEF758FDFEF79BBE4A
:1054D000A1795048FEF786FDFEF795BE2CAD4E4BE8
:1054E000404A6021284607F087FF2846FAF7F8FE71
:1054F0000246642392B229463B4805F0F5F9FEF7CF
:1055000082BE46492046FAF78BFE002840F0938180
:10551000002F00F08E822CA93846FEF70BFD0028E4
:1055200000F04B822C98FCF7C3F8002800F0408272
:105530003B48FEF7C1FDFEF766BEFDF765FD00289E
:1055400000F0B6803648FEF7B7FDFEF75CBE2C9043
:105550003378002B00F0998008F09AF82CAD0460A5
:105560000A222946304607F025FA044608F090F84A
:105570000368002B40F08A802C9B9E4200F08680BE
:105580001B78002B40F0828005A80694FDF730FCC4
:10559000002800F0258205A8FDF7C8FBFCF7C2F83B
:1055A000FCF7DEFB00287FF400AD0D4B0D4A6021B7
:1055B000284607F021FF2846FAF792FE02466423A8
:1055C00092B22946084805F08FF9FEF71CBE204626
:1055D000FCF772FAFCF7A6F8FEF73EFDFEF713BEE5
:1055E0007810010828100108401B00203011010824
:1055F00034100108F811010848100108F0070020D4
:105600007C1401083C1401084011010840130108F2
:105610005C110108101201089414010820160108F9
:1056200070100108B54BB64A6021284607F0E4FE29
:105630002846FAF755FE0246642392B22946B1483D
:1056400005F052F9FEF7DFBDE179AF48FEF7CAFC7D
:10565000FEF7D9BDAD4BAA4A6021284607F0CCFE23
:105660002846FAF73DFE0246642392B22946A54831
:1056700005F03AF9FEF7C7BD2046FCF74BFAFCF7F8
:1056800051F8FEF7E9FCFEF7BEBD2CADA04B9C4ADD
:105690006021284607F0B0FE2846FAF721FE0246B0
:1056A000642392B22946974805F01EF9FEF7ABBD78
:1056B0009848FEF763FCFEF7A6BD97492046FAF727
:1056C000AFFD002840F04281944B954AD3F8A410D6
:1056D000914B003918BF012100912CA8802107F0BF
:1056E0008BFE2CA8FAF7FCFD0246642392B22CA98B
:1056F000844805F0F9F8FEF786BD2C9033789BB30B
:1057000007F0C6FF2CAD04600A222946304607F098
:1057100051F9044607F0BCFF036833BB2C9B9E4243
:1057200023D01B780BBB2046FCF7EEF8FBF7FAFF03
:10573000FCF716FB00287FF438AC7A4B704A6021E6
:10574000284607F059FE2846FAF7CAFD02466423A8
:1057500092B229466B4805F0C7F8FEF754BD72486F
:10576000FEF70CFCFEF74FBD2CAD704B644A602178
:10577000284607F041FE2846FAF7B2FD02466423A8
:1057800092B229465F4805F0AFF8FEF73CBD2046CF
:10579000FCF7F4F9FBF7C6FFFEF75EFCFEF733BD3E
:1057A000217A6348FEF71EFCFEF72DBD614B544A7B
:1057B0006021284607F020FE2846FAF791FD0246B0
:1057C000642392B229464F4805F08EF8FEF71BBDC0
:1057D0004F4B4B4A6021284607F00EFE2846FAF749
:1057E0007FFD0246642392B22946464805F07CF8C4
:1057F000FEF709BD2CAD504B414A6021284607F009
:10580000FBFD2846FAF76CFD0246642392B2294656
:105810003C4805F069F8FEF7F6BC4848FEF7AEFBD9
:10582000FEF7F1BC204600F051FAFBF77BFFFEF7D4
:1058300013FCFEF7E8BC4248FEF7A0FBFEF7E3BC12
:10584000404B2F4A60212CA807F0D6FD2CA8FAF770
:1058500047FD0246642392B22CA92A4805F044F879
:10586000FEF7D1BC2C903378ABB307F011FF2CAD11
:1058700004602946304606F0BFFFB0EE408A07F0CC
:1058800007FF036843BB2C9B9E4225D01B781BBBA4
:10589000B5EEC08AF1EE10FA40F2F080B0EE480AA0
:1058A000FCF738F8FBF73EFFFCF75AFA00287FF4C4
:1058B0007CAB1C4B124A6021284607F09DFD284610
:1058C000FAF70EFD0246642392B229460D4805F010
:1058D0000BF8FEF798BC2CAD1B4B094A60212846FB
:1058E00007F08AFD2846FAF7FBFC0246642392B2D1
:1058F0002946044804F0F8FFFEF785BC501401085F
:1059000028100108401B0020281201086814010813
:1059100094140108D015010854130108F007002061
:10592000481001087810010874120108A814010831
:10593000441201087C140108D0140108FC15010868
:1059400060160108E4140108BC140108B34920469C
:10595000FAF766FC002877D0B1492046FAF760FCD8
:1059600000286BD0AF492046FAF75AFC002800F017
:105970004F81AD492046FAF753FC002800F03C81E6
:10598000AA492046FAF74CFC002800F0ED80A8490F
:105990002046FAF745FC002840F0BD80A54BA448FE
:1059A000197B003918BF0121FEF71CFBFEF72BBC49
:1059B000A148FEF7E3FAFEF726BCA048FEF7DEFAA0
:1059C000FEF721BC204600F089F9FBF7ABFEFEF79D
:1059D00043FBFEF718BC9A48FEF7D0FAFEF713BC5B
:1059E000984B994A6021284607F006FD2846FAF7A9
:1059F00077FC0246642392B22946944804F074FF6F
:105A0000FEF701BC9248FEF7B9FAFEF7FCBB914BDA
:105A10008D4A6021284607F0EFFC2846FAF760FC23
:105A20000246642392B22946884804F05DFFFEF7DF
:105A3000EABB8948FEF7A2FAFEF7E5BB78480021E9
:105A4000FEF7D0FAFEF7DFBBFCF748FA01467348D1
:105A5000FEF7C8FAFEF7D7BB204600F057F9FBF770
:105A600061FEFEF7F9FAFEF7CEBB204600F046F9DC
:105A7000FBF758FEFEF7F0FAFEF7C5BB774B724A0C
:105A80006021284607F0B8FC2846FAF729FC0246B0
:105A9000642392B229466D4804F026FFFEF7B3BB9B
:105AA000204600F023F9FBF73DFEFEF7D5FAFEF79E
:105AB000AABB204600F03AF9C4F10E000221C0B2A0
:105AC000FCF720FAFBF72EFEFEF7C6FAFEF79BBBAB
:105AD000204600F023F9C4F10E000121C0B2FCF70A
